20150830-11:32:19.481 : 8=FIX.4.4|9=85|35=A|34=1|49=NODEQUICKFIX|52=20150830-11:32:19.481|56=ELECTRONIFIE|98=0|108=30|141=Y|10=052|
20150830-11:32:19.482 : 8=FIX.4.4|9=85|35=A|34=1|49=ELECTRONIFIE|52=20150830-11:32:19.482|56=NODEQUICKFIX|98=0|108=30|141=Y|10=053|
20150909-01:00:51.859 : 8=FIX.4.4|9=85|35=A|34=1|49=NODEQUICKFIX|52=20150909-01:00:51.853|56=ELECTRONIFIE|98=0|108=30|141=Y|10=052|
20150909-01:00:51.877 : 8=FIX.4.4|9=85|35=A|34=1|49=ELECTRONIFIE|52=20150909-01:00:51.877|56=NODEQUICKFIX|98=0|108=30|141=Y|10=058|
20150909-01:00:56.890 : 8=FIX.4.4|9=164|35=D|34=2|49=ELECTRONIFIE|52=20150909-01:00:56.890|56=NODEQUICKFIX|11=0E0Z86K00000|22=1|38=200|40=2|48=06051GDX4|54=1|55=BAC|60=20150909-03:00:51.631|218=100|423=6|10=154|
20150909-01:05:18.315 : 8=FIX.4.4|9=85|35=A|34=1|49=NODEQUICKFIX|52=20150909-01:05:18.314|56=ELECTRONIFIE|98=0|108=30|141=Y|10=052|
20150909-01:05:18.315 : 8=FIX.4.4|9=85|35=A|34=1|49=ELECTRONIFIE|52=20150909-01:05:18.315|56=NODEQUICKFIX|98=0|108=30|141=Y|10=053|
20150909-01:05:18.331 : 8=FIX.4.4|9=164|35=D|34=2|49=ELECTRONIFIE|52=20150909-01:05:18.331|56=NODEQUICKFIX|11=0E0Z86K00000|22=1|38=200|40=2|48=06051GDX4|54=1|55=BAC|60=20150909-03:05:18.131|218=100|423=6|10=150|
20150909-01:05:54.683 : 8=FIX.4.4|9=85|35=A|34=1|49=NODEQUICKFIX|52=20150909-01:05:54.683|56=ELECTRONIFIE|98=0|108=30|141=Y|10=061|
20150909-01:05:54.684 : 8=FIX.4.4|9=85|35=A|34=1|49=ELECTRONIFIE|52=20150909-01:05:54.683|56=NODEQUICKFIX|98=0|108=30|141=Y|10=061|
20150909-01:05:54.700 : 8=FIX.4.4|9=164|35=D|34=2|49=ELECTRONIFIE|52=20150909-01:05:54.700|56=NODEQUICKFIX|11=0E0Z86K00000|22=1|38=200|40=2|48=06051GDX4|54=1|55=BAC|60=20150909-03:05:54.501|218=100|423=6|10=151|
20150909-01:09:33.182 : 8=FIX.4.4|9=85|35=A|34=1|49=NODEQUICKFIX|52=20150909-01:09:33.182|56=ELECTRONIFIE|98=0|108=30|141=Y|10=056|
20150909-01:09:33.183 : 8=FIX.4.4|9=85|35=A|34=1|49=ELECTRONIFIE|52=20150909-01:09:33.183|56=NODEQUICKFIX|98=0|108=30|141=Y|10=057|
20150909-01:09:33.199 : 8=FIX.4.4|9=164|35=D|34=2|49=ELECTRONIFIE|52=20150909-01:09:33.199|56=NODEQUICKFIX|11=0E0Z86K00000|22=1|38=200|40=2|48=06051GDX4|54=1|55=BAC|60=20150909-03:09:33.000|218=100|423=6|10=159|
20150909-01:10:10.332 : 8=FIX.4.4|9=85|35=A|34=1|49=NODEQUICKFIX|52=20150909-01:10:10.332|56=ELECTRONIFIE|98=0|108=30|141=Y|10=040|
20150909-01:10:10.333 : 8=FIX.4.4|9=85|35=A|34=1|49=ELECTRONIFIE|52=20150909-01:10:10.333|56=NODEQUICKFIX|98=0|108=30|141=Y|10=041|
20150909-01:10:10.349 : 8=FIX.4.4|9=164|35=D|34=2|49=ELECTRONIFIE|52=20150909-01:10:10.349|56=NODEQUICKFIX|11=0E0Z86K00000|22=1|38=200|40=2|48=06051GDX4|54=1|55=BAC|60=20150909-03:10:10.149|218=100|423=6|10=144|
20150909-01:10:29.332 : 8=FIX.4.4|9=85|35=A|34=1|49=NODEQUICKFIX|52=20150909-01:10:29.332|56=ELECTRONIFIE|98=0|108=30|141=Y|10=050|
20150909-01:10:29.332 : 8=FIX.4.4|9=85|35=A|34=1|49=ELECTRONIFIE|52=20150909-01:10:29.332|56=NODEQUICKFIX|98=0|108=30|141=Y|10=050|
20150909-01:10:29.352 : 8=FIX.4.4|9=164|35=D|34=2|49=ELECTRONIFIE|52=20150909-01:10:29.352|56=NODEQUICKFIX|11=0E0Z86K00000|22=1|38=200|40=2|48=06051GDX4|54=1|55=BAC|60=20150909-03:10:29.150|218=100|423=6|10=150|
20150909-01:13:11.900 : 8=FIX.4.4|9=85|35=A|34=1|49=NODEQUICKFIX|52=20150909-01:13:11.899|56=ELECTRONIFIE|98=0|108=30|141=Y|10=062|
20150909-01:13:11.900 : 8=FIX.4.4|9=85|35=A|34=1|49=ELECTRONIFIE|52=20150909-01:13:11.900|56=NODEQUICKFIX|98=0|108=30|141=Y|10=045|
20150909-01:13:11.916 : 8=FIX.4.4|9=164|35=D|34=2|49=ELECTRONIFIE|52=20150909-01:13:11.916|56=NODEQUICKFIX|11=0E0Z86K00000|22=1|38=200|40=2|48=06051GDX4|54=1|55=BAC|60=20150909-03:13:11.720|218=100|423=6|10=147|
20150909-01:13:27.482 : 8=FIX.4.4|9=85|35=A|34=1|49=NODEQUICKFIX|52=20150909-01:13:27.482|56=ELECTRONIFIE|98=0|108=30|141=Y|10=057|
20150909-01:13:27.483 : 8=FIX.4.4|9=85|35=A|34=1|49=ELECTRONIFIE|52=20150909-01:13:27.483|56=NODEQUICKFIX|98=0|108=30|141=Y|10=058|
20150909-01:13:27.501 : 8=FIX.4.4|9=164|35=D|34=2|49=ELECTRONIFIE|52=20150909-01:13:27.501|56=NODEQUICKFIX|11=0E0Z86K00000|22=1|38=200|40=2|48=06051GDX4|54=1|55=BAC|60=20150909-03:13:27.301|218=100|423=6|10=146|
20150909-01:13:46.254 : 8=FIX.4.4|9=85|35=A|34=1|49=NODEQUICKFIX|52=20150909-01:13:46.253|56=ELECTRONIFIE|98=0|108=30|141=Y|10=054|
20150909-01:13:46.254 : 8=FIX.4.4|9=85|35=A|34=1|49=ELECTRONIFIE|52=20150909-01:13:46.254|56=NODEQUICKFIX|98=0|108=30|141=Y|10=055|
20150909-01:13:46.271 : 8=FIX.4.4|9=164|35=D|34=2|49=ELECTRONIFIE|52=20150909-01:13:46.271|56=NODEQUICKFIX|11=0E0Z86K00000|22=1|38=200|40=2|48=06051GDX4|54=1|55=BAC|60=20150909-03:13:46.070|218=100|423=6|10=155|
20150909-01:15:25.047 : 8=FIX.4.4|9=85|35=A|34=1|49=NODEQUICKFIX|52=20150909-01:15:25.046|56=ELECTRONIFIE|98=0|108=30|141=Y|10=053|
20150909-01:15:25.047 : 8=FIX.4.4|9=85|35=A|34=1|49=ELECTRONIFIE|52=20150909-01:15:25.047|56=NODEQUICKFIX|98=0|108=30|141=Y|10=054|
20150909-01:15:25.067 : 8=FIX.4.4|9=164|35=D|34=2|49=ELECTRONIFIE|52=20150909-01:15:25.067|56=NODEQUICKFIX|11=0E0Z86K00000|22=1|38=200|40=2|48=06051GDX4|54=1|55=BAC|60=20150909-03:15:24.861|218=100|423=6|10=163|
20150909-01:18:05.221 : 8=FIX.4.4|9=85|35=A|34=1|49=NODEQUICKFIX|52=20150909-01:18:05.220|56=ELECTRONIFIE|98=0|108=30|141=Y|10=048|
20150909-01:18:05.221 : 8=FIX.4.4|9=85|35=A|34=1|49=ELECTRONIFIE|52=20150909-01:18:05.221|56=NODEQUICKFIX|98=0|108=30|141=Y|10=049|
20150909-01:18:05.237 : 8=FIX.4.4|9=164|35=D|34=2|49=ELECTRONIFIE|52=20150909-01:18:05.237|56=NODEQUICKFIX|11=0E0Z86K00000|22=1|38=200|40=2|48=06051GDX4|54=1|55=BAC|60=20150909-03:18:05.036|218=100|423=6|10=159|
20150909-01:18:24.628 : 8=FIX.4.4|9=85|35=A|34=1|49=NODEQUICKFIX|52=20150909-01:18:24.628|56=ELECTRONIFIE|98=0|108=30|141=Y|10=061|
20150909-01:18:24.629 : 8=FIX.4.4|9=85|35=A|34=1|49=ELECTRONIFIE|52=20150909-01:18:24.629|56=NODEQUICKFIX|98=0|108=30|141=Y|10=062|
20150909-01:18:24.645 : 8=FIX.4.4|9=164|35=D|34=2|49=ELECTRONIFIE|52=20150909-01:18:24.645|56=NODEQUICKFIX|11=0E0Z86K00000|22=1|38=200|40=2|48=06051GDX4|54=1|55=BAC|60=20150909-03:18:24.447|218=100|423=6|10=170|
20150909-01:18:54.655 : 8=FIX.4.4|9=67|35=0|34=3|49=ELECTRONIFIE|52=20150909-01:18:54.654|56=NODEQUICKFIX|10=234|
20150909-01:18:54.655 : 8=FIX.4.4|9=67|35=0|34=2|49=NODEQUICKFIX|52=20150909-01:18:54.654|56=ELECTRONIFIE|10=233|
20150909-01:21:39.826 : 8=FIX.4.4|9=85|35=A|34=1|49=NODEQUICKFIX|52=20150909-01:21:39.826|56=ELECTRONIFIE|98=0|108=30|141=Y|10=061|
20150909-01:21:39.827 : 8=FIX.4.4|9=85|35=A|34=1|49=ELECTRONIFIE|52=20150909-01:21:39.827|56=NODEQUICKFIX|98=0|108=30|141=Y|10=062|
20150909-01:21:39.845 : 8=FIX.4.4|9=164|35=D|34=2|49=ELECTRONIFIE|52=20150909-01:21:39.845|56=NODEQUICKFIX|11=0E0Z86K00000|22=1|38=200|40=2|48=06051GDX4|54=1|55=BAC|60=20150909-03:21:39.639|218=100|423=6|10=175|
20150909-01:22:09.856 : 8=FIX.4.4|9=67|35=0|34=2|49=NODEQUICKFIX|52=20150909-01:22:09.856|56=ELECTRONIFIE|10=232|
20150909-01:22:09.856 : 8=FIX.4.4|9=67|35=0|34=3|49=ELECTRONIFIE|52=20150909-01:22:09.856|56=NODEQUICKFIX|10=233|
20150909-01:22:39.883 : 8=FIX.4.4|9=67|35=0|34=3|49=NODEQUICKFIX|52=20150909-01:22:39.883|56=ELECTRONIFIE|10=236|
20150909-01:22:39.883 : 8=FIX.4.4|9=67|35=0|34=4|49=ELECTRONIFIE|52=20150909-01:22:39.883|56=NODEQUICKFIX|10=237|
20150909-19:34:34.619 : 8=FIX.4.4|9=85|35=A|34=1|49=NODEQUICKFIX|52=20150909-19:34:34.619|56=ELECTRONIFIE|98=0|108=30|141=Y|10=069|
20150909-19:34:34.620 : 8=FIX.4.4|9=85|35=A|34=1|49=ELECTRONIFIE|52=20150909-19:34:34.620|56=NODEQUICKFIX|98=0|108=30|141=Y|10=061|
20150909-19:35:04.647 : 8=FIX.4.4|9=67|35=0|34=2|49=NODEQUICKFIX|52=20150909-19:35:04.646|56=ELECTRONIFIE|10=237|
20150909-19:35:04.647 : 8=FIX.4.4|9=67|35=0|34=2|49=ELECTRONIFIE|52=20150909-19:35:04.647|56=NODEQUICKFIX|10=238|
20150909-19:38:54.622 : 8=FIX.4.4|9=85|35=A|34=1|49=NODEQUICKFIX|52=20150909-19:38:54.622|56=ELECTRONIFIE|98=0|108=30|141=Y|10=069|
20150909-19:38:54.623 : 8=FIX.4.4|9=85|35=A|34=1|49=ELECTRONIFIE|52=20150909-19:38:54.623|56=NODEQUICKFIX|98=0|108=30|141=Y|10=070|
20150909-19:42:04.519 : 8=FIX.4.4|9=85|35=A|34=1|49=NODEQUICKFIX|52=20150909-19:42:04.519|56=ELECTRONIFIE|98=0|108=30|141=Y|10=064|
20150909-19:42:04.520 : 8=FIX.4.4|9=85|35=A|34=1|49=ELECTRONIFIE|52=20150909-19:42:04.520|56=NODEQUICKFIX|98=0|108=30|141=Y|10=056|
20150909-19:44:28.054 : 8=FIX.4.4|9=85|35=A|34=1|49=NODEQUICKFIX|52=20150909-19:44:28.054|56=ELECTRONIFIE|98=0|108=30|141=Y|10=066|
20150909-19:44:28.055 : 8=FIX.4.4|9=85|35=A|34=1|49=ELECTRONIFIE|52=20150909-19:44:28.055|56=NODEQUICKFIX|98=0|108=30|141=Y|10=067|
20150909-19:45:00.017 : 8=FIX.4.4|9=85|35=A|34=1|49=NODEQUICKFIX|52=20150909-19:45:00.016|56=ELECTRONIFIE|98=0|108=30|141=Y|10=055|
20150909-19:45:00.017 : 8=FIX.4.4|9=85|35=A|34=1|49=ELECTRONIFIE|52=20150909-19:45:00.017|56=NODEQUICKFIX|98=0|108=30|141=Y|10=056|
20150909-19:45:00.034 : 8=FIX.4.4|9=164|35=D|34=2|49=ELECTRONIFIE|52=20150909-19:45:00.034|56=NODEQUICKFIX|11=0E0Z86K00000|22=1|38=200|40=2|48=06051GDX4|54=1|55=BAC|60=20150909-21:44:59.835|218=100|423=6|10=173|
20150909-19:46:28.019 : 8=FIX.4.4|9=85|35=A|34=1|49=NODEQUICKFIX|52=20150909-19:46:28.019|56=ELECTRONIFIE|98=0|108=30|141=Y|10=069|
20150909-19:46:28.020 : 8=FIX.4.4|9=85|35=A|34=1|49=ELECTRONIFIE|52=20150909-19:46:28.020|56=NODEQUICKFIX|98=0|108=30|141=Y|10=061|
20150909-19:46:28.036 : 8=FIX.4.4|9=164|35=D|34=2|49=ELECTRONIFIE|52=20150909-19:46:28.036|56=NODEQUICKFIX|11=0E0Z86K00000|22=1|38=200|40=2|48=06051GDX4|54=1|55=BAC|60=20150909-21:46:27.837|218=100|423=6|10=185|
20150909-19:47:59.768 : 8=FIX.4.4|9=85|35=A|34=1|49=NODEQUICKFIX|52=20150909-19:47:59.768|56=ELECTRONIFIE|98=0|108=30|141=Y|10=085|
20150909-19:47:59.769 : 8=FIX.4.4|9=85|35=A|34=1|49=ELECTRONIFIE|52=20150909-19:47:59.769|56=NODEQUICKFIX|98=0|108=30|141=Y|10=086|
20150909-19:47:59.787 : 8=FIX.4.4|9=164|35=D|34=2|49=ELECTRONIFIE|52=20150909-19:47:59.787|56=NODEQUICKFIX|11=0E0Z86K00000|22=1|38=200|40=2|48=06051GDX4|54=1|55=BAC|60=20150909-21:47:59.587|218=100|423=6|10=211|
20150909-19:48:11.587 : 8=FIX.4.4|9=85|35=A|34=1|49=NODEQUICKFIX|52=20150909-19:48:11.586|56=ELECTRONIFIE|98=0|108=30|141=Y|10=072|
20150909-19:48:11.587 : 8=FIX.4.4|9=85|35=A|34=1|49=ELECTRONIFIE|52=20150909-19:48:11.587|56=NODEQUICKFIX|98=0|108=30|141=Y|10=073|
20150909-19:48:11.606 : 8=FIX.4.4|9=164|35=D|34=2|49=ELECTRONIFIE|52=20150909-19:48:11.606|56=NODEQUICKFIX|11=0E0Z86K00000|22=1|38=200|40=2|48=06051GDX4|54=1|55=BAC|60=20150909-21:48:11.402|218=100|423=6|10=165|
20150909-19:49:53.132 : 8=FIX.4.4|9=85|35=A|34=1|49=NODEQUICKFIX|52=20150909-19:49:53.132|56=ELECTRONIFIE|98=0|108=30|141=Y|10=066|
20150909-19:49:53.133 : 8=FIX.4.4|9=85|35=A|34=1|49=ELECTRONIFIE|52=20150909-19:49:53.133|56=NODEQUICKFIX|98=0|108=30|141=Y|10=067|
20150909-19:49:53.152 : 8=FIX.4.4|9=164|35=D|34=2|49=ELECTRONIFIE|52=20150909-19:49:53.152|56=NODEQUICKFIX|11=0E0Z86K00000|22=1|38=200|40=2|48=06051GDX4|54=1|55=BAC|60=20150909-21:49:52.945|218=100|423=6|10=186|
20150909-19:58:29.596 : 8=FIX.4.4|9=85|35=A|34=1|49=NODEQUICKFIX|52=20150909-19:58:29.596|56=ELECTRONIFIE|98=0|108=30|141=Y|10=083|
20150909-19:58:29.597 : 8=FIX.4.4|9=85|35=A|34=1|49=ELECTRONIFIE|52=20150909-19:58:29.597|56=NODEQUICKFIX|98=0|108=30|141=Y|10=084|
20150909-19:58:29.617 : 8=FIX.4.4|9=164|35=D|34=2|49=ELECTRONIFIE|52=20150909-19:58:29.617|56=NODEQUICKFIX|11=0E0Z86K00000|22=1|38=200|40=2|48=06051GDX4|54=1|55=BAC|60=20150909-21:58:29.410|218=100|423=6|10=186|
20150909-19:58:59.626 : 8=FIX.4.4|9=67|35=0|34=3|49=ELECTRONIFIE|52=20150909-19:58:59.625|56=NODEQUICKFIX|10=250|
20150909-19:58:59.626 : 8=FIX.4.4|9=67|35=0|34=2|49=NODEQUICKFIX|52=20150909-19:58:59.625|56=ELECTRONIFIE|10=249|
20150909-19:59:29.653 : 8=FIX.4.4|9=67|35=0|34=3|49=NODEQUICKFIX|52=20150909-19:59:29.653|56=ELECTRONIFIE|10=249|
20150909-19:59:29.653 : 8=FIX.4.4|9=67|35=0|34=4|49=ELECTRONIFIE|52=20150909-19:59:29.653|56=NODEQUICKFIX|10=250|
20150909-19:59:59.681 : 8=FIX.4.4|9=67|35=0|34=4|49=NODEQUICKFIX|52=20150909-19:59:59.681|56=ELECTRONIFIE|10=254|
20150909-19:59:59.681 : 8=FIX.4.4|9=67|35=0|34=5|49=ELECTRONIFIE|52=20150909-19:59:59.681|56=NODEQUICKFIX|10=255|
20150909-20:00:29.706 : 8=FIX.4.4|9=67|35=0|34=5|49=NODEQUICKFIX|52=20150909-20:00:29.706|56=ELECTRONIFIE|10=228|
20150909-20:00:29.706 : 8=FIX.4.4|9=67|35=0|34=6|49=ELECTRONIFIE|52=20150909-20:00:29.706|56=NODEQUICKFIX|10=229|
20150909-20:00:59.422 : 8=FIX.4.4|9=85|35=A|34=1|49=NODEQUICKFIX|52=20150909-20:00:59.422|56=ELECTRONIFIE|98=0|108=30|141=Y|10=053|
20150909-20:00:59.423 : 8=FIX.4.4|9=85|35=A|34=1|49=ELECTRONIFIE|52=20150909-20:00:59.423|56=NODEQUICKFIX|98=0|108=30|141=Y|10=054|
20150909-20:00:59.441 : 8=FIX.4.4|9=164|35=D|34=2|49=ELECTRONIFIE|52=20150909-20:00:59.441|56=NODEQUICKFIX|11=0E0Z86K00000|22=1|38=200|40=2|48=06051GDX4|54=1|55=BAC|60=20150909-22:00:59.239|218=100|423=6|10=163|
20150909-20:02:57.168 : 8=FIX.4.4|9=85|35=A|34=1|49=NODEQUICKFIX|52=20150909-20:02:57.167|56=ELECTRONIFIE|98=0|108=30|141=Y|10=059|
20150909-20:02:57.168 : 8=FIX.4.4|9=85|35=A|34=1|49=ELECTRONIFIE|52=20150909-20:02:57.168|56=NODEQUICKFIX|98=0|108=30|141=Y|10=060|
20150909-20:02:57.185 : 8=FIX.4.4|9=164|35=D|34=2|49=ELECTRONIFIE|52=20150909-20:02:57.185|56=NODEQUICKFIX|11=0E0Z86K00000|22=1|38=200|40=2|48=06051GDX4|54=1|55=BAC|60=20150909-22:02:56.984|218=100|423=6|10=174|
20150909-20:03:50.625 : 8=FIX.4.4|9=85|35=A|34=1|49=NODEQUICKFIX|52=20150909-20:03:50.625|56=ELECTRONIFIE|98=0|108=30|141=Y|10=052|
20150909-20:03:50.625 : 8=FIX.4.4|9=85|35=A|34=1|49=ELECTRONIFIE|52=20150909-20:03:50.625|56=NODEQUICKFIX|98=0|108=30|141=Y|10=052|
20150909-20:03:50.644 : 8=FIX.4.4|9=164|35=D|34=2|49=ELECTRONIFIE|52=20150909-20:03:50.644|56=NODEQUICKFIX|11=0E0Z86K00000|22=1|38=200|40=2|48=06051GDX4|54=1|55=BAC|60=20150909-22:03:50.441|218=100|423=6|10=151|
20150909-20:05:29.198 : 8=FIX.4.4|9=85|35=A|34=1|49=NODEQUICKFIX|52=20150909-20:05:29.197|56=ELECTRONIFIE|98=0|108=30|141=Y|10=064|
20150909-20:05:29.198 : 8=FIX.4.4|9=85|35=A|34=1|49=ELECTRONIFIE|52=20150909-20:05:29.198|56=NODEQUICKFIX|98=0|108=30|141=Y|10=065|
20150909-20:05:29.218 : 8=FIX.4.4|9=164|35=D|34=2|49=ELECTRONIFIE|52=20150909-20:05:29.218|56=NODEQUICKFIX|11=0E0Z86K00000|22=1|38=200|40=2|48=06051GDX4|54=1|55=BAC|60=20150909-22:05:29.011|218=100|423=6|10=157|
20150909-20:05:47.988 : 8=FIX.4.4|9=85|35=A|34=1|49=NODEQUICKFIX|52=20150909-20:05:47.988|56=ELECTRONIFIE|98=0|108=30|141=Y|10=072|
20150909-20:05:47.989 : 8=FIX.4.4|9=85|35=A|34=1|49=ELECTRONIFIE|52=20150909-20:05:47.989|56=NODEQUICKFIX|98=0|108=30|141=Y|10=073|
20150909-20:05:48.009 : 8=FIX.4.4|9=164|35=D|34=2|49=ELECTRONIFIE|52=20150909-20:05:48.009|56=NODEQUICKFIX|11=0E0Z86K00000|22=1|38=200|40=2|48=06051GDX4|54=1|55=BAC|60=20150909-22:05:47.803|218=100|423=6|10=165|
20150909-20:22:06.408 : 8=FIX.4.4|9=85|35=A|34=1|49=NODEQUICKFIX|52=20150909-20:22:06.408|56=ELECTRONIFIE|98=0|108=30|141=Y|10=053|
20150909-20:22:06.408 : 8=FIX.4.4|9=85|35=A|34=1|49=ELECTRONIFIE|52=20150909-20:22:06.408|56=NODEQUICKFIX|98=0|108=30|141=Y|10=053|
20150909-20:22:06.428 : 8=FIX.4.4|9=164|35=D|34=2|49=ELECTRONIFIE|52=20150909-20:22:06.428|56=NODEQUICKFIX|11=0E0Z86K00000|22=1|38=200|40=2|48=06051GDX4|54=1|55=BAC|60=20150909-22:22:06.220|218=100|423=6|10=150|
20150909-20:37:30.696 : 8=FIX.4.4|9=85|35=A|34=1|49=NODEQUICKFIX|52=20150909-20:37:30.695|56=ELECTRONIFIE|98=0|108=30|141=Y|10=064|
20150909-20:37:30.696 : 8=FIX.4.4|9=85|35=A|34=1|49=ELECTRONIFIE|52=20150909-20:37:30.696|56=NODEQUICKFIX|98=0|108=30|141=Y|10=065|
20150909-20:37:30.714 : 8=FIX.4.4|9=164|35=D|34=2|49=ELECTRONIFIE|52=20150909-20:37:30.714|56=NODEQUICKFIX|11=0E0Z86K00000|22=1|38=200|40=2|48=06051GDX4|54=1|55=BAC|60=20150909-22:37:30.512|218=100|423=6|10=158|
20150909-20:37:42.324 : 8=FIX.4.4|9=85|35=A|34=1|49=NODEQUICKFIX|52=20150909-20:37:42.324|56=ELECTRONIFIE|98=0|108=30|141=Y|10=056|
20150909-20:37:42.325 : 8=FIX.4.4|9=85|35=A|34=1|49=ELECTRONIFIE|52=20150909-20:37:42.325|56=NODEQUICKFIX|98=0|108=30|141=Y|10=057|
20150909-20:37:42.348 : 8=FIX.4.4|9=164|35=D|34=2|49=ELECTRONIFIE|52=20150909-20:37:42.348|56=NODEQUICKFIX|11=0E0Z86K00000|22=1|38=200|40=2|48=06051GDX4|54=1|55=BAC|60=20150909-22:37:42.141|218=100|423=6|10=165|
20150909-20:38:19.627 : 8=FIX.4.4|9=85|35=A|34=1|49=NODEQUICKFIX|52=20150909-20:38:19.626|56=ELECTRONIFIE|98=0|108=30|141=Y|10=066|
20150909-20:38:19.627 : 8=FIX.4.4|9=85|35=A|34=1|49=ELECTRONIFIE|52=20150909-20:38:19.627|56=NODEQUICKFIX|98=0|108=30|141=Y|10=067|
20150909-20:38:19.646 : 8=FIX.4.4|9=164|35=D|34=2|49=ELECTRONIFIE|52=20150909-20:38:19.646|56=NODEQUICKFIX|11=0E0Z86K00000|22=1|38=200|40=2|48=06051GDX4|54=1|55=BAC|60=20150909-22:38:19.443|218=100|423=6|10=181|
20150909-20:49:29.908 : 8=FIX.4.4|9=85|35=A|34=1|49=NODEQUICKFIX|52=20150909-20:49:29.907|56=ELECTRONIFIE|98=0|108=30|141=Y|10=071|
20150909-20:49:29.908 : 8=FIX.4.4|9=85|35=A|34=1|49=ELECTRONIFIE|52=20150909-20:49:29.908|56=NODEQUICKFIX|98=0|108=30|141=Y|10=072|
20150909-20:49:59.936 : 8=FIX.4.4|9=67|35=0|34=2|49=NODEQUICKFIX|52=20150909-20:49:59.936|56=ELECTRONIFIE|10=246|
20150909-20:49:59.936 : 8=FIX.4.4|9=67|35=0|34=2|49=ELECTRONIFIE|52=20150909-20:49:59.936|56=NODEQUICKFIX|10=246|
20150909-20:50:18.785 : 8=FIX.4.4|9=85|35=A|34=1|49=NODEQUICKFIX|52=20150909-20:50:18.785|56=ELECTRONIFIE|98=0|108=30|141=Y|10=065|
20150909-20:50:18.786 : 8=FIX.4.4|9=85|35=A|34=1|49=ELECTRONIFIE|52=20150909-20:50:18.786|56=NODEQUICKFIX|98=0|108=30|141=Y|10=066|
20150909-21:10:24.218 : 8=FIX.4.4|9=85|35=A|34=1|49=NODEQUICKFIX|52=20150909-21:10:24.218|56=ELECTRONIFIE|98=0|108=30|141=Y|10=050|
20150909-21:10:24.219 : 8=FIX.4.4|9=85|35=A|34=1|49=ELECTRONIFIE|52=20150909-21:10:24.219|56=NODEQUICKFIX|98=0|108=30|141=Y|10=051|
20150909-21:11:45.450 : 8=FIX.4.4|9=85|35=A|34=1|49=NODEQUICKFIX|52=20150909-21:11:45.449|56=ELECTRONIFIE|98=0|108=30|141=Y|10=060|
20150909-21:11:45.450 : 8=FIX.4.4|9=85|35=A|34=1|49=ELECTRONIFIE|52=20150909-21:11:45.450|56=NODEQUICKFIX|98=0|108=30|141=Y|10=052|
20150909-21:12:04.001 : 8=FIX.4.4|9=85|35=A|34=1|49=NODEQUICKFIX|52=20150909-21:12:04.001|56=ELECTRONIFIE|98=0|108=30|141=Y|10=040|
20150909-21:12:04.002 : 8=FIX.4.4|9=85|35=A|34=1|49=ELECTRONIFIE|52=20150909-21:12:04.002|56=NODEQUICKFIX|98=0|108=30|141=Y|10=041|
20150909-21:12:52.650 : 8=FIX.4.4|9=85|35=A|34=1|49=NODEQUICKFIX|52=20150909-21:12:52.649|56=ELECTRONIFIE|98=0|108=30|141=Y|10=061|
20150909-21:12:52.650 : 8=FIX.4.4|9=85|35=A|34=1|49=ELECTRONIFIE|52=20150909-21:12:52.650|56=NODEQUICKFIX|98=0|108=30|141=Y|10=053|
20150909-21:13:22.676 : 8=FIX.4.4|9=67|35=0|34=2|49=ELECTRONIFIE|52=20150909-21:13:22.676|56=NODEQUICKFIX|10=229|
20150909-21:13:22.676 : 8=FIX.4.4|9=67|35=0|34=2|49=NODEQUICKFIX|52=20150909-21:13:22.676|56=ELECTRONIFIE|10=229|
20150909-21:13:52.703 : 8=FIX.4.4|9=67|35=0|34=3|49=ELECTRONIFIE|52=20150909-21:13:52.703|56=NODEQUICKFIX|10=224|
20150909-21:13:52.703 : 8=FIX.4.4|9=67|35=0|34=3|49=NODEQUICKFIX|52=20150909-21:13:52.703|56=ELECTRONIFIE|10=224|
20150909-21:16:00.806 : 8=FIX.4.4|9=85|35=A|34=1|49=NODEQUICKFIX|52=20150909-21:16:00.806|56=ELECTRONIFIE|98=0|108=30|141=Y|10=053|
20150909-21:16:00.808 : 8=FIX.4.4|9=85|35=A|34=1|49=ELECTRONIFIE|52=20150909-21:16:00.806|56=NODEQUICKFIX|98=0|108=30|141=Y|10=053|
20150909-21:21:10.074 : 8=FIX.4.4|9=85|35=A|34=1|49=NODEQUICKFIX|52=20150909-21:21:10.073|56=ELECTRONIFIE|98=0|108=30|141=Y|10=046|
20150909-21:21:10.074 : 8=FIX.4.4|9=85|35=A|34=1|49=ELECTRONIFIE|52=20150909-21:21:10.074|56=NODEQUICKFIX|98=0|108=30|141=Y|10=047|
20150909-21:21:35.065 : 8=FIX.4.4|9=85|35=A|34=1|49=NODEQUICKFIX|52=20150909-21:21:35.064|56=ELECTRONIFIE|98=0|108=30|141=Y|10=053|
20150909-21:21:35.065 : 8=FIX.4.4|9=85|35=A|34=1|49=ELECTRONIFIE|52=20150909-21:21:35.065|56=NODEQUICKFIX|98=0|108=30|141=Y|10=054|
20150909-21:24:13.948 : 8=FIX.4.4|9=85|35=A|34=1|49=NODEQUICKFIX|52=20150909-21:24:13.947|56=ELECTRONIFIE|98=0|108=30|141=Y|10=062|
20150909-21:24:13.948 : 8=FIX.4.4|9=85|35=A|34=1|49=ELECTRONIFIE|52=20150909-21:24:13.948|56=NODEQUICKFIX|98=0|108=30|141=Y|10=063|
20150909-21:45:43.523 : 8=FIX.4.4|9=85|35=A|34=1|49=NODEQUICKFIX|52=20150909-21:45:43.522|56=ELECTRONIFIE|98=0|108=30|141=Y|10=057|
20150909-21:45:43.523 : 8=FIX.4.4|9=85|35=A|34=1|49=ELECTRONIFIE|52=20150909-21:45:43.523|56=NODEQUICKFIX|98=0|108=30|141=Y|10=058|
20150909-21:48:51.970 : 8=FIX.4.4|9=85|35=A|34=1|49=NODEQUICKFIX|52=20150909-21:48:51.970|56=ELECTRONIFIE|98=0|108=30|141=Y|10=066|
20150909-21:48:51.971 : 8=FIX.4.4|9=85|35=A|34=1|49=ELECTRONIFIE|52=20150909-21:48:51.970|56=NODEQUICKFIX|98=0|108=30|141=Y|10=066|
20150909-21:50:47.149 : 8=FIX.4.4|9=85|35=A|34=1|49=NODEQUICKFIX|52=20150909-21:50:47.148|56=ELECTRONIFIE|98=0|108=30|141=Y|10=061|
20150909-21:50:47.149 : 8=FIX.4.4|9=85|35=A|34=1|49=ELECTRONIFIE|52=20150909-21:50:47.149|56=NODEQUICKFIX|98=0|108=30|141=Y|10=062|
20150909-21:53:47.204 : 8=FIX.4.4|9=85|35=A|34=1|49=NODEQUICKFIX|52=20150909-21:53:47.203|56=ELECTRONIFIE|98=0|108=30|141=Y|10=056|
20150909-21:53:47.204 : 8=FIX.4.4|9=85|35=A|34=1|49=ELECTRONIFIE|52=20150909-21:53:47.204|56=NODEQUICKFIX|98=0|108=30|141=Y|10=057|
20150909-21:54:16.167 : 8=FIX.4.4|9=85|35=A|34=1|49=NODEQUICKFIX|52=20150909-21:54:16.167|56=ELECTRONIFIE|98=0|108=30|141=Y|10=062|
20150909-21:54:16.167 : 8=FIX.4.4|9=85|35=A|34=1|49=ELECTRONIFIE|52=20150909-21:54:16.167|56=NODEQUICKFIX|98=0|108=30|141=Y|10=062|
20150909-21:55:30.396 : 8=FIX.4.4|9=85|35=A|34=1|49=NODEQUICKFIX|52=20150909-21:55:30.396|56=ELECTRONIFIE|98=0|108=30|141=Y|10=063|
20150909-21:55:30.397 : 8=FIX.4.4|9=85|35=A|34=1|49=ELECTRONIFIE|52=20150909-21:55:30.397|56=NODEQUICKFIX|98=0|108=30|141=Y|10=064|
20150909-21:56:49.606 : 8=FIX.4.4|9=85|35=A|34=1|49=NODEQUICKFIX|52=20150909-21:56:49.606|56=ELECTRONIFIE|98=0|108=30|141=Y|10=068|
20150909-21:56:49.608 : 8=FIX.4.4|9=85|35=A|34=1|49=ELECTRONIFIE|52=20150909-21:56:49.608|56=NODEQUICKFIX|98=0|108=30|141=Y|10=070|
20150909-21:57:01.470 : 8=FIX.4.4|9=85|35=A|34=1|49=NODEQUICKFIX|52=20150909-21:57:01.470|56=ELECTRONIFIE|98=0|108=30|141=Y|10=056|
20150909-21:57:01.471 : 8=FIX.4.4|9=85|35=A|34=1|49=ELECTRONIFIE|52=20150909-21:57:01.471|56=NODEQUICKFIX|98=0|108=30|141=Y|10=057|
20150909-21:58:24.096 : 8=FIX.4.4|9=85|35=A|34=1|49=NODEQUICKFIX|52=20150909-21:58:24.096|56=ELECTRONIFIE|98=0|108=30|141=Y|10=066|
20150909-21:58:24.096 : 8=FIX.4.4|9=85|35=A|34=1|49=ELECTRONIFIE|52=20150909-21:58:24.096|56=NODEQUICKFIX|98=0|108=30|141=Y|10=066|
20150909-22:05:06.024 : 8=FIX.4.4|9=85|35=A|34=1|49=NODEQUICKFIX|52=20150909-22:05:06.024|56=ELECTRONIFIE|98=0|108=30|141=Y|10=050|
20150909-22:05:06.025 : 8=FIX.4.4|9=85|35=A|34=1|49=ELECTRONIFIE|52=20150909-22:05:06.024|56=NODEQUICKFIX|98=0|108=30|141=Y|10=050|
20150909-22:10:12.125 : 8=FIX.4.4|9=85|35=A|34=1|49=NODEQUICKFIX|52=20150909-22:10:12.125|56=ELECTRONIFIE|98=0|108=30|141=Y|10=045|
20150909-22:10:12.126 : 8=FIX.4.4|9=85|35=A|34=1|49=ELECTRONIFIE|52=20150909-22:10:12.126|56=NODEQUICKFIX|98=0|108=30|141=Y|10=046|
20150909-22:10:48.006 : 8=FIX.4.4|9=85|35=A|34=1|49=NODEQUICKFIX|52=20150909-22:10:48.006|56=ELECTRONIFIE|98=0|108=30|141=Y|10=052|
20150909-22:10:48.007 : 8=FIX.4.4|9=85|35=A|34=1|49=ELECTRONIFIE|52=20150909-22:10:48.007|56=NODEQUICKFIX|98=0|108=30|141=Y|10=053|
20150909-22:11:23.961 : 8=FIX.4.4|9=85|35=A|34=1|49=NODEQUICKFIX|52=20150909-22:11:23.961|56=ELECTRONIFIE|98=0|108=30|141=Y|10=056|
20150909-22:11:23.962 : 8=FIX.4.4|9=85|35=A|34=1|49=ELECTRONIFIE|52=20150909-22:11:23.962|56=NODEQUICKFIX|98=0|108=30|141=Y|10=057|
20150909-22:13:14.692 : 8=FIX.4.4|9=85|35=A|34=1|49=NODEQUICKFIX|52=20150909-22:13:14.692|56=ELECTRONIFIE|98=0|108=30|141=Y|10=059|
20150909-22:13:14.693 : 8=FIX.4.4|9=85|35=A|34=1|49=ELECTRONIFIE|52=20150909-22:13:14.693|56=NODEQUICKFIX|98=0|108=30|141=Y|10=060|
20150909-22:14:46.848 : 8=FIX.4.4|9=85|35=A|34=1|49=NODEQUICKFIX|52=20150909-22:14:46.848|56=ELECTRONIFIE|98=0|108=30|141=Y|10=068|
20150909-22:14:46.849 : 8=FIX.4.4|9=85|35=A|34=1|49=ELECTRONIFIE|52=20150909-22:14:46.849|56=NODEQUICKFIX|98=0|108=30|141=Y|10=069|
20150909-22:15:03.670 : 8=FIX.4.4|9=85|35=A|34=1|49=NODEQUICKFIX|52=20150909-22:15:03.670|56=ELECTRONIFIE|98=0|108=30|141=Y|10=055|
20150909-22:15:03.670 : 8=FIX.4.4|9=85|35=A|34=1|49=ELECTRONIFIE|52=20150909-22:15:03.670|56=NODEQUICKFIX|98=0|108=30|141=Y|10=055|
20150909-22:16:01.376 : 8=FIX.4.4|9=85|35=A|34=1|49=NODEQUICKFIX|52=20150909-22:16:01.375|56=ELECTRONIFIE|98=0|108=30|141=Y|10=056|
20150909-22:16:01.376 : 8=FIX.4.4|9=85|35=A|34=1|49=ELECTRONIFIE|52=20150909-22:16:01.376|56=NODEQUICKFIX|98=0|108=30|141=Y|10=057|
20150909-22:16:01.444 : 8=FIX.4.4|9=164|35=D|34=2|49=ELECTRONIFIE|52=20150909-22:16:01.444|56=NODEQUICKFIX|11=0E0Z86K00000|22=1|38=200|40=2|48=06051GDX4|54=1|55=BAC|60=20150910-00:16:01.190|218=100|423=6|10=140|
20150909-22:16:26.752 : 8=FIX.4.4|9=85|35=A|34=1|49=NODEQUICKFIX|52=20150909-22:16:26.752|56=ELECTRONIFIE|98=0|108=30|141=Y|10=062|
20150909-22:16:26.753 : 8=FIX.4.4|9=85|35=A|34=1|49=ELECTRONIFIE|52=20150909-22:16:26.753|56=NODEQUICKFIX|98=0|108=30|141=Y|10=063|
20150909-22:16:26.820 : 8=FIX.4.4|9=164|35=D|34=2|49=ELECTRONIFIE|52=20150909-22:16:26.820|56=NODEQUICKFIX|11=0E0Z86K00000|22=1|38=200|40=2|48=06051GDX4|54=1|55=BAC|60=20150910-00:16:26.567|218=100|423=6|10=160|
20150909-23:10:57.864 : 8=FIX.4.4|9=85|35=A|34=1|49=NODEQUICKFIX|52=20150909-23:10:57.863|56=ELECTRONIFIE|98=0|108=30|141=Y|10=064|
20150909-23:10:57.864 : 8=FIX.4.4|9=85|35=A|34=1|49=ELECTRONIFIE|52=20150909-23:10:57.864|56=NODEQUICKFIX|98=0|108=30|141=Y|10=065|
20150909-23:10:57.930 : 8=FIX.4.4|9=164|35=D|34=2|49=ELECTRONIFIE|52=20150909-23:10:57.930|56=NODEQUICKFIX|11=0E0Z86K00000|22=1|38=200|40=2|48=06051GDX4|54=1|55=BAC|60=20150910-01:10:57.679|218=100|423=6|10=164|
20150910-19:24:49.736 : 8=FIX.4.4|9=85|35=A|34=1|49=NODEQUICKFIX|52=20150910-19:24:49.710|56=ELECTRONIFIE|98=0|108=30|141=Y|10=058|
20150910-19:24:49.758 : 8=FIX.4.4|9=85|35=A|34=1|49=ELECTRONIFIE|52=20150910-19:24:49.758|56=NODEQUICKFIX|98=0|108=30|141=Y|10=070|
20150910-19:24:49.788 : 8=FIX.4.4|9=164|35=D|34=2|49=ELECTRONIFIE|52=20150910-19:24:49.788|56=NODEQUICKFIX|11=0E0Z86K00000|22=1|38=200|40=2|48=06051GDX4|54=1|55=BAC|60=20150910-21:24:49.430|218=100|423=6|10=171|
20150910-19:54:33.919 : 8=FIX.4.4|9=85|35=A|34=1|49=NODEQUICKFIX|52=20150910-19:54:33.918|56=ELECTRONIFIE|98=0|108=30|141=Y|10=064|
20150910-19:54:33.919 : 8=FIX.4.4|9=85|35=A|34=1|49=ELECTRONIFIE|52=20150910-19:54:33.919|56=NODEQUICKFIX|98=0|108=30|141=Y|10=065|
20150910-19:57:33.131 : 8=FIX.4.4|9=85|35=A|34=1|49=NODEQUICKFIX|52=20150910-19:57:33.131|56=ELECTRONIFIE|98=0|108=30|141=Y|10=054|
20150910-19:57:33.132 : 8=FIX.4.4|9=85|35=A|34=1|49=ELECTRONIFIE|52=20150910-19:57:33.132|56=NODEQUICKFIX|98=0|108=30|141=Y|10=055|
20150910-19:57:33.197 : 8=FIX.4.4|9=164|35=D|34=2|49=ELECTRONIFIE|52=20150910-19:57:33.197|56=NODEQUICKFIX|11=0E0Z86K00000|22=1|38=200|40=2|48=06051GDX4|54=1|55=BAC|60=20150910-21:57:32.942|218=100|423=6|10=170|
20150910-20:08:49.864 : 8=FIX.4.4|9=85|35=A|34=1|49=NODEQUICKFIX|52=20150910-20:08:49.863|56=ELECTRONIFIE|98=0|108=30|141=Y|10=061|
20150910-20:08:49.864 : 8=FIX.4.4|9=85|35=A|34=1|49=ELECTRONIFIE|52=20150910-20:08:49.864|56=NODEQUICKFIX|98=0|108=30|141=Y|10=062|
20150910-20:08:49.931 : 8=FIX.4.4|9=164|35=D|34=2|49=ELECTRONIFIE|52=20150910-20:08:49.931|56=NODEQUICKFIX|11=0E0Z86K00000|22=1|38=200|40=2|48=06051GDX4|54=1|55=BAC|60=20150910-22:08:49.677|218=100|423=6|10=171|
20150910-21:50:42.321 : 8=FIX.4.4|9=85|35=A|34=1|49=NODEQUICKFIX|52=20150910-21:50:42.321|56=ELECTRONIFIE|98=0|108=30|141=Y|10=041|
20150910-21:50:42.321 : 8=FIX.4.4|9=85|35=A|34=1|49=ELECTRONIFIE|52=20150910-21:50:42.321|56=NODEQUICKFIX|98=0|108=30|141=Y|10=041|
20150910-21:50:42.384 : 8=FIX.4.4|9=164|35=D|34=2|49=ELECTRONIFIE|52=20150910-21:50:42.384|56=NODEQUICKFIX|11=0E0Z86K00000|22=1|38=200|40=2|48=06051GDX4|54=1|55=BAC|60=20150910-23:50:42.133|218=100|423=6|10=142|
20150910-21:51:12.350 : 8=FIX.4.4|9=67|35=0|34=3|49=ELECTRONIFIE|52=20150910-21:51:12.350|56=NODEQUICKFIX|10=212|
20150910-21:51:12.350 : 8=FIX.4.4|9=67|35=0|34=2|49=NODEQUICKFIX|52=20150910-21:51:12.350|56=ELECTRONIFIE|10=211|
20150910-21:51:42.380 : 8=FIX.4.4|9=67|35=0|34=4|49=ELECTRONIFIE|52=20150910-21:51:42.380|56=NODEQUICKFIX|10=219|
20150910-21:51:42.380 : 8=FIX.4.4|9=67|35=0|34=3|49=NODEQUICKFIX|52=20150910-21:51:42.380|56=ELECTRONIFIE|10=218|
20150910-21:58:25.243 : 8=FIX.4.4|9=85|35=A|34=1|49=NODEQUICKFIX|52=20150910-21:58:25.242|56=ELECTRONIFIE|98=0|108=30|141=Y|10=052|
20150910-21:58:25.243 : 8=FIX.4.4|9=85|35=A|34=1|49=ELECTRONIFIE|52=20150910-21:58:25.243|56=NODEQUICKFIX|98=0|108=30|141=Y|10=053|
20150910-21:58:25.314 : 8=FIX.4.4|9=164|35=D|34=2|49=ELECTRONIFIE|52=20150910-21:58:25.314|56=NODEQUICKFIX|11=0E0Z86K00000|22=1|38=200|40=2|48=06051GDX4|54=1|55=BAC|60=20150910-23:58:25.055|218=100|423=6|10=156|
20150910-21:58:55.271 : 8=FIX.4.4|9=67|35=0|34=3|49=ELECTRONIFIE|52=20150910-21:58:55.271|56=NODEQUICKFIX|10=228|
20150910-21:58:55.272 : 8=FIX.4.4|9=67|35=0|34=2|49=NODEQUICKFIX|52=20150910-21:58:55.271|56=ELECTRONIFIE|10=227|
20150910-21:59:25.301 : 8=FIX.4.4|9=67|35=0|34=4|49=ELECTRONIFIE|52=20150910-21:59:25.300|56=NODEQUICKFIX|10=220|
20150910-21:59:25.301 : 8=FIX.4.4|9=67|35=0|34=3|49=NODEQUICKFIX|52=20150910-21:59:25.300|56=ELECTRONIFIE|10=219|
20150910-21:59:55.330 : 8=FIX.4.4|9=67|35=0|34=5|49=ELECTRONIFIE|52=20150910-21:59:55.330|56=NODEQUICKFIX|10=227|
20150910-21:59:55.330 : 8=FIX.4.4|9=67|35=0|34=4|49=NODEQUICKFIX|52=20150910-21:59:55.330|56=ELECTRONIFIE|10=226|
20150910-22:00:25.356 : 8=FIX.4.4|9=67|35=0|34=6|49=ELECTRONIFIE|52=20150910-22:00:25.356|56=NODEQUICKFIX|10=220|
20150910-22:00:25.357 : 8=FIX.4.4|9=67|35=0|34=5|49=NODEQUICKFIX|52=20150910-22:00:25.356|56=ELECTRONIFIE|10=219|
20150910-22:00:55.382 : 8=FIX.4.4|9=67|35=0|34=7|49=ELECTRONIFIE|52=20150910-22:00:55.382|56=NODEQUICKFIX|10=223|
20150910-22:00:55.382 : 8=FIX.4.4|9=67|35=0|34=6|49=NODEQUICKFIX|52=20150910-22:00:55.382|56=ELECTRONIFIE|10=222|
20150910-22:01:25.407 : 8=FIX.4.4|9=67|35=0|34=7|49=NODEQUICKFIX|52=20150910-22:01:25.407|56=ELECTRONIFIE|10=219|
20150910-22:01:25.407 : 8=FIX.4.4|9=67|35=0|34=8|49=ELECTRONIFIE|52=20150910-22:01:25.407|56=NODEQUICKFIX|10=220|
20150910-22:01:55.433 : 8=FIX.4.4|9=67|35=0|34=9|49=ELECTRONIFIE|52=20150910-22:01:55.433|56=NODEQUICKFIX|10=223|
20150910-22:01:55.433 : 8=FIX.4.4|9=67|35=0|34=8|49=NODEQUICKFIX|52=20150910-22:01:55.433|56=ELECTRONIFIE|10=222|
20150910-22:02:25.457 : 8=FIX.4.4|9=67|35=0|34=9|49=NODEQUICKFIX|52=20150910-22:02:25.457|56=ELECTRONIFIE|10=227|
20150910-22:02:25.457 : 8=FIX.4.4|9=68|35=0|34=10|49=ELECTRONIFIE|52=20150910-22:02:25.457|56=NODEQUICKFIX|10=012|
20150910-22:02:55.484 : 8=FIX.4.4|9=68|35=0|34=11|49=ELECTRONIFIE|52=20150910-22:02:55.484|56=NODEQUICKFIX|10=016|
20150910-22:02:55.485 : 8=FIX.4.4|9=68|35=0|34=10|49=NODEQUICKFIX|52=20150910-22:02:55.484|56=ELECTRONIFIE|10=015|
20150910-22:03:25.509 : 8=FIX.4.4|9=68|35=0|34=11|49=NODEQUICKFIX|52=20150910-22:03:25.509|56=ELECTRONIFIE|10=012|
20150910-22:03:25.509 : 8=FIX.4.4|9=68|35=0|34=12|49=ELECTRONIFIE|52=20150910-22:03:25.509|56=NODEQUICKFIX|10=013|
20150910-22:03:55.534 : 8=FIX.4.4|9=68|35=0|34=13|49=ELECTRONIFIE|52=20150910-22:03:55.534|56=NODEQUICKFIX|10=015|
20150910-22:03:55.534 : 8=FIX.4.4|9=68|35=0|34=12|49=NODEQUICKFIX|52=20150910-22:03:55.534|56=ELECTRONIFIE|10=014|
20150910-22:05:55.965 : 8=FIX.4.4|9=85|35=A|34=1|49=NODEQUICKFIX|52=20150910-22:05:55.965|56=ELECTRONIFIE|98=0|108=30|141=Y|10=060|
20150910-22:05:55.966 : 8=FIX.4.4|9=85|35=A|34=1|49=ELECTRONIFIE|52=20150910-22:05:55.966|56=NODEQUICKFIX|98=0|108=30|141=Y|10=061|
20150910-22:05:56.028 : 8=FIX.4.4|9=164|35=D|34=2|49=ELECTRONIFIE|52=20150910-22:05:56.028|56=NODEQUICKFIX|11=0E0Z86K00000|22=1|38=200|40=2|48=06051GDX4|54=1|55=BAC|60=20150911-00:05:55.779|218=100|423=6|10=159|
20150910-22:07:54.942 : 8=FIX.4.4|9=85|35=A|34=1|49=NODEQUICKFIX|52=20150910-22:07:54.942|56=ELECTRONIFIE|98=0|108=30|141=Y|10=056|
20150910-22:07:54.942 : 8=FIX.4.4|9=85|35=A|34=1|49=ELECTRONIFIE|52=20150910-22:07:54.942|56=NODEQUICKFIX|98=0|108=30|141=Y|10=056|
20150910-22:07:55.005 : 8=FIX.4.4|9=164|35=D|34=2|49=ELECTRONIFIE|52=20150910-22:07:55.005|56=NODEQUICKFIX|11=0E0Z86K00000|22=1|38=200|40=2|48=06051GDX4|54=1|55=BAC|60=20150911-00:07:54.753|218=100|423=6|10=148|
20150910-22:12:54.464 : 8=FIX.4.4|9=85|35=A|34=1|49=NODEQUICKFIX|52=20150910-22:12:54.463|56=ELECTRONIFIE|98=0|108=30|141=Y|10=050|
20150910-22:12:54.464 : 8=FIX.4.4|9=85|35=A|34=1|49=ELECTRONIFIE|52=20150910-22:12:54.464|56=NODEQUICKFIX|98=0|108=30|141=Y|10=051|
20150910-22:12:54.532 : 8=FIX.4.4|9=164|35=D|34=2|49=ELECTRONIFIE|52=20150910-22:12:54.532|56=NODEQUICKFIX|11=0E0Z86K00000|22=1|38=200|40=2|48=06051GDX4|54=1|55=BAC|60=20150911-00:12:54.276|218=100|423=6|10=144|
20150910-22:22:09.934 : 8=FIX.4.4|9=85|35=A|34=1|49=NODEQUICKFIX|52=20150910-22:22:09.934|56=ELECTRONIFIE|98=0|108=30|141=Y|10=054|
20150910-22:22:09.935 : 8=FIX.4.4|9=85|35=A|34=1|49=ELECTRONIFIE|52=20150910-22:22:09.935|56=NODEQUICKFIX|98=0|108=30|141=Y|10=055|
20150910-22:22:09.996 : 8=FIX.4.4|9=164|35=D|34=2|49=ELECTRONIFIE|52=20150910-22:22:09.996|56=NODEQUICKFIX|11=0E0Z86K00000|22=1|38=200|40=2|48=06051GDX4|54=1|55=BAC|60=20150911-00:22:09.746|218=100|423=6|10=162|
20150910-22:33:28.439 : 8=FIX.4.4|9=85|35=A|34=1|49=NODEQUICKFIX|52=20150910-22:33:28.438|56=ELECTRONIFIE|98=0|108=30|141=Y|10=056|
20150910-22:33:28.439 : 8=FIX.4.4|9=85|35=A|34=1|49=ELECTRONIFIE|52=20150910-22:33:28.439|56=NODEQUICKFIX|98=0|108=30|141=Y|10=057|
20150910-22:33:28.507 : 8=FIX.4.4|9=164|35=D|34=2|49=ELECTRONIFIE|52=20150910-22:33:28.507|56=NODEQUICKFIX|11=0E0Z86K00000|22=1|38=200|40=2|48=06051GDX4|54=1|55=BAC|60=20150911-00:33:28.250|218=100|423=6|10=146|
20150910-22:33:40.512 : 8=FIX.4.4|9=85|35=A|34=1|49=NODEQUICKFIX|52=20150910-22:33:40.512|56=ELECTRONIFIE|98=0|108=30|141=Y|10=043|
20150910-22:33:40.513 : 8=FIX.4.4|9=85|35=A|34=1|49=ELECTRONIFIE|52=20150910-22:33:40.513|56=NODEQUICKFIX|98=0|108=30|141=Y|10=044|
20150910-22:33:40.584 : 8=FIX.4.4|9=164|35=D|34=2|49=ELECTRONIFIE|52=20150910-22:33:40.584|56=NODEQUICKFIX|11=0E0Z86K00000|22=1|38=200|40=2|48=06051GDX4|54=1|55=BAC|60=20150911-00:33:40.324|218=100|423=6|10=141|
20150910-22:33:54.356 : 8=FIX.4.4|9=85|35=A|34=1|49=NODEQUICKFIX|52=20150910-22:33:54.356|56=ELECTRONIFIE|98=0|108=30|141=Y|10=054|
20150910-22:33:54.357 : 8=FIX.4.4|9=85|35=A|34=1|49=ELECTRONIFIE|52=20150910-22:33:54.357|56=NODEQUICKFIX|98=0|108=30|141=Y|10=055|
20150910-22:33:54.425 : 8=FIX.4.4|9=164|35=D|34=2|49=ELECTRONIFIE|52=20150910-22:33:54.425|56=NODEQUICKFIX|11=0E0Z86K00000|22=1|38=200|40=2|48=06051GDX4|54=1|55=BAC|60=20150911-00:33:54.164|218=100|423=6|10=147|
20150910-22:42:09.286 : 8=FIX.4.4|9=85|35=A|34=1|49=NODEQUICKFIX|52=20150910-22:42:09.286|56=ELECTRONIFIE|98=0|108=30|141=Y|10=056|
20150910-22:42:09.287 : 8=FIX.4.4|9=85|35=A|34=1|49=ELECTRONIFIE|52=20150910-22:42:09.287|56=NODEQUICKFIX|98=0|108=30|141=Y|10=057|
20150910-22:42:09.351 : 8=FIX.4.4|9=164|35=D|34=2|49=ELECTRONIFIE|52=20150910-22:42:09.351|56=NODEQUICKFIX|11=0E0Z86K00000|22=1|38=200|40=2|48=06051GDX4|54=1|55=BAC|60=20150911-00:42:09.100|218=100|423=6|10=135|
20150910-22:54:57.917 : 8=FIX.4.4|9=85|35=A|34=1|49=NODEQUICKFIX|52=20150910-22:54:57.917|56=ELECTRONIFIE|98=0|108=30|141=Y|10=063|
20150910-22:54:57.918 : 8=FIX.4.4|9=85|35=A|34=1|49=ELECTRONIFIE|52=20150910-22:54:57.918|56=NODEQUICKFIX|98=0|108=30|141=Y|10=064|
20150910-22:55:14.031 : 8=FIX.4.4|9=85|35=A|34=1|49=NODEQUICKFIX|52=20150910-22:55:14.031|56=ELECTRONIFIE|98=0|108=30|141=Y|10=044|
20150910-22:55:14.032 : 8=FIX.4.4|9=85|35=A|34=1|49=ELECTRONIFIE|52=20150910-22:55:14.032|56=NODEQUICKFIX|98=0|108=30|141=Y|10=045|
20150910-22:55:14.097 : 8=FIX.4.4|9=164|35=D|34=2|49=ELECTRONIFIE|52=20150910-22:55:14.097|56=NODEQUICKFIX|11=0E0Z86K00000|22=1|38=200|40=2|48=06051GDX4|54=1|55=BAC|60=20150911-00:55:13.844|218=100|423=6|10=156|
20150910-22:55:26.066 : 8=FIX.4.4|9=85|35=A|34=1|49=NODEQUICKFIX|52=20150910-22:55:26.066|56=ELECTRONIFIE|98=0|108=30|141=Y|10=055|
20150910-22:55:26.067 : 8=FIX.4.4|9=85|35=A|34=1|49=ELECTRONIFIE|52=20150910-22:55:26.067|56=NODEQUICKFIX|98=0|108=30|141=Y|10=056|
20150910-22:55:26.132 : 8=FIX.4.4|9=164|35=D|34=2|49=ELECTRONIFIE|52=20150910-22:55:26.131|56=NODEQUICKFIX|11=0E0Z86K00000|22=1|38=200|40=2|48=06051GDX4|54=1|55=BAC|60=20150911-00:55:25.882|218=100|423=6|10=153|
20150910-22:55:26.153 : 8=FIX.4.4|9=164|35=D|34=3|49=ELECTRONIFIE|52=20150910-22:55:26.153|56=NODEQUICKFIX|11=0E0Z86K00000|22=1|38=200|40=2|48=06051GDX4|54=1|55=BAC|60=20150911-00:55:25.882|218=100|423=6|10=158|
20150910-22:55:56.096 : 8=FIX.4.4|9=67|35=0|34=4|49=ELECTRONIFIE|52=20150910-22:55:56.096|56=NODEQUICKFIX|10=233|
20150910-22:55:56.096 : 8=FIX.4.4|9=67|35=0|34=2|49=NODEQUICKFIX|52=20150910-22:55:56.096|56=ELECTRONIFIE|10=231|
20150910-22:56:26.418 : 8=FIX.4.4|9=85|35=A|34=1|49=NODEQUICKFIX|52=20150910-22:56:26.417|56=ELECTRONIFIE|98=0|108=30|141=Y|10=056|
20150910-22:56:26.418 : 8=FIX.4.4|9=85|35=A|34=1|49=ELECTRONIFIE|52=20150910-22:56:26.418|56=NODEQUICKFIX|98=0|108=30|141=Y|10=057|
20150910-22:56:26.482 : 8=FIX.4.4|9=164|35=D|34=2|49=ELECTRONIFIE|52=20150910-22:56:26.482|56=NODEQUICKFIX|11=0E0Z86K00000|22=1|38=200|40=2|48=06051GDX4|54=1|55=BAC|60=20150911-00:56:26.233|218=100|423=6|10=155|
20150910-22:56:26.501 : 8=FIX.4.4|9=164|35=D|34=3|49=ELECTRONIFIE|52=20150910-22:56:26.501|56=NODEQUICKFIX|11=0E0Z86K00000|22=1|38=200|40=2|48=06051GDX4|54=1|55=BAC|60=20150911-00:56:26.233|218=100|423=6|10=148|
20150910-22:56:26.539 : 8=FIX.4.4|9=164|35=D|34=4|49=ELECTRONIFIE|52=20150910-22:56:26.538|56=NODEQUICKFIX|11=0E0Z86K00000|22=1|38=200|40=2|48=06051GDX4|54=1|55=BAC|60=20150911-00:56:26.233|218=100|423=6|10=159|
20150910-22:56:26.550 : 8=FIX.4.4|9=164|35=D|34=5|49=ELECTRONIFIE|52=20150910-22:56:26.550|56=NODEQUICKFIX|11=0E0Z86K00000|22=1|38=200|40=2|48=06051GDX4|54=1|55=BAC|60=20150911-00:56:26.233|218=100|423=6|10=154|
20150910-22:56:26.591 : 8=FIX.4.4|9=164|35=D|34=6|49=ELECTRONIFIE|52=20150910-22:56:26.591|56=NODEQUICKFIX|11=0E0Z86K00000|22=1|38=200|40=2|48=06051GDX4|54=1|55=BAC|60=20150911-00:56:26.233|218=100|423=6|10=160|
20150910-22:56:26.606 : 8=FIX.4.4|9=164|35=D|34=7|49=ELECTRONIFIE|52=20150910-22:56:26.606|56=NODEQUICKFIX|11=0E0Z86K00000|22=1|38=200|40=2|48=06051GDX4|54=1|55=BAC|60=20150911-00:56:26.233|218=100|423=6|10=158|
20150910-22:57:53.572 : 8=FIX.4.4|9=85|35=A|34=1|49=NODEQUICKFIX|52=20150910-22:57:53.571|56=ELECTRONIFIE|98=0|108=30|141=Y|10=058|
20150910-22:57:53.572 : 8=FIX.4.4|9=85|35=A|34=1|49=ELECTRONIFIE|52=20150910-22:57:53.572|56=NODEQUICKFIX|98=0|108=30|141=Y|10=059|
20150910-22:57:53.639 : 8=FIX.4.4|9=164|35=D|34=2|49=ELECTRONIFIE|52=20150910-22:57:53.639|56=NODEQUICKFIX|11=0E0Z86K00000|22=1|38=200|40=2|48=06051GDX4|54=1|55=BAC|60=20150911-00:57:53.383|218=100|423=6|10=167|
20150910-22:57:53.661 : 8=FIX.4.4|9=164|35=D|34=3|49=ELECTRONIFIE|52=20150910-22:57:53.661|56=NODEQUICKFIX|11=0E0Z86K00000|22=1|38=200|40=2|48=06051GDX4|54=1|55=BAC|60=20150911-00:57:53.383|218=100|423=6|10=163|
20150910-22:57:53.697 : 8=FIX.4.4|9=164|35=D|34=4|49=ELECTRONIFIE|52=20150910-22:57:53.696|56=NODEQUICKFIX|11=0E0Z86K00000|22=1|38=200|40=2|48=06051GDX4|54=1|55=BAC|60=20150911-00:57:53.383|218=100|423=6|10=172|
20150910-22:57:53.710 : 8=FIX.4.4|9=164|35=D|34=5|49=ELECTRONIFIE|52=20150910-22:57:53.710|56=NODEQUICKFIX|11=0E0Z86K00000|22=1|38=200|40=2|48=06051GDX4|54=1|55=BAC|60=20150911-00:57:53.383|218=100|423=6|10=160|
20150910-22:57:53.751 : 8=FIX.4.4|9=164|35=D|34=6|49=ELECTRONIFIE|52=20150910-22:57:53.751|56=NODEQUICKFIX|11=0E0Z86K00000|22=1|38=200|40=2|48=06051GDX4|54=1|55=BAC|60=20150911-00:57:53.383|218=100|423=6|10=166|
20150910-22:57:53.769 : 8=FIX.4.4|9=164|35=D|34=7|49=ELECTRONIFIE|52=20150910-22:57:53.769|56=NODEQUICKFIX|11=0E0Z86K00000|22=1|38=200|40=2|48=06051GDX4|54=1|55=BAC|60=20150911-00:57:53.383|218=100|423=6|10=176|
