20150830-11:32:19.481 : 8=FIX.4.4|9=85|35=A|34=1|49=NODEQUICKFIX|52=20150830-11:32:19.481|56=ELECTRONIFIE|98=0|108=30|141=Y|10=052|
20150830-11:32:19.482 : 8=FIX.4.4|9=85|35=A|34=1|49=ELECTRONIFIE|52=20150830-11:32:19.482|56=NODEQUICKFIX|98=0|108=30|141=Y|10=053|
20150909-01:00:51.859 : 8=FIX.4.4|9=85|35=A|34=1|49=NODEQUICKFIX|52=20150909-01:00:51.853|56=ELECTRONIFIE|98=0|108=30|141=Y|10=052|
20150909-01:00:51.877 : 8=FIX.4.4|9=85|35=A|34=1|49=ELECTRONIFIE|52=20150909-01:00:51.877|56=NODEQUICKFIX|98=0|108=30|141=Y|10=058|
20150909-01:00:56.890 : 8=FIX.4.4|9=164|35=D|34=2|49=ELECTRONIFIE|52=20150909-01:00:56.890|56=NODEQUICKFIX|11=0E0Z86K00000|22=1|38=200|40=2|48=06051GDX4|54=1|55=BAC|60=20150909-03:00:51.631|218=100|423=6|10=154|
20150909-01:05:18.315 : 8=FIX.4.4|9=85|35=A|34=1|49=NODEQUICKFIX|52=20150909-01:05:18.314|56=ELECTRONIFIE|98=0|108=30|141=Y|10=052|
20150909-01:05:18.315 : 8=FIX.4.4|9=85|35=A|34=1|49=ELECTRONIFIE|52=20150909-01:05:18.315|56=NODEQUICKFIX|98=0|108=30|141=Y|10=053|
20150909-01:05:18.331 : 8=FIX.4.4|9=164|35=D|34=2|49=ELECTRONIFIE|52=20150909-01:05:18.331|56=NODEQUICKFIX|11=0E0Z86K00000|22=1|38=200|40=2|48=06051GDX4|54=1|55=BAC|60=20150909-03:05:18.131|218=100|423=6|10=150|
20150909-01:05:54.683 : 8=FIX.4.4|9=85|35=A|34=1|49=NODEQUICKFIX|52=20150909-01:05:54.683|56=ELECTRONIFIE|98=0|108=30|141=Y|10=061|
20150909-01:05:54.684 : 8=FIX.4.4|9=85|35=A|34=1|49=ELECTRONIFIE|52=20150909-01:05:54.683|56=NODEQUICKFIX|98=0|108=30|141=Y|10=061|
20150909-01:05:54.700 : 8=FIX.4.4|9=164|35=D|34=2|49=ELECTRONIFIE|52=20150909-01:05:54.700|56=NODEQUICKFIX|11=0E0Z86K00000|22=1|38=200|40=2|48=06051GDX4|54=1|55=BAC|60=20150909-03:05:54.501|218=100|423=6|10=151|
20150909-01:09:33.182 : 8=FIX.4.4|9=85|35=A|34=1|49=NODEQUICKFIX|52=20150909-01:09:33.182|56=ELECTRONIFIE|98=0|108=30|141=Y|10=056|
20150909-01:09:33.183 : 8=FIX.4.4|9=85|35=A|34=1|49=ELECTRONIFIE|52=20150909-01:09:33.183|56=NODEQUICKFIX|98=0|108=30|141=Y|10=057|
20150909-01:09:33.199 : 8=FIX.4.4|9=164|35=D|34=2|49=ELECTRONIFIE|52=20150909-01:09:33.199|56=NODEQUICKFIX|11=0E0Z86K00000|22=1|38=200|40=2|48=06051GDX4|54=1|55=BAC|60=20150909-03:09:33.000|218=100|423=6|10=159|
20150909-01:10:10.332 : 8=FIX.4.4|9=85|35=A|34=1|49=NODEQUICKFIX|52=20150909-01:10:10.332|56=ELECTRONIFIE|98=0|108=30|141=Y|10=040|
20150909-01:10:10.333 : 8=FIX.4.4|9=85|35=A|34=1|49=ELECTRONIFIE|52=20150909-01:10:10.333|56=NODEQUICKFIX|98=0|108=30|141=Y|10=041|
20150909-01:10:10.349 : 8=FIX.4.4|9=164|35=D|34=2|49=ELECTRONIFIE|52=20150909-01:10:10.349|56=NODEQUICKFIX|11=0E0Z86K00000|22=1|38=200|40=2|48=06051GDX4|54=1|55=BAC|60=20150909-03:10:10.149|218=100|423=6|10=144|
20150909-01:10:29.332 : 8=FIX.4.4|9=85|35=A|34=1|49=NODEQUICKFIX|52=20150909-01:10:29.332|56=ELECTRONIFIE|98=0|108=30|141=Y|10=050|
20150909-01:10:29.332 : 8=FIX.4.4|9=85|35=A|34=1|49=ELECTRONIFIE|52=20150909-01:10:29.332|56=NODEQUICKFIX|98=0|108=30|141=Y|10=050|
20150909-01:10:29.352 : 8=FIX.4.4|9=164|35=D|34=2|49=ELECTRONIFIE|52=20150909-01:10:29.352|56=NODEQUICKFIX|11=0E0Z86K00000|22=1|38=200|40=2|48=06051GDX4|54=1|55=BAC|60=20150909-03:10:29.150|218=100|423=6|10=150|
20150909-01:13:11.900 : 8=FIX.4.4|9=85|35=A|34=1|49=NODEQUICKFIX|52=20150909-01:13:11.899|56=ELECTRONIFIE|98=0|108=30|141=Y|10=062|
20150909-01:13:11.900 : 8=FIX.4.4|9=85|35=A|34=1|49=ELECTRONIFIE|52=20150909-01:13:11.900|56=NODEQUICKFIX|98=0|108=30|141=Y|10=045|
20150909-01:13:11.916 : 8=FIX.4.4|9=164|35=D|34=2|49=ELECTRONIFIE|52=20150909-01:13:11.916|56=NODEQUICKFIX|11=0E0Z86K00000|22=1|38=200|40=2|48=06051GDX4|54=1|55=BAC|60=20150909-03:13:11.720|218=100|423=6|10=147|
20150909-01:13:27.482 : 8=FIX.4.4|9=85|35=A|34=1|49=NODEQUICKFIX|52=20150909-01:13:27.482|56=ELECTRONIFIE|98=0|108=30|141=Y|10=057|
20150909-01:13:27.483 : 8=FIX.4.4|9=85|35=A|34=1|49=ELECTRONIFIE|52=20150909-01:13:27.483|56=NODEQUICKFIX|98=0|108=30|141=Y|10=058|
20150909-01:13:27.501 : 8=FIX.4.4|9=164|35=D|34=2|49=ELECTRONIFIE|52=20150909-01:13:27.501|56=NODEQUICKFIX|11=0E0Z86K00000|22=1|38=200|40=2|48=06051GDX4|54=1|55=BAC|60=20150909-03:13:27.301|218=100|423=6|10=146|
20150909-01:13:46.254 : 8=FIX.4.4|9=85|35=A|34=1|49=NODEQUICKFIX|52=20150909-01:13:46.253|56=ELECTRONIFIE|98=0|108=30|141=Y|10=054|
20150909-01:13:46.254 : 8=FIX.4.4|9=85|35=A|34=1|49=ELECTRONIFIE|52=20150909-01:13:46.254|56=NODEQUICKFIX|98=0|108=30|141=Y|10=055|
20150909-01:13:46.271 : 8=FIX.4.4|9=164|35=D|34=2|49=ELECTRONIFIE|52=20150909-01:13:46.271|56=NODEQUICKFIX|11=0E0Z86K00000|22=1|38=200|40=2|48=06051GDX4|54=1|55=BAC|60=20150909-03:13:46.070|218=100|423=6|10=155|
20150909-01:15:25.047 : 8=FIX.4.4|9=85|35=A|34=1|49=NODEQUICKFIX|52=20150909-01:15:25.046|56=ELECTRONIFIE|98=0|108=30|141=Y|10=053|
20150909-01:15:25.047 : 8=FIX.4.4|9=85|35=A|34=1|49=ELECTRONIFIE|52=20150909-01:15:25.047|56=NODEQUICKFIX|98=0|108=30|141=Y|10=054|
20150909-01:15:25.067 : 8=FIX.4.4|9=164|35=D|34=2|49=ELECTRONIFIE|52=20150909-01:15:25.067|56=NODEQUICKFIX|11=0E0Z86K00000|22=1|38=200|40=2|48=06051GDX4|54=1|55=BAC|60=20150909-03:15:24.861|218=100|423=6|10=163|
20150909-01:18:05.221 : 8=FIX.4.4|9=85|35=A|34=1|49=NODEQUICKFIX|52=20150909-01:18:05.220|56=ELECTRONIFIE|98=0|108=30|141=Y|10=048|
20150909-01:18:05.221 : 8=FIX.4.4|9=85|35=A|34=1|49=ELECTRONIFIE|52=20150909-01:18:05.221|56=NODEQUICKFIX|98=0|108=30|141=Y|10=049|
20150909-01:18:05.237 : 8=FIX.4.4|9=164|35=D|34=2|49=ELECTRONIFIE|52=20150909-01:18:05.237|56=NODEQUICKFIX|11=0E0Z86K00000|22=1|38=200|40=2|48=06051GDX4|54=1|55=BAC|60=20150909-03:18:05.036|218=100|423=6|10=159|
20150909-01:18:24.628 : 8=FIX.4.4|9=85|35=A|34=1|49=NODEQUICKFIX|52=20150909-01:18:24.628|56=ELECTRONIFIE|98=0|108=30|141=Y|10=061|
20150909-01:18:24.629 : 8=FIX.4.4|9=85|35=A|34=1|49=ELECTRONIFIE|52=20150909-01:18:24.629|56=NODEQUICKFIX|98=0|108=30|141=Y|10=062|
20150909-01:18:24.645 : 8=FIX.4.4|9=164|35=D|34=2|49=ELECTRONIFIE|52=20150909-01:18:24.645|56=NODEQUICKFIX|11=0E0Z86K00000|22=1|38=200|40=2|48=06051GDX4|54=1|55=BAC|60=20150909-03:18:24.447|218=100|423=6|10=170|
20150909-01:18:54.655 : 8=FIX.4.4|9=67|35=0|34=3|49=ELECTRONIFIE|52=20150909-01:18:54.654|56=NODEQUICKFIX|10=234|
20150909-01:18:54.655 : 8=FIX.4.4|9=67|35=0|34=2|49=NODEQUICKFIX|52=20150909-01:18:54.654|56=ELECTRONIFIE|10=233|
20150909-01:21:39.826 : 8=FIX.4.4|9=85|35=A|34=1|49=NODEQUICKFIX|52=20150909-01:21:39.826|56=ELECTRONIFIE|98=0|108=30|141=Y|10=061|
20150909-01:21:39.827 : 8=FIX.4.4|9=85|35=A|34=1|49=ELECTRONIFIE|52=20150909-01:21:39.827|56=NODEQUICKFIX|98=0|108=30|141=Y|10=062|
20150909-01:21:39.845 : 8=FIX.4.4|9=164|35=D|34=2|49=ELECTRONIFIE|52=20150909-01:21:39.845|56=NODEQUICKFIX|11=0E0Z86K00000|22=1|38=200|40=2|48=06051GDX4|54=1|55=BAC|60=20150909-03:21:39.639|218=100|423=6|10=175|
20150909-01:22:09.856 : 8=FIX.4.4|9=67|35=0|34=2|49=NODEQUICKFIX|52=20150909-01:22:09.856|56=ELECTRONIFIE|10=232|
20150909-01:22:09.856 : 8=FIX.4.4|9=67|35=0|34=3|49=ELECTRONIFIE|52=20150909-01:22:09.856|56=NODEQUICKFIX|10=233|
20150909-01:22:39.883 : 8=FIX.4.4|9=67|35=0|34=3|49=NODEQUICKFIX|52=20150909-01:22:39.883|56=ELECTRONIFIE|10=236|
20150909-01:22:39.883 : 8=FIX.4.4|9=67|35=0|34=4|49=ELECTRONIFIE|52=20150909-01:22:39.883|56=NODEQUICKFIX|10=237|
