20150822-21:13:30.110 : 8=FIX.4.4|9=85|35=A|34=1|49=NODEQUICKFIX|52=20150822-21:13:30.110|56=ELECTRONIFIE|98=0|108=30|141=Y|10=035|
20150822-21:15:25.885 : 8=FIX.4.4|9=85|35=A|34=1|49=NODEQUICKFIX|52=20150822-21:15:25.885|56=ELECTRONIFIE|98=0|108=30|141=Y|10=060|
20150822-21:16:34.835 : 8=FIX.4.4|9=85|35=A|34=1|49=NODEQUICKFIX|52=20150822-21:16:34.835|56=ELECTRONIFIE|98=0|108=30|141=Y|10=056|
20150822-21:17:14.207 : 8=FIX.4.4|9=85|35=A|34=1|49=NODEQUICKFIX|52=20150822-21:17:14.207|56=ELECTRONIFIE|98=0|108=30|141=Y|10=048|
20150822-21:27:51.165 : 8=FIX.4.4|9=85|35=A|34=1|49=NODEQUICKFIX|52=20150822-21:27:51.165|56=ELECTRONIFIE|98=0|108=30|141=Y|10=053|
20150822-21:30:55.869 : 8=FIX.4.4|9=85|35=A|34=1|49=NODEQUICKFIX|52=20150822-21:30:55.868|56=ELECTRONIFIE|98=0|108=30|141=Y|10=061|
20150822-21:32:18.202 : 8=FIX.4.4|9=85|35=A|34=1|49=NODEQUICKFIX|52=20150822-21:32:18.202|56=ELECTRONIFIE|98=0|108=30|141=Y|10=044|
20150822-21:38:49.604 : 8=FIX.4.4|9=85|35=A|34=1|49=NODEQUICKFIX|52=20150822-21:38:49.604|56=ELECTRONIFIE|98=0|108=30|141=Y|10=060|
20150822-21:45:03.031 : 8=FIX.4.4|9=85|35=A|34=1|49=NODEQUICKFIX|52=20150822-21:45:03.030|56=ELECTRONIFIE|98=0|108=30|141=Y|10=041|
20150822-22:32:03.418 : 8=FIX.4.4|9=85|35=A|34=1|49=NODEQUICKFIX|52=20150822-22:32:03.418|56=ELECTRONIFIE|98=0|108=30|141=Y|10=048|
20150822-22:32:14.509 : 8=FIX.4.4|9=85|35=A|34=1|49=NODEQUICKFIX|52=20150822-22:32:14.509|56=ELECTRONIFIE|98=0|108=30|141=Y|10=051|
20150824-13:20:34.756 : 8=FIX.4.4|9=85|35=A|34=1|49=NODEQUICKFIX|52=20150824-13:20:34.756|56=ELECTRONIFIE|98=0|108=30|141=Y|10=056|
20150824-13:21:52.571 : 8=FIX.4.4|9=85|35=A|34=1|49=NODEQUICKFIX|52=20150824-13:21:52.571|56=ELECTRONIFIE|98=0|108=30|141=Y|10=052|
20150824-13:22:42.038 : 8=FIX.4.4|9=85|35=A|34=1|49=NODEQUICKFIX|52=20150824-13:22:42.038|56=ELECTRONIFIE|98=0|108=30|141=Y|10=050|
20150824-13:31:09.886 : 8=FIX.4.4|9=85|35=A|34=1|49=NODEQUICKFIX|52=20150824-13:31:09.885|56=ELECTRONIFIE|98=0|108=30|141=Y|10=063|
20150824-13:32:59.375 : 8=FIX.4.4|9=85|35=A|34=1|49=NODEQUICKFIX|52=20150824-13:32:59.375|56=ELECTRONIFIE|98=0|108=30|141=Y|10=063|
20150824-13:33:14.304 : 8=FIX.4.4|9=85|35=A|34=1|49=NODEQUICKFIX|52=20150824-13:33:14.304|56=ELECTRONIFIE|98=0|108=30|141=Y|10=047|
20150824-13:33:58.747 : 8=FIX.4.4|9=85|35=A|34=1|49=NODEQUICKFIX|52=20150824-13:33:58.746|56=ELECTRONIFIE|98=0|108=30|141=Y|10=065|
20150824-13:34:42.146 : 8=FIX.4.4|9=85|35=A|34=1|49=NODEQUICKFIX|52=20150824-13:34:42.146|56=ELECTRONIFIE|98=0|108=30|141=Y|10=053|
20150824-13:35:52.893 : 8=FIX.4.4|9=85|35=A|34=1|49=NODEQUICKFIX|52=20150824-13:35:52.892|56=ELECTRONIFIE|98=0|108=30|141=Y|10=063|
20150824-13:36:05.480 : 8=FIX.4.4|9=85|35=A|34=1|49=NODEQUICKFIX|52=20150824-13:36:05.480|56=ELECTRONIFIE|98=0|108=30|141=Y|10=055|
20150824-13:58:09.091 : 8=FIX.4.4|9=85|35=A|34=1|49=NODEQUICKFIX|52=20150824-13:58:09.091|56=ELECTRONIFIE|98=0|108=30|141=Y|10=061|
20150824-13:58:24.056 : 8=FIX.4.4|9=85|35=A|34=1|49=NODEQUICKFIX|52=20150824-13:58:24.055|56=ELECTRONIFIE|98=0|108=30|141=Y|10=058|
20150824-13:58:32.199 : 8=FIX.4.4|9=85|35=A|34=1|49=NODEQUICKFIX|52=20150824-13:58:32.199|56=ELECTRONIFIE|98=0|108=30|141=Y|10=066|
20150824-13:58:45.031 : 8=FIX.4.4|9=85|35=A|34=1|49=NODEQUICKFIX|52=20150824-13:58:45.031|56=ELECTRONIFIE|98=0|108=30|141=Y|10=055|
20150824-13:58:59.880 : 8=FIX.4.4|9=85|35=A|34=1|49=NODEQUICKFIX|52=20150824-13:58:59.879|56=ELECTRONIFIE|98=0|108=30|141=Y|10=080|
20150824-13:59:09.357 : 8=FIX.4.4|9=85|35=A|34=1|49=NODEQUICKFIX|52=20150824-13:59:09.356|56=ELECTRONIFIE|98=0|108=30|141=Y|10=066|
20150824-13:59:16.288 : 8=FIX.4.4|9=85|35=A|34=1|49=NODEQUICKFIX|52=20150824-13:59:16.288|56=ELECTRONIFIE|98=0|108=30|141=Y|10=068|
20150824-13:59:24.173 : 8=FIX.4.4|9=85|35=A|34=1|49=NODEQUICKFIX|52=20150824-13:59:24.172|56=ELECTRONIFIE|98=0|108=30|141=Y|10=059|
20150824-13:59:32.253 : 8=FIX.4.4|9=85|35=A|34=1|49=NODEQUICKFIX|52=20150824-13:59:32.252|56=ELECTRONIFIE|98=0|108=30|141=Y|10=057|
20150824-21:49:02.157 : 8=FIX.4.4|9=85|35=A|34=1|49=NODEQUICKFIX|52=20150824-21:49:02.157|56=ELECTRONIFIE|98=0|108=30|141=Y|10=056|
20150824-21:50:43.247 : 8=FIX.4.4|9=85|35=A|34=1|49=NODEQUICKFIX|52=20150824-21:50:43.246|56=ELECTRONIFIE|98=0|108=30|141=Y|10=052|
20150824-21:52:27.344 : 8=FIX.4.4|9=85|35=A|34=1|49=NODEQUICKFIX|52=20150824-21:52:27.344|56=ELECTRONIFIE|98=0|108=30|141=Y|10=055|
20150824-21:52:51.862 : 8=FIX.4.4|9=85|35=A|34=1|49=NODEQUICKFIX|52=20150824-21:52:51.862|56=ELECTRONIFIE|98=0|108=30|141=Y|10=057|
20150824-21:55:02.572 : 8=FIX.4.4|9=85|35=A|34=1|49=NODEQUICKFIX|52=20150824-21:55:02.572|56=ELECTRONIFIE|98=0|108=30|141=Y|10=054|
20150824-21:55:36.435 : 8=FIX.4.4|9=85|35=A|34=1|49=NODEQUICKFIX|52=20150824-21:55:36.435|56=ELECTRONIFIE|98=0|108=30|141=Y|10=059|
20150824-21:56:43.955 : 8=FIX.4.4|9=85|35=A|34=1|49=NODEQUICKFIX|52=20150824-21:56:43.955|56=ELECTRONIFIE|98=0|108=30|141=Y|10=065|
20150824-21:57:02.290 : 8=FIX.4.4|9=85|35=A|34=1|49=NODEQUICKFIX|52=20150824-21:57:02.290|56=ELECTRONIFIE|98=0|108=30|141=Y|10=053|
20150824-21:57:33.301 : 8=FIX.4.4|9=85|35=A|34=1|49=NODEQUICKFIX|52=20150824-21:57:33.301|56=ELECTRONIFIE|98=0|108=30|141=Y|10=050|
20150824-22:14:35.419 : 8=FIX.4.4|9=85|35=A|34=1|49=NODEQUICKFIX|52=20150824-22:14:35.418|56=ELECTRONIFIE|98=0|108=30|141=Y|10=055|
20150824-22:16:02.716 : 8=FIX.4.4|9=85|35=A|34=1|49=NODEQUICKFIX|52=20150824-22:16:02.715|56=ELECTRONIFIE|98=0|108=30|141=Y|10=051|
20150824-22:18:05.080 : 8=FIX.4.4|9=85|35=A|34=1|49=NODEQUICKFIX|52=20150824-22:18:05.080|56=ELECTRONIFIE|98=0|108=30|141=Y|10=051|
20150824-22:21:49.536 : 8=FIX.4.4|9=85|35=A|34=1|49=NODEQUICKFIX|52=20150824-22:21:49.536|56=ELECTRONIFIE|98=0|108=30|141=Y|10=059|
20150824-22:23:05.622 : 8=FIX.4.4|9=85|35=A|34=1|49=NODEQUICKFIX|52=20150824-22:23:05.622|56=ELECTRONIFIE|98=0|108=30|141=Y|10=049|
20150824-22:23:33.691 : 8=FIX.4.4|9=85|35=A|34=1|49=NODEQUICKFIX|52=20150824-22:23:33.690|56=ELECTRONIFIE|98=0|108=30|141=Y|10=055|
20150824-22:28:26.175 : 8=FIX.4.4|9=85|35=A|34=1|49=NODEQUICKFIX|52=20150824-22:28:26.175|56=ELECTRONIFIE|98=0|108=30|141=Y|10=060|
20150824-22:35:39.689 : 8=FIX.4.4|9=85|35=A|34=1|49=NODEQUICKFIX|52=20150824-22:35:39.688|56=ELECTRONIFIE|98=0|108=30|141=Y|10=071|
20150824-22:38:05.898 : 8=FIX.4.4|9=85|35=A|34=1|49=NODEQUICKFIX|52=20150824-22:38:05.897|56=ELECTRONIFIE|98=0|108=30|141=Y|10=069|
20150824-22:38:39.768 : 8=FIX.4.4|9=85|35=A|34=1|49=NODEQUICKFIX|52=20150824-22:38:39.768|56=ELECTRONIFIE|98=0|108=30|141=Y|10=073|
20150824-22:39:25.243 : 8=FIX.4.4|9=85|35=A|34=1|49=NODEQUICKFIX|52=20150824-22:39:25.242|56=ELECTRONIFIE|98=0|108=30|141=Y|10=056|
20150824-22:42:35.102 : 8=FIX.4.4|9=85|35=A|34=1|49=NODEQUICKFIX|52=20150824-22:42:35.102|56=ELECTRONIFIE|98=0|108=30|141=Y|10=046|
20150824-22:43:46.897 : 8=FIX.4.4|9=85|35=A|34=1|49=NODEQUICKFIX|52=20150824-22:43:46.897|56=ELECTRONIFIE|98=0|108=30|141=Y|10=070|
20150824-22:44:14.259 : 8=FIX.4.4|9=85|35=A|34=1|49=NODEQUICKFIX|52=20150824-22:44:14.259|56=ELECTRONIFIE|98=0|108=30|141=Y|10=058|
20150824-22:44:25.554 : 8=FIX.4.4|9=85|35=A|34=1|49=NODEQUICKFIX|52=20150824-22:44:25.554|56=ELECTRONIFIE|98=0|108=30|141=Y|10=058|
20150824-22:45:26.619 : 8=FIX.4.4|9=85|35=A|34=1|49=NODEQUICKFIX|52=20150824-22:45:26.618|56=ELECTRONIFIE|98=0|108=30|141=Y|10=061|
20150824-22:45:54.290 : 8=FIX.4.4|9=85|35=A|34=1|49=NODEQUICKFIX|52=20150824-22:45:54.290|56=ELECTRONIFIE|98=0|108=30|141=Y|10=058|
20150824-22:46:06.208 : 8=FIX.4.4|9=85|35=A|34=1|49=NODEQUICKFIX|52=20150824-22:46:06.207|56=ELECTRONIFIE|98=0|108=30|141=Y|10=054|
20150824-22:46:29.278 : 8=FIX.4.4|9=85|35=A|34=1|49=NODEQUICKFIX|52=20150824-22:46:29.278|56=ELECTRONIFIE|98=0|108=30|141=Y|10=067|
20150824-22:46:52.353 : 8=FIX.4.4|9=85|35=A|34=1|49=NODEQUICKFIX|52=20150824-22:46:52.353|56=ELECTRONIFIE|98=0|108=30|141=Y|10=057|
20150824-22:46:55.770 : 8=FIX.4.4|9=85|35=A|34=1|49=NODEQUICKFIX|52=20150824-22:46:55.769|56=ELECTRONIFIE|98=0|108=30|141=Y|10=071|
20150824-22:48:18.555 : 8=FIX.4.4|9=85|35=A|34=1|49=NODEQUICKFIX|52=20150824-22:48:18.554|56=ELECTRONIFIE|98=0|108=30|141=Y|10=064|
20150824-22:49:11.009 : 8=FIX.4.4|9=85|35=A|34=1|49=NODEQUICKFIX|52=20150824-22:49:11.009|56=ELECTRONIFIE|98=0|108=30|141=Y|10=053|
20150824-22:49:21.021 : 8=FIX.4.4|9=85|35=A|34=1|49=NODEQUICKFIX|52=20150824-22:49:21.021|56=ELECTRONIFIE|98=0|108=30|141=Y|10=048|
20150824-22:50:00.338 : 8=FIX.4.4|9=85|35=A|34=1|49=NODEQUICKFIX|52=20150824-22:50:00.338|56=ELECTRONIFIE|98=0|108=30|141=Y|10=048|
20150824-22:50:55.036 : 8=FIX.4.4|9=85|35=A|34=1|49=NODEQUICKFIX|52=20150824-22:50:55.036|56=ELECTRONIFIE|98=0|108=30|141=Y|10=053|
20150824-22:51:04.283 : 8=FIX.4.4|9=85|35=A|34=1|49=NODEQUICKFIX|52=20150824-22:51:04.282|56=ELECTRONIFIE|98=0|108=30|141=Y|10=051|
20150824-22:51:33.501 : 8=FIX.4.4|9=85|35=A|34=1|49=NODEQUICKFIX|52=20150824-22:51:33.501|56=ELECTRONIFIE|98=0|108=30|141=Y|10=047|
20150824-23:04:59.030 : 8=FIX.4.4|9=85|35=A|34=1|49=NODEQUICKFIX|52=20150824-23:04:59.029|56=ELECTRONIFIE|98=0|108=30|141=Y|10=059|
20150824-23:05:18.981 : 8=FIX.4.4|9=85|35=A|34=1|49=NODEQUICKFIX|52=20150824-23:05:18.981|56=ELECTRONIFIE|98=0|108=30|141=Y|10=062|
20150824-23:05:39.113 : 8=FIX.4.4|9=85|35=A|34=1|49=NODEQUICKFIX|52=20150824-23:05:39.112|56=ELECTRONIFIE|98=0|108=30|141=Y|10=051|
20150824-23:07:11.351 : 8=FIX.4.4|9=85|35=A|34=1|49=NODEQUICKFIX|52=20150824-23:07:11.351|56=ELECTRONIFIE|98=0|108=30|141=Y|10=048|
20150824-23:09:05.795 : 8=FIX.4.4|9=85|35=A|34=1|49=NODEQUICKFIX|52=20150824-23:09:05.795|56=ELECTRONIFIE|98=0|108=30|141=Y|10=065|
20150824-23:12:43.122 : 8=FIX.4.4|9=85|35=A|34=1|49=NODEQUICKFIX|52=20150824-23:12:43.122|56=ELECTRONIFIE|98=0|108=30|141=Y|10=045|
20150824-23:14:12.324 : 8=FIX.4.4|9=85|35=A|34=1|49=NODEQUICKFIX|52=20150824-23:14:12.323|56=ELECTRONIFIE|98=0|108=30|141=Y|10=046|
20150824-23:14:32.586 : 8=FIX.4.4|9=85|35=A|34=1|49=NODEQUICKFIX|52=20150824-23:14:32.586|56=ELECTRONIFIE|98=0|108=30|141=Y|10=059|
20150824-23:22:21.888 : 8=FIX.4.4|9=85|35=A|34=1|49=NODEQUICKFIX|52=20150824-23:22:21.887|56=ELECTRONIFIE|98=0|108=30|141=Y|10=060|
20150824-23:31:16.147 : 8=FIX.4.4|9=85|35=A|34=1|49=NODEQUICKFIX|52=20150824-23:31:16.147|56=ELECTRONIFIE|98=0|108=30|141=Y|10=053|
20150824-23:31:51.168 : 8=FIX.4.4|9=85|35=A|34=1|49=NODEQUICKFIX|52=20150824-23:31:51.167|56=ELECTRONIFIE|98=0|108=30|141=Y|10=054|
20150824-23:34:45.163 : 8=FIX.4.4|9=85|35=A|34=1|49=NODEQUICKFIX|52=20150824-23:34:45.162|56=ELECTRONIFIE|98=0|108=30|141=Y|10=055|
20150824-23:40:01.223 : 8=FIX.4.4|9=85|35=A|34=1|49=NODEQUICKFIX|52=20150824-23:40:01.223|56=ELECTRONIFIE|98=0|108=30|141=Y|10=042|
20150824-23:40:42.684 : 8=FIX.4.4|9=85|35=A|34=1|49=NODEQUICKFIX|52=20150824-23:40:42.683|56=ELECTRONIFIE|98=0|108=30|141=Y|10=057|
20150824-23:46:42.591 : 8=FIX.4.4|9=85|35=A|34=1|49=NODEQUICKFIX|52=20150824-23:46:42.590|56=ELECTRONIFIE|98=0|108=30|141=Y|10=060|
20150825-11:21:45.333 : 8=FIX.4.4|9=85|35=A|34=1|49=NODEQUICKFIX|52=20150825-11:21:45.333|56=ELECTRONIFIE|98=0|108=30|141=Y|10=049|
20150825-11:22:47.955 : 8=FIX.4.4|9=85|35=A|34=1|49=NODEQUICKFIX|52=20150825-11:22:47.955|56=ELECTRONIFIE|98=0|108=30|141=Y|10=062|
20150825-11:24:14.006 : 8=FIX.4.4|9=85|35=A|34=1|49=NODEQUICKFIX|52=20150825-11:24:14.005|56=ELECTRONIFIE|98=0|108=30|141=Y|10=044|
20150825-11:24:50.898 : 8=FIX.4.4|9=85|35=A|34=1|49=NODEQUICKFIX|52=20150825-11:24:50.898|56=ELECTRONIFIE|98=0|108=30|141=Y|10=064|
20150825-11:25:20.863 : 8=FIX.4.4|9=85|35=A|34=1|49=NODEQUICKFIX|52=20150825-11:25:20.862|56=ELECTRONIFIE|98=0|108=30|141=Y|10=053|
20150825-11:34:01.254 : 8=FIX.4.4|9=85|35=A|34=1|49=NODEQUICKFIX|52=20150825-11:34:01.253|56=ELECTRONIFIE|98=0|108=30|141=Y|10=046|
20150825-11:35:29.987 : 8=FIX.4.4|9=85|35=A|34=1|49=NODEQUICKFIX|52=20150825-11:35:29.987|56=ELECTRONIFIE|98=0|108=30|141=Y|10=071|
20150825-11:41:32.124 : 8=FIX.4.4|9=85|35=A|34=1|49=NODEQUICKFIX|52=20150825-11:41:32.123|56=ELECTRONIFIE|98=0|108=30|141=Y|10=044|
20150825-11:41:55.644 : 8=FIX.4.4|9=85|35=A|34=1|49=NODEQUICKFIX|52=20150825-11:41:55.643|56=ELECTRONIFIE|98=0|108=30|141=Y|10=056|
20150825-11:42:14.237 : 8=FIX.4.4|9=85|35=A|34=1|49=NODEQUICKFIX|52=20150825-11:42:14.237|56=ELECTRONIFIE|98=0|108=30|141=Y|10=051|
20150825-11:43:08.230 : 8=FIX.4.4|9=85|35=A|34=1|49=NODEQUICKFIX|52=20150825-11:43:08.230|56=ELECTRONIFIE|98=0|108=30|141=Y|10=048|
20150825-11:45:30.788 : 8=FIX.4.4|9=85|35=A|34=1|49=NODEQUICKFIX|52=20150825-11:45:30.788|56=ELECTRONIFIE|98=0|108=30|141=Y|10=063|
20150825-11:45:39.115 : 8=FIX.4.4|9=85|35=A|34=1|49=NODEQUICKFIX|52=20150825-11:45:39.115|56=ELECTRONIFIE|98=0|108=30|141=Y|10=056|
20150825-11:47:01.476 : 8=FIX.4.4|9=85|35=A|34=1|49=NODEQUICKFIX|52=20150825-11:47:01.476|56=ELECTRONIFIE|98=0|108=30|141=Y|10=057|
20150825-11:47:48.911 : 8=FIX.4.4|9=85|35=A|34=1|49=NODEQUICKFIX|52=20150825-11:47:48.911|56=ELECTRONIFIE|98=0|108=30|141=Y|10=062|
20150825-11:49:40.024 : 8=FIX.4.4|9=85|35=A|34=1|49=NODEQUICKFIX|52=20150825-11:49:40.024|56=ELECTRONIFIE|98=0|108=30|141=Y|10=051|
20150825-11:51:10.723 : 8=FIX.4.4|9=85|35=A|34=1|49=NODEQUICKFIX|52=20150825-11:51:10.723|56=ELECTRONIFIE|98=0|108=30|141=Y|10=047|
20150825-11:52:53.373 : 8=FIX.4.4|9=85|35=A|34=1|49=NODEQUICKFIX|52=20150825-11:52:53.373|56=ELECTRONIFIE|98=0|108=30|141=Y|10=056|
20150825-11:54:10.788 : 8=FIX.4.4|9=85|35=A|34=1|49=NODEQUICKFIX|52=20150825-11:54:10.788|56=ELECTRONIFIE|98=0|108=30|141=Y|10=061|
20150825-11:54:35.381 : 8=FIX.4.4|9=85|35=A|34=1|49=NODEQUICKFIX|52=20150825-11:54:35.380|56=ELECTRONIFIE|98=0|108=30|141=Y|10=056|
20150825-11:59:28.343 : 8=FIX.4.4|9=85|35=A|34=1|49=NODEQUICKFIX|52=20150825-11:59:28.343|56=ELECTRONIFIE|98=0|108=30|141=Y|10=062|
20150825-12:01:46.308 : 8=FIX.4.4|9=85|35=A|34=1|49=NODEQUICKFIX|52=20150825-12:01:46.308|56=ELECTRONIFIE|98=0|108=30|141=Y|10=051|
20150825-12:03:27.437 : 8=FIX.4.4|9=85|35=A|34=1|49=NODEQUICKFIX|52=20150825-12:03:27.436|56=ELECTRONIFIE|98=0|108=30|141=Y|10=054|
20150825-12:12:34.196 : 8=FIX.4.4|9=85|35=A|34=1|49=NODEQUICKFIX|52=20150825-12:12:34.196|56=ELECTRONIFIE|98=0|108=30|141=Y|10=055|
20150825-12:13:33.314 : 8=FIX.4.4|9=85|35=A|34=1|49=NODEQUICKFIX|52=20150825-12:13:33.314|56=ELECTRONIFIE|98=0|108=30|141=Y|10=047|
20150825-12:24:16.279 : 8=FIX.4.4|9=85|35=A|34=1|49=NODEQUICKFIX|52=20150825-12:24:16.279|56=ELECTRONIFIE|98=0|108=30|141=Y|10=060|
20150825-12:24:46.723 : 8=FIX.4.4|9=85|35=A|34=1|49=NODEQUICKFIX|52=20150825-12:24:46.722|56=ELECTRONIFIE|98=0|108=30|141=Y|10=056|
20150825-12:26:23.690 : 8=FIX.4.4|9=85|35=A|34=1|49=NODEQUICKFIX|52=20150825-12:26:23.690|56=ELECTRONIFIE|98=0|108=30|141=Y|10=057|
20150825-12:34:14.230 : 8=FIX.4.4|9=85|35=A|34=1|49=NODEQUICKFIX|52=20150825-12:34:14.230|56=ELECTRONIFIE|98=0|108=30|141=Y|10=046|
20150825-12:34:47.813 : 8=FIX.4.4|9=85|35=A|34=1|49=NODEQUICKFIX|52=20150825-12:34:47.813|56=ELECTRONIFIE|98=0|108=30|141=Y|10=059|
20150825-12:35:10.030 : 8=FIX.4.4|9=85|35=A|34=1|49=NODEQUICKFIX|52=20150825-12:35:10.029|56=ELECTRONIFIE|98=0|108=30|141=Y|10=049|
20150825-20:50:48.776 : 8=FIX.4.4|9=85|35=A|34=1|49=NODEQUICKFIX|52=20150825-20:50:48.775|56=ELECTRONIFIE|98=0|108=30|141=Y|10=064|
20150825-20:52:58.123 : 8=FIX.4.4|9=85|35=A|34=1|49=NODEQUICKFIX|52=20150825-20:52:58.123|56=ELECTRONIFIE|98=0|108=30|141=Y|10=054|
20150825-20:54:59.055 : 8=FIX.4.4|9=85|35=A|34=1|49=NODEQUICKFIX|52=20150825-20:54:59.054|56=ELECTRONIFIE|98=0|108=30|141=Y|10=060|
20150825-20:55:28.575 : 8=FIX.4.4|9=85|35=A|34=1|49=NODEQUICKFIX|52=20150825-20:55:28.574|56=ELECTRONIFIE|98=0|108=30|141=Y|10=064|
20150825-22:06:57.976 : 8=FIX.4.4|9=85|35=A|34=1|49=NODEQUICKFIX|52=20150825-22:06:57.976|56=ELECTRONIFIE|98=0|108=30|141=Y|10=070|
20150825-22:07:30.668 : 8=FIX.4.4|9=85|35=A|34=1|49=NODEQUICKFIX|52=20150825-22:07:30.668|56=ELECTRONIFIE|98=0|108=30|141=Y|10=060|
20150825-22:07:46.330 : 8=FIX.4.4|9=85|35=A|34=1|49=NODEQUICKFIX|52=20150825-22:07:46.330|56=ELECTRONIFIE|98=0|108=30|141=Y|10=053|
20150825-22:07:57.340 : 8=FIX.4.4|9=85|35=A|34=1|49=NODEQUICKFIX|52=20150825-22:07:57.339|56=ELECTRONIFIE|98=0|108=30|141=Y|10=064|
20150825-22:08:27.716 : 8=FIX.4.4|9=85|35=A|34=1|49=NODEQUICKFIX|52=20150825-22:08:27.716|56=ELECTRONIFIE|98=0|108=30|141=Y|10=061|
20150825-22:08:49.618 : 8=FIX.4.4|9=85|35=A|34=1|49=NODEQUICKFIX|52=20150825-22:08:49.618|56=ELECTRONIFIE|98=0|108=30|141=Y|10=066|
20150825-22:09:30.207 : 8=FIX.4.4|9=85|35=A|34=1|49=NODEQUICKFIX|52=20150825-22:09:30.207|56=ELECTRONIFIE|98=0|108=30|141=Y|10=051|
20150825-22:51:44.564 : 8=FIX.4.4|9=85|35=A|34=1|49=NODEQUICKFIX|52=20150825-22:51:44.564|56=ELECTRONIFIE|98=0|108=30|141=Y|10=059|
20150825-22:53:08.397 : 8=FIX.4.4|9=85|35=A|34=1|49=NODEQUICKFIX|52=20150825-22:53:08.396|56=ELECTRONIFIE|98=0|108=30|141=Y|10=064|
20150825-22:58:39.729 : 8=FIX.4.4|9=85|35=A|34=1|49=NODEQUICKFIX|52=20150825-22:58:39.729|56=ELECTRONIFIE|98=0|108=30|141=Y|10=073|
20150825-22:59:03.715 : 8=FIX.4.4|9=85|35=A|34=1|49=NODEQUICKFIX|52=20150825-22:59:03.715|56=ELECTRONIFIE|98=0|108=30|141=Y|10=060|
20150825-23:00:20.429 : 8=FIX.4.4|9=85|35=A|34=1|49=NODEQUICKFIX|52=20150825-23:00:20.429|56=ELECTRONIFIE|98=0|108=30|141=Y|10=048|
20150825-23:05:57.086 : 8=FIX.4.4|9=85|35=A|34=1|49=NODEQUICKFIX|52=20150825-23:05:57.086|56=ELECTRONIFIE|98=0|108=30|141=Y|10=062|
20150825-23:06:28.112 : 8=FIX.4.4|9=85|35=A|34=1|49=NODEQUICKFIX|52=20150825-23:06:28.112|56=ELECTRONIFIE|98=0|108=30|141=Y|10=051|
20150825-23:08:00.981 : 8=FIX.4.4|9=85|35=A|34=1|49=NODEQUICKFIX|52=20150825-23:08:00.980|56=ELECTRONIFIE|98=0|108=30|141=Y|10=056|
20150825-23:08:23.644 : 8=FIX.4.4|9=85|35=A|34=1|49=NODEQUICKFIX|52=20150825-23:08:23.644|56=ELECTRONIFIE|98=0|108=30|141=Y|10=058|
20150825-23:09:01.748 : 8=FIX.4.4|9=85|35=A|34=1|49=NODEQUICKFIX|52=20150825-23:09:01.748|56=ELECTRONIFIE|98=0|108=30|141=Y|10=060|
20150825-23:09:13.153 : 8=FIX.4.4|9=85|35=A|34=1|49=NODEQUICKFIX|52=20150825-23:09:13.153|56=ELECTRONIFIE|98=0|108=30|141=Y|10=053|
20150825-23:10:05.328 : 8=FIX.4.4|9=85|35=A|34=1|49=NODEQUICKFIX|52=20150825-23:10:05.327|56=ELECTRONIFIE|98=0|108=30|141=Y|10=049|
20150825-23:10:18.923 : 8=FIX.4.4|9=85|35=A|34=1|49=NODEQUICKFIX|52=20150825-23:10:18.923|56=ELECTRONIFIE|98=0|108=30|141=Y|10=055|
20150825-23:10:25.887 : 8=FIX.4.4|9=85|35=A|34=1|49=NODEQUICKFIX|52=20150825-23:10:25.887|56=ELECTRONIFIE|98=0|108=30|141=Y|10=062|
20150825-23:10:35.514 : 8=FIX.4.4|9=85|35=A|34=1|49=NODEQUICKFIX|52=20150825-23:10:35.514|56=ELECTRONIFIE|98=0|108=30|141=Y|10=050|
20150825-23:10:44.327 : 8=FIX.4.4|9=85|35=A|34=1|49=NODEQUICKFIX|52=20150825-23:10:44.327|56=ELECTRONIFIE|98=0|108=30|141=Y|10=052|
20150825-23:12:07.680 : 8=FIX.4.4|9=85|35=A|34=1|49=NODEQUICKFIX|52=20150825-23:12:07.680|56=ELECTRONIFIE|98=0|108=30|141=Y|10=055|
20150825-23:12:15.085 : 8=FIX.4.4|9=85|35=A|34=1|49=NODEQUICKFIX|52=20150825-23:12:15.085|56=ELECTRONIFIE|98=0|108=30|141=Y|10=053|
20150825-23:21:06.589 : 8=FIX.4.4|9=85|35=A|34=1|49=NODEQUICKFIX|52=20150825-23:21:06.588|56=ELECTRONIFIE|98=0|108=30|141=Y|10=061|
20150825-23:21:15.332 : 8=FIX.4.4|9=85|35=A|34=1|49=NODEQUICKFIX|52=20150825-23:21:15.332|56=ELECTRONIFIE|98=0|108=30|141=Y|10=048|
20150825-23:25:25.608 : 8=FIX.4.4|9=85|35=A|34=1|49=NODEQUICKFIX|52=20150825-23:25:25.607|56=ELECTRONIFIE|98=0|108=30|141=Y|10=058|
20150825-23:25:44.400 : 8=FIX.4.4|9=85|35=A|34=1|49=NODEQUICKFIX|52=20150825-23:25:44.400|56=ELECTRONIFIE|98=0|108=30|141=Y|10=050|
20150826-12:18:32.312 : 8=FIX.4.4|9=85|35=A|34=1|49=NODEQUICKFIX|52=20150826-12:18:32.311|56=ELECTRONIFIE|98=0|108=30|141=Y|10=049|
20150826-12:19:34.515 : 8=FIX.4.4|9=85|35=A|34=1|49=NODEQUICKFIX|52=20150826-12:19:34.514|56=ELECTRONIFIE|98=0|108=30|141=Y|10=057|
20150826-12:20:34.576 : 8=FIX.4.4|9=85|35=A|34=1|49=NODEQUICKFIX|52=20150826-12:20:34.576|56=ELECTRONIFIE|98=0|108=30|141=Y|10=057|
20150826-12:20:34.577 : 8=FIX.4.4|9=85|35=A|34=1|49=ELECTRONIFIE|52=20150826-12:20:34.577|56=NODEQUICKFIX|98=0|108=30|141=Y|10=058|
20150826-12:21:04.607 : 8=FIX.4.4|9=67|35=0|34=2|49=NODEQUICKFIX|52=20150826-12:21:04.607|56=ELECTRONIFIE|10=220|
20150826-12:21:04.607 : 8=FIX.4.4|9=67|35=0|34=2|49=ELECTRONIFIE|52=20150826-12:21:04.607|56=NODEQUICKFIX|10=220|
20150826-12:21:34.637 : 8=FIX.4.4|9=67|35=0|34=3|49=NODEQUICKFIX|52=20150826-12:21:34.637|56=ELECTRONIFIE|10=227|
20150826-12:21:34.637 : 8=FIX.4.4|9=67|35=0|34=3|49=ELECTRONIFIE|52=20150826-12:21:34.637|56=NODEQUICKFIX|10=227|
20150826-12:22:04.667 : 8=FIX.4.4|9=67|35=0|34=4|49=NODEQUICKFIX|52=20150826-12:22:04.667|56=ELECTRONIFIE|10=229|
20150826-12:22:04.667 : 8=FIX.4.4|9=67|35=0|34=4|49=ELECTRONIFIE|52=20150826-12:22:04.667|56=NODEQUICKFIX|10=229|
20150826-18:07:13.529 : 8=FIX.4.4|9=85|35=A|34=1|49=NODEQUICKFIX|52=20150826-18:07:13.528|56=ELECTRONIFIE|98=0|108=30|141=Y|10=062|
20150826-18:07:18.190 : 8=FIX.4.4|9=85|35=A|34=1|49=NODEQUICKFIX|52=20150826-18:07:18.190|56=ELECTRONIFIE|98=0|108=30|141=Y|10=062|
20150826-18:34:28.063 : 8=FIX.4.4|9=85|35=A|34=1|49=NODEQUICKFIX|52=20150826-18:34:28.063|56=ELECTRONIFIE|98=0|108=30|141=Y|10=062|
20150826-18:52:58.615 : 8=FIX.4.4|9=85|35=A|34=1|49=NODEQUICKFIX|52=20150826-18:52:58.614|56=ELECTRONIFIE|98=0|108=30|141=Y|10=067|
20150826-18:55:21.325 : 8=FIX.4.4|9=85|35=A|34=1|49=NODEQUICKFIX|52=20150826-18:55:21.325|56=ELECTRONIFIE|98=0|108=30|141=Y|10=059|
20150826-18:55:30.249 : 8=FIX.4.4|9=85|35=A|34=1|49=NODEQUICKFIX|52=20150826-18:55:30.248|56=ELECTRONIFIE|98=0|108=30|141=Y|10=063|
20150826-18:57:11.095 : 8=FIX.4.4|9=85|35=A|34=1|49=NODEQUICKFIX|52=20150826-18:57:11.094|56=ELECTRONIFIE|98=0|108=30|141=Y|10=063|
20150826-18:57:34.727 : 8=FIX.4.4|9=85|35=A|34=1|49=NODEQUICKFIX|52=20150826-18:57:34.726|56=ELECTRONIFIE|98=0|108=30|141=Y|10=070|
20150826-18:58:25.798 : 8=FIX.4.4|9=85|35=A|34=1|49=NODEQUICKFIX|52=20150826-18:58:25.797|56=ELECTRONIFIE|98=0|108=30|141=Y|10=079|
20150826-18:59:50.910 : 8=FIX.4.4|9=85|35=A|34=1|49=NODEQUICKFIX|52=20150826-18:59:50.909|56=ELECTRONIFIE|98=0|108=30|141=Y|10=073|
20150826-19:00:50.970 : 8=FIX.4.4|9=85|35=A|34=1|49=NODEQUICKFIX|52=20150826-19:00:50.970|56=ELECTRONIFIE|98=0|108=30|141=Y|10=058|
20150826-19:00:50.988 : 8=FIX.4.4|9=85|35=A|34=1|49=ELECTRONIFIE|52=20150826-19:00:50.988|56=NODEQUICKFIX|98=0|108=30|141=Y|10=067|
20150826-19:01:20.000 : 8=FIX.4.4|9=67|35=0|34=2|49=NODEQUICKFIX|52=20150826-19:01:20.000|56=ELECTRONIFIE|10=210|
20150826-19:01:20.000 : 8=FIX.4.4|9=67|35=0|34=2|49=ELECTRONIFIE|52=20150826-19:01:20.000|56=NODEQUICKFIX|10=210|
20150826-19:01:31.017 : 8=FIX.4.4|9=85|35=A|34=1|49=NODEQUICKFIX|52=20150826-19:01:31.017|56=ELECTRONIFIE|98=0|108=30|141=Y|10=050|
20150826-19:02:26.917 : 8=FIX.4.4|9=85|35=A|34=1|49=NODEQUICKFIX|52=20150826-19:02:26.917|56=ELECTRONIFIE|98=0|108=30|141=Y|10=064|
20150826-19:03:26.979 : 8=FIX.4.4|9=85|35=A|34=1|49=NODEQUICKFIX|52=20150826-19:03:26.979|56=ELECTRONIFIE|98=0|108=30|141=Y|10=073|
20150826-19:03:26.979 : 8=FIX.4.4|9=85|35=A|34=1|49=ELECTRONIFIE|52=20150826-19:03:26.979|56=NODEQUICKFIX|98=0|108=30|141=Y|10=073|
20150826-19:03:56.008 : 8=FIX.4.4|9=67|35=0|34=2|49=ELECTRONIFIE|52=20150826-19:03:56.007|56=NODEQUICKFIX|10=228|
20150826-19:03:56.008 : 8=FIX.4.4|9=67|35=0|34=2|49=NODEQUICKFIX|52=20150826-19:03:56.008|56=ELECTRONIFIE|10=229|
20150826-19:04:26.038 : 8=FIX.4.4|9=67|35=0|34=3|49=NODEQUICKFIX|52=20150826-19:04:26.038|56=ELECTRONIFIE|10=231|
20150826-19:04:26.038 : 8=FIX.4.4|9=67|35=0|34=3|49=ELECTRONIFIE|52=20150826-19:04:26.038|56=NODEQUICKFIX|10=231|
20150826-19:05:39.090 : 8=FIX.4.4|9=85|35=A|34=1|49=NODEQUICKFIX|52=20150826-19:05:39.090|56=ELECTRONIFIE|98=0|108=30|141=Y|10=063|
20150826-19:06:12.248 : 8=FIX.4.4|9=85|35=A|34=1|49=NODEQUICKFIX|52=20150826-19:06:12.247|56=ELECTRONIFIE|98=0|108=30|141=Y|10=059|
20150826-19:07:19.943 : 8=FIX.4.4|9=85|35=A|34=1|49=NODEQUICKFIX|52=20150826-19:07:19.942|56=ELECTRONIFIE|98=0|108=30|141=Y|10=069|
20150826-19:07:38.097 : 8=FIX.4.4|9=85|35=A|34=1|49=NODEQUICKFIX|52=20150826-19:07:38.097|56=ELECTRONIFIE|98=0|108=30|141=Y|10=071|
20150826-19:07:56.136 : 8=FIX.4.4|9=85|35=A|34=1|49=NODEQUICKFIX|52=20150826-19:07:56.135|56=ELECTRONIFIE|98=0|108=30|141=Y|10=064|
20150826-19:13:44.882 : 8=FIX.4.4|9=85|35=A|34=1|49=NODEQUICKFIX|52=20150826-19:13:44.881|56=ELECTRONIFIE|98=0|108=30|141=Y|10=066|
20150826-19:14:42.670 : 8=FIX.4.4|9=85|35=A|34=1|49=NODEQUICKFIX|52=20150826-19:14:42.669|56=ELECTRONIFIE|98=0|108=30|141=Y|10=069|
20150826-19:18:32.133 : 8=FIX.4.4|9=85|35=A|34=1|49=NODEQUICKFIX|52=20150826-19:18:32.133|56=ELECTRONIFIE|98=0|108=30|141=Y|10=058|
20150826-19:19:04.343 : 8=FIX.4.4|9=85|35=A|34=1|49=NODEQUICKFIX|52=20150826-19:19:04.343|56=ELECTRONIFIE|98=0|108=30|141=Y|10=061|
20150826-19:20:17.462 : 8=FIX.4.4|9=85|35=A|34=1|49=NODEQUICKFIX|52=20150826-19:20:17.461|56=ELECTRONIFIE|98=0|108=30|141=Y|10=058|
20150826-19:20:43.539 : 8=FIX.4.4|9=85|35=A|34=1|49=NODEQUICKFIX|52=20150826-19:20:43.539|56=ELECTRONIFIE|98=0|108=30|141=Y|10=063|
20150826-19:25:34.623 : 8=FIX.4.4|9=85|35=A|34=1|49=NODEQUICKFIX|52=20150826-19:25:34.623|56=ELECTRONIFIE|98=0|108=30|141=Y|10=062|
20150826-19:27:14.630 : 8=FIX.4.4|9=85|35=A|34=1|49=NODEQUICKFIX|52=20150826-19:27:14.630|56=ELECTRONIFIE|98=0|108=30|141=Y|10=060|
20150826-19:27:54.648 : 8=FIX.4.4|9=85|35=A|34=1|49=NODEQUICKFIX|52=20150826-19:27:54.648|56=ELECTRONIFIE|98=0|108=30|141=Y|10=073|
20150826-19:51:43.912 : 8=FIX.4.4|9=85|35=A|34=1|49=NODEQUICKFIX|52=20150826-19:51:43.911|56=ELECTRONIFIE|98=0|108=30|141=Y|10=061|
20150826-19:54:59.695 : 8=FIX.4.4|9=85|35=A|34=1|49=NODEQUICKFIX|52=20150826-19:54:59.695|56=ELECTRONIFIE|98=0|108=30|141=Y|10=080|
20150826-19:55:13.721 : 8=FIX.4.4|9=85|35=A|34=1|49=NODEQUICKFIX|52=20150826-19:55:13.721|56=ELECTRONIFIE|98=0|108=30|141=Y|10=061|
20150826-19:57:47.682 : 8=FIX.4.4|9=85|35=A|34=1|49=NODEQUICKFIX|52=20150826-19:57:47.682|56=ELECTRONIFIE|98=0|108=30|141=Y|10=076|
20150826-19:58:19.707 : 8=FIX.4.4|9=85|35=A|34=1|49=NODEQUICKFIX|52=20150826-19:58:19.706|56=ELECTRONIFIE|98=0|108=30|141=Y|10=073|
20150826-19:58:47.761 : 8=FIX.4.4|9=85|35=A|34=1|49=NODEQUICKFIX|52=20150826-19:58:47.760|56=ELECTRONIFIE|98=0|108=30|141=Y|10=074|
20150826-20:00:54.924 : 8=FIX.4.4|9=85|35=A|34=1|49=NODEQUICKFIX|52=20150826-20:00:54.923|56=ELECTRONIFIE|98=0|108=30|141=Y|10=052|
20150826-20:01:23.554 : 8=FIX.4.4|9=85|35=A|34=1|49=NODEQUICKFIX|52=20150826-20:01:23.554|56=ELECTRONIFIE|98=0|108=30|141=Y|10=049|
20150826-20:03:55.106 : 8=FIX.4.4|9=85|35=A|34=1|49=NODEQUICKFIX|52=20150826-20:03:55.106|56=ELECTRONIFIE|98=0|108=30|141=Y|10=049|
20150826-20:18:03.151 : 8=FIX.4.4|9=85|35=A|34=1|49=NODEQUICKFIX|52=20150826-20:18:03.150|56=ELECTRONIFIE|98=0|108=30|141=Y|10=047|
20150826-20:19:53.729 : 8=FIX.4.4|9=85|35=A|34=1|49=NODEQUICKFIX|52=20150826-20:19:53.729|56=ELECTRONIFIE|98=0|108=30|141=Y|10=065|
20150826-20:20:59.608 : 8=FIX.4.4|9=85|35=A|34=1|49=NODEQUICKFIX|52=20150826-20:20:59.608|56=ELECTRONIFIE|98=0|108=30|141=Y|10=059|
20150826-20:21:45.756 : 8=FIX.4.4|9=85|35=A|34=1|49=NODEQUICKFIX|52=20150826-20:21:45.756|56=ELECTRONIFIE|98=0|108=30|141=Y|10=059|
20150826-20:24:00.245 : 8=FIX.4.4|9=85|35=A|34=1|49=NODEQUICKFIX|52=20150826-20:24:00.245|56=ELECTRONIFIE|98=0|108=30|141=Y|10=046|
20150826-20:25:36.951 : 8=FIX.4.4|9=85|35=A|34=1|49=NODEQUICKFIX|52=20150826-20:25:36.950|56=ELECTRONIFIE|98=0|108=30|141=Y|10=059|
20150826-20:27:43.718 : 8=FIX.4.4|9=85|35=A|34=1|49=NODEQUICKFIX|52=20150826-20:27:43.718|56=ELECTRONIFIE|98=0|108=30|141=Y|10=061|
20150826-20:28:43.777 : 8=FIX.4.4|9=85|35=A|34=1|49=NODEQUICKFIX|52=20150826-20:28:43.777|56=ELECTRONIFIE|98=0|108=30|141=Y|10=067|
20150826-20:28:43.778 : 8=FIX.4.4|9=85|35=A|34=1|49=ELECTRONIFIE|52=20150826-20:28:43.778|56=NODEQUICKFIX|98=0|108=30|141=Y|10=068|
20150826-20:29:13.807 : 8=FIX.4.4|9=67|35=0|34=2|49=NODEQUICKFIX|52=20150826-20:29:13.807|56=ELECTRONIFIE|10=229|
20150826-20:29:13.807 : 8=FIX.4.4|9=67|35=0|34=2|49=ELECTRONIFIE|52=20150826-20:29:13.807|56=NODEQUICKFIX|10=229|
20150826-20:29:43.838 : 8=FIX.4.4|9=67|35=0|34=3|49=NODEQUICKFIX|52=20150826-20:29:43.838|56=ELECTRONIFIE|10=237|
20150826-20:29:43.838 : 8=FIX.4.4|9=67|35=0|34=3|49=ELECTRONIFIE|52=20150826-20:29:43.838|56=NODEQUICKFIX|10=237|
20150826-20:40:00.521 : 8=FIX.4.4|9=85|35=A|34=1|49=NODEQUICKFIX|52=20150826-20:40:00.521|56=ELECTRONIFIE|98=0|108=30|141=Y|10=041|
20150826-20:40:20.426 : 8=FIX.4.4|9=85|35=A|34=1|49=NODEQUICKFIX|52=20150826-20:40:20.426|56=ELECTRONIFIE|98=0|108=30|141=Y|10=047|
20150826-20:41:20.486 : 8=FIX.4.4|9=85|35=A|34=1|49=NODEQUICKFIX|52=20150826-20:41:20.486|56=ELECTRONIFIE|98=0|108=30|141=Y|10=054|
20150826-20:41:20.487 : 8=FIX.4.4|9=85|35=A|34=1|49=ELECTRONIFIE|52=20150826-20:41:20.487|56=NODEQUICKFIX|98=0|108=30|141=Y|10=055|
20150826-20:41:50.516 : 8=FIX.4.4|9=67|35=0|34=2|49=ELECTRONIFIE|52=20150826-20:41:50.516|56=NODEQUICKFIX|10=221|
20150826-20:41:50.516 : 8=FIX.4.4|9=67|35=0|34=2|49=NODEQUICKFIX|52=20150826-20:41:50.516|56=ELECTRONIFIE|10=221|
20150826-21:25:01.202 : 8=FIX.4.4|9=85|35=A|34=1|49=NODEQUICKFIX|52=20150826-21:25:01.202|56=ELECTRONIFIE|98=0|108=30|141=Y|10=042|
20150826-21:25:40.745 : 8=FIX.4.4|9=85|35=A|34=1|49=NODEQUICKFIX|52=20150826-21:25:40.745|56=ELECTRONIFIE|98=0|108=30|141=Y|10=057|
20150826-21:25:53.517 : 8=FIX.4.4|9=85|35=A|34=1|49=NODEQUICKFIX|52=20150826-21:25:53.516|56=ELECTRONIFIE|98=0|108=30|141=Y|10=057|
20150826-21:26:53.576 : 8=FIX.4.4|9=85|35=A|34=1|49=NODEQUICKFIX|52=20150826-21:26:53.576|56=ELECTRONIFIE|98=0|108=30|141=Y|10=064|
20150826-21:26:53.577 : 8=FIX.4.4|9=85|35=A|34=1|49=ELECTRONIFIE|52=20150826-21:26:53.577|56=NODEQUICKFIX|98=0|108=30|141=Y|10=065|
20150826-21:27:23.606 : 8=FIX.4.4|9=67|35=0|34=2|49=ELECTRONIFIE|52=20150826-21:27:23.606|56=NODEQUICKFIX|10=226|
20150826-21:27:23.606 : 8=FIX.4.4|9=67|35=0|34=2|49=NODEQUICKFIX|52=20150826-21:27:23.606|56=ELECTRONIFIE|10=226|
20150826-21:27:53.636 : 8=FIX.4.4|9=67|35=0|34=3|49=ELECTRONIFIE|52=20150826-21:27:53.636|56=NODEQUICKFIX|10=233|
20150826-21:27:53.636 : 8=FIX.4.4|9=67|35=0|34=3|49=NODEQUICKFIX|52=20150826-21:27:53.636|56=ELECTRONIFIE|10=233|
20150826-22:15:38.490 : 8=FIX.4.4|9=85|35=A|34=1|49=NODEQUICKFIX|52=20150826-22:15:38.490|56=ELECTRONIFIE|98=0|108=30|141=Y|10=061|
20150826-22:16:15.821 : 8=FIX.4.4|9=85|35=A|34=1|49=NODEQUICKFIX|52=20150826-22:16:15.821|56=ELECTRONIFIE|98=0|108=30|141=Y|10=055|
20150826-22:16:39.841 : 8=FIX.4.4|9=85|35=A|34=1|49=NODEQUICKFIX|52=20150826-22:16:39.841|56=ELECTRONIFIE|98=0|108=30|141=Y|10=063|
20150826-22:17:39.896 : 8=FIX.4.4|9=85|35=A|34=1|49=NODEQUICKFIX|52=20150826-22:17:39.895|56=ELECTRONIFIE|98=0|108=30|141=Y|10=073|
20150826-22:17:39.896 : 8=FIX.4.4|9=85|35=A|34=1|49=ELECTRONIFIE|52=20150826-22:17:39.896|56=NODEQUICKFIX|98=0|108=30|141=Y|10=074|
20150826-22:17:54.882 : 8=FIX.4.4|9=85|35=A|34=1|49=NODEQUICKFIX|52=20150826-22:17:54.882|56=ELECTRONIFIE|98=0|108=30|141=Y|10=066|
20150826-22:18:54.936 : 8=FIX.4.4|9=85|35=A|34=1|49=NODEQUICKFIX|52=20150826-22:18:54.935|56=ELECTRONIFIE|98=0|108=30|141=Y|10=066|
20150826-22:18:54.936 : 8=FIX.4.4|9=85|35=A|34=1|49=ELECTRONIFIE|52=20150826-22:18:54.936|56=NODEQUICKFIX|98=0|108=30|141=Y|10=067|
20150826-22:18:54.968 : 8=FIX.4.4|9=164|35=D|34=2|49=ELECTRONIFIE|52=20150826-22:18:54.968|56=NODEQUICKFIX|11=0E0Z86K00000|22=1|38=200|40=2|48=06051GDX4|54=1|55=BAC|60=20150827-00:17:54.950|218=100|423=6|10=179|
20150826-22:19:52.029 : 8=FIX.4.4|9=85|35=A|34=1|49=NODEQUICKFIX|52=20150826-22:19:52.028|56=ELECTRONIFIE|98=0|108=30|141=Y|10=058|
20150826-22:20:52.088 : 8=FIX.4.4|9=85|35=A|34=1|49=NODEQUICKFIX|52=20150826-22:20:52.087|56=ELECTRONIFIE|98=0|108=30|141=Y|10=055|
20150826-22:20:52.088 : 8=FIX.4.4|9=85|35=A|34=1|49=ELECTRONIFIE|52=20150826-22:20:52.088|56=NODEQUICKFIX|98=0|108=30|141=Y|10=056|
20150826-22:20:52.112 : 8=FIX.4.4|9=164|35=D|34=2|49=ELECTRONIFIE|52=20150826-22:20:52.112|56=NODEQUICKFIX|11=0E0Z86K00000|22=1|38=200|40=2|48=06051GDX4|54=1|55=BAC|60=20150827-00:19:52.096|218=100|423=6|10=152|
20150826-22:21:42.410 : 8=FIX.4.4|9=85|35=A|34=1|49=NODEQUICKFIX|52=20150826-22:21:42.410|56=ELECTRONIFIE|98=0|108=30|141=Y|10=045|
20150826-22:22:42.466 : 8=FIX.4.4|9=85|35=A|34=1|49=NODEQUICKFIX|52=20150826-22:22:42.466|56=ELECTRONIFIE|98=0|108=30|141=Y|10=057|
20150826-22:22:42.466 : 8=FIX.4.4|9=85|35=A|34=1|49=ELECTRONIFIE|52=20150826-22:22:42.466|56=NODEQUICKFIX|98=0|108=30|141=Y|10=057|
20150826-22:22:42.498 : 8=FIX.4.4|9=164|35=D|34=2|49=ELECTRONIFIE|52=20150826-22:22:42.498|56=NODEQUICKFIX|11=0E0Z86K00000|22=1|38=200|40=2|48=06051GDX4|54=1|55=BAC|60=20150827-00:21:42.480|218=100|423=6|10=159|
20150826-22:28:06.143 : 8=FIX.4.4|9=85|35=A|34=1|49=NODEQUICKFIX|52=20150826-22:28:06.143|56=ELECTRONIFIE|98=0|108=30|141=Y|10=055|
20150826-22:29:06.204 : 8=FIX.4.4|9=85|35=A|34=1|49=NODEQUICKFIX|52=20150826-22:29:06.204|56=ELECTRONIFIE|98=0|108=30|141=Y|10=054|
20150826-22:29:06.204 : 8=FIX.4.4|9=85|35=A|34=1|49=ELECTRONIFIE|52=20150826-22:29:06.204|56=NODEQUICKFIX|98=0|108=30|141=Y|10=054|
20150826-22:29:06.227 : 8=FIX.4.4|9=164|35=D|34=2|49=ELECTRONIFIE|52=20150826-22:29:06.227|56=NODEQUICKFIX|11=0E0Z86K00000|22=1|38=200|40=2|48=06051GDX4|54=1|55=BAC|60=20150827-00:28:06.211|218=100|423=6|10=155|
20150826-22:30:29.945 : 8=FIX.4.4|9=85|35=A|34=1|49=NODEQUICKFIX|52=20150826-22:30:29.945|56=ELECTRONIFIE|98=0|108=30|141=Y|10=063|
20150826-22:31:30.005 : 8=FIX.4.4|9=85|35=A|34=1|49=NODEQUICKFIX|52=20150826-22:31:30.005|56=ELECTRONIFIE|98=0|108=30|141=Y|10=043|
20150826-22:31:30.006 : 8=FIX.4.4|9=85|35=A|34=1|49=ELECTRONIFIE|52=20150826-22:31:30.006|56=NODEQUICKFIX|98=0|108=30|141=Y|10=044|
20150826-22:31:30.029 : 8=FIX.4.4|9=164|35=D|34=2|49=ELECTRONIFIE|52=20150826-22:31:30.029|56=NODEQUICKFIX|11=0E0Z86K00000|22=1|38=200|40=2|48=06051GDX4|54=1|55=BAC|60=20150827-00:30:30.012|218=100|423=6|10=134|
20150826-23:00:54.243 : 8=FIX.4.4|9=85|35=A|34=1|49=NODEQUICKFIX|52=20150826-23:00:54.242|56=ELECTRONIFIE|98=0|108=30|141=Y|10=049|
20150826-23:02:24.159 : 8=FIX.4.4|9=85|35=A|34=1|49=NODEQUICKFIX|52=20150826-23:02:24.159|56=ELECTRONIFIE|98=0|108=30|141=Y|10=055|
20150826-23:02:36.916 : 8=FIX.4.4|9=85|35=A|34=1|49=NODEQUICKFIX|52=20150826-23:02:36.915|56=ELECTRONIFIE|98=0|108=30|141=Y|10=058|
20150826-23:03:38.541 : 8=FIX.4.4|9=85|35=A|34=1|49=NODEQUICKFIX|52=20150826-23:03:38.541|56=ELECTRONIFIE|98=0|108=30|141=Y|10=056|
20150826-23:05:14.618 : 8=FIX.4.4|9=85|35=A|34=1|49=NODEQUICKFIX|52=20150826-23:05:14.618|56=ELECTRONIFIE|98=0|108=30|141=Y|10=057|
20150826-23:36:18.143 : 8=FIX.4.4|9=85|35=A|34=1|49=NODEQUICKFIX|52=20150826-23:36:18.143|56=ELECTRONIFIE|98=0|108=30|141=Y|10=058|
20150826-23:37:18.198 : 8=FIX.4.4|9=85|35=A|34=1|49=NODEQUICKFIX|52=20150826-23:37:18.198|56=ELECTRONIFIE|98=0|108=30|141=Y|10=069|
20150826-23:37:18.199 : 8=FIX.4.4|9=85|35=A|34=1|49=ELECTRONIFIE|52=20150826-23:37:18.199|56=NODEQUICKFIX|98=0|108=30|141=Y|10=070|
20150826-23:37:18.201 : 8=FIX.4.4|9=164|35=D|34=2|49=ELECTRONIFIE|52=20150826-23:37:18.201|56=NODEQUICKFIX|11=0E0Z86K00000|22=1|38=200|40=2|48=06051GDX4|54=1|55=BAC|60=20150827-01:36:18.184|218=100|423=6|10=162|
20150826-23:46:27.870 : 8=FIX.4.4|9=85|35=A|34=1|49=NODEQUICKFIX|52=20150826-23:46:27.870|56=ELECTRONIFIE|98=0|108=30|141=Y|10=066|
20150826-23:47:27.927 : 8=FIX.4.4|9=85|35=A|34=1|49=NODEQUICKFIX|52=20150826-23:47:27.927|56=ELECTRONIFIE|98=0|108=30|141=Y|10=070|
20150826-23:47:27.928 : 8=FIX.4.4|9=85|35=A|34=1|49=ELECTRONIFIE|52=20150826-23:47:27.928|56=NODEQUICKFIX|98=0|108=30|141=Y|10=071|
20150826-23:47:27.953 : 8=FIX.4.4|9=164|35=D|34=2|49=ELECTRONIFIE|52=20150826-23:47:27.953|56=NODEQUICKFIX|11=0E0Z86K00000|22=1|38=200|40=2|48=06051GDX4|54=1|55=BAC|60=20150827-01:46:27.937|218=100|423=6|10=184|
20150826-23:59:49.911 : 8=FIX.4.4|9=85|35=A|34=1|49=NODEQUICKFIX|52=20150826-23:59:49.911|56=ELECTRONIFIE|98=0|108=30|141=Y|10=070|
20150827-00:00:49.982 : 8=FIX.4.4|9=85|35=A|34=1|49=NODEQUICKFIX|52=20150827-00:00:49.982|56=ELECTRONIFIE|98=0|108=30|141=Y|10=060|
20150827-00:00:49.983 : 8=FIX.4.4|9=85|35=A|34=1|49=ELECTRONIFIE|52=20150827-00:00:49.983|56=NODEQUICKFIX|98=0|108=30|141=Y|10=061|
20150827-00:00:49.995 : 8=FIX.4.4|9=164|35=D|34=2|49=ELECTRONIFIE|52=20150827-00:00:49.995|56=NODEQUICKFIX|11=0E0Z86K00000|22=1|38=200|40=2|48=06051GDX4|54=1|55=BAC|60=20150827-01:59:49.978|218=100|423=6|10=192|
20150827-00:01:12.787 : 8=FIX.4.4|9=85|35=A|34=1|49=NODEQUICKFIX|52=20150827-00:01:12.787|56=ELECTRONIFIE|98=0|108=30|141=Y|10=054|
20150827-00:02:12.843 : 8=FIX.4.4|9=85|35=A|34=1|49=NODEQUICKFIX|52=20150827-00:02:12.843|56=ELECTRONIFIE|98=0|108=30|141=Y|10=048|
20150827-00:02:12.844 : 8=FIX.4.4|9=85|35=A|34=1|49=ELECTRONIFIE|52=20150827-00:02:12.844|56=NODEQUICKFIX|98=0|108=30|141=Y|10=049|
20150827-00:02:12.870 : 8=FIX.4.4|9=164|35=D|34=2|49=ELECTRONIFIE|52=20150827-00:02:12.870|56=NODEQUICKFIX|11=0E0Z86K00000|22=1|38=200|40=2|48=06051GDX4|54=1|55=BAC|60=20150827-02:01:12.853|218=100|423=6|10=146|
20150827-00:02:42.873 : 8=FIX.4.4|9=67|35=0|34=3|49=ELECTRONIFIE|52=20150827-00:02:42.873|56=NODEQUICKFIX|10=225|
20150827-00:02:42.873 : 8=FIX.4.4|9=67|35=0|34=2|49=NODEQUICKFIX|52=20150827-00:02:42.873|56=ELECTRONIFIE|10=224|
20150827-00:03:01.022 : 8=FIX.4.4|9=85|35=A|34=1|49=NODEQUICKFIX|52=20150827-00:03:01.022|56=ELECTRONIFIE|98=0|108=30|141=Y|10=036|
20150827-00:04:01.075 : 8=FIX.4.4|9=85|35=A|34=1|49=NODEQUICKFIX|52=20150827-00:04:01.075|56=ELECTRONIFIE|98=0|108=30|141=Y|10=045|
20150827-00:04:01.076 : 8=FIX.4.4|9=85|35=A|34=1|49=ELECTRONIFIE|52=20150827-00:04:01.076|56=NODEQUICKFIX|98=0|108=30|141=Y|10=046|
20150827-00:04:01.107 : 8=FIX.4.4|9=164|35=D|34=2|49=ELECTRONIFIE|52=20150827-00:04:01.106|56=NODEQUICKFIX|11=0E0Z86K00000|22=1|38=200|40=2|48=06051GDX4|54=1|55=BAC|60=20150827-02:03:01.089|218=100|423=6|10=139|
20150827-00:07:32.545 : 8=FIX.4.4|9=85|35=A|34=1|49=NODEQUICKFIX|52=20150827-00:07:32.545|56=ELECTRONIFIE|98=0|108=30|141=Y|10=054|
20150827-00:08:32.603 : 8=FIX.4.4|9=85|35=A|34=1|49=NODEQUICKFIX|52=20150827-00:08:32.603|56=ELECTRONIFIE|98=0|108=30|141=Y|10=050|
20150827-00:08:32.603 : 8=FIX.4.4|9=85|35=A|34=1|49=ELECTRONIFIE|52=20150827-00:08:32.603|56=NODEQUICKFIX|98=0|108=30|141=Y|10=050|
20150827-00:08:32.628 : 8=FIX.4.4|9=164|35=D|34=2|49=ELECTRONIFIE|52=20150827-00:08:32.628|56=NODEQUICKFIX|11=0E0Z86K00000|22=1|38=200|40=2|48=06051GDX4|54=1|55=BAC|60=20150827-02:07:32.611|218=100|423=6|10=155|
20150827-00:09:02.629 : 8=FIX.4.4|9=67|35=0|34=3|49=ELECTRONIFIE|52=20150827-00:09:02.629|56=NODEQUICKFIX|10=227|
20150827-00:09:02.630 : 8=FIX.4.4|9=67|35=0|34=2|49=NODEQUICKFIX|52=20150827-00:09:02.630|56=ELECTRONIFIE|10=218|
20150827-00:09:32.657 : 8=FIX.4.4|9=67|35=0|34=3|49=NODEQUICKFIX|52=20150827-00:09:32.657|56=ELECTRONIFIE|10=231|
20150827-00:09:32.657 : 8=FIX.4.4|9=67|35=0|34=4|49=ELECTRONIFIE|52=20150827-00:09:32.657|56=NODEQUICKFIX|10=232|
20150827-00:10:02.684 : 8=FIX.4.4|9=67|35=0|34=4|49=NODEQUICKFIX|52=20150827-00:10:02.684|56=ELECTRONIFIE|10=221|
20150827-00:10:02.685 : 8=FIX.4.4|9=67|35=0|34=5|49=ELECTRONIFIE|52=20150827-00:10:02.685|56=NODEQUICKFIX|10=223|
20150827-00:10:32.710 : 8=FIX.4.4|9=67|35=0|34=6|49=ELECTRONIFIE|52=20150827-00:10:32.710|56=NODEQUICKFIX|10=216|
20150827-00:10:32.710 : 8=FIX.4.4|9=67|35=0|34=5|49=NODEQUICKFIX|52=20150827-00:10:32.710|56=ELECTRONIFIE|10=215|
20150827-00:11:02.738 : 8=FIX.4.4|9=67|35=0|34=6|49=NODEQUICKFIX|52=20150827-00:11:02.738|56=ELECTRONIFIE|10=224|
20150827-00:11:02.738 : 8=FIX.4.4|9=67|35=0|34=7|49=ELECTRONIFIE|52=20150827-00:11:02.738|56=NODEQUICKFIX|10=225|
20150827-00:11:32.764 : 8=FIX.4.4|9=67|35=0|34=8|49=ELECTRONIFIE|52=20150827-00:11:32.764|56=NODEQUICKFIX|10=228|
20150827-00:11:32.764 : 8=FIX.4.4|9=67|35=0|34=7|49=NODEQUICKFIX|52=20150827-00:11:32.764|56=ELECTRONIFIE|10=227|
20150827-00:12:02.789 : 8=FIX.4.4|9=67|35=0|34=8|49=NODEQUICKFIX|52=20150827-00:12:02.789|56=ELECTRONIFIE|10=233|
20150827-00:12:02.789 : 8=FIX.4.4|9=67|35=0|34=9|49=ELECTRONIFIE|52=20150827-00:12:02.789|56=NODEQUICKFIX|10=234|
20150827-00:12:32.818 : 8=FIX.4.4|9=67|35=0|34=9|49=NODEQUICKFIX|52=20150827-00:12:32.818|56=ELECTRONIFIE|10=230|
20150827-00:12:32.818 : 8=FIX.4.4|9=68|35=0|34=10|49=ELECTRONIFIE|52=20150827-00:12:32.818|56=NODEQUICKFIX|10=015|
20150827-00:13:02.844 : 8=FIX.4.4|9=68|35=0|34=10|49=NODEQUICKFIX|52=20150827-00:13:02.844|56=ELECTRONIFIE|10=012|
20150827-00:13:02.844 : 8=FIX.4.4|9=68|35=0|34=11|49=ELECTRONIFIE|52=20150827-00:13:02.844|56=NODEQUICKFIX|10=013|
20150827-00:13:58.965 : 8=FIX.4.4|9=85|35=A|34=1|49=NODEQUICKFIX|52=20150827-00:13:58.964|56=ELECTRONIFIE|98=0|108=30|141=Y|10=064|
20150827-00:14:58.017 : 8=FIX.4.4|9=85|35=A|34=1|49=NODEQUICKFIX|52=20150827-00:14:58.016|56=ELECTRONIFIE|98=0|108=30|141=Y|10=053|
20150827-00:14:58.017 : 8=FIX.4.4|9=85|35=A|34=1|49=ELECTRONIFIE|52=20150827-00:14:58.017|56=NODEQUICKFIX|98=0|108=30|141=Y|10=054|
20150827-00:14:59.049 : 8=FIX.4.4|9=164|35=D|34=2|49=ELECTRONIFIE|52=20150827-00:14:59.049|56=NODEQUICKFIX|11=0E0Z86K00000|22=1|38=200|40=2|48=06051GDX4|54=1|55=BAC|60=20150827-02:13:59.031|218=100|423=6|10=160|
20150827-00:14:59.049 : 8=FIX.4.4|9=164|35=D|34=3|49=ELECTRONIFIE|52=20150827-00:14:59.049|56=NODEQUICKFIX|11=0E0Z86K00000|22=1|38=200|40=2|48=06051GDX4|54=1|55=BAC|60=20150827-02:13:59.031|218=100|423=6|10=161|
20150827-17:48:39.490 : 8=FIX.4.4|9=85|35=A|34=1|49=NODEQUICKFIX|52=20150827-17:48:39.489|56=ELECTRONIFIE|98=0|108=30|141=Y|10=081|
20150827-18:02:03.974 : 8=FIX.4.4|9=85|35=A|34=1|49=NODEQUICKFIX|52=20150827-18:02:03.974|56=ELECTRONIFIE|98=0|108=30|141=Y|10=062|
20150827-18:05:02.359 : 8=FIX.4.4|9=85|35=A|34=1|49=NODEQUICKFIX|52=20150827-18:05:02.358|56=ELECTRONIFIE|98=0|108=30|141=Y|10=060|
20150827-18:06:02.420 : 8=FIX.4.4|9=85|35=A|34=1|49=NODEQUICKFIX|52=20150827-18:06:02.420|56=ELECTRONIFIE|98=0|108=30|141=Y|10=051|
20150827-18:06:02.449 : 8=FIX.4.4|9=85|35=A|34=1|49=ELECTRONIFIE|52=20150827-18:06:02.449|56=NODEQUICKFIX|98=0|108=30|141=Y|10=062|
20150827-18:06:32.450 : 8=FIX.4.4|9=67|35=0|34=2|49=NODEQUICKFIX|52=20150827-18:06:32.450|56=ELECTRONIFIE|10=227|
20150827-18:06:32.450 : 8=FIX.4.4|9=67|35=0|34=2|49=ELECTRONIFIE|52=20150827-18:06:32.450|56=NODEQUICKFIX|10=227|
20150827-18:33:20.487 : 8=FIX.4.4|9=85|35=A|34=1|49=NODEQUICKFIX|52=20150827-18:33:20.487|56=ELECTRONIFIE|98=0|108=30|141=Y|10=064|
20150827-18:33:20.488 : 8=FIX.4.4|9=85|35=A|34=1|49=ELECTRONIFIE|52=20150827-18:33:20.488|56=NODEQUICKFIX|98=0|108=30|141=Y|10=065|
20150827-18:33:50.808 : 8=FIX.4.4|9=85|35=A|34=1|49=NODEQUICKFIX|52=20150827-18:33:50.807|56=ELECTRONIFIE|98=0|108=30|141=Y|10=063|
20150827-18:33:50.808 : 8=FIX.4.4|9=85|35=A|34=1|49=ELECTRONIFIE|52=20150827-18:33:50.808|56=NODEQUICKFIX|98=0|108=30|141=Y|10=064|
20150827-18:33:50.926 : 8=FIX.4.4|9=164|35=D|34=2|49=NODEQUICKFIX|52=20150827-18:33:50.926|56=ELECTRONIFIE|11=0E0Z86K00000|22=1|38=200|40=2|48=06051GDX4|54=1|55=BAC|60=20150827-20:33:50.809|218=100|423=6|10=171|
20150827-18:33:55.814 : 8=FIX.4.4|9=164|35=D|34=2|49=ELECTRONIFIE|52=20150827-18:33:55.813|56=NODEQUICKFIX|11=0E0Z86K00000|22=1|38=200|40=2|48=06051GDX4|54=1|55=BAC|60=20150827-20:33:50.806|218=100|423=6|10=168|
20150827-18:46:44.115 : 8=FIX.4.4|9=85|35=A|34=1|49=NODEQUICKFIX|52=20150827-18:46:44.114|56=ELECTRONIFIE|98=0|108=30|141=Y|10=061|
20150827-18:46:44.115 : 8=FIX.4.4|9=85|35=A|34=1|49=ELECTRONIFIE|52=20150827-18:46:44.115|56=NODEQUICKFIX|98=0|108=30|141=Y|10=062|
20150827-18:46:44.227 : 8=FIX.4.4|9=164|35=D|34=2|49=NODEQUICKFIX|52=20150827-18:46:44.226|56=ELECTRONIFIE|11=0E0Z86K00000|22=1|38=200|40=2|48=06051GDX4|54=1|55=BAC|60=20150827-20:46:44.116|218=100|423=6|10=169|
20150827-18:46:49.124 : 8=FIX.4.4|9=164|35=D|34=2|49=ELECTRONIFIE|52=20150827-18:46:49.124|56=NODEQUICKFIX|11=0E0Z86K00000|22=1|38=200|40=2|48=06051GDX4|54=1|55=BAC|60=20150827-20:46:44.113|218=100|423=6|10=168|
20150827-18:53:49.515 : 8=FIX.4.4|9=85|35=A|34=1|49=NODEQUICKFIX|52=20150827-18:53:49.515|56=ELECTRONIFIE|98=0|108=30|141=Y|10=069|
20150827-18:56:25.187 : 8=FIX.4.4|9=85|35=A|34=1|49=NODEQUICKFIX|52=20150827-18:56:25.187|56=ELECTRONIFIE|98=0|108=30|141=Y|10=071|
20150827-18:57:25.241 : 8=FIX.4.4|9=85|35=A|34=1|49=NODEQUICKFIX|52=20150827-18:57:25.241|56=ELECTRONIFIE|98=0|108=30|141=Y|10=063|
20150827-18:57:25.242 : 8=FIX.4.4|9=85|35=A|34=1|49=ELECTRONIFIE|52=20150827-18:57:25.241|56=NODEQUICKFIX|98=0|108=30|141=Y|10=063|
20150827-18:57:25.417 : 8=FIX.4.4|9=164|35=D|34=2|49=NODEQUICKFIX|52=20150827-18:57:25.417|56=ELECTRONIFIE|11=0E0Z86K00000|22=1|38=200|40=2|48=06051GDX4|54=1|55=BAC|60=20150827-20:56:25.257|218=100|423=6|10=178|
20150827-18:57:55.271 : 8=FIX.4.4|9=67|35=0|34=3|49=NODEQUICKFIX|52=20150827-18:57:55.271|56=ELECTRONIFIE|10=240|
20150827-18:57:55.271 : 8=FIX.4.4|9=67|35=0|34=2|49=ELECTRONIFIE|52=20150827-18:57:55.271|56=NODEQUICKFIX|10=239|
20150827-19:03:26.988 : 8=FIX.4.4|9=85|35=A|34=1|49=NODEQUICKFIX|52=20150827-19:03:26.988|56=ELECTRONIFIE|98=0|108=30|141=Y|10=074|
20150827-19:03:48.155 : 8=FIX.4.4|9=85|35=A|34=1|49=NODEQUICKFIX|52=20150827-19:03:48.154|56=ELECTRONIFIE|98=0|108=30|141=Y|10=063|
20150827-19:03:48.155 : 8=FIX.4.4|9=85|35=A|34=1|49=ELECTRONIFIE|52=20150827-19:03:48.155|56=NODEQUICKFIX|98=0|108=30|141=Y|10=064|
20150827-19:03:48.269 : 8=FIX.4.4|9=164|35=D|34=2|49=NODEQUICKFIX|52=20150827-19:03:48.269|56=ELECTRONIFIE|11=0E0Z86K00000|22=1|38=200|40=2|48=06051GDX4|54=1|55=BAC|60=20150827-21:03:48.156|218=100|423=6|10=176|
20150827-19:05:05.662 : 8=FIX.4.4|9=85|35=A|34=1|49=NODEQUICKFIX|52=20150827-19:05:05.662|56=ELECTRONIFIE|98=0|108=30|141=Y|10=062|
20150827-19:05:05.663 : 8=FIX.4.4|9=85|35=A|34=1|49=ELECTRONIFIE|52=20150827-19:05:05.663|56=NODEQUICKFIX|98=0|108=30|141=Y|10=063|
20150827-19:05:05.777 : 8=FIX.4.4|9=164|35=D|34=2|49=NODEQUICKFIX|52=20150827-19:05:05.777|56=ELECTRONIFIE|11=0E0Z86K00000|22=1|38=200|40=2|48=06051GDX4|54=1|55=BAC|60=20150827-21:05:05.664|218=100|423=6|10=174|
20150827-19:06:06.545 : 8=FIX.4.4|9=85|35=A|34=1|49=NODEQUICKFIX|52=20150827-19:06:06.545|56=ELECTRONIFIE|98=0|108=30|141=Y|10=064|
20150827-19:06:06.546 : 8=FIX.4.4|9=85|35=A|34=1|49=ELECTRONIFIE|52=20150827-19:06:06.545|56=NODEQUICKFIX|98=0|108=30|141=Y|10=064|
20150827-19:06:06.682 : 8=FIX.4.4|9=164|35=D|34=2|49=NODEQUICKFIX|52=20150827-19:06:06.682|56=ELECTRONIFIE|11=0E0Z86K00000|22=1|38=200|40=2|48=06051GDX4|54=1|55=BAC|60=20150827-21:06:06.547|218=100|423=6|10=173|
20150827-19:08:25.510 : 8=FIX.4.4|9=85|35=A|34=1|49=NODEQUICKFIX|52=20150827-19:08:25.510|56=ELECTRONIFIE|98=0|108=30|141=Y|10=059|
20150827-19:08:25.510 : 8=FIX.4.4|9=85|35=A|34=1|49=ELECTRONIFIE|52=20150827-19:08:25.510|56=NODEQUICKFIX|98=0|108=30|141=Y|10=059|
20150827-19:08:25.646 : 8=FIX.4.4|9=164|35=D|34=2|49=NODEQUICKFIX|52=20150827-19:08:25.646|56=ELECTRONIFIE|11=0E0Z86K00000|22=1|38=200|40=2|48=06051GDX4|54=1|55=BAC|60=20150827-21:08:25.511|218=100|423=6|10=170|
20150827-19:08:30.519 : 8=FIX.4.4|9=164|35=D|34=2|49=ELECTRONIFIE|52=20150827-19:08:30.519|56=NODEQUICKFIX|11=0E0Z86K00000|22=1|38=200|40=2|48=06051GDX4|54=1|55=BAC|60=20150827-21:08:25.508|218=100|423=6|10=171|
20150827-19:08:56.125 : 8=FIX.4.4|9=85|35=A|34=1|49=NODEQUICKFIX|52=20150827-19:08:56.124|56=ELECTRONIFIE|98=0|108=30|141=Y|10=064|
20150827-19:08:56.125 : 8=FIX.4.4|9=85|35=A|34=1|49=ELECTRONIFIE|52=20150827-19:08:56.125|56=NODEQUICKFIX|98=0|108=30|141=Y|10=065|
20150827-19:08:56.238 : 8=FIX.4.4|9=164|35=D|34=2|49=NODEQUICKFIX|52=20150827-19:08:56.238|56=ELECTRONIFIE|11=0E0Z86K00000|22=1|38=200|40=2|48=06051GDX4|54=1|55=BAC|60=20150827-21:08:56.126|218=100|423=6|10=177|
20150827-19:09:01.130 : 8=FIX.4.4|9=164|35=D|34=2|49=ELECTRONIFIE|52=20150827-19:09:01.130|56=NODEQUICKFIX|11=0E0Z86K00000|22=1|38=200|40=2|48=06051GDX4|54=1|55=BAC|60=20150827-21:08:56.123|218=100|423=6|10=156|
20150827-19:09:45.098 : 8=FIX.4.4|9=85|35=A|34=1|49=NODEQUICKFIX|52=20150827-19:09:45.098|56=ELECTRONIFIE|98=0|108=30|141=Y|10=073|
20150827-19:09:45.098 : 8=FIX.4.4|9=85|35=A|34=1|49=ELECTRONIFIE|52=20150827-19:09:45.098|56=NODEQUICKFIX|98=0|108=30|141=Y|10=073|
20150827-19:09:45.208 : 8=FIX.4.4|9=164|35=D|34=2|49=NODEQUICKFIX|52=20150827-19:09:45.208|56=ELECTRONIFIE|11=0E0Z86K00000|22=1|38=200|40=2|48=06051GDX4|54=1|55=BAC|60=20150827-21:09:45.099|218=100|423=6|10=181|
20150827-19:09:50.107 : 8=FIX.4.4|9=164|35=D|34=2|49=ELECTRONIFIE|52=20150827-19:09:50.107|56=NODEQUICKFIX|11=0E0Z86K00000|22=1|38=200|40=2|48=06051GDX4|54=1|55=BAC|60=20150827-21:09:45.096|218=100|423=6|10=172|
20150827-19:10:22.021 : 8=FIX.4.4|9=85|35=A|34=1|49=NODEQUICKFIX|52=20150827-19:10:22.021|56=ELECTRONIFIE|98=0|108=30|141=Y|10=046|
20150827-19:10:22.022 : 8=FIX.4.4|9=85|35=A|34=1|49=ELECTRONIFIE|52=20150827-19:10:22.022|56=NODEQUICKFIX|98=0|108=30|141=Y|10=047|
20150827-19:10:22.130 : 8=FIX.4.4|9=164|35=D|34=2|49=NODEQUICKFIX|52=20150827-19:10:22.130|56=ELECTRONIFIE|11=0E0Z86K00000|22=1|38=200|40=2|48=06051GDX4|54=1|55=BAC|60=20150827-21:10:22.023|218=100|423=6|10=136|
20150827-19:10:27.028 : 8=FIX.4.4|9=164|35=D|34=2|49=ELECTRONIFIE|52=20150827-19:10:27.028|56=NODEQUICKFIX|11=0E0Z86K00000|22=1|38=200|40=2|48=06051GDX4|54=1|55=BAC|60=20150827-21:10:22.020|218=100|423=6|10=144|
20150827-19:10:27.028 : 8=FIX.4.4|9=164|35=D|34=3|49=ELECTRONIFIE|52=20150827-19:10:27.028|56=NODEQUICKFIX|11=0E0Z86K00000|22=1|38=200|40=2|48=06051GDX4|54=1|55=BAC|60=20150827-21:10:22.020|218=100|423=6|10=145|
20150827-19:11:19.898 : 8=FIX.4.4|9=85|35=A|34=1|49=NODEQUICKFIX|52=20150827-19:11:19.898|56=ELECTRONIFIE|98=0|108=30|141=Y|10=075|
20150827-19:11:19.899 : 8=FIX.4.4|9=85|35=A|34=1|49=ELECTRONIFIE|52=20150827-19:11:19.898|56=NODEQUICKFIX|98=0|108=30|141=Y|10=075|
20150827-19:11:20.007 : 8=FIX.4.4|9=164|35=D|34=2|49=NODEQUICKFIX|52=20150827-19:11:20.007|56=ELECTRONIFIE|11=0E0Z86K00000|22=1|38=200|40=2|48=06051GDX4|54=1|55=BAC|60=20150827-21:11:19.899|218=100|423=6|10=166|
20150827-19:11:24.908 : 8=FIX.4.4|9=164|35=D|34=2|49=ELECTRONIFIE|52=20150827-19:11:24.908|56=NODEQUICKFIX|11=0E0Z86K00000|22=1|38=200|40=2|48=06051GDX4|54=1|55=BAC|60=20150827-21:11:19.896|218=100|423=6|10=177|
20150827-19:11:24.908 : 8=FIX.4.4|9=164|35=D|34=3|49=ELECTRONIFIE|52=20150827-19:11:24.908|56=NODEQUICKFIX|11=0E0Z86K00000|22=1|38=200|40=2|48=06051GDX4|54=1|55=BAC|60=20150827-21:11:19.896|218=100|423=6|10=178|
20150827-19:25:36.029 : 8=FIX.4.4|9=85|35=A|34=1|49=NODEQUICKFIX|52=20150827-19:25:36.029|56=ELECTRONIFIE|98=0|108=30|141=Y|10=065|
20150827-19:25:36.029 : 8=FIX.4.4|9=85|35=A|34=1|49=ELECTRONIFIE|52=20150827-19:25:36.029|56=NODEQUICKFIX|98=0|108=30|141=Y|10=065|
20150827-19:25:36.141 : 8=FIX.4.4|9=164|35=D|34=2|49=NODEQUICKFIX|52=20150827-19:25:36.141|56=ELECTRONIFIE|11=0E0Z86K00000|22=1|38=200|40=2|48=06051GDX4|54=1|55=BAC|60=20150827-21:25:36.030|218=100|423=6|10=158|
20150827-19:25:41.037 : 8=FIX.4.4|9=164|35=D|34=2|49=ELECTRONIFIE|52=20150827-19:25:41.036|56=NODEQUICKFIX|11=0E0Z86K00000|22=1|38=200|40=2|48=06051GDX4|54=1|55=BAC|60=20150827-21:25:36.027|218=100|423=6|10=163|
20150827-19:26:21.771 : 8=FIX.4.4|9=85|35=A|34=1|49=NODEQUICKFIX|52=20150827-19:26:21.771|56=ELECTRONIFIE|98=0|108=30|141=Y|10=064|
20150827-19:26:21.772 : 8=FIX.4.4|9=85|35=A|34=1|49=ELECTRONIFIE|52=20150827-19:26:21.772|56=NODEQUICKFIX|98=0|108=30|141=Y|10=065|
20150827-19:26:21.876 : 8=FIX.4.4|9=164|35=D|34=2|49=NODEQUICKFIX|52=20150827-19:26:21.876|56=ELECTRONIFIE|11=0E0Z86K00000|22=1|38=200|40=2|48=06051GDX4|54=1|55=BAC|60=20150827-21:26:21.772|218=100|423=6|10=176|
20150827-19:26:26.780 : 8=FIX.4.4|9=164|35=D|34=2|49=ELECTRONIFIE|52=20150827-19:26:26.780|56=NODEQUICKFIX|11=0E0Z86K00000|22=1|38=200|40=2|48=06051GDX4|54=1|55=BAC|60=20150827-21:26:21.769|218=100|423=6|10=181|
20150827-19:26:26.781 : 8=FIX.4.4|9=164|35=D|34=3|49=ELECTRONIFIE|52=20150827-19:26:26.780|56=NODEQUICKFIX|11=0E0Z86K00000|22=1|38=200|40=2|48=06051GDX4|54=1|55=BAC|60=20150827-21:26:21.769|218=100|423=6|10=182|
20150827-19:26:44.340 : 8=FIX.4.4|9=85|35=A|34=1|49=NODEQUICKFIX|52=20150827-19:26:44.340|56=ELECTRONIFIE|98=0|108=30|141=Y|10=061|
20150827-19:26:44.341 : 8=FIX.4.4|9=85|35=A|34=1|49=ELECTRONIFIE|52=20150827-19:26:44.341|56=NODEQUICKFIX|98=0|108=30|141=Y|10=062|
20150827-19:26:44.449 : 8=FIX.4.4|9=164|35=D|34=2|49=NODEQUICKFIX|52=20150827-19:26:44.449|56=ELECTRONIFIE|11=0E0Z86K00000|22=1|38=200|40=2|48=06051GDX4|54=1|55=BAC|60=20150827-21:26:44.341|218=100|423=6|10=174|
20150827-19:30:20.915 : 8=FIX.4.4|9=85|35=A|34=1|49=NODEQUICKFIX|52=20150827-19:30:20.915|56=ELECTRONIFIE|98=0|108=30|141=Y|10=058|
20150827-19:30:20.915 : 8=FIX.4.4|9=85|35=A|34=1|49=ELECTRONIFIE|52=20150827-19:30:20.915|56=NODEQUICKFIX|98=0|108=30|141=Y|10=058|
20150827-19:30:21.033 : 8=FIX.4.4|9=164|35=D|34=2|49=NODEQUICKFIX|52=20150827-19:30:21.033|56=ELECTRONIFIE|11=0E0Z86K00000|22=1|38=200|40=2|48=06051GDX4|54=1|55=BAC|60=20150827-21:30:20.916|218=100|423=6|10=150|
20150827-19:30:25.924 : 8=FIX.4.4|9=164|35=D|34=2|49=ELECTRONIFIE|52=20150827-19:30:25.924|56=NODEQUICKFIX|11=0E0Z86K00000|22=1|38=200|40=2|48=06051GDX4|54=1|55=BAC|60=20150827-21:30:20.913|218=100|423=6|10=160|
20150827-19:30:51.945 : 8=FIX.4.4|9=67|35=0|34=3|49=NODEQUICKFIX|52=20150827-19:30:51.945|56=ELECTRONIFIE|10=236|
20150827-19:30:55.949 : 8=FIX.4.4|9=67|35=0|34=3|49=ELECTRONIFIE|52=20150827-19:30:55.949|56=NODEQUICKFIX|10=244|
20150827-19:31:21.971 : 8=FIX.4.4|9=67|35=0|34=4|49=NODEQUICKFIX|52=20150827-19:31:21.971|56=ELECTRONIFIE|10=234|
20150827-19:31:25.975 : 8=FIX.4.4|9=67|35=0|34=4|49=ELECTRONIFIE|52=20150827-19:31:25.975|56=NODEQUICKFIX|10=242|
20150827-19:44:57.600 : 8=FIX.4.4|9=85|35=A|34=1|49=NODEQUICKFIX|52=20150827-19:44:57.599|56=ELECTRONIFIE|98=0|108=30|141=Y|10=081|
20150827-19:44:57.600 : 8=FIX.4.4|9=85|35=A|34=1|49=ELECTRONIFIE|52=20150827-19:44:57.600|56=NODEQUICKFIX|98=0|108=30|141=Y|10=064|
20150827-19:44:57.713 : 8=FIX.4.4|9=164|35=D|34=2|49=NODEQUICKFIX|52=20150827-19:44:57.713|56=ELECTRONIFIE|11=0E0Z86K00000|22=1|38=200|40=2|48=06051GDX4|54=1|55=BAC|60=20150827-21:44:57.601|218=100|423=6|10=175|
20150827-19:45:02.609 : 8=FIX.4.4|9=164|35=D|34=2|49=ELECTRONIFIE|52=20150827-19:45:02.609|56=NODEQUICKFIX|11=0E0Z86K00000|22=1|38=200|40=2|48=06051GDX4|54=1|55=BAC|60=20150827-21:44:57.598|218=100|423=6|10=185|
20150827-19:45:42.056 : 8=FIX.4.4|9=85|35=A|34=1|49=NODEQUICKFIX|52=20150827-19:45:42.055|56=ELECTRONIFIE|98=0|108=30|141=Y|10=063|
20150827-19:45:42.056 : 8=FIX.4.4|9=85|35=A|34=1|49=ELECTRONIFIE|52=20150827-19:45:42.056|56=NODEQUICKFIX|98=0|108=30|141=Y|10=064|
20150827-19:45:42.160 : 8=FIX.4.4|9=164|35=D|34=2|49=NODEQUICKFIX|52=20150827-19:45:42.160|56=ELECTRONIFIE|11=0E0Z86K00000|22=1|38=200|40=2|48=06051GDX4|54=1|55=BAC|60=20150827-21:45:42.056|218=100|423=6|10=165|
20150827-19:45:47.065 : 8=FIX.4.4|9=164|35=D|34=2|49=ELECTRONIFIE|52=20150827-19:45:47.065|56=NODEQUICKFIX|11=0E0Z86K00000|22=1|38=200|40=2|48=06051GDX4|54=1|55=BAC|60=20150827-21:45:42.054|218=100|423=6|10=172|
20150827-19:46:21.587 : 8=FIX.4.4|9=85|35=A|34=1|49=NODEQUICKFIX|52=20150827-19:46:21.587|56=ELECTRONIFIE|98=0|108=30|141=Y|10=071|
20150827-19:46:21.588 : 8=FIX.4.4|9=85|35=A|34=1|49=ELECTRONIFIE|52=20150827-19:46:21.588|56=NODEQUICKFIX|98=0|108=30|141=Y|10=072|
20150827-19:46:21.695 : 8=FIX.4.4|9=164|35=D|34=2|49=NODEQUICKFIX|52=20150827-19:46:21.695|56=ELECTRONIFIE|11=0E0Z86K00000|22=1|38=200|40=2|48=06051GDX4|54=1|55=BAC|60=20150827-21:46:21.588|218=100|423=6|10=184|
20150827-19:46:26.597 : 8=FIX.4.4|9=164|35=D|34=2|49=ELECTRONIFIE|52=20150827-19:46:26.597|56=NODEQUICKFIX|11=0E0Z86K00000|22=1|38=200|40=2|48=06051GDX4|54=1|55=BAC|60=20150827-21:46:21.586|218=100|423=6|10=188|
20150827-19:48:12.740 : 8=FIX.4.4|9=85|35=A|34=1|49=NODEQUICKFIX|52=20150827-19:48:12.740|56=ELECTRONIFIE|98=0|108=30|141=Y|10=064|
20150827-19:48:12.741 : 8=FIX.4.4|9=85|35=A|34=1|49=ELECTRONIFIE|52=20150827-19:48:12.741|56=NODEQUICKFIX|98=0|108=30|141=Y|10=065|
20150827-19:48:12.851 : 8=FIX.4.4|9=164|35=D|34=2|49=NODEQUICKFIX|52=20150827-19:48:12.851|56=ELECTRONIFIE|11=0E0Z86K00000|22=1|38=200|40=2|48=06051GDX4|54=1|55=BAC|60=20150827-21:48:12.741|218=100|423=6|10=173|
20150827-19:48:17.750 : 8=FIX.4.4|9=164|35=D|34=2|49=ELECTRONIFIE|52=20150827-19:48:17.750|56=NODEQUICKFIX|11=0E0Z86K00000|22=1|38=200|40=2|48=06051GDX4|54=1|55=BAC|60=20150827-21:48:12.739|218=100|423=6|10=183|
20150827-19:56:17.343 : 8=FIX.4.4|9=85|35=A|34=1|49=NODEQUICKFIX|52=20150827-19:56:17.342|56=ELECTRONIFIE|98=0|108=30|141=Y|10=066|
20150827-19:56:17.343 : 8=FIX.4.4|9=85|35=A|34=1|49=ELECTRONIFIE|52=20150827-19:56:17.343|56=NODEQUICKFIX|98=0|108=30|141=Y|10=067|
20150827-19:56:17.452 : 8=FIX.4.4|9=164|35=D|34=2|49=NODEQUICKFIX|52=20150827-19:56:17.452|56=ELECTRONIFIE|11=0E0Z86K00000|22=1|38=200|40=2|48=06051GDX4|54=1|55=BAC|60=20150827-21:56:17.343|218=100|423=6|10=176|
20150827-19:56:22.352 : 8=FIX.4.4|9=164|35=D|34=2|49=ELECTRONIFIE|52=20150827-19:56:22.351|56=NODEQUICKFIX|11=0E0Z86K00000|22=1|38=200|40=2|48=06051GDX4|54=1|55=BAC|60=20150827-21:56:17.341|218=100|423=6|10=168|
20150827-19:57:34.135 : 8=FIX.4.4|9=85|35=A|34=1|49=NODEQUICKFIX|52=20150827-19:57:34.135|56=ELECTRONIFIE|98=0|108=30|141=Y|10=066|
20150827-19:57:34.135 : 8=FIX.4.4|9=85|35=A|34=1|49=ELECTRONIFIE|52=20150827-19:57:34.135|56=NODEQUICKFIX|98=0|108=30|141=Y|10=066|
20150827-19:57:34.245 : 8=FIX.4.4|9=164|35=D|34=2|49=NODEQUICKFIX|52=20150827-19:57:34.245|56=ELECTRONIFIE|11=0E0Z86K00000|22=1|38=200|40=2|48=06051GDX4|54=1|55=BAC|60=20150827-21:57:34.136|218=100|423=6|10=176|
20150827-19:57:39.142 : 8=FIX.4.4|9=164|35=D|34=2|49=ELECTRONIFIE|52=20150827-19:57:39.142|56=NODEQUICKFIX|11=0E0Z86K00000|22=1|38=200|40=2|48=06051GDX4|54=1|55=BAC|60=20150827-21:57:34.133|218=100|423=6|10=174|
20150827-19:58:11.699 : 8=FIX.4.4|9=85|35=A|34=1|49=NODEQUICKFIX|52=20150827-19:58:11.699|56=ELECTRONIFIE|98=0|108=30|141=Y|10=077|
20150827-19:58:11.700 : 8=FIX.4.4|9=85|35=A|34=1|49=ELECTRONIFIE|52=20150827-19:58:11.700|56=NODEQUICKFIX|98=0|108=30|141=Y|10=060|
20150827-19:58:11.814 : 8=FIX.4.4|9=164|35=D|34=2|49=NODEQUICKFIX|52=20150827-19:58:11.814|56=ELECTRONIFIE|11=0E0Z86K00000|22=1|38=200|40=2|48=06051GDX4|54=1|55=BAC|60=20150827-21:58:11.700|218=100|423=6|10=167|
20150827-19:58:16.706 : 8=FIX.4.4|9=164|35=D|34=2|49=ELECTRONIFIE|52=20150827-19:58:16.706|56=NODEQUICKFIX|11=0E0Z86K00000|22=1|38=200|40=2|48=06051GDX4|54=1|55=BAC|60=20150827-21:58:11.698|218=100|423=6|10=188|
20150827-19:58:44.917 : 8=FIX.4.4|9=85|35=A|34=1|49=NODEQUICKFIX|52=20150827-19:58:44.917|56=ELECTRONIFIE|98=0|108=30|141=Y|10=076|
20150827-19:58:44.918 : 8=FIX.4.4|9=85|35=A|34=1|49=ELECTRONIFIE|52=20150827-19:58:44.918|56=NODEQUICKFIX|98=0|108=30|141=Y|10=077|
20150827-19:58:45.023 : 8=FIX.4.4|9=164|35=D|34=2|49=NODEQUICKFIX|52=20150827-19:58:45.023|56=ELECTRONIFIE|11=0E0Z86K00000|22=1|38=200|40=2|48=06051GDX4|54=1|55=BAC|60=20150827-21:58:44.918|218=100|423=6|10=183|
20150827-19:58:49.926 : 8=FIX.4.4|9=164|35=D|34=2|49=ELECTRONIFIE|52=20150827-19:58:49.926|56=NODEQUICKFIX|11=0E0Z86K00000|22=1|38=200|40=2|48=06051GDX4|54=1|55=BAC|60=20150827-21:58:44.916|218=100|423=6|10=197|
