20150826-12:20:34.576 : 8=FIX.4.4|9=85|35=A|34=1|49=NODEQUICKFIX|52=20150826-12:20:34.576|56=ELECTRONIFIE|98=0|108=30|141=Y|10=057|
20150826-12:20:34.577 : 8=FIX.4.4|9=85|35=A|34=1|49=ELECTRONIFIE|52=20150826-12:20:34.577|56=NODEQUICKFIX|98=0|108=30|141=Y|10=058|
20150826-12:21:04.607 : 8=FIX.4.4|9=67|35=0|34=2|49=ELECTRONIFIE|52=20150826-12:21:04.607|56=NODEQUICKFIX|10=220|
20150826-12:21:04.607 : 8=FIX.4.4|9=67|35=0|34=2|49=NODEQUICKFIX|52=20150826-12:21:04.607|56=ELECTRONIFIE|10=220|
20150826-12:21:34.637 : 8=FIX.4.4|9=67|35=0|34=3|49=ELECTRONIFIE|52=20150826-12:21:34.637|56=NODEQUICKFIX|10=227|
20150826-12:21:34.637 : 8=FIX.4.4|9=67|35=0|34=3|49=NODEQUICKFIX|52=20150826-12:21:34.637|56=ELECTRONIFIE|10=227|
20150826-12:22:04.667 : 8=FIX.4.4|9=67|35=0|34=4|49=ELECTRONIFIE|52=20150826-12:22:04.667|56=NODEQUICKFIX|10=229|
20150826-12:22:04.667 : 8=FIX.4.4|9=67|35=0|34=4|49=NODEQUICKFIX|52=20150826-12:22:04.667|56=ELECTRONIFIE|10=229|
20150826-19:00:50.987 : 8=FIX.4.4|9=85|35=A|34=1|49=NODEQUICKFIX|52=20150826-19:00:50.970|56=ELECTRONIFIE|98=0|108=30|141=Y|10=058|
20150826-19:00:50.988 : 8=FIX.4.4|9=85|35=A|34=1|49=ELECTRONIFIE|52=20150826-19:00:50.988|56=NODEQUICKFIX|98=0|108=30|141=Y|10=067|
20150826-19:01:20.000 : 8=FIX.4.4|9=67|35=0|34=2|49=NODEQUICKFIX|52=20150826-19:01:20.000|56=ELECTRONIFIE|10=210|
20150826-19:01:20.000 : 8=FIX.4.4|9=67|35=0|34=2|49=ELECTRONIFIE|52=20150826-19:01:20.000|56=NODEQUICKFIX|10=210|
20150826-19:03:26.979 : 8=FIX.4.4|9=85|35=A|34=1|49=NODEQUICKFIX|52=20150826-19:03:26.979|56=ELECTRONIFIE|98=0|108=30|141=Y|10=073|
20150826-19:03:26.979 : 8=FIX.4.4|9=85|35=A|34=1|49=ELECTRONIFIE|52=20150826-19:03:26.979|56=NODEQUICKFIX|98=0|108=30|141=Y|10=073|
20150826-19:03:56.008 : 8=FIX.4.4|9=67|35=0|34=2|49=ELECTRONIFIE|52=20150826-19:03:56.007|56=NODEQUICKFIX|10=228|
20150826-19:03:56.008 : 8=FIX.4.4|9=67|35=0|34=2|49=NODEQUICKFIX|52=20150826-19:03:56.008|56=ELECTRONIFIE|10=229|
20150826-19:04:26.038 : 8=FIX.4.4|9=67|35=0|34=3|49=ELECTRONIFIE|52=20150826-19:04:26.038|56=NODEQUICKFIX|10=231|
20150826-19:04:26.038 : 8=FIX.4.4|9=67|35=0|34=3|49=NODEQUICKFIX|52=20150826-19:04:26.038|56=ELECTRONIFIE|10=231|
20150826-20:28:43.778 : 8=FIX.4.4|9=85|35=A|34=1|49=NODEQUICKFIX|52=20150826-20:28:43.777|56=ELECTRONIFIE|98=0|108=30|141=Y|10=067|
20150826-20:28:43.778 : 8=FIX.4.4|9=85|35=A|34=1|49=ELECTRONIFIE|52=20150826-20:28:43.778|56=NODEQUICKFIX|98=0|108=30|141=Y|10=068|
20150826-20:29:13.807 : 8=FIX.4.4|9=67|35=0|34=2|49=ELECTRONIFIE|52=20150826-20:29:13.807|56=NODEQUICKFIX|10=229|
20150826-20:29:13.807 : 8=FIX.4.4|9=67|35=0|34=2|49=NODEQUICKFIX|52=20150826-20:29:13.807|56=ELECTRONIFIE|10=229|
20150826-20:29:43.838 : 8=FIX.4.4|9=67|35=0|34=3|49=ELECTRONIFIE|52=20150826-20:29:43.838|56=NODEQUICKFIX|10=237|
20150826-20:29:43.838 : 8=FIX.4.4|9=67|35=0|34=3|49=NODEQUICKFIX|52=20150826-20:29:43.838|56=ELECTRONIFIE|10=237|
20150826-20:41:20.486 : 8=FIX.4.4|9=85|35=A|34=1|49=NODEQUICKFIX|52=20150826-20:41:20.486|56=ELECTRONIFIE|98=0|108=30|141=Y|10=054|
20150826-20:41:20.487 : 8=FIX.4.4|9=85|35=A|34=1|49=ELECTRONIFIE|52=20150826-20:41:20.487|56=NODEQUICKFIX|98=0|108=30|141=Y|10=055|
20150826-20:41:50.516 : 8=FIX.4.4|9=67|35=0|34=2|49=ELECTRONIFIE|52=20150826-20:41:50.516|56=NODEQUICKFIX|10=221|
20150826-20:41:50.516 : 8=FIX.4.4|9=67|35=0|34=2|49=NODEQUICKFIX|52=20150826-20:41:50.516|56=ELECTRONIFIE|10=221|
20150826-21:26:53.576 : 8=FIX.4.4|9=85|35=A|34=1|49=NODEQUICKFIX|52=20150826-21:26:53.576|56=ELECTRONIFIE|98=0|108=30|141=Y|10=064|
20150826-21:26:53.577 : 8=FIX.4.4|9=85|35=A|34=1|49=ELECTRONIFIE|52=20150826-21:26:53.577|56=NODEQUICKFIX|98=0|108=30|141=Y|10=065|
20150826-21:27:23.606 : 8=FIX.4.4|9=67|35=0|34=2|49=ELECTRONIFIE|52=20150826-21:27:23.606|56=NODEQUICKFIX|10=226|
20150826-21:27:23.606 : 8=FIX.4.4|9=67|35=0|34=2|49=NODEQUICKFIX|52=20150826-21:27:23.606|56=ELECTRONIFIE|10=226|
20150826-21:27:53.636 : 8=FIX.4.4|9=67|35=0|34=3|49=ELECTRONIFIE|52=20150826-21:27:53.636|56=NODEQUICKFIX|10=233|
20150826-21:27:53.636 : 8=FIX.4.4|9=67|35=0|34=3|49=NODEQUICKFIX|52=20150826-21:27:53.636|56=ELECTRONIFIE|10=233|
20150826-22:17:39.896 : 8=FIX.4.4|9=85|35=A|34=1|49=NODEQUICKFIX|52=20150826-22:17:39.895|56=ELECTRONIFIE|98=0|108=30|141=Y|10=073|
20150826-22:17:39.896 : 8=FIX.4.4|9=85|35=A|34=1|49=ELECTRONIFIE|52=20150826-22:17:39.896|56=NODEQUICKFIX|98=0|108=30|141=Y|10=074|
20150826-22:18:54.936 : 8=FIX.4.4|9=85|35=A|34=1|49=NODEQUICKFIX|52=20150826-22:18:54.935|56=ELECTRONIFIE|98=0|108=30|141=Y|10=066|
20150826-22:18:54.936 : 8=FIX.4.4|9=85|35=A|34=1|49=ELECTRONIFIE|52=20150826-22:18:54.936|56=NODEQUICKFIX|98=0|108=30|141=Y|10=067|
20150826-22:18:54.968 : 8=FIX.4.4|9=164|35=D|34=2|49=ELECTRONIFIE|52=20150826-22:18:54.968|56=NODEQUICKFIX|11=0E0Z86K00000|22=1|38=200|40=2|48=06051GDX4|54=1|55=BAC|60=20150827-00:17:54.950|218=100|423=6|10=179|
20150826-22:20:52.088 : 8=FIX.4.4|9=85|35=A|34=1|49=NODEQUICKFIX|52=20150826-22:20:52.087|56=ELECTRONIFIE|98=0|108=30|141=Y|10=055|
20150826-22:20:52.088 : 8=FIX.4.4|9=85|35=A|34=1|49=ELECTRONIFIE|52=20150826-22:20:52.088|56=NODEQUICKFIX|98=0|108=30|141=Y|10=056|
20150826-22:20:52.112 : 8=FIX.4.4|9=164|35=D|34=2|49=ELECTRONIFIE|52=20150826-22:20:52.112|56=NODEQUICKFIX|11=0E0Z86K00000|22=1|38=200|40=2|48=06051GDX4|54=1|55=BAC|60=20150827-00:19:52.096|218=100|423=6|10=152|
20150826-22:22:42.466 : 8=FIX.4.4|9=85|35=A|34=1|49=NODEQUICKFIX|52=20150826-22:22:42.466|56=ELECTRONIFIE|98=0|108=30|141=Y|10=057|
20150826-22:22:42.466 : 8=FIX.4.4|9=85|35=A|34=1|49=ELECTRONIFIE|52=20150826-22:22:42.466|56=NODEQUICKFIX|98=0|108=30|141=Y|10=057|
20150826-22:22:42.498 : 8=FIX.4.4|9=164|35=D|34=2|49=ELECTRONIFIE|52=20150826-22:22:42.498|56=NODEQUICKFIX|11=0E0Z86K00000|22=1|38=200|40=2|48=06051GDX4|54=1|55=BAC|60=20150827-00:21:42.480|218=100|423=6|10=159|
20150826-22:29:06.204 : 8=FIX.4.4|9=85|35=A|34=1|49=NODEQUICKFIX|52=20150826-22:29:06.204|56=ELECTRONIFIE|98=0|108=30|141=Y|10=054|
20150826-22:29:06.204 : 8=FIX.4.4|9=85|35=A|34=1|49=ELECTRONIFIE|52=20150826-22:29:06.204|56=NODEQUICKFIX|98=0|108=30|141=Y|10=054|
20150826-22:29:06.227 : 8=FIX.4.4|9=164|35=D|34=2|49=ELECTRONIFIE|52=20150826-22:29:06.227|56=NODEQUICKFIX|11=0E0Z86K00000|22=1|38=200|40=2|48=06051GDX4|54=1|55=BAC|60=20150827-00:28:06.211|218=100|423=6|10=155|
20150826-22:31:30.005 : 8=FIX.4.4|9=85|35=A|34=1|49=NODEQUICKFIX|52=20150826-22:31:30.005|56=ELECTRONIFIE|98=0|108=30|141=Y|10=043|
20150826-22:31:30.006 : 8=FIX.4.4|9=85|35=A|34=1|49=ELECTRONIFIE|52=20150826-22:31:30.006|56=NODEQUICKFIX|98=0|108=30|141=Y|10=044|
20150826-22:31:30.029 : 8=FIX.4.4|9=164|35=D|34=2|49=ELECTRONIFIE|52=20150826-22:31:30.029|56=NODEQUICKFIX|11=0E0Z86K00000|22=1|38=200|40=2|48=06051GDX4|54=1|55=BAC|60=20150827-00:30:30.012|218=100|423=6|10=134|
20150826-23:37:18.198 : 8=FIX.4.4|9=85|35=A|34=1|49=NODEQUICKFIX|52=20150826-23:37:18.198|56=ELECTRONIFIE|98=0|108=30|141=Y|10=069|
20150826-23:37:18.199 : 8=FIX.4.4|9=85|35=A|34=1|49=ELECTRONIFIE|52=20150826-23:37:18.199|56=NODEQUICKFIX|98=0|108=30|141=Y|10=070|
20150826-23:37:18.201 : 8=FIX.4.4|9=164|35=D|34=2|49=ELECTRONIFIE|52=20150826-23:37:18.201|56=NODEQUICKFIX|11=0E0Z86K00000|22=1|38=200|40=2|48=06051GDX4|54=1|55=BAC|60=20150827-01:36:18.184|218=100|423=6|10=162|
20150826-23:47:27.928 : 8=FIX.4.4|9=85|35=A|34=1|49=NODEQUICKFIX|52=20150826-23:47:27.927|56=ELECTRONIFIE|98=0|108=30|141=Y|10=070|
20150826-23:47:27.928 : 8=FIX.4.4|9=85|35=A|34=1|49=ELECTRONIFIE|52=20150826-23:47:27.928|56=NODEQUICKFIX|98=0|108=30|141=Y|10=071|
20150826-23:47:27.953 : 8=FIX.4.4|9=164|35=D|34=2|49=ELECTRONIFIE|52=20150826-23:47:27.953|56=NODEQUICKFIX|11=0E0Z86K00000|22=1|38=200|40=2|48=06051GDX4|54=1|55=BAC|60=20150827-01:46:27.937|218=100|423=6|10=184|
20150827-00:00:49.983 : 8=FIX.4.4|9=85|35=A|34=1|49=NODEQUICKFIX|52=20150827-00:00:49.982|56=ELECTRONIFIE|98=0|108=30|141=Y|10=060|
20150827-00:00:49.983 : 8=FIX.4.4|9=85|35=A|34=1|49=ELECTRONIFIE|52=20150827-00:00:49.983|56=NODEQUICKFIX|98=0|108=30|141=Y|10=061|
20150827-00:00:49.995 : 8=FIX.4.4|9=164|35=D|34=2|49=ELECTRONIFIE|52=20150827-00:00:49.995|56=NODEQUICKFIX|11=0E0Z86K00000|22=1|38=200|40=2|48=06051GDX4|54=1|55=BAC|60=20150827-01:59:49.978|218=100|423=6|10=192|
20150827-00:02:12.844 : 8=FIX.4.4|9=85|35=A|34=1|49=NODEQUICKFIX|52=20150827-00:02:12.843|56=ELECTRONIFIE|98=0|108=30|141=Y|10=048|
20150827-00:02:12.844 : 8=FIX.4.4|9=85|35=A|34=1|49=ELECTRONIFIE|52=20150827-00:02:12.844|56=NODEQUICKFIX|98=0|108=30|141=Y|10=049|
20150827-00:02:12.870 : 8=FIX.4.4|9=164|35=D|34=2|49=ELECTRONIFIE|52=20150827-00:02:12.870|56=NODEQUICKFIX|11=0E0Z86K00000|22=1|38=200|40=2|48=06051GDX4|54=1|55=BAC|60=20150827-02:01:12.853|218=100|423=6|10=146|
20150827-00:02:42.873 : 8=FIX.4.4|9=67|35=0|34=3|49=ELECTRONIFIE|52=20150827-00:02:42.873|56=NODEQUICKFIX|10=225|
20150827-00:02:42.873 : 8=FIX.4.4|9=67|35=0|34=2|49=NODEQUICKFIX|52=20150827-00:02:42.873|56=ELECTRONIFIE|10=224|
20150827-00:04:01.075 : 8=FIX.4.4|9=85|35=A|34=1|49=NODEQUICKFIX|52=20150827-00:04:01.075|56=ELECTRONIFIE|98=0|108=30|141=Y|10=045|
20150827-00:04:01.076 : 8=FIX.4.4|9=85|35=A|34=1|49=ELECTRONIFIE|52=20150827-00:04:01.076|56=NODEQUICKFIX|98=0|108=30|141=Y|10=046|
20150827-00:04:01.106 : 8=FIX.4.4|9=164|35=D|34=2|49=ELECTRONIFIE|52=20150827-00:04:01.106|56=NODEQUICKFIX|11=0E0Z86K00000|22=1|38=200|40=2|48=06051GDX4|54=1|55=BAC|60=20150827-02:03:01.089|218=100|423=6|10=139|
