20150830-11:32:19.481 : 8=FIX.4.4|9=85|35=A|34=1|49=NODEQUICKFIX|52=20150830-11:32:19.481|56=ELECTRONIFIE|98=0|108=30|141=Y|10=052|
20150830-11:32:19.482 : 8=FIX.4.4|9=85|35=A|34=1|49=ELECTRONIFIE|52=20150830-11:32:19.482|56=NODEQUICKFIX|98=0|108=30|141=Y|10=053|
20150901-12:10:40.695 : 8=FIX.4.4|9=85|35=A|34=1|49=NODEQUICKFIX|52=20150901-12:10:40.695|56=ELECTRONIFIE|98=0|108=30|141=Y|10=049|
20150901-12:30:56.518 : 8=FIX.4.4|9=85|35=A|34=1|49=NODEQUICKFIX|52=20150901-12:30:56.518|56=ELECTRONIFIE|98=0|108=30|141=Y|10=052|
