20150830-11:32:19.481 : 8=FIX.4.4|9=85|35=A|34=1|49=NODEQUICKFIX|52=20150830-11:32:19.481|56=ELECTRONIFIE|98=0|108=30|141=Y|10=052|
20150830-11:32:19.482 : 8=FIX.4.4|9=85|35=A|34=1|49=ELECTRONIFIE|52=20150830-11:32:19.482|56=NODEQUICKFIX|98=0|108=30|141=Y|10=053|
20150901-12:10:40.695 : 8=FIX.4.4|9=85|35=A|34=1|49=NODEQUICKFIX|52=20150901-12:10:40.695|56=ELECTRONIFIE|98=0|108=30|141=Y|10=049|
20150901-12:30:56.518 : 8=FIX.4.4|9=85|35=A|34=1|49=NODEQUICKFIX|52=20150901-12:30:56.518|56=ELECTRONIFIE|98=0|108=30|141=Y|10=052|
20150901-14:22:27.845 : 8=FIX.4.4|9=85|35=A|34=1|49=NODEQUICKFIX|52=20150901-14:22:27.845|56=ELECTRONIFIE|98=0|108=30|141=Y|10=056|
20150901-18:57:51.509 : 8=FIX.4.4|9=85|35=A|34=1|49=NODEQUICKFIX|52=20150901-18:57:51.509|56=ELECTRONIFIE|98=0|108=30|141=Y|10=062|
20150901-19:17:23.078 : 8=FIX.4.4|9=85|35=A|34=1|49=NODEQUICKFIX|52=20150901-19:17:23.078|56=ELECTRONIFIE|98=0|108=30|141=Y|10=059|
20150901-19:17:39.704 : 8=FIX.4.4|9=85|35=A|34=1|49=NODEQUICKFIX|52=20150901-19:17:39.703|56=ELECTRONIFIE|98=0|108=30|141=Y|10=061|
20150901-19:18:39.771 : 8=FIX.4.4|9=85|35=A|34=1|49=NODEQUICKFIX|52=20150901-19:18:39.770|56=ELECTRONIFIE|98=0|108=30|141=Y|10=066|
20150901-19:19:39.838 : 8=FIX.4.4|9=85|35=A|34=1|49=NODEQUICKFIX|52=20150901-19:19:39.837|56=ELECTRONIFIE|98=0|108=30|141=Y|10=071|
20150901-19:21:14.497 : 8=FIX.4.4|9=85|35=A|34=1|49=NODEQUICKFIX|52=20150901-19:21:14.497|56=ELECTRONIFIE|98=0|108=30|141=Y|10=059|
20150901-19:23:51.620 : 8=FIX.4.4|9=85|35=A|34=1|49=NODEQUICKFIX|52=20150901-19:23:51.619|56=ELECTRONIFIE|98=0|108=30|141=Y|10=058|
20150901-19:24:51.687 : 8=FIX.4.4|9=85|35=A|34=1|49=NODEQUICKFIX|52=20150901-19:24:51.687|56=ELECTRONIFIE|98=0|108=30|141=Y|10=064|
20150901-19:25:51.754 : 8=FIX.4.4|9=85|35=A|34=1|49=NODEQUICKFIX|52=20150901-19:25:51.754|56=ELECTRONIFIE|98=0|108=30|141=Y|10=060|
20150901-19:26:55.215 : 8=FIX.4.4|9=85|35=A|34=1|49=NODEQUICKFIX|52=20150901-19:26:55.215|56=ELECTRONIFIE|98=0|108=30|141=Y|10=057|
