20150830-11:32:19.481 : 8=FIX.4.4|9=85|35=A|34=1|49=NODEQUICKFIX|52=20150830-11:32:19.481|56=ELECTRONIFIE|98=0|108=30|141=Y|10=052|
20150830-11:32:19.482 : 8=FIX.4.4|9=85|35=A|34=1|49=ELECTRONIFIE|52=20150830-11:32:19.482|56=NODEQUICKFIX|98=0|108=30|141=Y|10=053|
20150901-12:10:40.695 : 8=FIX.4.4|9=85|35=A|34=1|49=NODEQUICKFIX|52=20150901-12:10:40.695|56=ELECTRONIFIE|98=0|108=30|141=Y|10=049|
20150901-12:30:56.518 : 8=FIX.4.4|9=85|35=A|34=1|49=NODEQUICKFIX|52=20150901-12:30:56.518|56=ELECTRONIFIE|98=0|108=30|141=Y|10=052|
20150901-14:22:27.845 : 8=FIX.4.4|9=85|35=A|34=1|49=NODEQUICKFIX|52=20150901-14:22:27.845|56=ELECTRONIFIE|98=0|108=30|141=Y|10=056|
20150901-18:57:51.509 : 8=FIX.4.4|9=85|35=A|34=1|49=NODEQUICKFIX|52=20150901-18:57:51.509|56=ELECTRONIFIE|98=0|108=30|141=Y|10=062|
20150901-19:17:23.078 : 8=FIX.4.4|9=85|35=A|34=1|49=NODEQUICKFIX|52=20150901-19:17:23.078|56=ELECTRONIFIE|98=0|108=30|141=Y|10=059|
20150901-19:17:39.704 : 8=FIX.4.4|9=85|35=A|34=1|49=NODEQUICKFIX|52=20150901-19:17:39.703|56=ELECTRONIFIE|98=0|108=30|141=Y|10=061|
20150901-19:18:39.771 : 8=FIX.4.4|9=85|35=A|34=1|49=NODEQUICKFIX|52=20150901-19:18:39.770|56=ELECTRONIFIE|98=0|108=30|141=Y|10=066|
20150901-19:19:39.838 : 8=FIX.4.4|9=85|35=A|34=1|49=NODEQUICKFIX|52=20150901-19:19:39.837|56=ELECTRONIFIE|98=0|108=30|141=Y|10=071|
20150901-19:21:14.497 : 8=FIX.4.4|9=85|35=A|34=1|49=NODEQUICKFIX|52=20150901-19:21:14.497|56=ELECTRONIFIE|98=0|108=30|141=Y|10=059|
20150901-19:23:51.620 : 8=FIX.4.4|9=85|35=A|34=1|49=NODEQUICKFIX|52=20150901-19:23:51.619|56=ELECTRONIFIE|98=0|108=30|141=Y|10=058|
20150901-19:24:51.687 : 8=FIX.4.4|9=85|35=A|34=1|49=NODEQUICKFIX|52=20150901-19:24:51.687|56=ELECTRONIFIE|98=0|108=30|141=Y|10=064|
20150901-19:25:51.754 : 8=FIX.4.4|9=85|35=A|34=1|49=NODEQUICKFIX|52=20150901-19:25:51.754|56=ELECTRONIFIE|98=0|108=30|141=Y|10=060|
20150901-19:26:55.215 : 8=FIX.4.4|9=85|35=A|34=1|49=NODEQUICKFIX|52=20150901-19:26:55.215|56=ELECTRONIFIE|98=0|108=30|141=Y|10=057|
20150901-20:56:36.370 : 8=FIX.4.4|9=85|35=A|34=1|49=NODEQUICKFIX|52=20150901-20:56:36.370|56=ELECTRONIFIE|98=0|108=30|141=Y|10=053|
20150901-20:58:24.648 : 8=FIX.4.4|9=85|35=A|34=1|49=NODEQUICKFIX|52=20150901-20:58:24.648|56=ELECTRONIFIE|98=0|108=30|141=Y|10=060|
20150901-20:59:24.417 : 8=FIX.4.4|9=85|35=A|34=1|49=NODEQUICKFIX|52=20150901-20:59:24.417|56=ELECTRONIFIE|98=0|108=30|141=Y|10=055|
20150901-21:08:32.523 : 8=FIX.4.4|9=85|35=A|34=1|49=NODEQUICKFIX|52=20150901-21:08:32.523|56=ELECTRONIFIE|98=0|108=30|141=Y|10=047|
20150901-21:09:18.571 : 8=FIX.4.4|9=85|35=A|34=1|49=NODEQUICKFIX|52=20150901-21:09:18.571|56=ELECTRONIFIE|98=0|108=30|141=Y|10=055|
20150901-21:15:48.472 : 8=FIX.4.4|9=85|35=A|34=1|49=NODEQUICKFIX|52=20150901-21:15:48.472|56=ELECTRONIFIE|98=0|108=30|141=Y|10=055|
20150901-21:16:05.028 : 8=FIX.4.4|9=85|35=A|34=1|49=NODEQUICKFIX|52=20150901-21:16:05.027|56=ELECTRONIFIE|98=0|108=30|141=Y|10=045|
20150902-08:58:10.374 : 8=FIX.4.4|9=85|35=A|34=1|49=NODEQUICKFIX|52=20150902-08:58:10.373|56=ELECTRONIFIE|98=0|108=30|141=Y|10=057|
20150902-08:59:01.456 : 8=FIX.4.4|9=85|35=A|34=1|49=NODEQUICKFIX|52=20150902-08:59:01.456|56=ELECTRONIFIE|98=0|108=30|141=Y|10=060|
20150902-09:08:41.467 : 8=FIX.4.4|9=85|35=A|34=1|49=NODEQUICKFIX|52=20150902-09:08:41.466|56=ELECTRONIFIE|98=0|108=30|141=Y|10=060|
20150902-09:08:53.291 : 8=FIX.4.4|9=85|35=A|34=1|49=NODEQUICKFIX|52=20150902-09:08:53.291|56=ELECTRONIFIE|98=0|108=30|141=Y|10=059|
20150902-09:10:24.461 : 8=FIX.4.4|9=85|35=A|34=1|49=NODEQUICKFIX|52=20150902-09:10:24.460|56=ELECTRONIFIE|98=0|108=30|141=Y|10=048|
20150902-09:12:07.542 : 8=FIX.4.4|9=85|35=A|34=1|49=NODEQUICKFIX|52=20150902-09:12:07.542|56=ELECTRONIFIE|98=0|108=30|141=Y|10=052|
20150902-09:12:39.909 : 8=FIX.4.4|9=85|35=A|34=1|49=NODEQUICKFIX|52=20150902-09:12:39.908|56=ELECTRONIFIE|98=0|108=30|141=Y|10=063|
20150902-09:15:26.094 : 8=FIX.4.4|9=85|35=A|34=1|49=NODEQUICKFIX|52=20150902-09:15:26.094|56=ELECTRONIFIE|98=0|108=30|141=Y|10=058|
20150902-09:16:43.338 : 8=FIX.4.4|9=85|35=A|34=1|49=NODEQUICKFIX|52=20150902-09:16:43.338|56=ELECTRONIFIE|98=0|108=30|141=Y|10=059|
20150902-09:17:45.813 : 8=FIX.4.4|9=85|35=A|34=1|49=NODEQUICKFIX|52=20150902-09:17:45.813|56=ELECTRONIFIE|98=0|108=30|141=Y|10=060|
20150902-09:20:43.565 : 8=FIX.4.4|9=85|35=A|34=1|49=NODEQUICKFIX|52=20150902-09:20:43.565|56=ELECTRONIFIE|98=0|108=30|141=Y|10=056|
20150902-09:21:35.893 : 8=FIX.4.4|9=85|35=A|34=1|49=NODEQUICKFIX|52=20150902-09:21:35.893|56=ELECTRONIFIE|98=0|108=30|141=Y|10=062|
20150902-09:24:01.249 : 8=FIX.4.4|9=85|35=A|34=1|49=NODEQUICKFIX|52=20150902-09:24:01.248|56=ELECTRONIFIE|98=0|108=30|141=Y|10=052|
20150902-09:25:57.138 : 8=FIX.4.4|9=85|35=A|34=1|49=NODEQUICKFIX|52=20150902-09:25:57.138|56=ELECTRONIFIE|98=0|108=30|141=Y|10=062|
20150902-09:29:01.652 : 8=FIX.4.4|9=85|35=A|34=1|49=NODEQUICKFIX|52=20150902-09:29:01.652|56=ELECTRONIFIE|98=0|108=30|141=Y|10=056|
20150902-09:33:56.042 : 8=FIX.4.4|9=85|35=A|34=1|49=NODEQUICKFIX|52=20150902-09:33:56.042|56=ELECTRONIFIE|98=0|108=30|141=Y|10=054|
20150902-09:34:22.137 : 8=FIX.4.4|9=85|35=A|34=1|49=NODEQUICKFIX|52=20150902-09:34:22.136|56=ELECTRONIFIE|98=0|108=30|141=Y|10=052|
20150902-09:37:41.409 : 8=FIX.4.4|9=85|35=A|34=1|49=NODEQUICKFIX|52=20150902-09:37:41.409|56=ELECTRONIFIE|98=0|108=30|141=Y|10=059|
20150902-09:39:21.740 : 8=FIX.4.4|9=85|35=A|34=1|49=NODEQUICKFIX|52=20150902-09:39:21.740|56=ELECTRONIFIE|98=0|108=30|141=Y|10=057|
20150902-09:41:59.506 : 8=FIX.4.4|9=85|35=A|34=1|49=NODEQUICKFIX|52=20150902-09:41:59.506|56=ELECTRONIFIE|98=0|108=30|141=Y|10=061|
20150902-09:42:47.806 : 8=FIX.4.4|9=85|35=A|34=1|49=NODEQUICKFIX|52=20150902-09:42:47.805|56=ELECTRONIFIE|98=0|108=30|141=Y|10=061|
20150902-09:45:23.065 : 8=FIX.4.4|9=85|35=A|34=1|49=NODEQUICKFIX|52=20150902-09:45:23.065|56=ELECTRONIFIE|98=0|108=30|141=Y|10=056|
20150902-09:50:08.636 : 8=FIX.4.4|9=85|35=A|34=1|49=NODEQUICKFIX|52=20150902-09:50:08.636|56=ELECTRONIFIE|98=0|108=30|141=Y|10=059|
20150902-09:51:59.910 : 8=FIX.4.4|9=85|35=A|34=1|49=NODEQUICKFIX|52=20150902-09:51:59.910|56=ELECTRONIFIE|98=0|108=30|141=Y|10=061|
20150902-09:52:44.746 : 8=FIX.4.4|9=85|35=A|34=1|49=NODEQUICKFIX|52=20150902-09:52:44.746|56=ELECTRONIFIE|98=0|108=30|141=Y|10=063|
20150902-09:55:36.487 : 8=FIX.4.4|9=85|35=A|34=1|49=NODEQUICKFIX|52=20150902-09:55:36.487|56=ELECTRONIFIE|98=0|108=30|141=Y|10=069|
20150902-09:55:57.342 : 8=FIX.4.4|9=85|35=A|34=1|49=NODEQUICKFIX|52=20150902-09:55:57.342|56=ELECTRONIFIE|98=0|108=30|141=Y|10=062|
20150902-09:56:16.755 : 8=FIX.4.4|9=85|35=A|34=1|49=NODEQUICKFIX|52=20150902-09:56:16.754|56=ELECTRONIFIE|98=0|108=30|141=Y|10=065|
20150902-10:13:12.455 : 8=FIX.4.4|9=85|35=A|34=1|49=NODEQUICKFIX|52=20150902-10:13:12.455|56=ELECTRONIFIE|98=0|108=30|141=Y|10=044|
20150902-10:14:49.080 : 8=FIX.4.4|9=85|35=A|34=1|49=NODEQUICKFIX|52=20150902-10:14:49.079|56=ELECTRONIFIE|98=0|108=30|141=Y|10=057|
20150902-18:47:49.555 : 8=FIX.4.4|9=85|35=A|34=1|49=NODEQUICKFIX|52=20150902-18:47:49.555|56=ELECTRONIFIE|98=0|108=30|141=Y|10=070|
20150902-18:49:58.254 : 8=FIX.4.4|9=85|35=A|34=1|49=NODEQUICKFIX|52=20150902-18:49:58.254|56=ELECTRONIFIE|98=0|108=30|141=Y|10=068|
20150902-18:51:38.557 : 8=FIX.4.4|9=85|35=A|34=1|49=NODEQUICKFIX|52=20150902-18:51:38.556|56=ELECTRONIFIE|98=0|108=30|141=Y|10=064|
20150902-18:52:31.990 : 8=FIX.4.4|9=85|35=A|34=1|49=NODEQUICKFIX|52=20150902-18:52:31.990|56=ELECTRONIFIE|98=0|108=30|141=Y|10=060|
20150902-18:53:22.448 : 8=FIX.4.4|9=85|35=A|34=1|49=NODEQUICKFIX|52=20150902-18:53:22.448|56=ELECTRONIFIE|98=0|108=30|141=Y|10=059|
20150902-18:54:33.558 : 8=FIX.4.4|9=85|35=A|34=1|49=NODEQUICKFIX|52=20150902-18:54:33.558|56=ELECTRONIFIE|98=0|108=30|141=Y|10=064|
20150902-18:55:00.669 : 8=FIX.4.4|9=85|35=A|34=1|49=NODEQUICKFIX|52=20150902-18:55:00.669|56=ELECTRONIFIE|98=0|108=30|141=Y|10=062|
20150902-18:55:43.193 : 8=FIX.4.4|9=85|35=A|34=1|49=NODEQUICKFIX|52=20150902-18:55:43.193|56=ELECTRONIFIE|98=0|108=30|141=Y|10=061|
20150902-18:56:53.432 : 8=FIX.4.4|9=85|35=A|34=1|49=NODEQUICKFIX|52=20150902-18:56:53.432|56=ELECTRONIFIE|98=0|108=30|141=Y|10=059|
20150902-18:59:19.212 : 8=FIX.4.4|9=85|35=A|34=1|49=NODEQUICKFIX|52=20150902-18:59:19.211|56=ELECTRONIFIE|98=0|108=30|141=Y|10=059|
20150902-18:59:33.993 : 8=FIX.4.4|9=85|35=A|34=1|49=NODEQUICKFIX|52=20150902-18:59:33.993|56=ELECTRONIFIE|98=0|108=30|141=Y|10=072|
20150902-19:01:37.431 : 8=FIX.4.4|9=85|35=A|34=1|49=NODEQUICKFIX|52=20150902-19:01:37.431|56=ELECTRONIFIE|98=0|108=30|141=Y|10=051|
20150902-19:01:57.595 : 8=FIX.4.4|9=85|35=A|34=1|49=NODEQUICKFIX|52=20150902-19:01:57.595|56=ELECTRONIFIE|98=0|108=30|141=Y|10=064|
20150902-20:13:41.458 : 8=FIX.4.4|9=85|35=A|34=1|49=NODEQUICKFIX|52=20150902-20:13:41.457|56=ELECTRONIFIE|98=0|108=30|141=Y|10=049|
20150902-20:22:17.252 : 8=FIX.4.4|9=85|35=A|34=1|49=NODEQUICKFIX|52=20150902-20:22:17.252|56=ELECTRONIFIE|98=0|108=30|141=Y|10=045|
20150902-20:25:08.961 : 8=FIX.4.4|9=85|35=A|34=1|49=NODEQUICKFIX|52=20150902-20:25:08.960|56=ELECTRONIFIE|98=0|108=30|141=Y|10=054|
20150902-23:27:14.483 : 8=FIX.4.4|9=85|35=A|34=1|49=NODEQUICKFIX|52=20150902-23:27:14.483|56=ELECTRONIFIE|98=0|108=30|141=Y|10=056|
20150903-11:57:42.315 : 8=FIX.4.4|9=85|35=A|34=1|49=NODEQUICKFIX|52=20150903-11:57:42.315|56=ELECTRONIFIE|98=0|108=30|141=Y|10=052|
20150903-19:05:37.855 : 8=FIX.4.4|9=85|35=A|34=1|49=NODEQUICKFIX|52=20150903-19:05:37.854|56=ELECTRONIFIE|98=0|108=30|141=Y|10=065|
20150903-19:44:44.017 : 8=FIX.4.4|9=85|35=A|34=1|49=NODEQUICKFIX|52=20150903-19:44:44.016|56=ELECTRONIFIE|98=0|108=30|141=Y|10=056|
20150903-21:18:29.104 : 8=FIX.4.4|9=85|35=A|34=1|49=NODEQUICKFIX|52=20150903-21:18:29.104|56=ELECTRONIFIE|98=0|108=30|141=Y|10=051|
20150903-22:23:51.963 : 8=FIX.4.4|9=85|35=A|34=1|49=NODEQUICKFIX|52=20150903-22:23:51.963|56=ELECTRONIFIE|98=0|108=30|141=Y|10=056|
20150903-23:19:00.916 : 8=FIX.4.4|9=85|35=A|34=1|49=NODEQUICKFIX|52=20150903-23:19:00.915|56=ELECTRONIFIE|98=0|108=30|141=Y|10=053|
20150903-23:19:39.672 : 8=FIX.4.4|9=85|35=A|34=1|49=NODEQUICKFIX|52=20150903-23:19:39.672|56=ELECTRONIFIE|98=0|108=30|141=Y|10=065|
20150903-23:33:37.473 : 8=FIX.4.4|9=85|35=A|34=1|49=NODEQUICKFIX|52=20150903-23:33:37.473|56=ELECTRONIFIE|98=0|108=30|141=Y|10=058|
20150903-23:36:15.905 : 8=FIX.4.4|9=85|35=A|34=1|49=NODEQUICKFIX|52=20150903-23:36:15.905|56=ELECTRONIFIE|98=0|108=30|141=Y|10=057|
20150903-23:36:57.222 : 8=FIX.4.4|9=85|35=A|34=1|49=NODEQUICKFIX|52=20150903-23:36:57.222|56=ELECTRONIFIE|98=0|108=30|141=Y|10=055|
20150903-23:37:57.136 : 8=FIX.4.4|9=85|35=A|34=1|49=NODEQUICKFIX|52=20150903-23:37:57.136|56=ELECTRONIFIE|98=0|108=30|141=Y|10=060|
20150903-23:38:35.970 : 8=FIX.4.4|9=85|35=A|34=1|49=NODEQUICKFIX|52=20150903-23:38:35.970|56=ELECTRONIFIE|98=0|108=30|141=Y|10=063|
20150903-23:39:11.151 : 8=FIX.4.4|9=85|35=A|34=1|49=NODEQUICKFIX|52=20150903-23:39:11.151|56=ELECTRONIFIE|98=0|108=30|141=Y|10=049|
20150903-23:39:41.953 : 8=FIX.4.4|9=85|35=A|34=1|49=NODEQUICKFIX|52=20150903-23:39:41.952|56=ELECTRONIFIE|98=0|108=30|141=Y|10=061|
20150903-23:43:39.567 : 8=FIX.4.4|9=85|35=A|34=1|49=NODEQUICKFIX|52=20150903-23:43:39.567|56=ELECTRONIFIE|98=0|108=30|141=Y|10=065|
20150903-23:46:01.988 : 8=FIX.4.4|9=85|35=A|34=1|49=NODEQUICKFIX|52=20150903-23:46:01.987|56=ELECTRONIFIE|98=0|108=30|141=Y|10=063|
20150903-23:46:33.257 : 8=FIX.4.4|9=85|35=A|34=1|49=NODEQUICKFIX|52=20150903-23:46:33.256|56=ELECTRONIFIE|98=0|108=30|141=Y|10=057|
20150903-23:51:14.963 : 8=FIX.4.4|9=85|35=A|34=1|49=NODEQUICKFIX|52=20150903-23:51:14.962|56=ELECTRONIFIE|98=0|108=30|141=Y|10=056|
20150903-23:51:49.063 : 8=FIX.4.4|9=85|35=A|34=1|49=NODEQUICKFIX|52=20150903-23:51:49.062|56=ELECTRONIFIE|98=0|108=30|141=Y|10=055|
20150903-23:54:18.725 : 8=FIX.4.4|9=85|35=A|34=1|49=NODEQUICKFIX|52=20150903-23:54:18.725|56=ELECTRONIFIE|98=0|108=30|141=Y|10=060|
20150903-23:58:56.045 : 8=FIX.4.4|9=85|35=A|34=1|49=NODEQUICKFIX|52=20150903-23:58:56.045|56=ELECTRONIFIE|98=0|108=30|141=Y|10=061|
20150904-00:00:05.160 : 8=FIX.4.4|9=85|35=A|34=1|49=NODEQUICKFIX|52=20150904-00:00:05.160|56=ELECTRONIFIE|98=0|108=30|141=Y|10=036|
20150904-00:00:40.864 : 8=FIX.4.4|9=85|35=A|34=1|49=NODEQUICKFIX|52=20150904-00:00:40.863|56=ELECTRONIFIE|98=0|108=30|141=Y|10=045|
20150904-00:01:30.431 : 8=FIX.4.4|9=85|35=A|34=1|49=NODEQUICKFIX|52=20150904-00:01:30.430|56=ELECTRONIFIE|98=0|108=30|141=Y|10=035|
20150904-00:02:07.907 : 8=FIX.4.4|9=85|35=A|34=1|49=NODEQUICKFIX|52=20150904-00:02:07.907|56=ELECTRONIFIE|98=0|108=30|141=Y|10=049|
20150904-00:03:02.226 : 8=FIX.4.4|9=85|35=A|34=1|49=NODEQUICKFIX|52=20150904-00:03:02.226|56=ELECTRONIFIE|98=0|108=30|141=Y|10=039|
20150904-00:03:53.338 : 8=FIX.4.4|9=85|35=A|34=1|49=NODEQUICKFIX|52=20150904-00:03:53.338|56=ELECTRONIFIE|98=0|108=30|141=Y|10=049|
20150904-00:05:39.410 : 8=FIX.4.4|9=85|35=A|34=1|49=NODEQUICKFIX|52=20150904-00:05:39.409|56=ELECTRONIFIE|98=0|108=30|141=Y|10=054|
20150904-00:06:32.369 : 8=FIX.4.4|9=85|35=A|34=1|49=NODEQUICKFIX|52=20150904-00:06:32.368|56=ELECTRONIFIE|98=0|108=30|141=Y|10=052|
20150904-00:07:41.821 : 8=FIX.4.4|9=85|35=A|34=1|49=NODEQUICKFIX|52=20150904-00:07:41.820|56=ELECTRONIFIE|98=0|108=30|141=Y|10=046|
20150904-00:08:26.989 : 8=FIX.4.4|9=85|35=A|34=1|49=NODEQUICKFIX|52=20150904-00:08:26.989|56=ELECTRONIFIE|98=0|108=30|141=Y|10=066|
20150904-00:09:05.663 : 8=FIX.4.4|9=85|35=A|34=1|49=NODEQUICKFIX|52=20150904-00:09:05.663|56=ELECTRONIFIE|98=0|108=30|141=Y|10=053|
20150904-00:09:25.968 : 8=FIX.4.4|9=85|35=A|34=1|49=NODEQUICKFIX|52=20150904-00:09:25.967|56=ELECTRONIFIE|98=0|108=30|141=Y|10=062|
20150904-00:10:06.682 : 8=FIX.4.4|9=85|35=A|34=1|49=NODEQUICKFIX|52=20150904-00:10:06.682|56=ELECTRONIFIE|98=0|108=30|141=Y|10=047|
20150904-21:12:09.235 : 8=FIX.4.4|9=85|35=A|34=1|49=NODEQUICKFIX|52=20150904-21:12:09.235|56=ELECTRONIFIE|98=0|108=30|141=Y|10=049|
20150904-21:12:38.841 : 8=FIX.4.4|9=85|35=A|34=1|49=NODEQUICKFIX|52=20150904-21:12:38.841|56=ELECTRONIFIE|98=0|108=30|141=Y|10=054|
20150904-21:13:13.102 : 8=FIX.4.4|9=85|35=A|34=1|49=NODEQUICKFIX|52=20150904-21:13:13.102|56=ELECTRONIFIE|98=0|108=30|141=Y|10=038|
20150904-21:13:31.663 : 8=FIX.4.4|9=85|35=A|34=1|49=NODEQUICKFIX|52=20150904-21:13:31.663|56=ELECTRONIFIE|98=0|108=30|141=Y|10=050|
20150904-21:14:14.737 : 8=FIX.4.4|9=85|35=A|34=1|49=NODEQUICKFIX|52=20150904-21:14:14.737|56=ELECTRONIFIE|98=0|108=30|141=Y|10=054|
20150904-21:15:15.174 : 8=FIX.4.4|9=85|35=A|34=1|49=NODEQUICKFIX|52=20150904-21:15:15.174|56=ELECTRONIFIE|98=0|108=30|141=Y|10=051|
20150904-21:15:51.833 : 8=FIX.4.4|9=85|35=A|34=1|49=NODEQUICKFIX|52=20150904-21:15:51.833|56=ELECTRONIFIE|98=0|108=30|141=Y|10=053|
20150904-21:16:07.255 : 8=FIX.4.4|9=85|35=A|34=1|49=NODEQUICKFIX|52=20150904-21:16:07.255|56=ELECTRONIFIE|98=0|108=30|141=Y|10=053|
20150904-21:16:55.027 : 8=FIX.4.4|9=85|35=A|34=1|49=NODEQUICKFIX|52=20150904-21:16:55.027|56=ELECTRONIFIE|98=0|108=30|141=Y|10=053|
20150904-21:17:39.315 : 8=FIX.4.4|9=85|35=A|34=1|49=NODEQUICKFIX|52=20150904-21:17:39.314|56=ELECTRONIFIE|98=0|108=30|141=Y|10=055|
20150904-21:17:52.262 : 8=FIX.4.4|9=85|35=A|34=1|49=NODEQUICKFIX|52=20150904-21:17:52.262|56=ELECTRONIFIE|98=0|108=30|141=Y|10=052|
20150904-21:18:24.198 : 8=FIX.4.4|9=85|35=A|34=1|49=NODEQUICKFIX|52=20150904-21:18:24.198|56=ELECTRONIFIE|98=0|108=30|141=Y|10=060|
20150904-21:21:17.687 : 8=FIX.4.4|9=85|35=A|34=1|49=NODEQUICKFIX|52=20150904-21:21:17.686|56=ELECTRONIFIE|98=0|108=30|141=Y|10=058|
20150904-21:22:35.739 : 8=FIX.4.4|9=85|35=A|34=1|49=NODEQUICKFIX|52=20150904-21:22:35.739|56=ELECTRONIFIE|98=0|108=30|141=Y|10=058|
20150904-21:25:08.050 : 8=FIX.4.4|9=85|35=A|34=1|49=NODEQUICKFIX|52=20150904-21:25:08.050|56=ELECTRONIFIE|98=0|108=30|141=Y|10=047|
20150904-21:26:21.910 : 8=FIX.4.4|9=85|35=A|34=1|49=NODEQUICKFIX|52=20150904-21:26:21.910|56=ELECTRONIFIE|98=0|108=30|141=Y|10=048|
20150904-21:29:18.459 : 8=FIX.4.4|9=85|35=A|34=1|49=NODEQUICKFIX|52=20150904-21:29:18.459|56=ELECTRONIFIE|98=0|108=30|141=Y|10=065|
20150904-21:30:24.717 : 8=FIX.4.4|9=85|35=A|34=1|49=NODEQUICKFIX|52=20150904-21:30:24.717|56=ELECTRONIFIE|98=0|108=30|141=Y|10=051|
20150904-21:32:28.202 : 8=FIX.4.4|9=85|35=A|34=1|49=NODEQUICKFIX|52=20150904-21:32:28.202|56=ELECTRONIFIE|98=0|108=30|141=Y|10=046|
20150904-21:50:24.431 : 8=FIX.4.4|9=85|35=A|34=1|49=NODEQUICKFIX|52=20150904-21:50:24.431|56=ELECTRONIFIE|98=0|108=30|141=Y|10=046|
20150904-21:50:35.288 : 8=FIX.4.4|9=85|35=A|34=1|49=NODEQUICKFIX|52=20150904-21:50:35.288|56=ELECTRONIFIE|98=0|108=30|141=Y|10=058|
20150904-21:51:35.345 : 8=FIX.4.4|9=85|35=A|34=1|49=NODEQUICKFIX|52=20150904-21:51:35.344|56=ELECTRONIFIE|98=0|108=30|141=Y|10=052|
20150904-22:00:48.573 : 8=FIX.4.4|9=85|35=A|34=1|49=NODEQUICKFIX|52=20150904-22:00:48.572|56=ELECTRONIFIE|98=0|108=30|141=Y|10=054|
20150904-22:02:00.672 : 8=FIX.4.4|9=85|35=A|34=1|49=NODEQUICKFIX|52=20150904-22:02:00.671|56=ELECTRONIFIE|98=0|108=30|141=Y|10=044|
20150904-22:02:58.481 : 8=FIX.4.4|9=85|35=A|34=1|49=NODEQUICKFIX|52=20150904-22:02:58.481|56=ELECTRONIFIE|98=0|108=30|141=Y|10=056|
20150904-22:04:19.660 : 8=FIX.4.4|9=85|35=A|34=1|49=NODEQUICKFIX|52=20150904-22:04:19.660|56=ELECTRONIFIE|98=0|108=30|141=Y|10=054|
20150904-22:05:08.638 : 8=FIX.4.4|9=85|35=A|34=1|49=NODEQUICKFIX|52=20150904-22:05:08.638|56=ELECTRONIFIE|98=0|108=30|141=Y|10=058|
20150904-22:47:27.056 : 8=FIX.4.4|9=85|35=A|34=1|49=NODEQUICKFIX|52=20150904-22:47:27.055|56=ELECTRONIFIE|98=0|108=30|141=Y|10=058|
20150904-22:52:20.633 : 8=FIX.4.4|9=85|35=A|34=1|49=NODEQUICKFIX|52=20150904-22:52:20.632|56=ELECTRONIFIE|98=0|108=30|141=Y|10=048|
20150905-22:05:20.066 : 8=FIX.4.4|9=85|35=A|34=1|49=NODEQUICKFIX|52=20150905-22:05:20.066|56=ELECTRONIFIE|98=0|108=30|141=Y|10=048|
20150905-22:22:34.369 : 8=FIX.4.4|9=85|35=A|34=1|49=NODEQUICKFIX|52=20150905-22:22:34.369|56=ELECTRONIFIE|98=0|108=30|141=Y|10=058|
20150905-22:47:10.082 : 8=FIX.4.4|9=85|35=A|34=1|49=NODEQUICKFIX|52=20150905-22:47:10.082|56=ELECTRONIFIE|98=0|108=30|141=Y|10=051|
20150905-22:53:31.474 : 8=FIX.4.4|9=85|35=A|34=1|49=NODEQUICKFIX|52=20150905-22:53:31.473|56=ELECTRONIFIE|98=0|108=30|141=Y|10=055|
20150905-22:58:17.127 : 8=FIX.4.4|9=85|35=A|34=1|49=NODEQUICKFIX|52=20150905-22:58:17.127|56=ELECTRONIFIE|98=0|108=30|141=Y|10=060|
20150905-23:02:33.648 : 8=FIX.4.4|9=85|35=A|34=1|49=NODEQUICKFIX|52=20150905-23:02:33.648|56=ELECTRONIFIE|98=0|108=30|141=Y|10=056|
20150905-23:17:42.504 : 8=FIX.4.4|9=85|35=A|34=1|49=NODEQUICKFIX|52=20150905-23:17:42.503|56=ELECTRONIFIE|98=0|108=30|141=Y|10=052|
20150905-23:18:13.002 : 8=FIX.4.4|9=85|35=A|34=1|49=NODEQUICKFIX|52=20150905-23:18:13.002|56=ELECTRONIFIE|98=0|108=30|141=Y|10=045|
20150905-23:18:52.233 : 8=FIX.4.4|9=85|35=A|34=1|49=NODEQUICKFIX|52=20150905-23:18:52.233|56=ELECTRONIFIE|98=0|108=30|141=Y|10=054|
20150905-23:20:02.567 : 8=FIX.4.4|9=85|35=A|34=1|49=NODEQUICKFIX|52=20150905-23:20:02.567|56=ELECTRONIFIE|98=0|108=30|141=Y|10=052|
20150905-23:20:19.017 : 8=FIX.4.4|9=85|35=A|34=1|49=NODEQUICKFIX|52=20150905-23:20:19.017|56=ELECTRONIFIE|98=0|108=30|141=Y|10=050|
20150905-23:21:19.343 : 8=FIX.4.4|9=85|35=A|34=1|49=NODEQUICKFIX|52=20150905-23:21:19.343|56=ELECTRONIFIE|98=0|108=30|141=Y|10=053|
20150905-23:21:59.506 : 8=FIX.4.4|9=85|35=A|34=1|49=NODEQUICKFIX|52=20150905-23:21:59.505|56=ELECTRONIFIE|98=0|108=30|141=Y|10=057|
20150905-23:28:22.253 : 8=FIX.4.4|9=85|35=A|34=1|49=NODEQUICKFIX|52=20150905-23:28:22.253|56=ELECTRONIFIE|98=0|108=30|141=Y|10=054|
20150906-11:31:20.361 : 8=FIX.4.4|9=85|35=A|34=1|49=NODEQUICKFIX|52=20150906-11:31:20.361|56=ELECTRONIFIE|98=0|108=30|141=Y|10=044|
20150906-20:19:36.955 : 8=FIX.4.4|9=85|35=A|34=1|49=NODEQUICKFIX|52=20150906-20:19:36.955|56=ELECTRONIFIE|98=0|108=30|141=Y|10=066|
20150906-20:21:59.044 : 8=FIX.4.4|9=85|35=A|34=1|49=NODEQUICKFIX|52=20150906-20:21:59.044|56=ELECTRONIFIE|98=0|108=30|141=Y|10=053|
20150906-20:25:56.386 : 8=FIX.4.4|9=85|35=A|34=1|49=NODEQUICKFIX|52=20150906-20:25:56.385|56=ELECTRONIFIE|98=0|108=30|141=Y|10=062|
20150906-20:27:55.109 : 8=FIX.4.4|9=85|35=A|34=1|49=NODEQUICKFIX|52=20150906-20:27:55.108|56=ELECTRONIFIE|98=0|108=30|141=Y|10=056|
20150906-20:29:16.598 : 8=FIX.4.4|9=85|35=A|34=1|49=NODEQUICKFIX|52=20150906-20:29:16.597|56=ELECTRONIFIE|98=0|108=30|141=Y|10=067|
20150906-21:41:19.121 : 8=FIX.4.4|9=85|35=A|34=1|49=NODEQUICKFIX|52=20150906-21:41:19.121|56=ELECTRONIFIE|98=0|108=30|141=Y|10=048|
20150907-14:59:23.594 : 8=FIX.4.4|9=85|35=A|34=1|49=NODEQUICKFIX|52=20150907-14:59:23.594|56=ELECTRONIFIE|98=0|108=30|141=Y|10=069|
20150907-14:59:49.174 : 8=FIX.4.4|9=85|35=A|34=1|49=NODEQUICKFIX|52=20150907-14:59:49.174|56=ELECTRONIFIE|98=0|108=30|141=Y|10=071|
20150907-15:01:33.094 : 8=FIX.4.4|9=85|35=A|34=1|49=NODEQUICKFIX|52=20150907-15:01:33.094|56=ELECTRONIFIE|98=0|108=30|141=Y|10=053|
20150907-17:49:04.966 : 8=FIX.4.4|9=85|35=A|34=1|49=NODEQUICKFIX|52=20150907-17:49:04.965|56=ELECTRONIFIE|98=0|108=30|141=Y|10=072|
20150907-17:50:04.023 : 8=FIX.4.4|9=85|35=A|34=1|49=NODEQUICKFIX|52=20150907-17:50:04.023|56=ELECTRONIFIE|98=0|108=30|141=Y|10=049|
20150907-17:51:04.080 : 8=FIX.4.4|9=85|35=A|34=1|49=NODEQUICKFIX|52=20150907-17:51:04.080|56=ELECTRONIFIE|98=0|108=30|141=Y|10=053|
20150907-17:52:04.139 : 8=FIX.4.4|9=85|35=A|34=1|49=NODEQUICKFIX|52=20150907-17:52:04.139|56=ELECTRONIFIE|98=0|108=30|141=Y|10=059|
20150907-17:53:04.192 : 8=FIX.4.4|9=85|35=A|34=1|49=NODEQUICKFIX|52=20150907-17:53:04.192|56=ELECTRONIFIE|98=0|108=30|141=Y|10=059|
20150907-17:54:04.250 : 8=FIX.4.4|9=85|35=A|34=1|49=NODEQUICKFIX|52=20150907-17:54:04.250|56=ELECTRONIFIE|98=0|108=30|141=Y|10=055|
20150907-18:02:08.486 : 8=FIX.4.4|9=85|35=A|34=1|49=NODEQUICKFIX|52=20150907-18:02:08.486|56=ELECTRONIFIE|98=0|108=30|141=Y|10=064|
20150907-18:10:44.134 : 8=FIX.4.4|9=85|35=A|34=1|49=NODEQUICKFIX|52=20150907-18:10:44.133|56=ELECTRONIFIE|98=0|108=30|141=Y|10=052|
20150907-18:14:55.546 : 8=FIX.4.4|9=85|35=A|34=1|49=NODEQUICKFIX|52=20150907-18:14:55.545|56=ELECTRONIFIE|98=0|108=30|141=Y|10=065|
20150907-18:17:08.289 : 8=FIX.4.4|9=85|35=A|34=1|49=NODEQUICKFIX|52=20150907-18:17:08.288|56=ELECTRONIFIE|98=0|108=30|141=Y|10=070|
20150907-18:17:34.212 : 8=FIX.4.4|9=85|35=A|34=1|49=NODEQUICKFIX|52=20150907-18:17:34.212|56=ELECTRONIFIE|98=0|108=30|141=Y|10=056|
20150907-18:44:31.537 : 8=FIX.4.4|9=85|35=A|34=1|49=NODEQUICKFIX|52=20150907-18:44:31.537|56=ELECTRONIFIE|98=0|108=30|141=Y|10=063|
20150907-18:45:35.082 : 8=FIX.4.4|9=85|35=A|34=1|49=NODEQUICKFIX|52=20150907-18:45:35.081|56=ELECTRONIFIE|98=0|108=30|141=Y|10=062|
20150907-18:45:55.769 : 8=FIX.4.4|9=85|35=A|34=1|49=NODEQUICKFIX|52=20150907-18:45:55.769|56=ELECTRONIFIE|98=0|108=30|141=Y|10=077|
20150907-18:46:00.655 : 8=FIX.4.4|9=85|35=A|34=1|49=NODEQUICKFIX|52=20150907-18:46:00.655|56=ELECTRONIFIE|98=0|108=30|141=Y|10=062|
20150907-18:51:52.283 : 8=FIX.4.4|9=85|35=A|34=1|49=NODEQUICKFIX|52=20150907-18:51:52.283|56=ELECTRONIFIE|98=0|108=30|141=Y|10=062|
20150907-18:58:48.747 : 8=FIX.4.4|9=85|35=A|34=1|49=NODEQUICKFIX|52=20150907-18:58:48.746|56=ELECTRONIFIE|98=0|108=30|141=Y|10=078|
20150907-19:05:26.457 : 8=FIX.4.4|9=85|35=A|34=1|49=NODEQUICKFIX|52=20150907-19:05:26.457|56=ELECTRONIFIE|98=0|108=30|141=Y|10=066|
20150907-19:16:32.873 : 8=FIX.4.4|9=85|35=A|34=1|49=NODEQUICKFIX|52=20150907-19:16:32.873|56=ELECTRONIFIE|98=0|108=30|141=Y|10=067|
20150907-19:18:11.155 : 8=FIX.4.4|9=85|35=A|34=1|49=NODEQUICKFIX|52=20150907-19:18:11.155|56=ELECTRONIFIE|98=0|108=30|141=Y|10=059|
20150908-02:27:32.756 : 8=FIX.4.4|9=85|35=A|34=1|49=NODEQUICKFIX|52=20150908-02:27:32.756|56=ELECTRONIFIE|98=0|108=30|141=Y|10=062|
20150908-19:45:52.471 : 8=FIX.4.4|9=85|35=A|34=1|49=NODEQUICKFIX|52=20150908-19:45:52.471|56=ELECTRONIFIE|98=0|108=30|141=Y|10=066|
20150908-19:54:34.953 : 8=FIX.4.4|9=85|35=A|34=1|49=NODEQUICKFIX|52=20150908-19:54:34.952|56=ELECTRONIFIE|98=0|108=30|141=Y|10=070|
20150908-19:59:48.450 : 8=FIX.4.4|9=85|35=A|34=1|49=NODEQUICKFIX|52=20150908-19:59:48.450|56=ELECTRONIFIE|98=0|108=30|141=Y|10=073|
20150908-20:19:16.908 : 8=FIX.4.4|9=85|35=A|34=1|49=NODEQUICKFIX|52=20150908-20:19:16.908|56=ELECTRONIFIE|98=0|108=30|141=Y|10=064|
20150908-20:25:48.514 : 8=FIX.4.4|9=85|35=A|34=1|49=NODEQUICKFIX|52=20150908-20:25:48.513|56=ELECTRONIFIE|98=0|108=30|141=Y|10=058|
20150908-20:26:42.920 : 8=FIX.4.4|9=85|35=A|34=1|49=NODEQUICKFIX|52=20150908-20:26:42.919|56=ELECTRONIFIE|98=0|108=30|141=Y|10=063|
20150908-20:26:46.952 : 8=FIX.4.4|9=85|35=A|34=1|49=NODEQUICKFIX|52=20150908-20:26:46.952|56=ELECTRONIFIE|98=0|108=30|141=Y|10=064|
20150908-21:08:00.726 : 8=FIX.4.4|9=85|35=A|34=1|49=NODEQUICKFIX|52=20150908-21:08:00.725|56=ELECTRONIFIE|98=0|108=30|141=Y|10=053|
20150908-21:10:15.675 : 8=FIX.4.4|9=85|35=A|34=1|49=NODEQUICKFIX|52=20150908-21:10:15.675|56=ELECTRONIFIE|98=0|108=30|141=Y|10=056|
20150908-21:10:58.110 : 8=FIX.4.4|9=85|35=A|34=1|49=NODEQUICKFIX|52=20150908-21:10:58.110|56=ELECTRONIFIE|98=0|108=30|141=Y|10=047|
20150908-21:11:19.502 : 8=FIX.4.4|9=85|35=A|34=1|49=NODEQUICKFIX|52=20150908-21:11:19.502|56=ELECTRONIFIE|98=0|108=30|141=Y|10=050|
20150908-21:12:15.456 : 8=FIX.4.4|9=85|35=A|34=1|49=NODEQUICKFIX|52=20150908-21:12:15.456|56=ELECTRONIFIE|98=0|108=30|141=Y|10=055|
20150908-21:12:59.445 : 8=FIX.4.4|9=85|35=A|34=1|49=NODEQUICKFIX|52=20150908-21:12:59.444|56=ELECTRONIFIE|98=0|108=30|141=Y|10=060|
20150908-21:15:23.300 : 8=FIX.4.4|9=85|35=A|34=1|49=NODEQUICKFIX|52=20150908-21:15:23.300|56=ELECTRONIFIE|98=0|108=30|141=Y|10=045|
20150908-21:16:10.964 : 8=FIX.4.4|9=85|35=A|34=1|49=NODEQUICKFIX|52=20150908-21:16:10.964|56=ELECTRONIFIE|98=0|108=30|141=Y|10=058|
20150908-21:16:35.109 : 8=FIX.4.4|9=85|35=A|34=1|49=NODEQUICKFIX|52=20150908-21:16:35.109|56=ELECTRONIFIE|98=0|108=30|141=Y|10=056|
20150908-21:17:07.501 : 8=FIX.4.4|9=85|35=A|34=1|49=NODEQUICKFIX|52=20150908-21:17:07.501|56=ELECTRONIFIE|98=0|108=30|141=Y|10=052|
20150908-21:17:31.654 : 8=FIX.4.4|9=85|35=A|34=1|49=NODEQUICKFIX|52=20150908-21:17:31.654|56=ELECTRONIFIE|98=0|108=30|141=Y|10=058|
20150908-21:18:11.984 : 8=FIX.4.4|9=85|35=A|34=1|49=NODEQUICKFIX|52=20150908-21:18:11.984|56=ELECTRONIFIE|98=0|108=30|141=Y|10=063|
20150908-21:18:18.130 : 8=FIX.4.4|9=85|35=A|34=1|49=NODEQUICKFIX|52=20150908-21:18:18.130|56=ELECTRONIFIE|98=0|108=30|141=Y|10=053|
20150908-21:18:55.773 : 8=FIX.4.4|9=85|35=A|34=1|49=NODEQUICKFIX|52=20150908-21:18:55.773|56=ELECTRONIFIE|98=0|108=30|141=Y|10=067|
20150908-21:24:03.397 : 8=FIX.4.4|9=85|35=A|34=1|49=NODEQUICKFIX|52=20150908-21:24:03.397|56=ELECTRONIFIE|98=0|108=30|141=Y|10=059|
