20150826-12:20:34.576 : 8=FIX.4.4|9=85|35=A|34=1|49=NODEQUICKFIX|52=20150826-12:20:34.576|56=ELECTRONIFIE|98=0|108=30|141=Y|10=057|
20150826-12:20:34.577 : 8=FIX.4.4|9=85|35=A|34=1|49=ELECTRONIFIE|52=20150826-12:20:34.577|56=NODEQUICKFIX|98=0|108=30|141=Y|10=058|
20150826-12:21:04.607 : 8=FIX.4.4|9=67|35=0|34=2|49=ELECTRONIFIE|52=20150826-12:21:04.607|56=NODEQUICKFIX|10=220|
20150826-12:21:04.607 : 8=FIX.4.4|9=67|35=0|34=2|49=NODEQUICKFIX|52=20150826-12:21:04.607|56=ELECTRONIFIE|10=220|
20150826-12:21:34.637 : 8=FIX.4.4|9=67|35=0|34=3|49=ELECTRONIFIE|52=20150826-12:21:34.637|56=NODEQUICKFIX|10=227|
20150826-12:21:34.637 : 8=FIX.4.4|9=67|35=0|34=3|49=NODEQUICKFIX|52=20150826-12:21:34.637|56=ELECTRONIFIE|10=227|
20150826-12:22:04.667 : 8=FIX.4.4|9=67|35=0|34=4|49=ELECTRONIFIE|52=20150826-12:22:04.667|56=NODEQUICKFIX|10=229|
20150826-12:22:04.667 : 8=FIX.4.4|9=67|35=0|34=4|49=NODEQUICKFIX|52=20150826-12:22:04.667|56=ELECTRONIFIE|10=229|
20150826-19:00:50.987 : 8=FIX.4.4|9=85|35=A|34=1|49=NODEQUICKFIX|52=20150826-19:00:50.970|56=ELECTRONIFIE|98=0|108=30|141=Y|10=058|
20150826-19:00:50.988 : 8=FIX.4.4|9=85|35=A|34=1|49=ELECTRONIFIE|52=20150826-19:00:50.988|56=NODEQUICKFIX|98=0|108=30|141=Y|10=067|
20150826-19:01:20.000 : 8=FIX.4.4|9=67|35=0|34=2|49=NODEQUICKFIX|52=20150826-19:01:20.000|56=ELECTRONIFIE|10=210|
20150826-19:01:20.000 : 8=FIX.4.4|9=67|35=0|34=2|49=ELECTRONIFIE|52=20150826-19:01:20.000|56=NODEQUICKFIX|10=210|
20150826-19:03:26.979 : 8=FIX.4.4|9=85|35=A|34=1|49=NODEQUICKFIX|52=20150826-19:03:26.979|56=ELECTRONIFIE|98=0|108=30|141=Y|10=073|
20150826-19:03:26.979 : 8=FIX.4.4|9=85|35=A|34=1|49=ELECTRONIFIE|52=20150826-19:03:26.979|56=NODEQUICKFIX|98=0|108=30|141=Y|10=073|
20150826-19:03:56.008 : 8=FIX.4.4|9=67|35=0|34=2|49=ELECTRONIFIE|52=20150826-19:03:56.007|56=NODEQUICKFIX|10=228|
20150826-19:03:56.008 : 8=FIX.4.4|9=67|35=0|34=2|49=NODEQUICKFIX|52=20150826-19:03:56.008|56=ELECTRONIFIE|10=229|
20150826-19:04:26.038 : 8=FIX.4.4|9=67|35=0|34=3|49=ELECTRONIFIE|52=20150826-19:04:26.038|56=NODEQUICKFIX|10=231|
20150826-19:04:26.038 : 8=FIX.4.4|9=67|35=0|34=3|49=NODEQUICKFIX|52=20150826-19:04:26.038|56=ELECTRONIFIE|10=231|
20150826-20:28:43.778 : 8=FIX.4.4|9=85|35=A|34=1|49=NODEQUICKFIX|52=20150826-20:28:43.777|56=ELECTRONIFIE|98=0|108=30|141=Y|10=067|
20150826-20:28:43.778 : 8=FIX.4.4|9=85|35=A|34=1|49=ELECTRONIFIE|52=20150826-20:28:43.778|56=NODEQUICKFIX|98=0|108=30|141=Y|10=068|
20150826-20:29:13.807 : 8=FIX.4.4|9=67|35=0|34=2|49=ELECTRONIFIE|52=20150826-20:29:13.807|56=NODEQUICKFIX|10=229|
20150826-20:29:13.807 : 8=FIX.4.4|9=67|35=0|34=2|49=NODEQUICKFIX|52=20150826-20:29:13.807|56=ELECTRONIFIE|10=229|
20150826-20:29:43.838 : 8=FIX.4.4|9=67|35=0|34=3|49=ELECTRONIFIE|52=20150826-20:29:43.838|56=NODEQUICKFIX|10=237|
20150826-20:29:43.838 : 8=FIX.4.4|9=67|35=0|34=3|49=NODEQUICKFIX|52=20150826-20:29:43.838|56=ELECTRONIFIE|10=237|
20150826-20:41:20.486 : 8=FIX.4.4|9=85|35=A|34=1|49=NODEQUICKFIX|52=20150826-20:41:20.486|56=ELECTRONIFIE|98=0|108=30|141=Y|10=054|
20150826-20:41:20.487 : 8=FIX.4.4|9=85|35=A|34=1|49=ELECTRONIFIE|52=20150826-20:41:20.487|56=NODEQUICKFIX|98=0|108=30|141=Y|10=055|
20150826-20:41:50.516 : 8=FIX.4.4|9=67|35=0|34=2|49=ELECTRONIFIE|52=20150826-20:41:50.516|56=NODEQUICKFIX|10=221|
20150826-20:41:50.516 : 8=FIX.4.4|9=67|35=0|34=2|49=NODEQUICKFIX|52=20150826-20:41:50.516|56=ELECTRONIFIE|10=221|
20150826-21:26:53.576 : 8=FIX.4.4|9=85|35=A|34=1|49=NODEQUICKFIX|52=20150826-21:26:53.576|56=ELECTRONIFIE|98=0|108=30|141=Y|10=064|
20150826-21:26:53.577 : 8=FIX.4.4|9=85|35=A|34=1|49=ELECTRONIFIE|52=20150826-21:26:53.577|56=NODEQUICKFIX|98=0|108=30|141=Y|10=065|
20150826-21:27:23.606 : 8=FIX.4.4|9=67|35=0|34=2|49=ELECTRONIFIE|52=20150826-21:27:23.606|56=NODEQUICKFIX|10=226|
20150826-21:27:23.606 : 8=FIX.4.4|9=67|35=0|34=2|49=NODEQUICKFIX|52=20150826-21:27:23.606|56=ELECTRONIFIE|10=226|
20150826-21:27:53.636 : 8=FIX.4.4|9=67|35=0|34=3|49=ELECTRONIFIE|52=20150826-21:27:53.636|56=NODEQUICKFIX|10=233|
20150826-21:27:53.636 : 8=FIX.4.4|9=67|35=0|34=3|49=NODEQUICKFIX|52=20150826-21:27:53.636|56=ELECTRONIFIE|10=233|
20150826-22:17:39.896 : 8=FIX.4.4|9=85|35=A|34=1|49=NODEQUICKFIX|52=20150826-22:17:39.895|56=ELECTRONIFIE|98=0|108=30|141=Y|10=073|
20150826-22:17:39.896 : 8=FIX.4.4|9=85|35=A|34=1|49=ELECTRONIFIE|52=20150826-22:17:39.896|56=NODEQUICKFIX|98=0|108=30|141=Y|10=074|
20150826-22:18:54.936 : 8=FIX.4.4|9=85|35=A|34=1|49=NODEQUICKFIX|52=20150826-22:18:54.935|56=ELECTRONIFIE|98=0|108=30|141=Y|10=066|
20150826-22:18:54.936 : 8=FIX.4.4|9=85|35=A|34=1|49=ELECTRONIFIE|52=20150826-22:18:54.936|56=NODEQUICKFIX|98=0|108=30|141=Y|10=067|
20150826-22:18:54.968 : 8=FIX.4.4|9=164|35=D|34=2|49=ELECTRONIFIE|52=20150826-22:18:54.968|56=NODEQUICKFIX|11=0E0Z86K00000|22=1|38=200|40=2|48=06051GDX4|54=1|55=BAC|60=20150827-00:17:54.950|218=100|423=6|10=179|
20150826-22:20:52.088 : 8=FIX.4.4|9=85|35=A|34=1|49=NODEQUICKFIX|52=20150826-22:20:52.087|56=ELECTRONIFIE|98=0|108=30|141=Y|10=055|
20150826-22:20:52.088 : 8=FIX.4.4|9=85|35=A|34=1|49=ELECTRONIFIE|52=20150826-22:20:52.088|56=NODEQUICKFIX|98=0|108=30|141=Y|10=056|
20150826-22:20:52.112 : 8=FIX.4.4|9=164|35=D|34=2|49=ELECTRONIFIE|52=20150826-22:20:52.112|56=NODEQUICKFIX|11=0E0Z86K00000|22=1|38=200|40=2|48=06051GDX4|54=1|55=BAC|60=20150827-00:19:52.096|218=100|423=6|10=152|
20150826-22:22:42.466 : 8=FIX.4.4|9=85|35=A|34=1|49=NODEQUICKFIX|52=20150826-22:22:42.466|56=ELECTRONIFIE|98=0|108=30|141=Y|10=057|
20150826-22:22:42.466 : 8=FIX.4.4|9=85|35=A|34=1|49=ELECTRONIFIE|52=20150826-22:22:42.466|56=NODEQUICKFIX|98=0|108=30|141=Y|10=057|
20150826-22:22:42.498 : 8=FIX.4.4|9=164|35=D|34=2|49=ELECTRONIFIE|52=20150826-22:22:42.498|56=NODEQUICKFIX|11=0E0Z86K00000|22=1|38=200|40=2|48=06051GDX4|54=1|55=BAC|60=20150827-00:21:42.480|218=100|423=6|10=159|
20150826-22:29:06.204 : 8=FIX.4.4|9=85|35=A|34=1|49=NODEQUICKFIX|52=20150826-22:29:06.204|56=ELECTRONIFIE|98=0|108=30|141=Y|10=054|
20150826-22:29:06.204 : 8=FIX.4.4|9=85|35=A|34=1|49=ELECTRONIFIE|52=20150826-22:29:06.204|56=NODEQUICKFIX|98=0|108=30|141=Y|10=054|
20150826-22:29:06.227 : 8=FIX.4.4|9=164|35=D|34=2|49=ELECTRONIFIE|52=20150826-22:29:06.227|56=NODEQUICKFIX|11=0E0Z86K00000|22=1|38=200|40=2|48=06051GDX4|54=1|55=BAC|60=20150827-00:28:06.211|218=100|423=6|10=155|
20150826-22:31:30.005 : 8=FIX.4.4|9=85|35=A|34=1|49=NODEQUICKFIX|52=20150826-22:31:30.005|56=ELECTRONIFIE|98=0|108=30|141=Y|10=043|
20150826-22:31:30.006 : 8=FIX.4.4|9=85|35=A|34=1|49=ELECTRONIFIE|52=20150826-22:31:30.006|56=NODEQUICKFIX|98=0|108=30|141=Y|10=044|
20150826-22:31:30.029 : 8=FIX.4.4|9=164|35=D|34=2|49=ELECTRONIFIE|52=20150826-22:31:30.029|56=NODEQUICKFIX|11=0E0Z86K00000|22=1|38=200|40=2|48=06051GDX4|54=1|55=BAC|60=20150827-00:30:30.012|218=100|423=6|10=134|
20150826-23:37:18.198 : 8=FIX.4.4|9=85|35=A|34=1|49=NODEQUICKFIX|52=20150826-23:37:18.198|56=ELECTRONIFIE|98=0|108=30|141=Y|10=069|
20150826-23:37:18.199 : 8=FIX.4.4|9=85|35=A|34=1|49=ELECTRONIFIE|52=20150826-23:37:18.199|56=NODEQUICKFIX|98=0|108=30|141=Y|10=070|
20150826-23:37:18.201 : 8=FIX.4.4|9=164|35=D|34=2|49=ELECTRONIFIE|52=20150826-23:37:18.201|56=NODEQUICKFIX|11=0E0Z86K00000|22=1|38=200|40=2|48=06051GDX4|54=1|55=BAC|60=20150827-01:36:18.184|218=100|423=6|10=162|
20150826-23:47:27.928 : 8=FIX.4.4|9=85|35=A|34=1|49=NODEQUICKFIX|52=20150826-23:47:27.927|56=ELECTRONIFIE|98=0|108=30|141=Y|10=070|
20150826-23:47:27.928 : 8=FIX.4.4|9=85|35=A|34=1|49=ELECTRONIFIE|52=20150826-23:47:27.928|56=NODEQUICKFIX|98=0|108=30|141=Y|10=071|
20150826-23:47:27.953 : 8=FIX.4.4|9=164|35=D|34=2|49=ELECTRONIFIE|52=20150826-23:47:27.953|56=NODEQUICKFIX|11=0E0Z86K00000|22=1|38=200|40=2|48=06051GDX4|54=1|55=BAC|60=20150827-01:46:27.937|218=100|423=6|10=184|
20150827-00:00:49.983 : 8=FIX.4.4|9=85|35=A|34=1|49=NODEQUICKFIX|52=20150827-00:00:49.982|56=ELECTRONIFIE|98=0|108=30|141=Y|10=060|
20150827-00:00:49.983 : 8=FIX.4.4|9=85|35=A|34=1|49=ELECTRONIFIE|52=20150827-00:00:49.983|56=NODEQUICKFIX|98=0|108=30|141=Y|10=061|
20150827-00:00:49.995 : 8=FIX.4.4|9=164|35=D|34=2|49=ELECTRONIFIE|52=20150827-00:00:49.995|56=NODEQUICKFIX|11=0E0Z86K00000|22=1|38=200|40=2|48=06051GDX4|54=1|55=BAC|60=20150827-01:59:49.978|218=100|423=6|10=192|
20150827-00:02:12.844 : 8=FIX.4.4|9=85|35=A|34=1|49=NODEQUICKFIX|52=20150827-00:02:12.843|56=ELECTRONIFIE|98=0|108=30|141=Y|10=048|
20150827-00:02:12.844 : 8=FIX.4.4|9=85|35=A|34=1|49=ELECTRONIFIE|52=20150827-00:02:12.844|56=NODEQUICKFIX|98=0|108=30|141=Y|10=049|
20150827-00:02:12.870 : 8=FIX.4.4|9=164|35=D|34=2|49=ELECTRONIFIE|52=20150827-00:02:12.870|56=NODEQUICKFIX|11=0E0Z86K00000|22=1|38=200|40=2|48=06051GDX4|54=1|55=BAC|60=20150827-02:01:12.853|218=100|423=6|10=146|
20150827-00:02:42.873 : 8=FIX.4.4|9=67|35=0|34=3|49=ELECTRONIFIE|52=20150827-00:02:42.873|56=NODEQUICKFIX|10=225|
20150827-00:02:42.873 : 8=FIX.4.4|9=67|35=0|34=2|49=NODEQUICKFIX|52=20150827-00:02:42.873|56=ELECTRONIFIE|10=224|
20150827-00:04:01.075 : 8=FIX.4.4|9=85|35=A|34=1|49=NODEQUICKFIX|52=20150827-00:04:01.075|56=ELECTRONIFIE|98=0|108=30|141=Y|10=045|
20150827-00:04:01.076 : 8=FIX.4.4|9=85|35=A|34=1|49=ELECTRONIFIE|52=20150827-00:04:01.076|56=NODEQUICKFIX|98=0|108=30|141=Y|10=046|
20150827-00:04:01.106 : 8=FIX.4.4|9=164|35=D|34=2|49=ELECTRONIFIE|52=20150827-00:04:01.106|56=NODEQUICKFIX|11=0E0Z86K00000|22=1|38=200|40=2|48=06051GDX4|54=1|55=BAC|60=20150827-02:03:01.089|218=100|423=6|10=139|
20150827-00:08:32.603 : 8=FIX.4.4|9=85|35=A|34=1|49=NODEQUICKFIX|52=20150827-00:08:32.603|56=ELECTRONIFIE|98=0|108=30|141=Y|10=050|
20150827-00:08:32.603 : 8=FIX.4.4|9=85|35=A|34=1|49=ELECTRONIFIE|52=20150827-00:08:32.603|56=NODEQUICKFIX|98=0|108=30|141=Y|10=050|
20150827-00:08:32.628 : 8=FIX.4.4|9=164|35=D|34=2|49=ELECTRONIFIE|52=20150827-00:08:32.628|56=NODEQUICKFIX|11=0E0Z86K00000|22=1|38=200|40=2|48=06051GDX4|54=1|55=BAC|60=20150827-02:07:32.611|218=100|423=6|10=155|
20150827-00:09:02.629 : 8=FIX.4.4|9=67|35=0|34=3|49=ELECTRONIFIE|52=20150827-00:09:02.629|56=NODEQUICKFIX|10=227|
20150827-00:09:02.630 : 8=FIX.4.4|9=67|35=0|34=2|49=NODEQUICKFIX|52=20150827-00:09:02.630|56=ELECTRONIFIE|10=218|
20150827-00:09:32.657 : 8=FIX.4.4|9=67|35=0|34=3|49=NODEQUICKFIX|52=20150827-00:09:32.657|56=ELECTRONIFIE|10=231|
20150827-00:09:32.657 : 8=FIX.4.4|9=67|35=0|34=4|49=ELECTRONIFIE|52=20150827-00:09:32.657|56=NODEQUICKFIX|10=232|
20150827-00:10:02.685 : 8=FIX.4.4|9=67|35=0|34=4|49=NODEQUICKFIX|52=20150827-00:10:02.684|56=ELECTRONIFIE|10=221|
20150827-00:10:02.685 : 8=FIX.4.4|9=67|35=0|34=5|49=ELECTRONIFIE|52=20150827-00:10:02.685|56=NODEQUICKFIX|10=223|
20150827-00:10:32.710 : 8=FIX.4.4|9=67|35=0|34=6|49=ELECTRONIFIE|52=20150827-00:10:32.710|56=NODEQUICKFIX|10=216|
20150827-00:10:32.710 : 8=FIX.4.4|9=67|35=0|34=5|49=NODEQUICKFIX|52=20150827-00:10:32.710|56=ELECTRONIFIE|10=215|
20150827-00:11:02.738 : 8=FIX.4.4|9=67|35=0|34=6|49=NODEQUICKFIX|52=20150827-00:11:02.738|56=ELECTRONIFIE|10=224|
20150827-00:11:02.738 : 8=FIX.4.4|9=67|35=0|34=7|49=ELECTRONIFIE|52=20150827-00:11:02.738|56=NODEQUICKFIX|10=225|
20150827-00:11:32.764 : 8=FIX.4.4|9=67|35=0|34=8|49=ELECTRONIFIE|52=20150827-00:11:32.764|56=NODEQUICKFIX|10=228|
20150827-00:11:32.764 : 8=FIX.4.4|9=67|35=0|34=7|49=NODEQUICKFIX|52=20150827-00:11:32.764|56=ELECTRONIFIE|10=227|
20150827-00:12:02.789 : 8=FIX.4.4|9=67|35=0|34=9|49=ELECTRONIFIE|52=20150827-00:12:02.789|56=NODEQUICKFIX|10=234|
20150827-00:12:02.789 : 8=FIX.4.4|9=67|35=0|34=8|49=NODEQUICKFIX|52=20150827-00:12:02.789|56=ELECTRONIFIE|10=233|
20150827-00:12:32.818 : 8=FIX.4.4|9=68|35=0|34=10|49=ELECTRONIFIE|52=20150827-00:12:32.818|56=NODEQUICKFIX|10=015|
20150827-00:12:32.818 : 8=FIX.4.4|9=67|35=0|34=9|49=NODEQUICKFIX|52=20150827-00:12:32.818|56=ELECTRONIFIE|10=230|
20150827-00:13:02.844 : 8=FIX.4.4|9=68|35=0|34=11|49=ELECTRONIFIE|52=20150827-00:13:02.844|56=NODEQUICKFIX|10=013|
20150827-00:13:02.844 : 8=FIX.4.4|9=68|35=0|34=10|49=NODEQUICKFIX|52=20150827-00:13:02.844|56=ELECTRONIFIE|10=012|
20150827-00:14:58.017 : 8=FIX.4.4|9=85|35=A|34=1|49=NODEQUICKFIX|52=20150827-00:14:58.016|56=ELECTRONIFIE|98=0|108=30|141=Y|10=053|
20150827-00:14:58.017 : 8=FIX.4.4|9=85|35=A|34=1|49=ELECTRONIFIE|52=20150827-00:14:58.017|56=NODEQUICKFIX|98=0|108=30|141=Y|10=054|
20150827-00:14:59.049 : 8=FIX.4.4|9=164|35=D|34=2|49=ELECTRONIFIE|52=20150827-00:14:59.049|56=NODEQUICKFIX|11=0E0Z86K00000|22=1|38=200|40=2|48=06051GDX4|54=1|55=BAC|60=20150827-02:13:59.031|218=100|423=6|10=160|
20150827-00:14:59.049 : 8=FIX.4.4|9=164|35=D|34=3|49=ELECTRONIFIE|52=20150827-00:14:59.049|56=NODEQUICKFIX|11=0E0Z86K00000|22=1|38=200|40=2|48=06051GDX4|54=1|55=BAC|60=20150827-02:13:59.031|218=100|423=6|10=161|
20150827-18:06:02.438 : 8=FIX.4.4|9=85|35=A|34=1|49=NODEQUICKFIX|52=20150827-18:06:02.420|56=ELECTRONIFIE|98=0|108=30|141=Y|10=051|
20150827-18:06:02.449 : 8=FIX.4.4|9=85|35=A|34=1|49=ELECTRONIFIE|52=20150827-18:06:02.449|56=NODEQUICKFIX|98=0|108=30|141=Y|10=062|
20150827-18:06:32.450 : 8=FIX.4.4|9=67|35=0|34=2|49=NODEQUICKFIX|52=20150827-18:06:32.450|56=ELECTRONIFIE|10=227|
20150827-18:06:32.450 : 8=FIX.4.4|9=67|35=0|34=2|49=ELECTRONIFIE|52=20150827-18:06:32.450|56=NODEQUICKFIX|10=227|
20150827-18:33:20.488 : 8=FIX.4.4|9=85|35=A|34=1|49=NODEQUICKFIX|52=20150827-18:33:20.487|56=ELECTRONIFIE|98=0|108=30|141=Y|10=064|
20150827-18:33:20.488 : 8=FIX.4.4|9=85|35=A|34=1|49=ELECTRONIFIE|52=20150827-18:33:20.488|56=NODEQUICKFIX|98=0|108=30|141=Y|10=065|
20150827-18:33:50.808 : 8=FIX.4.4|9=85|35=A|34=1|49=NODEQUICKFIX|52=20150827-18:33:50.807|56=ELECTRONIFIE|98=0|108=30|141=Y|10=063|
20150827-18:33:50.808 : 8=FIX.4.4|9=85|35=A|34=1|49=ELECTRONIFIE|52=20150827-18:33:50.808|56=NODEQUICKFIX|98=0|108=30|141=Y|10=064|
20150827-18:33:50.926 : 8=FIX.4.4|9=164|35=D|34=2|49=NODEQUICKFIX|52=20150827-18:33:50.926|56=ELECTRONIFIE|11=0E0Z86K00000|22=1|38=200|40=2|48=06051GDX4|54=1|55=BAC|60=20150827-20:33:50.809|218=100|423=6|10=171|
20150827-18:33:55.814 : 8=FIX.4.4|9=164|35=D|34=2|49=ELECTRONIFIE|52=20150827-18:33:55.813|56=NODEQUICKFIX|11=0E0Z86K00000|22=1|38=200|40=2|48=06051GDX4|54=1|55=BAC|60=20150827-20:33:50.806|218=100|423=6|10=168|
20150827-18:46:44.115 : 8=FIX.4.4|9=85|35=A|34=1|49=NODEQUICKFIX|52=20150827-18:46:44.114|56=ELECTRONIFIE|98=0|108=30|141=Y|10=061|
20150827-18:46:44.115 : 8=FIX.4.4|9=85|35=A|34=1|49=ELECTRONIFIE|52=20150827-18:46:44.115|56=NODEQUICKFIX|98=0|108=30|141=Y|10=062|
20150827-18:46:44.227 : 8=FIX.4.4|9=164|35=D|34=2|49=NODEQUICKFIX|52=20150827-18:46:44.226|56=ELECTRONIFIE|11=0E0Z86K00000|22=1|38=200|40=2|48=06051GDX4|54=1|55=BAC|60=20150827-20:46:44.116|218=100|423=6|10=169|
20150827-18:46:49.124 : 8=FIX.4.4|9=164|35=D|34=2|49=ELECTRONIFIE|52=20150827-18:46:49.124|56=NODEQUICKFIX|11=0E0Z86K00000|22=1|38=200|40=2|48=06051GDX4|54=1|55=BAC|60=20150827-20:46:44.113|218=100|423=6|10=168|
20150827-18:57:25.241 : 8=FIX.4.4|9=85|35=A|34=1|49=NODEQUICKFIX|52=20150827-18:57:25.241|56=ELECTRONIFIE|98=0|108=30|141=Y|10=063|
20150827-18:57:25.241 : 8=FIX.4.4|9=85|35=A|34=1|49=ELECTRONIFIE|52=20150827-18:57:25.241|56=NODEQUICKFIX|98=0|108=30|141=Y|10=063|
20150827-18:57:25.417 : 8=FIX.4.4|9=164|35=D|34=2|49=NODEQUICKFIX|52=20150827-18:57:25.417|56=ELECTRONIFIE|11=0E0Z86K00000|22=1|38=200|40=2|48=06051GDX4|54=1|55=BAC|60=20150827-20:56:25.257|218=100|423=6|10=178|
20150827-18:57:55.271 : 8=FIX.4.4|9=67|35=0|34=3|49=NODEQUICKFIX|52=20150827-18:57:55.271|56=ELECTRONIFIE|10=240|
20150827-18:57:55.271 : 8=FIX.4.4|9=67|35=0|34=2|49=ELECTRONIFIE|52=20150827-18:57:55.271|56=NODEQUICKFIX|10=239|
20150827-19:03:48.155 : 8=FIX.4.4|9=85|35=A|34=1|49=NODEQUICKFIX|52=20150827-19:03:48.154|56=ELECTRONIFIE|98=0|108=30|141=Y|10=063|
20150827-19:03:48.155 : 8=FIX.4.4|9=85|35=A|34=1|49=ELECTRONIFIE|52=20150827-19:03:48.155|56=NODEQUICKFIX|98=0|108=30|141=Y|10=064|
20150827-19:03:48.269 : 8=FIX.4.4|9=164|35=D|34=2|49=NODEQUICKFIX|52=20150827-19:03:48.269|56=ELECTRONIFIE|11=0E0Z86K00000|22=1|38=200|40=2|48=06051GDX4|54=1|55=BAC|60=20150827-21:03:48.156|218=100|423=6|10=176|
20150827-19:05:05.662 : 8=FIX.4.4|9=85|35=A|34=1|49=NODEQUICKFIX|52=20150827-19:05:05.662|56=ELECTRONIFIE|98=0|108=30|141=Y|10=062|
20150827-19:05:05.663 : 8=FIX.4.4|9=85|35=A|34=1|49=ELECTRONIFIE|52=20150827-19:05:05.663|56=NODEQUICKFIX|98=0|108=30|141=Y|10=063|
20150827-19:05:05.777 : 8=FIX.4.4|9=164|35=D|34=2|49=NODEQUICKFIX|52=20150827-19:05:05.777|56=ELECTRONIFIE|11=0E0Z86K00000|22=1|38=200|40=2|48=06051GDX4|54=1|55=BAC|60=20150827-21:05:05.664|218=100|423=6|10=174|
20150827-19:06:06.545 : 8=FIX.4.4|9=85|35=A|34=1|49=NODEQUICKFIX|52=20150827-19:06:06.545|56=ELECTRONIFIE|98=0|108=30|141=Y|10=064|
20150827-19:06:06.545 : 8=FIX.4.4|9=85|35=A|34=1|49=ELECTRONIFIE|52=20150827-19:06:06.545|56=NODEQUICKFIX|98=0|108=30|141=Y|10=064|
20150827-19:06:06.682 : 8=FIX.4.4|9=164|35=D|34=2|49=NODEQUICKFIX|52=20150827-19:06:06.682|56=ELECTRONIFIE|11=0E0Z86K00000|22=1|38=200|40=2|48=06051GDX4|54=1|55=BAC|60=20150827-21:06:06.547|218=100|423=6|10=173|
20150827-19:08:25.510 : 8=FIX.4.4|9=85|35=A|34=1|49=NODEQUICKFIX|52=20150827-19:08:25.510|56=ELECTRONIFIE|98=0|108=30|141=Y|10=059|
20150827-19:08:25.510 : 8=FIX.4.4|9=85|35=A|34=1|49=ELECTRONIFIE|52=20150827-19:08:25.510|56=NODEQUICKFIX|98=0|108=30|141=Y|10=059|
20150827-19:08:25.646 : 8=FIX.4.4|9=164|35=D|34=2|49=NODEQUICKFIX|52=20150827-19:08:25.646|56=ELECTRONIFIE|11=0E0Z86K00000|22=1|38=200|40=2|48=06051GDX4|54=1|55=BAC|60=20150827-21:08:25.511|218=100|423=6|10=170|
20150827-19:08:30.519 : 8=FIX.4.4|9=164|35=D|34=2|49=ELECTRONIFIE|52=20150827-19:08:30.519|56=NODEQUICKFIX|11=0E0Z86K00000|22=1|38=200|40=2|48=06051GDX4|54=1|55=BAC|60=20150827-21:08:25.508|218=100|423=6|10=171|
20150827-19:08:56.125 : 8=FIX.4.4|9=85|35=A|34=1|49=NODEQUICKFIX|52=20150827-19:08:56.124|56=ELECTRONIFIE|98=0|108=30|141=Y|10=064|
20150827-19:08:56.125 : 8=FIX.4.4|9=85|35=A|34=1|49=ELECTRONIFIE|52=20150827-19:08:56.125|56=NODEQUICKFIX|98=0|108=30|141=Y|10=065|
20150827-19:08:56.238 : 8=FIX.4.4|9=164|35=D|34=2|49=NODEQUICKFIX|52=20150827-19:08:56.238|56=ELECTRONIFIE|11=0E0Z86K00000|22=1|38=200|40=2|48=06051GDX4|54=1|55=BAC|60=20150827-21:08:56.126|218=100|423=6|10=177|
20150827-19:09:01.130 : 8=FIX.4.4|9=164|35=D|34=2|49=ELECTRONIFIE|52=20150827-19:09:01.130|56=NODEQUICKFIX|11=0E0Z86K00000|22=1|38=200|40=2|48=06051GDX4|54=1|55=BAC|60=20150827-21:08:56.123|218=100|423=6|10=156|
20150827-19:09:45.098 : 8=FIX.4.4|9=85|35=A|34=1|49=NODEQUICKFIX|52=20150827-19:09:45.098|56=ELECTRONIFIE|98=0|108=30|141=Y|10=073|
20150827-19:09:45.098 : 8=FIX.4.4|9=85|35=A|34=1|49=ELECTRONIFIE|52=20150827-19:09:45.098|56=NODEQUICKFIX|98=0|108=30|141=Y|10=073|
20150827-19:09:45.208 : 8=FIX.4.4|9=164|35=D|34=2|49=NODEQUICKFIX|52=20150827-19:09:45.208|56=ELECTRONIFIE|11=0E0Z86K00000|22=1|38=200|40=2|48=06051GDX4|54=1|55=BAC|60=20150827-21:09:45.099|218=100|423=6|10=181|
20150827-19:09:50.107 : 8=FIX.4.4|9=164|35=D|34=2|49=ELECTRONIFIE|52=20150827-19:09:50.107|56=NODEQUICKFIX|11=0E0Z86K00000|22=1|38=200|40=2|48=06051GDX4|54=1|55=BAC|60=20150827-21:09:45.096|218=100|423=6|10=172|
20150827-19:10:22.021 : 8=FIX.4.4|9=85|35=A|34=1|49=NODEQUICKFIX|52=20150827-19:10:22.021|56=ELECTRONIFIE|98=0|108=30|141=Y|10=046|
20150827-19:10:22.022 : 8=FIX.4.4|9=85|35=A|34=1|49=ELECTRONIFIE|52=20150827-19:10:22.022|56=NODEQUICKFIX|98=0|108=30|141=Y|10=047|
20150827-19:10:22.130 : 8=FIX.4.4|9=164|35=D|34=2|49=NODEQUICKFIX|52=20150827-19:10:22.130|56=ELECTRONIFIE|11=0E0Z86K00000|22=1|38=200|40=2|48=06051GDX4|54=1|55=BAC|60=20150827-21:10:22.023|218=100|423=6|10=136|
20150827-19:10:27.028 : 8=FIX.4.4|9=164|35=D|34=2|49=ELECTRONIFIE|52=20150827-19:10:27.028|56=NODEQUICKFIX|11=0E0Z86K00000|22=1|38=200|40=2|48=06051GDX4|54=1|55=BAC|60=20150827-21:10:22.020|218=100|423=6|10=144|
20150827-19:10:27.028 : 8=FIX.4.4|9=164|35=D|34=3|49=ELECTRONIFIE|52=20150827-19:10:27.028|56=NODEQUICKFIX|11=0E0Z86K00000|22=1|38=200|40=2|48=06051GDX4|54=1|55=BAC|60=20150827-21:10:22.020|218=100|423=6|10=145|
20150827-19:11:19.898 : 8=FIX.4.4|9=85|35=A|34=1|49=NODEQUICKFIX|52=20150827-19:11:19.898|56=ELECTRONIFIE|98=0|108=30|141=Y|10=075|
20150827-19:11:19.899 : 8=FIX.4.4|9=85|35=A|34=1|49=ELECTRONIFIE|52=20150827-19:11:19.898|56=NODEQUICKFIX|98=0|108=30|141=Y|10=075|
20150827-19:11:20.007 : 8=FIX.4.4|9=164|35=D|34=2|49=NODEQUICKFIX|52=20150827-19:11:20.007|56=ELECTRONIFIE|11=0E0Z86K00000|22=1|38=200|40=2|48=06051GDX4|54=1|55=BAC|60=20150827-21:11:19.899|218=100|423=6|10=166|
20150827-19:11:24.908 : 8=FIX.4.4|9=164|35=D|34=2|49=ELECTRONIFIE|52=20150827-19:11:24.908|56=NODEQUICKFIX|11=0E0Z86K00000|22=1|38=200|40=2|48=06051GDX4|54=1|55=BAC|60=20150827-21:11:19.896|218=100|423=6|10=177|
20150827-19:11:24.908 : 8=FIX.4.4|9=164|35=D|34=3|49=ELECTRONIFIE|52=20150827-19:11:24.908|56=NODEQUICKFIX|11=0E0Z86K00000|22=1|38=200|40=2|48=06051GDX4|54=1|55=BAC|60=20150827-21:11:19.896|218=100|423=6|10=178|
20150827-19:25:36.029 : 8=FIX.4.4|9=85|35=A|34=1|49=NODEQUICKFIX|52=20150827-19:25:36.029|56=ELECTRONIFIE|98=0|108=30|141=Y|10=065|
20150827-19:25:36.029 : 8=FIX.4.4|9=85|35=A|34=1|49=ELECTRONIFIE|52=20150827-19:25:36.029|56=NODEQUICKFIX|98=0|108=30|141=Y|10=065|
20150827-19:25:36.141 : 8=FIX.4.4|9=164|35=D|34=2|49=NODEQUICKFIX|52=20150827-19:25:36.141|56=ELECTRONIFIE|11=0E0Z86K00000|22=1|38=200|40=2|48=06051GDX4|54=1|55=BAC|60=20150827-21:25:36.030|218=100|423=6|10=158|
20150827-19:25:41.036 : 8=FIX.4.4|9=164|35=D|34=2|49=ELECTRONIFIE|52=20150827-19:25:41.036|56=NODEQUICKFIX|11=0E0Z86K00000|22=1|38=200|40=2|48=06051GDX4|54=1|55=BAC|60=20150827-21:25:36.027|218=100|423=6|10=163|
20150827-19:26:21.771 : 8=FIX.4.4|9=85|35=A|34=1|49=NODEQUICKFIX|52=20150827-19:26:21.771|56=ELECTRONIFIE|98=0|108=30|141=Y|10=064|
20150827-19:26:21.772 : 8=FIX.4.4|9=85|35=A|34=1|49=ELECTRONIFIE|52=20150827-19:26:21.772|56=NODEQUICKFIX|98=0|108=30|141=Y|10=065|
20150827-19:26:21.876 : 8=FIX.4.4|9=164|35=D|34=2|49=NODEQUICKFIX|52=20150827-19:26:21.876|56=ELECTRONIFIE|11=0E0Z86K00000|22=1|38=200|40=2|48=06051GDX4|54=1|55=BAC|60=20150827-21:26:21.772|218=100|423=6|10=176|
20150827-19:26:26.780 : 8=FIX.4.4|9=164|35=D|34=2|49=ELECTRONIFIE|52=20150827-19:26:26.780|56=NODEQUICKFIX|11=0E0Z86K00000|22=1|38=200|40=2|48=06051GDX4|54=1|55=BAC|60=20150827-21:26:21.769|218=100|423=6|10=181|
20150827-19:26:26.780 : 8=FIX.4.4|9=164|35=D|34=3|49=ELECTRONIFIE|52=20150827-19:26:26.780|56=NODEQUICKFIX|11=0E0Z86K00000|22=1|38=200|40=2|48=06051GDX4|54=1|55=BAC|60=20150827-21:26:21.769|218=100|423=6|10=182|
20150827-19:26:44.341 : 8=FIX.4.4|9=85|35=A|34=1|49=NODEQUICKFIX|52=20150827-19:26:44.340|56=ELECTRONIFIE|98=0|108=30|141=Y|10=061|
20150827-19:26:44.341 : 8=FIX.4.4|9=85|35=A|34=1|49=ELECTRONIFIE|52=20150827-19:26:44.341|56=NODEQUICKFIX|98=0|108=30|141=Y|10=062|
20150827-19:26:44.449 : 8=FIX.4.4|9=164|35=D|34=2|49=NODEQUICKFIX|52=20150827-19:26:44.449|56=ELECTRONIFIE|11=0E0Z86K00000|22=1|38=200|40=2|48=06051GDX4|54=1|55=BAC|60=20150827-21:26:44.341|218=100|423=6|10=174|
20150827-19:30:20.915 : 8=FIX.4.4|9=85|35=A|34=1|49=NODEQUICKFIX|52=20150827-19:30:20.915|56=ELECTRONIFIE|98=0|108=30|141=Y|10=058|
20150827-19:30:20.915 : 8=FIX.4.4|9=85|35=A|34=1|49=ELECTRONIFIE|52=20150827-19:30:20.915|56=NODEQUICKFIX|98=0|108=30|141=Y|10=058|
20150827-19:30:21.033 : 8=FIX.4.4|9=164|35=D|34=2|49=NODEQUICKFIX|52=20150827-19:30:21.033|56=ELECTRONIFIE|11=0E0Z86K00000|22=1|38=200|40=2|48=06051GDX4|54=1|55=BAC|60=20150827-21:30:20.916|218=100|423=6|10=150|
20150827-19:30:25.924 : 8=FIX.4.4|9=164|35=D|34=2|49=ELECTRONIFIE|52=20150827-19:30:25.924|56=NODEQUICKFIX|11=0E0Z86K00000|22=1|38=200|40=2|48=06051GDX4|54=1|55=BAC|60=20150827-21:30:20.913|218=100|423=6|10=160|
20150827-19:30:51.945 : 8=FIX.4.4|9=67|35=0|34=3|49=NODEQUICKFIX|52=20150827-19:30:51.945|56=ELECTRONIFIE|10=236|
20150827-19:30:55.949 : 8=FIX.4.4|9=67|35=0|34=3|49=ELECTRONIFIE|52=20150827-19:30:55.949|56=NODEQUICKFIX|10=244|
20150827-19:31:21.971 : 8=FIX.4.4|9=67|35=0|34=4|49=NODEQUICKFIX|52=20150827-19:31:21.971|56=ELECTRONIFIE|10=234|
20150827-19:31:25.975 : 8=FIX.4.4|9=67|35=0|34=4|49=ELECTRONIFIE|52=20150827-19:31:25.975|56=NODEQUICKFIX|10=242|
20150827-19:44:57.600 : 8=FIX.4.4|9=85|35=A|34=1|49=NODEQUICKFIX|52=20150827-19:44:57.599|56=ELECTRONIFIE|98=0|108=30|141=Y|10=081|
20150827-19:44:57.600 : 8=FIX.4.4|9=85|35=A|34=1|49=ELECTRONIFIE|52=20150827-19:44:57.600|56=NODEQUICKFIX|98=0|108=30|141=Y|10=064|
20150827-19:44:57.713 : 8=FIX.4.4|9=164|35=D|34=2|49=NODEQUICKFIX|52=20150827-19:44:57.713|56=ELECTRONIFIE|11=0E0Z86K00000|22=1|38=200|40=2|48=06051GDX4|54=1|55=BAC|60=20150827-21:44:57.601|218=100|423=6|10=175|
20150827-19:45:02.609 : 8=FIX.4.4|9=164|35=D|34=2|49=ELECTRONIFIE|52=20150827-19:45:02.609|56=NODEQUICKFIX|11=0E0Z86K00000|22=1|38=200|40=2|48=06051GDX4|54=1|55=BAC|60=20150827-21:44:57.598|218=100|423=6|10=185|
20150827-19:45:42.056 : 8=FIX.4.4|9=85|35=A|34=1|49=NODEQUICKFIX|52=20150827-19:45:42.055|56=ELECTRONIFIE|98=0|108=30|141=Y|10=063|
20150827-19:45:42.056 : 8=FIX.4.4|9=85|35=A|34=1|49=ELECTRONIFIE|52=20150827-19:45:42.056|56=NODEQUICKFIX|98=0|108=30|141=Y|10=064|
20150827-19:45:42.160 : 8=FIX.4.4|9=164|35=D|34=2|49=NODEQUICKFIX|52=20150827-19:45:42.160|56=ELECTRONIFIE|11=0E0Z86K00000|22=1|38=200|40=2|48=06051GDX4|54=1|55=BAC|60=20150827-21:45:42.056|218=100|423=6|10=165|
20150827-19:45:47.065 : 8=FIX.4.4|9=164|35=D|34=2|49=ELECTRONIFIE|52=20150827-19:45:47.065|56=NODEQUICKFIX|11=0E0Z86K00000|22=1|38=200|40=2|48=06051GDX4|54=1|55=BAC|60=20150827-21:45:42.054|218=100|423=6|10=172|
20150827-19:46:21.587 : 8=FIX.4.4|9=85|35=A|34=1|49=NODEQUICKFIX|52=20150827-19:46:21.587|56=ELECTRONIFIE|98=0|108=30|141=Y|10=071|
20150827-19:46:21.588 : 8=FIX.4.4|9=85|35=A|34=1|49=ELECTRONIFIE|52=20150827-19:46:21.588|56=NODEQUICKFIX|98=0|108=30|141=Y|10=072|
20150827-19:46:21.695 : 8=FIX.4.4|9=164|35=D|34=2|49=NODEQUICKFIX|52=20150827-19:46:21.695|56=ELECTRONIFIE|11=0E0Z86K00000|22=1|38=200|40=2|48=06051GDX4|54=1|55=BAC|60=20150827-21:46:21.588|218=100|423=6|10=184|
20150827-19:46:26.597 : 8=FIX.4.4|9=164|35=D|34=2|49=ELECTRONIFIE|52=20150827-19:46:26.597|56=NODEQUICKFIX|11=0E0Z86K00000|22=1|38=200|40=2|48=06051GDX4|54=1|55=BAC|60=20150827-21:46:21.586|218=100|423=6|10=188|
20150827-19:48:12.740 : 8=FIX.4.4|9=85|35=A|34=1|49=NODEQUICKFIX|52=20150827-19:48:12.740|56=ELECTRONIFIE|98=0|108=30|141=Y|10=064|
20150827-19:48:12.741 : 8=FIX.4.4|9=85|35=A|34=1|49=ELECTRONIFIE|52=20150827-19:48:12.741|56=NODEQUICKFIX|98=0|108=30|141=Y|10=065|
20150827-19:48:12.851 : 8=FIX.4.4|9=164|35=D|34=2|49=NODEQUICKFIX|52=20150827-19:48:12.851|56=ELECTRONIFIE|11=0E0Z86K00000|22=1|38=200|40=2|48=06051GDX4|54=1|55=BAC|60=20150827-21:48:12.741|218=100|423=6|10=173|
20150827-19:48:17.750 : 8=FIX.4.4|9=164|35=D|34=2|49=ELECTRONIFIE|52=20150827-19:48:17.750|56=NODEQUICKFIX|11=0E0Z86K00000|22=1|38=200|40=2|48=06051GDX4|54=1|55=BAC|60=20150827-21:48:12.739|218=100|423=6|10=183|
20150827-19:56:17.343 : 8=FIX.4.4|9=85|35=A|34=1|49=NODEQUICKFIX|52=20150827-19:56:17.342|56=ELECTRONIFIE|98=0|108=30|141=Y|10=066|
20150827-19:56:17.343 : 8=FIX.4.4|9=85|35=A|34=1|49=ELECTRONIFIE|52=20150827-19:56:17.343|56=NODEQUICKFIX|98=0|108=30|141=Y|10=067|
20150827-19:56:17.453 : 8=FIX.4.4|9=164|35=D|34=2|49=NODEQUICKFIX|52=20150827-19:56:17.452|56=ELECTRONIFIE|11=0E0Z86K00000|22=1|38=200|40=2|48=06051GDX4|54=1|55=BAC|60=20150827-21:56:17.343|218=100|423=6|10=176|
20150827-19:56:22.351 : 8=FIX.4.4|9=164|35=D|34=2|49=ELECTRONIFIE|52=20150827-19:56:22.351|56=NODEQUICKFIX|11=0E0Z86K00000|22=1|38=200|40=2|48=06051GDX4|54=1|55=BAC|60=20150827-21:56:17.341|218=100|423=6|10=168|
20150827-19:57:34.135 : 8=FIX.4.4|9=85|35=A|34=1|49=NODEQUICKFIX|52=20150827-19:57:34.135|56=ELECTRONIFIE|98=0|108=30|141=Y|10=066|
20150827-19:57:34.135 : 8=FIX.4.4|9=85|35=A|34=1|49=ELECTRONIFIE|52=20150827-19:57:34.135|56=NODEQUICKFIX|98=0|108=30|141=Y|10=066|
20150827-19:57:34.245 : 8=FIX.4.4|9=164|35=D|34=2|49=NODEQUICKFIX|52=20150827-19:57:34.245|56=ELECTRONIFIE|11=0E0Z86K00000|22=1|38=200|40=2|48=06051GDX4|54=1|55=BAC|60=20150827-21:57:34.136|218=100|423=6|10=176|
20150827-19:57:39.142 : 8=FIX.4.4|9=164|35=D|34=2|49=ELECTRONIFIE|52=20150827-19:57:39.142|56=NODEQUICKFIX|11=0E0Z86K00000|22=1|38=200|40=2|48=06051GDX4|54=1|55=BAC|60=20150827-21:57:34.133|218=100|423=6|10=174|
20150827-19:58:11.699 : 8=FIX.4.4|9=85|35=A|34=1|49=NODEQUICKFIX|52=20150827-19:58:11.699|56=ELECTRONIFIE|98=0|108=30|141=Y|10=077|
20150827-19:58:11.700 : 8=FIX.4.4|9=85|35=A|34=1|49=ELECTRONIFIE|52=20150827-19:58:11.700|56=NODEQUICKFIX|98=0|108=30|141=Y|10=060|
20150827-19:58:11.815 : 8=FIX.4.4|9=164|35=D|34=2|49=NODEQUICKFIX|52=20150827-19:58:11.814|56=ELECTRONIFIE|11=0E0Z86K00000|22=1|38=200|40=2|48=06051GDX4|54=1|55=BAC|60=20150827-21:58:11.700|218=100|423=6|10=167|
20150827-19:58:16.706 : 8=FIX.4.4|9=164|35=D|34=2|49=ELECTRONIFIE|52=20150827-19:58:16.706|56=NODEQUICKFIX|11=0E0Z86K00000|22=1|38=200|40=2|48=06051GDX4|54=1|55=BAC|60=20150827-21:58:11.698|218=100|423=6|10=188|
20150827-19:58:44.917 : 8=FIX.4.4|9=85|35=A|34=1|49=NODEQUICKFIX|52=20150827-19:58:44.917|56=ELECTRONIFIE|98=0|108=30|141=Y|10=076|
20150827-19:58:44.918 : 8=FIX.4.4|9=85|35=A|34=1|49=ELECTRONIFIE|52=20150827-19:58:44.918|56=NODEQUICKFIX|98=0|108=30|141=Y|10=077|
20150827-19:58:45.024 : 8=FIX.4.4|9=164|35=D|34=2|49=NODEQUICKFIX|52=20150827-19:58:45.023|56=ELECTRONIFIE|11=0E0Z86K00000|22=1|38=200|40=2|48=06051GDX4|54=1|55=BAC|60=20150827-21:58:44.918|218=100|423=6|10=183|
20150827-19:58:49.926 : 8=FIX.4.4|9=164|35=D|34=2|49=ELECTRONIFIE|52=20150827-19:58:49.926|56=NODEQUICKFIX|11=0E0Z86K00000|22=1|38=200|40=2|48=06051GDX4|54=1|55=BAC|60=20150827-21:58:44.916|218=100|423=6|10=197|
20150827-22:50:46.316 : 8=FIX.4.4|9=85|35=A|34=1|49=NODEQUICKFIX|52=20150827-22:50:46.315|56=ELECTRONIFIE|98=0|108=30|141=Y|10=056|
20150827-22:50:46.316 : 8=FIX.4.4|9=85|35=A|34=1|49=ELECTRONIFIE|52=20150827-22:50:46.316|56=NODEQUICKFIX|98=0|108=30|141=Y|10=057|
20150827-22:50:56.163 : 8=FIX.4.4|9=164|35=D|34=2|49=ELECTRONIFIE|52=20150827-22:50:56.163|56=NODEQUICKFIX|11=0E0Z86K00000|22=1|38=200|40=2|48=06051GDX4|54=1|55=BAC|60=20150828-00:50:46.068|218=100|423=6|10=164|
20150827-22:50:56.177 : 8=FIX.4.4|9=164|35=D|34=2|49=NODEQUICKFIX|52=20150827-22:50:56.177|56=ELECTRONIFIE|11=0E0Z86K00000|22=1|38=200|40=2|48=06051GDX4|54=1|55=BAC|60=20150828-00:50:46.070|218=100|423=6|10=162|
20150827-22:52:52.264 : 8=FIX.4.4|9=85|35=A|34=1|49=NODEQUICKFIX|52=20150827-22:52:52.264|56=ELECTRONIFIE|98=0|108=30|141=Y|10=058|
20150827-22:52:52.264 : 8=FIX.4.4|9=85|35=A|34=1|49=ELECTRONIFIE|52=20150827-22:52:52.264|56=NODEQUICKFIX|98=0|108=30|141=Y|10=058|
20150827-22:59:38.651 : 8=FIX.4.4|9=85|35=A|34=1|49=NODEQUICKFIX|52=20150827-22:59:38.651|56=ELECTRONIFIE|98=0|108=30|141=Y|10=069|
20150827-22:59:38.652 : 8=FIX.4.4|9=85|35=A|34=1|49=ELECTRONIFIE|52=20150827-22:59:38.652|56=NODEQUICKFIX|98=0|108=30|141=Y|10=070|
20150827-22:59:48.500 : 8=FIX.4.4|9=164|35=D|34=2|49=ELECTRONIFIE|52=20150827-22:59:48.500|56=NODEQUICKFIX|11=0E0Z86K00000|22=1|38=200|40=2|48=06051GDX4|54=1|55=BAC|60=20150828-00:59:38.403|218=100|423=6|10=172|
20150827-22:59:48.515 : 8=FIX.4.4|9=164|35=D|34=2|49=NODEQUICKFIX|52=20150827-22:59:48.515|56=ELECTRONIFIE|11=0E0Z86K00000|22=1|38=200|40=2|48=06051GDX4|54=1|55=BAC|60=20150828-00:59:38.405|218=100|423=6|10=180|
20150829-20:48:39.910 : 8=FIX.4.4|9=85|35=A|34=1|49=NODEQUICKFIX|52=20150829-20:48:39.876|56=ELECTRONIFIE|98=0|108=30|141=Y|10=077|
20150829-20:48:39.910 : 8=FIX.4.4|9=85|35=A|34=1|49=ELECTRONIFIE|52=20150829-20:48:39.910|56=NODEQUICKFIX|98=0|108=30|141=Y|10=066|
20150829-20:53:42.474 : 8=FIX.4.4|9=85|35=A|34=1|49=NODEQUICKFIX|52=20150829-20:53:42.473|56=ELECTRONIFIE|98=0|108=30|141=Y|10=060|
20150829-20:53:42.474 : 8=FIX.4.4|9=85|35=A|34=1|49=ELECTRONIFIE|52=20150829-20:53:42.474|56=NODEQUICKFIX|98=0|108=30|141=Y|10=061|
20150829-20:53:52.321 : 8=FIX.4.4|9=164|35=D|34=2|49=ELECTRONIFIE|52=20150829-20:53:52.321|56=NODEQUICKFIX|11=0E0Z86K00000|22=1|38=200|40=2|48=06051GDX4|54=1|55=BAC|60=20150829-22:53:42.224|218=100|423=6|10=157|
20150829-20:58:27.902 : 8=FIX.4.4|9=85|35=A|34=1|49=NODEQUICKFIX|52=20150829-20:58:27.901|56=ELECTRONIFIE|98=0|108=30|141=Y|10=064|
20150829-20:58:27.902 : 8=FIX.4.4|9=85|35=A|34=1|49=ELECTRONIFIE|52=20150829-20:58:27.902|56=NODEQUICKFIX|98=0|108=30|141=Y|10=065|
20150829-20:58:37.746 : 8=FIX.4.4|9=164|35=D|34=2|49=ELECTRONIFIE|52=20150829-20:58:37.746|56=NODEQUICKFIX|11=0E0Z86K00000|22=1|38=200|40=2|48=06051GDX4|54=1|55=BAC|60=20150829-22:58:27.648|218=100|423=6|10=194|
20150829-20:58:37.758 : 8=FIX.4.4|9=164|35=D|34=2|49=NODEQUICKFIX|52=20150829-20:58:37.758|56=ELECTRONIFIE|11=0E0Z86K00000|22=1|38=200|40=2|48=06051GDX4|54=1|55=BAC|60=20150829-22:58:27.651|218=100|423=6|10=191|
20150829-21:04:24.997 : 8=FIX.4.4|9=85|35=A|34=1|49=NODEQUICKFIX|52=20150829-21:04:24.997|56=ELECTRONIFIE|98=0|108=30|141=Y|10=068|
20150829-21:04:24.998 : 8=FIX.4.4|9=85|35=A|34=1|49=ELECTRONIFIE|52=20150829-21:04:24.998|56=NODEQUICKFIX|98=0|108=30|141=Y|10=069|
20150829-21:07:07.129 : 8=FIX.4.4|9=85|35=A|34=1|49=NODEQUICKFIX|52=20150829-21:07:07.128|56=ELECTRONIFIE|98=0|108=30|141=Y|10=058|
20150829-21:07:07.129 : 8=FIX.4.4|9=85|35=A|34=1|49=ELECTRONIFIE|52=20150829-21:07:07.129|56=NODEQUICKFIX|98=0|108=30|141=Y|10=059|
20150829-21:07:16.971 : 8=FIX.4.4|9=164|35=D|34=2|49=ELECTRONIFIE|52=20150829-21:07:16.971|56=NODEQUICKFIX|11=0E0Z86K00000|22=1|38=200|40=2|48=06051GDX4|54=1|55=BAC|60=20150829-23:07:06.868|218=100|423=6|10=182|
20150829-21:07:37.158 : 8=FIX.4.4|9=67|35=0|34=2|49=NODEQUICKFIX|52=20150829-21:07:37.158|56=ELECTRONIFIE|10=234|
20150829-21:08:14.234 : 8=FIX.4.4|9=85|35=A|34=1|49=NODEQUICKFIX|52=20150829-21:08:14.233|56=ELECTRONIFIE|98=0|108=30|141=Y|10=054|
20150829-21:08:14.234 : 8=FIX.4.4|9=85|35=A|34=1|49=ELECTRONIFIE|52=20150829-21:08:14.234|56=NODEQUICKFIX|98=0|108=30|141=Y|10=055|
20150829-21:08:32.983 : 8=FIX.4.4|9=85|35=A|34=1|49=NODEQUICKFIX|52=20150829-21:08:32.982|56=ELECTRONIFIE|98=0|108=30|141=Y|10=065|
20150829-21:08:32.983 : 8=FIX.4.4|9=85|35=A|34=1|49=ELECTRONIFIE|52=20150829-21:08:32.983|56=NODEQUICKFIX|98=0|108=30|141=Y|10=066|
20150829-21:08:42.837 : 8=FIX.4.4|9=164|35=D|34=2|49=ELECTRONIFIE|52=20150829-21:08:42.837|56=NODEQUICKFIX|11=0E0Z86K00000|22=1|38=200|40=2|48=06051GDX4|54=1|55=BAC|60=20150829-23:08:32.734|218=100|423=6|10=175|
20150829-21:08:42.853 : 8=FIX.4.4|9=164|35=D|34=2|49=NODEQUICKFIX|52=20150829-21:08:42.853|56=ELECTRONIFIE|11=0E0Z86K00000|22=1|38=200|40=2|48=06051GDX4|54=1|55=BAC|60=20150829-23:08:32.736|218=100|423=6|10=175|
20150829-21:09:12.018 : 8=FIX.4.4|9=67|35=0|34=3|49=NODEQUICKFIX|52=20150829-21:09:12.018|56=ELECTRONIFIE|10=225|
20150829-21:09:12.018 : 8=FIX.4.4|9=67|35=0|34=3|49=ELECTRONIFIE|52=20150829-21:09:12.018|56=NODEQUICKFIX|10=225|
20150829-21:14:57.587 : 8=FIX.4.4|9=85|35=A|34=1|49=NODEQUICKFIX|52=20150829-21:14:57.586|56=ELECTRONIFIE|98=0|108=30|141=Y|10=069|
20150829-21:14:57.587 : 8=FIX.4.4|9=85|35=A|34=1|49=ELECTRONIFIE|52=20150829-21:14:57.587|56=NODEQUICKFIX|98=0|108=30|141=Y|10=070|
20150829-21:15:34.338 : 8=FIX.4.4|9=85|35=A|34=1|49=NODEQUICKFIX|52=20150829-21:15:34.337|56=ELECTRONIFIE|98=0|108=30|141=Y|10=059|
20150829-21:15:34.338 : 8=FIX.4.4|9=85|35=A|34=1|49=ELECTRONIFIE|52=20150829-21:15:34.338|56=NODEQUICKFIX|98=0|108=30|141=Y|10=060|
20150829-21:15:44.190 : 8=FIX.4.4|9=164|35=D|34=2|49=ELECTRONIFIE|52=20150829-21:15:44.190|56=NODEQUICKFIX|11=0E0Z86K00000|22=1|38=200|40=2|48=06051GDX4|54=1|55=BAC|60=20150829-23:15:34.089|218=100|423=6|10=170|
20150829-21:15:44.207 : 8=FIX.4.4|9=164|35=D|34=2|49=NODEQUICKFIX|52=20150829-21:15:44.207|56=ELECTRONIFIE|11=0E0Z86K00000|22=1|38=200|40=2|48=06051GDX4|54=1|55=BAC|60=20150829-23:15:34.092|218=100|423=6|10=163|
20150829-21:16:14.236 : 8=FIX.4.4|9=67|35=0|34=3|49=ELECTRONIFIE|52=20150829-21:16:14.236|56=NODEQUICKFIX|10=227|
20150829-21:16:14.237 : 8=FIX.4.4|9=67|35=0|34=3|49=NODEQUICKFIX|52=20150829-21:16:14.236|56=ELECTRONIFIE|10=227|
