20150822-21:13:30.110 : 8=FIX.4.4|9=85|35=A|34=1|49=NODEQUICKFIX|52=20150822-21:13:30.110|56=ELECTRONIFIE|98=0|108=30|141=Y|10=035|
20150822-21:15:25.885 : 8=FIX.4.4|9=85|35=A|34=1|49=NODEQUICKFIX|52=20150822-21:15:25.885|56=ELECTRONIFIE|98=0|108=30|141=Y|10=060|
20150822-21:16:34.835 : 8=FIX.4.4|9=85|35=A|34=1|49=NODEQUICKFIX|52=20150822-21:16:34.835|56=ELECTRONIFIE|98=0|108=30|141=Y|10=056|
20150822-21:17:14.207 : 8=FIX.4.4|9=85|35=A|34=1|49=NODEQUICKFIX|52=20150822-21:17:14.207|56=ELECTRONIFIE|98=0|108=30|141=Y|10=048|
20150822-21:27:51.165 : 8=FIX.4.4|9=85|35=A|34=1|49=NODEQUICKFIX|52=20150822-21:27:51.165|56=ELECTRONIFIE|98=0|108=30|141=Y|10=053|
20150822-21:30:55.869 : 8=FIX.4.4|9=85|35=A|34=1|49=NODEQUICKFIX|52=20150822-21:30:55.868|56=ELECTRONIFIE|98=0|108=30|141=Y|10=061|
20150822-21:32:18.202 : 8=FIX.4.4|9=85|35=A|34=1|49=NODEQUICKFIX|52=20150822-21:32:18.202|56=ELECTRONIFIE|98=0|108=30|141=Y|10=044|
20150822-21:38:49.604 : 8=FIX.4.4|9=85|35=A|34=1|49=NODEQUICKFIX|52=20150822-21:38:49.604|56=ELECTRONIFIE|98=0|108=30|141=Y|10=060|
20150822-21:45:03.031 : 8=FIX.4.4|9=85|35=A|34=1|49=NODEQUICKFIX|52=20150822-21:45:03.030|56=ELECTRONIFIE|98=0|108=30|141=Y|10=041|
20150822-22:32:03.418 : 8=FIX.4.4|9=85|35=A|34=1|49=NODEQUICKFIX|52=20150822-22:32:03.418|56=ELECTRONIFIE|98=0|108=30|141=Y|10=048|
20150822-22:32:14.509 : 8=FIX.4.4|9=85|35=A|34=1|49=NODEQUICKFIX|52=20150822-22:32:14.509|56=ELECTRONIFIE|98=0|108=30|141=Y|10=051|
