Feb 2, 2013 8:00:00 AM: CommProcessor_SBI: Connecting to SBI...
Feb 2, 2013 8:00:00 AM: FIXCommConnection: Trying socket connection to SBI at 127.0.0.1:7200
Feb 2, 2013 8:00:00 AM: CommStuff: Connection to SBI accepted
Feb 2, 2013 8:00:00 AM: CommStuff: Sending data on id {SBI} [8=FIX.4.0|9=0059|35=A|34=4|49=SLGM|56=SBI|52=20130202-08:00:00|98=0|108=100|10=198|]
Feb 2, 2013 8:00:00 AM: FixPump_SBI: Received data on id {SBI} [8=FIX.4.2|9=0127|35=3|34=28|49=SBI0|56=SLGM0|52=20130202-08:00:00|45=4|373=9|58=Remote firm id: SLGM did not match expected: SLGM0 or aliases: |10=206|]
Feb 2, 2013 8:00:00 AM: CommStuff: Sending data on id {SBI} [8=FIX.4.0|9=0071|35=3|34=5|49=SLGM|56=SBI|52=20130202-08:00:00|45=28|58=Expected Logon.|10=167|]
Feb 2, 2013 8:00:01 AM: CommStuff: Sending data on id {SBI} [8=FIX.4.0|9=0082|35=5|34=6|49=SLGM|56=SBI|52=20130202-08:00:01|58=Appia-vwang-6541_Expected Logon.|10=051|]
Feb 2, 2013 8:00:01 AM: FixPump_SBI: Received data on id {SBI} [8=FIX.4.2|9=0133|35=5|34=29|49=SBI0|56=SLGM0|52=20130202-08:00:01|58=Appia-vwang-6541_Remote firm id: SLGM did not match expected: SLGM0 or aliases: |10=119|]
Feb 2, 2013 8:00:02 AM: CommStuff: Sent Logout and disconnected.
Feb 2, 2013 8:00:02 AM: FIXCommConnection: Socket disconnected by peer.
Feb 2, 2013 8:00:02 AM: FIXPump: Socket is disconnected.  Throw away: id {SBI} [8=FIX.4.2|9=0133|35=5|34=29|49=SBI0|56=SLGM0|52=20130202-08:00:01|58=Appia-vwang-6541_Remote firm id: SLGM did not match expected: SLGM0 or aliases: |10=119|]
Feb 2, 2013 8:00:30 AM: CommProcessor_SBI: Connecting to SBI...
Feb 2, 2013 8:00:30 AM: FIXCommConnection: Trying socket connection to SBI at 127.0.0.1:7200
Feb 2, 2013 8:00:30 AM: CommStuff: Connection to SBI accepted
Feb 2, 2013 8:00:30 AM: CommStuff: Sending data on id {SBI} [8=FIX.4.0|9=0059|35=A|34=7|49=SLGM|56=SBI|52=20130202-08:00:30|98=0|108=100|10=204|]
Feb 2, 2013 8:00:30 AM: FixPump_SBI: Received data on id {SBI} [8=FIX.4.2|9=0127|35=3|34=30|49=SBI0|56=SLGM0|52=20130202-08:00:30|45=7|373=9|58=Remote firm id: SLGM did not match expected: SLGM0 or aliases: |10=205|]
Feb 2, 2013 8:00:30 AM: CommStuff: Sending data on id {SBI} [8=FIX.4.0|9=0071|35=3|34=8|49=SLGM|56=SBI|52=20130202-08:00:30|45=30|58=Expected Logon.|10=166|]
Feb 2, 2013 8:00:31 AM: CommStuff: Sending data on id {SBI} [8=FIX.4.0|9=0082|35=5|34=9|49=SLGM|56=SBI|52=20130202-08:00:31|58=Appia-vwang-6541_Expected Logon.|10=057|]
Feb 2, 2013 8:00:31 AM: FixPump_SBI: Received data on id {SBI} [8=FIX.4.2|9=0133|35=5|34=31|49=SBI0|56=SLGM0|52=20130202-08:00:31|58=Appia-vwang-6541_Remote firm id: SLGM did not match expected: SLGM0 or aliases: |10=115|]
Feb 2, 2013 8:00:32 AM: CommStuff: Sent Logout and disconnected.
Feb 2, 2013 8:00:32 AM: CommStuff: Connection to SBI is down
Feb 2, 2013 8:00:32 AM: FIXPump: Socket is disconnected.  Throw away: id {SBI} [8=FIX.4.2|9=0133|35=5|34=31|49=SBI0|56=SLGM0|52=20130202-08:00:31|58=Appia-vwang-6541_Remote firm id: SLGM did not match expected: SLGM0 or aliases: |10=115|]
Feb 2, 2013 8:00:33 AM: CommStuff: Socket Connection Terminated
Feb 2, 2013 8:00:33 AM: FIXCommConnection: Socket disconnected.
Feb 2, 2013 8:01:00 AM: CommProcessor_SBI: Connecting to SBI...
Feb 2, 2013 8:01:00 AM: FIXCommConnection: Trying socket connection to SBI at 127.0.0.1:7200
Feb 2, 2013 8:01:00 AM: CommStuff: Connection to SBI accepted
Feb 2, 2013 8:01:00 AM: CommStuff: Sending data on id {SBI} [8=FIX.4.0|9=0060|35=A|34=10|49=SLGM|56=SBI|52=20130202-08:01:00|98=0|108=100|10=236|]
Feb 2, 2013 8:01:00 AM: FixPump_SBI: Received data on id {SBI} [8=FIX.4.2|9=0128|35=3|34=32|49=SBI0|56=SLGM0|52=20130202-08:01:00|45=10|373=9|58=Remote firm id: SLGM did not match expected: SLGM0 or aliases: |10=248|]
Feb 2, 2013 8:01:00 AM: CommStuff: Sending data on id {SBI} [8=FIX.4.0|9=0072|35=3|34=11|49=SLGM|56=SBI|52=20130202-08:01:00|45=32|58=Expected Logon.|10=209|]
Feb 2, 2013 8:01:01 AM: CommStuff: Sending data on id {SBI} [8=FIX.4.0|9=0083|35=5|34=12|49=SLGM|56=SBI|52=20130202-08:01:01|58=Appia-vwang-6541_Expected Logon.|10=098|]
Feb 2, 2013 8:01:01 AM: FixPump_SBI: Received data on id {SBI} [8=FIX.4.2|9=0133|35=5|34=33|49=SBI0|56=SLGM0|52=20130202-08:01:01|58=Appia-vwang-6541_Remote firm id: SLGM did not match expected: SLGM0 or aliases: |10=115|]
Feb 2, 2013 8:01:02 AM: CommStuff: Sent Logout and disconnected.
Feb 2, 2013 8:01:02 AM: CommStuff: Connection to SBI is down
Feb 2, 2013 8:01:02 AM: FIXPump: Socket is disconnected.  Throw away: id {SBI} [8=FIX.4.2|9=0133|35=5|34=33|49=SBI0|56=SLGM0|52=20130202-08:01:01|58=Appia-vwang-6541_Remote firm id: SLGM did not match expected: SLGM0 or aliases: |10=115|]
Feb 2, 2013 8:01:03 AM: CommStuff: Socket Connection Terminated
Feb 2, 2013 8:01:03 AM: FIXCommConnection: Socket disconnected.
Feb 2, 2013 8:01:30 AM: CommProcessor_SBI: Connecting to SBI...
Feb 2, 2013 8:01:30 AM: FIXCommConnection: Trying socket connection to SBI at 127.0.0.1:7200
Feb 2, 2013 8:01:30 AM: CommStuff: Connection to SBI accepted
Feb 2, 2013 8:01:30 AM: CommStuff: Sending data on id {SBI} [8=FIX.4.0|9=0060|35=A|34=13|49=SLGM|56=SBI|52=20130202-08:01:30|98=0|108=100|10=242|]
Feb 2, 2013 8:01:30 AM: FixPump_SBI: Received data on id {SBI} [8=FIX.4.2|9=0128|35=3|34=34|49=SBI0|56=SLGM0|52=20130202-08:01:30|45=13|373=9|58=Remote firm id: SLGM did not match expected: SLGM0 or aliases: |10=000|]
Feb 2, 2013 8:01:30 AM: CommStuff: Sending data on id {SBI} [8=FIX.4.0|9=0072|35=3|34=14|49=SLGM|56=SBI|52=20130202-08:01:30|45=34|58=Expected Logon.|10=217|]
Feb 2, 2013 8:01:31 AM: CommStuff: Sending data on id {SBI} [8=FIX.4.0|9=0083|35=5|34=15|49=SLGM|56=SBI|52=20130202-08:01:31|58=Appia-vwang-6541_Expected Logon.|10=104|]
Feb 2, 2013 8:01:31 AM: FixPump_SBI: Received data on id {SBI} [8=FIX.4.2|9=0133|35=5|34=35|49=SBI0|56=SLGM0|52=20130202-08:01:31|58=Appia-vwang-6541_Remote firm id: SLGM did not match expected: SLGM0 or aliases: |10=120|]
Feb 2, 2013 8:01:32 AM: CommStuff: Sent Logout and disconnected.
Feb 2, 2013 8:01:32 AM: CommStuff: Connection to SBI is down
Feb 2, 2013 8:01:32 AM: FIXPump: Socket is disconnected.  Throw away: id {SBI} [8=FIX.4.2|9=0133|35=5|34=35|49=SBI0|56=SLGM0|52=20130202-08:01:31|58=Appia-vwang-6541_Remote firm id: SLGM did not match expected: SLGM0 or aliases: |10=120|]
Feb 2, 2013 8:01:32 AM: FIXCommConnection: Socket disconnected.
Feb 2, 2013 8:02:00 AM: CommProcessor_SBI: Connecting to SBI...
Feb 2, 2013 8:02:00 AM: FIXCommConnection: Trying socket connection to SBI at 127.0.0.1:7200
Feb 2, 2013 8:02:00 AM: CommStuff: Connection to SBI accepted
Feb 2, 2013 8:02:00 AM: CommStuff: Sending data on id {SBI} [8=FIX.4.0|9=0060|35=A|34=16|49=SLGM|56=SBI|52=20130202-08:02:00|98=0|108=100|10=243|]
Feb 2, 2013 8:02:00 AM: FixPump_SBI: Received data on id {SBI} [8=FIX.4.2|9=0128|35=3|34=36|49=SBI0|56=SLGM0|52=20130202-08:02:00|45=16|373=9|58=Remote firm id: SLGM did not match expected: SLGM0 or aliases: |10=003|]
Feb 2, 2013 8:02:00 AM: CommStuff: Sending data on id {SBI} [8=FIX.4.0|9=0072|35=3|34=17|49=SLGM|56=SBI|52=20130202-08:02:00|45=36|58=Expected Logon.|10=220|]
Feb 2, 2013 8:02:01 AM: CommStuff: Sending data on id {SBI} [8=FIX.4.0|9=0083|35=5|34=18|49=SLGM|56=SBI|52=20130202-08:02:01|58=Appia-vwang-6541_Expected Logon.|10=105|]
Feb 2, 2013 8:02:01 AM: FixPump_SBI: Received data on id {SBI} [8=FIX.4.2|9=0133|35=5|34=37|49=SBI0|56=SLGM0|52=20130202-08:02:01|58=Appia-vwang-6541_Remote firm id: SLGM did not match expected: SLGM0 or aliases: |10=120|]
Feb 2, 2013 8:02:02 AM: CommStuff: Sent Logout and disconnected.
Feb 2, 2013 8:02:02 AM: CommStuff: Connection to SBI is down
Feb 2, 2013 8:02:02 AM: FIXPump: Socket is disconnected.  Throw away: id {SBI} [8=FIX.4.2|9=0133|35=5|34=37|49=SBI0|56=SLGM0|52=20130202-08:02:01|58=Appia-vwang-6541_Remote firm id: SLGM did not match expected: SLGM0 or aliases: |10=120|]
Feb 2, 2013 8:02:02 AM: FIXCommConnection: Socket disconnected.
Feb 2, 2013 8:02:30 AM: CommProcessor_SBI: Connecting to SBI...
Feb 2, 2013 8:02:30 AM: FIXCommConnection: Trying socket connection to SBI at 127.0.0.1:7200
Feb 2, 2013 8:02:30 AM: CommStuff: Connection to SBI accepted
Feb 2, 2013 8:02:30 AM: CommStuff: Sending data on id {SBI} [8=FIX.4.0|9=0060|35=A|34=19|49=SLGM|56=SBI|52=20130202-08:02:30|98=0|108=100|10=249|]
Feb 2, 2013 8:02:30 AM: FixPump_SBI: Received data on id {SBI} [8=FIX.4.2|9=0128|35=3|34=38|49=SBI0|56=SLGM0|52=20130202-08:02:30|45=19|373=9|58=Remote firm id: SLGM did not match expected: SLGM0 or aliases: |10=011|]
Feb 2, 2013 8:02:30 AM: CommStuff: Sending data on id {SBI} [8=FIX.4.0|9=0072|35=3|34=20|49=SLGM|56=SBI|52=20130202-08:02:30|45=38|58=Expected Logon.|10=219|]
Feb 2, 2013 8:02:31 AM: CommStuff: Sending data on id {SBI} [8=FIX.4.0|9=0083|35=5|34=21|49=SLGM|56=SBI|52=20130202-08:02:31|58=Appia-vwang-6541_Expected Logon.|10=102|]
Feb 2, 2013 8:02:31 AM: FixPump_SBI: Received data on id {SBI} [8=FIX.4.2|9=0133|35=5|34=39|49=SBI0|56=SLGM0|52=20130202-08:02:31|58=Appia-vwang-6541_Remote firm id: SLGM did not match expected: SLGM0 or aliases: |10=125|]
Feb 2, 2013 8:02:32 AM: CommStuff: Sent Logout and disconnected.
Feb 2, 2013 8:02:32 AM: FIXCommConnection: Socket disconnected by peer.
Feb 2, 2013 8:02:32 AM: CommStuff: Connection to SBI is down
Feb 2, 2013 8:02:32 AM: FIXPump: Socket is disconnected.  Throw away: id {SBI} [8=FIX.4.2|9=0133|35=5|34=39|49=SBI0|56=SLGM0|52=20130202-08:02:31|58=Appia-vwang-6541_Remote firm id: SLGM did not match expected: SLGM0 or aliases: |10=125|]
Feb 2, 2013 8:03:00 AM: CommProcessor_SBI: Connecting to SBI...
Feb 2, 2013 8:03:00 AM: FIXCommConnection: Trying socket connection to SBI at 127.0.0.1:7200
Feb 2, 2013 8:03:00 AM: CommStuff: Connection to SBI accepted
Feb 2, 2013 8:03:00 AM: CommStuff: Sending data on id {SBI} [8=FIX.4.0|9=0060|35=A|34=22|49=SLGM|56=SBI|52=20130202-08:03:00|98=0|108=100|10=241|]
Feb 2, 2013 8:03:00 AM: FixPump_SBI: Received data on id {SBI} [8=FIX.4.2|9=0128|35=3|34=40|49=SBI0|56=SLGM0|52=20130202-08:03:00|45=22|373=9|58=Remote firm id: SLGM did not match expected: SLGM0 or aliases: |10=252|]
Feb 2, 2013 8:03:00 AM: CommStuff: Sending data on id {SBI} [8=FIX.4.0|9=0072|35=3|34=23|49=SLGM|56=SBI|52=20130202-08:03:00|45=40|58=Expected Logon.|10=213|]
Feb 2, 2013 8:03:01 AM: CommStuff: Sending data on id {SBI} [8=FIX.4.0|9=0083|35=5|34=24|49=SLGM|56=SBI|52=20130202-08:03:01|58=Appia-vwang-6541_Expected Logon.|10=103|]
Feb 2, 2013 8:03:01 AM: FixPump_SBI: Received data on id {SBI} [8=FIX.4.2|9=0133|35=5|34=41|49=SBI0|56=SLGM0|52=20130202-08:03:01|58=Appia-vwang-6541_Remote firm id: SLGM did not match expected: SLGM0 or aliases: |10=116|]
Feb 2, 2013 8:03:02 AM: CommStuff: Sent Logout and disconnected.
Feb 2, 2013 8:03:02 AM: FIXCommConnection: Socket disconnected by peer.
Feb 2, 2013 8:03:02 AM: FIXPump: Socket is disconnected.  Throw away: id {SBI} [8=FIX.4.2|9=0133|35=5|34=41|49=SBI0|56=SLGM0|52=20130202-08:03:01|58=Appia-vwang-6541_Remote firm id: SLGM did not match expected: SLGM0 or aliases: |10=116|]
Feb 2, 2013 8:03:30 AM: CommProcessor_SBI: Connecting to SBI...
Feb 2, 2013 8:03:30 AM: FIXCommConnection: Trying socket connection to SBI at 127.0.0.1:7200
Feb 2, 2013 8:03:30 AM: CommStuff: Connection to SBI accepted
Feb 2, 2013 8:03:30 AM: CommStuff: Sending data on id {SBI} [8=FIX.4.0|9=0060|35=A|34=25|49=SLGM|56=SBI|52=20130202-08:03:30|98=0|108=100|10=247|]
Feb 2, 2013 8:03:30 AM: FixPump_SBI: Received data on id {SBI} [8=FIX.4.2|9=0128|35=3|34=42|49=SBI0|56=SLGM0|52=20130202-08:03:30|45=25|373=9|58=Remote firm id: SLGM did not match expected: SLGM0 or aliases: |10=004|]
Feb 2, 2013 8:03:30 AM: CommStuff: Sending data on id {SBI} [8=FIX.4.0|9=0072|35=3|34=26|49=SLGM|56=SBI|52=20130202-08:03:30|45=42|58=Expected Logon.|10=221|]
Feb 2, 2013 8:03:31 AM: CommStuff: Sending data on id {SBI} [8=FIX.4.0|9=0083|35=5|34=27|49=SLGM|56=SBI|52=20130202-08:03:31|58=Appia-vwang-6541_Expected Logon.|10=109|]
Feb 2, 2013 8:03:31 AM: FixPump_SBI: Received data on id {SBI} [8=FIX.4.2|9=0133|35=5|34=43|49=SBI0|56=SLGM0|52=20130202-08:03:31|58=Appia-vwang-6541_Remote firm id: SLGM did not match expected: SLGM0 or aliases: |10=121|]
Feb 2, 2013 8:03:32 AM: FIXCommConnection: Socket disconnected by peer.
Feb 2, 2013 8:03:32 AM: CommStuff: Sent Logout and disconnected.
Feb 2, 2013 8:03:32 AM: FIXPump: Socket is disconnected.  Throw away: id {SBI} [8=FIX.4.2|9=0133|35=5|34=43|49=SBI0|56=SLGM0|52=20130202-08:03:31|58=Appia-vwang-6541_Remote firm id: SLGM did not match expected: SLGM0 or aliases: |10=121|]
Feb 2, 2013 8:04:00 AM: CommProcessor_SBI: Connecting to SBI...
Feb 2, 2013 8:04:00 AM: FIXCommConnection: Trying socket connection to SBI at 127.0.0.1:7200
Feb 2, 2013 8:04:00 AM: CommStuff: Connection to SBI accepted
Feb 2, 2013 8:04:00 AM: CommStuff: Sending data on id {SBI} [8=FIX.4.0|9=0060|35=A|34=28|49=SLGM|56=SBI|52=20130202-08:04:00|98=0|108=100|10=248|]
Feb 2, 2013 8:04:00 AM: FixPump_SBI: Received data on id {SBI} [8=FIX.4.2|9=0128|35=3|34=44|49=SBI0|56=SLGM0|52=20130202-08:04:00|45=28|373=9|58=Remote firm id: SLGM did not match expected: SLGM0 or aliases: |10=007|]
Feb 2, 2013 8:04:00 AM: CommStuff: Sending data on id {SBI} [8=FIX.4.0|9=0072|35=3|34=29|49=SLGM|56=SBI|52=20130202-08:04:00|45=44|58=Expected Logon.|10=224|]
Feb 2, 2013 8:04:01 AM: FixPump_SBI: Received data on id {SBI} [8=FIX.4.2|9=0133|35=5|34=45|49=SBI0|56=SLGM0|52=20130202-08:04:01|58=Appia-vwang-6541_Remote firm id: SLGM did not match expected: SLGM0 or aliases: |10=121|]
Feb 2, 2013 8:04:01 AM: CommStuff: Sending data on id {SBI} [8=FIX.4.0|9=0083|35=5|34=30|49=SLGM|56=SBI|52=20130202-08:04:01|58=Appia-vwang-6541_Expected Logon.|10=101|]
Feb 2, 2013 8:04:02 AM: CommStuff: Sent Logout and disconnected.
Feb 2, 2013 8:04:02 AM: CommStuff: Connection to SBI is down
Feb 2, 2013 8:04:02 AM: FIXPump: Socket is disconnected.  Throw away: id {SBI} [8=FIX.4.2|9=0133|35=5|34=45|49=SBI0|56=SLGM0|52=20130202-08:04:01|58=Appia-vwang-6541_Remote firm id: SLGM did not match expected: SLGM0 or aliases: |10=121|]
Feb 2, 2013 8:04:03 AM: CommStuff: Socket Connection Terminated
Feb 2, 2013 8:04:03 AM: FIXCommConnection: Socket disconnected.
Feb 2, 2013 8:04:30 AM: CommProcessor_SBI: Connecting to SBI...
Feb 2, 2013 8:04:30 AM: FIXCommConnection: Trying socket connection to SBI at 127.0.0.1:7200
Feb 2, 2013 8:04:30 AM: CommStuff: Connection to SBI accepted
Feb 2, 2013 8:04:30 AM: CommStuff: Sending data on id {SBI} [8=FIX.4.0|9=0060|35=A|34=31|49=SLGM|56=SBI|52=20130202-08:04:30|98=0|108=100|10=245|]
Feb 2, 2013 8:04:30 AM: FixPump_SBI: Received data on id {SBI} [8=FIX.4.2|9=0128|35=3|34=46|49=SBI0|56=SLGM0|52=20130202-08:04:30|45=31|373=9|58=Remote firm id: SLGM did not match expected: SLGM0 or aliases: |10=006|]
Feb 2, 2013 8:04:30 AM: CommStuff: Sending data on id {SBI} [8=FIX.4.0|9=0072|35=3|34=32|49=SLGM|56=SBI|52=20130202-08:04:30|45=46|58=Expected Logon.|10=223|]
Feb 2, 2013 8:04:31 AM: CommStuff: Sending data on id {SBI} [8=FIX.4.0|9=0083|35=5|34=33|49=SLGM|56=SBI|52=20130202-08:04:31|58=Appia-vwang-6541_Expected Logon.|10=107|]
Feb 2, 2013 8:04:31 AM: FixPump_SBI: Received data on id {SBI} [8=FIX.4.2|9=0133|35=5|34=47|49=SBI0|56=SLGM0|52=20130202-08:04:31|58=Appia-vwang-6541_Remote firm id: SLGM did not match expected: SLGM0 or aliases: |10=126|]
Feb 2, 2013 8:04:32 AM: CommStuff: Sent Logout and disconnected.
Feb 2, 2013 8:04:32 AM: FIXCommConnection: Socket disconnected by peer.
Feb 2, 2013 8:04:32 AM: FIXPump: Socket is disconnected.  Throw away: id {SBI} [8=FIX.4.2|9=0133|35=5|34=47|49=SBI0|56=SLGM0|52=20130202-08:04:31|58=Appia-vwang-6541_Remote firm id: SLGM did not match expected: SLGM0 or aliases: |10=126|]
Feb 2, 2013 8:05:00 AM: CommProcessor_SBI: Connecting to SBI...
Feb 2, 2013 8:05:00 AM: FIXCommConnection: Trying socket connection to SBI at 127.0.0.1:7200
Feb 2, 2013 8:05:00 AM: CommStuff: Connection to SBI accepted
Feb 2, 2013 8:05:00 AM: CommStuff: Sending data on id {SBI} [8=FIX.4.0|9=0060|35=A|34=34|49=SLGM|56=SBI|52=20130202-08:05:00|98=0|108=100|10=246|]
Feb 2, 2013 8:05:00 AM: FixPump_SBI: Received data on id {SBI} [8=FIX.4.2|9=0128|35=3|34=48|49=SBI0|56=SLGM0|52=20130202-08:05:00|45=34|373=9|58=Remote firm id: SLGM did not match expected: SLGM0 or aliases: |10=009|]
Feb 2, 2013 8:05:00 AM: CommStuff: Sending data on id {SBI} [8=FIX.4.0|9=0072|35=3|34=35|49=SLGM|56=SBI|52=20130202-08:05:00|45=48|58=Expected Logon.|10=226|]
Feb 2, 2013 8:05:01 AM: CommStuff: Sending data on id {SBI} [8=FIX.4.0|9=0083|35=5|34=36|49=SLGM|56=SBI|52=20130202-08:05:01|58=Appia-vwang-6541_Expected Logon.|10=108|]
Feb 2, 2013 8:05:01 AM: FixPump_SBI: Received data on id {SBI} [8=FIX.4.2|9=0133|35=5|34=49|49=SBI0|56=SLGM0|52=20130202-08:05:01|58=Appia-vwang-6541_Remote firm id: SLGM did not match expected: SLGM0 or aliases: |10=126|]
Feb 2, 2013 8:05:02 AM: CommStuff: Sent Logout and disconnected.
Feb 2, 2013 8:05:02 AM: CommStuff: Connection to SBI is down
Feb 2, 2013 8:05:02 AM: FIXCommConnection: Socket disconnected by peer.
Feb 2, 2013 8:05:02 AM: FIXPump: Socket is disconnected.  Throw away: id {SBI} [8=FIX.4.2|9=0133|35=5|34=49|49=SBI0|56=SLGM0|52=20130202-08:05:01|58=Appia-vwang-6541_Remote firm id: SLGM did not match expected: SLGM0 or aliases: |10=126|]
Feb 2, 2013 8:05:30 AM: CommProcessor_SBI: Connecting to SBI...
Feb 2, 2013 8:05:30 AM: FIXCommConnection: Trying socket connection to SBI at 127.0.0.1:7200
Feb 2, 2013 8:05:30 AM: CommStuff: Connection to SBI accepted
Feb 2, 2013 8:05:30 AM: CommStuff: Sending data on id {SBI} [8=FIX.4.0|9=0060|35=A|34=37|49=SLGM|56=SBI|52=20130202-08:05:30|98=0|108=100|10=252|]
Feb 2, 2013 8:05:30 AM: FixPump_SBI: Received data on id {SBI} [8=FIX.4.2|9=0128|35=3|34=50|49=SBI0|56=SLGM0|52=20130202-08:05:30|45=37|373=9|58=Remote firm id: SLGM did not match expected: SLGM0 or aliases: |10=008|]
Feb 2, 2013 8:05:30 AM: CommStuff: Sending data on id {SBI} [8=FIX.4.0|9=0072|35=3|34=38|49=SLGM|56=SBI|52=20130202-08:05:30|45=50|58=Expected Logon.|10=225|]
Feb 2, 2013 8:05:31 AM: CommStuff: Sending data on id {SBI} [8=FIX.4.0|9=0083|35=5|34=39|49=SLGM|56=SBI|52=20130202-08:05:31|58=Appia-vwang-6541_Expected Logon.|10=114|]
Feb 2, 2013 8:05:31 AM: FixPump_SBI: Received data on id {SBI} [8=FIX.4.2|9=0133|35=5|34=51|49=SBI0|56=SLGM0|52=20130202-08:05:31|58=Appia-vwang-6541_Remote firm id: SLGM did not match expected: SLGM0 or aliases: |10=122|]
Feb 2, 2013 8:05:32 AM: CommStuff: Sent Logout and disconnected.
Feb 2, 2013 8:05:32 AM: CommStuff: Connection to SBI is down
Feb 2, 2013 8:05:32 AM: FIXPump: Socket is disconnected.  Throw away: id {SBI} [8=FIX.4.2|9=0133|35=5|34=51|49=SBI0|56=SLGM0|52=20130202-08:05:31|58=Appia-vwang-6541_Remote firm id: SLGM did not match expected: SLGM0 or aliases: |10=122|]
Feb 2, 2013 8:05:33 AM: CommStuff: Socket Connection Terminated
Feb 2, 2013 8:05:33 AM: FIXCommConnection: Socket disconnected.
Feb 2, 2013 8:06:00 AM: CommProcessor_SBI: Connecting to SBI...
Feb 2, 2013 8:06:00 AM: FIXCommConnection: Trying socket connection to SBI at 127.0.0.1:7200
Feb 2, 2013 8:06:00 AM: CommStuff: Connection to SBI accepted
Feb 2, 2013 8:06:00 AM: CommStuff: Sending data on id {SBI} [8=FIX.4.0|9=0060|35=A|34=40|49=SLGM|56=SBI|52=20130202-08:06:00|98=0|108=100|10=244|]
Feb 2, 2013 8:06:00 AM: FixPump_SBI: Received data on id {SBI} [8=FIX.4.2|9=0128|35=3|34=52|49=SBI0|56=SLGM0|52=20130202-08:06:00|45=40|373=9|58=Remote firm id: SLGM did not match expected: SLGM0 or aliases: |10=002|]
Feb 2, 2013 8:06:00 AM: CommStuff: Sending data on id {SBI} [8=FIX.4.0|9=0072|35=3|34=41|49=SLGM|56=SBI|52=20130202-08:06:00|45=52|58=Expected Logon.|10=219|]
Feb 2, 2013 8:06:01 AM: CommStuff: Sending data on id {SBI} [8=FIX.4.0|9=0083|35=5|34=42|49=SLGM|56=SBI|52=20130202-08:06:01|58=Appia-vwang-6541_Expected Logon.|10=106|]
Feb 2, 2013 8:06:01 AM: FixPump_SBI: Received data on id {SBI} [8=FIX.4.2|9=0133|35=5|34=53|49=SBI0|56=SLGM0|52=20130202-08:06:01|58=Appia-vwang-6541_Remote firm id: SLGM did not match expected: SLGM0 or aliases: |10=122|]
Feb 2, 2013 8:06:02 AM: CommStuff: Sent Logout and disconnected.
Feb 2, 2013 8:06:02 AM: CommStuff: Connection to SBI is down
Feb 2, 2013 8:06:02 AM: FIXPump: Socket is disconnected.  Throw away: id {SBI} [8=FIX.4.2|9=0133|35=5|34=53|49=SBI0|56=SLGM0|52=20130202-08:06:01|58=Appia-vwang-6541_Remote firm id: SLGM did not match expected: SLGM0 or aliases: |10=122|]
Feb 2, 2013 8:06:03 AM: CommStuff: Socket Connection Terminated
Feb 2, 2013 8:06:03 AM: FIXCommConnection: Socket disconnected.
Feb 2, 2013 8:06:30 AM: CommProcessor_SBI: Connecting to SBI...
Feb 2, 2013 8:06:30 AM: FIXCommConnection: Trying socket connection to SBI at 127.0.0.1:7200
Feb 2, 2013 8:06:30 AM: CommStuff: Connection to SBI accepted
Feb 2, 2013 8:06:30 AM: CommStuff: Sending data on id {SBI} [8=FIX.4.0|9=0060|35=A|34=43|49=SLGM|56=SBI|52=20130202-08:06:30|98=0|108=100|10=250|]
Feb 2, 2013 8:06:30 AM: FixPump_SBI: Received data on id {SBI} [8=FIX.4.2|9=0128|35=3|34=54|49=SBI0|56=SLGM0|52=20130202-08:06:30|45=43|373=9|58=Remote firm id: SLGM did not match expected: SLGM0 or aliases: |10=010|]
Feb 2, 2013 8:06:30 AM: CommStuff: Sending data on id {SBI} [8=FIX.4.0|9=0072|35=3|34=44|49=SLGM|56=SBI|52=20130202-08:06:30|45=54|58=Expected Logon.|10=227|]
Feb 2, 2013 8:06:31 AM: CommStuff: Sending data on id {SBI} [8=FIX.4.0|9=0083|35=5|34=45|49=SLGM|56=SBI|52=20130202-08:06:31|58=Appia-vwang-6541_Expected Logon.|10=112|]
Feb 2, 2013 8:06:31 AM: FixPump_SBI: Received data on id {SBI} [8=FIX.4.2|9=0133|35=5|34=55|49=SBI0|56=SLGM0|52=20130202-08:06:31|58=Appia-vwang-6541_Remote firm id: SLGM did not match expected: SLGM0 or aliases: |10=127|]
Feb 2, 2013 8:06:32 AM: CommStuff: Sent Logout and disconnected.
Feb 2, 2013 8:06:32 AM: FIXCommConnection: Socket disconnected by peer.
Feb 2, 2013 8:06:32 AM: FIXPump: Socket is disconnected.  Throw away: id {SBI} [8=FIX.4.2|9=0133|35=5|34=55|49=SBI0|56=SLGM0|52=20130202-08:06:31|58=Appia-vwang-6541_Remote firm id: SLGM did not match expected: SLGM0 or aliases: |10=127|]
Feb 2, 2013 8:07:00 AM: CommProcessor_SBI: Connecting to SBI...
Feb 2, 2013 8:07:00 AM: FIXCommConnection: Trying socket connection to SBI at 127.0.0.1:7200
Feb 2, 2013 8:07:00 AM: CommStuff: Connection to SBI accepted
Feb 2, 2013 8:07:00 AM: CommStuff: Sending data on id {SBI} [8=FIX.4.0|9=0060|35=A|34=46|49=SLGM|56=SBI|52=20130202-08:07:00|98=0|108=100|10=251|]
Feb 2, 2013 8:07:00 AM: FixPump_SBI: Received data on id {SBI} [8=FIX.4.2|9=0128|35=3|34=56|49=SBI0|56=SLGM0|52=20130202-08:07:00|45=46|373=9|58=Remote firm id: SLGM did not match expected: SLGM0 or aliases: |10=013|]
Feb 2, 2013 8:07:00 AM: CommStuff: Sending data on id {SBI} [8=FIX.4.0|9=0072|35=3|34=47|49=SLGM|56=SBI|52=20130202-08:07:00|45=56|58=Expected Logon.|10=230|]
Feb 2, 2013 8:07:01 AM: CommStuff: Sending data on id {SBI} [8=FIX.4.0|9=0083|35=5|34=48|49=SLGM|56=SBI|52=20130202-08:07:01|58=Appia-vwang-6541_Expected Logon.|10=113|]
Feb 2, 2013 8:07:01 AM: FixPump_SBI: Received data on id {SBI} [8=FIX.4.2|9=0133|35=5|34=57|49=SBI0|56=SLGM0|52=20130202-08:07:01|58=Appia-vwang-6541_Remote firm id: SLGM did not match expected: SLGM0 or aliases: |10=127|]
Feb 2, 2013 8:07:02 AM: CommStuff: Sent Logout and disconnected.
Feb 2, 2013 8:07:02 AM: CommStuff: Connection to SBI is down
Feb 2, 2013 8:07:02 AM: FIXCommConnection: Socket disconnected by peer.
Feb 2, 2013 8:07:02 AM: FIXPump: Socket is disconnected.  Throw away: id {SBI} [8=FIX.4.2|9=0133|35=5|34=57|49=SBI0|56=SLGM0|52=20130202-08:07:01|58=Appia-vwang-6541_Remote firm id: SLGM did not match expected: SLGM0 or aliases: |10=127|]
Feb 2, 2013 8:07:30 AM: CommProcessor_SBI: Connecting to SBI...
Feb 2, 2013 8:07:30 AM: FIXCommConnection: Trying socket connection to SBI at 127.0.0.1:7200
Feb 2, 2013 8:07:30 AM: CommStuff: Connection to SBI accepted
Feb 2, 2013 8:07:30 AM: CommStuff: Sending data on id {SBI} [8=FIX.4.0|9=0060|35=A|34=49|49=SLGM|56=SBI|52=20130202-08:07:30|98=0|108=100|10=001|]
Feb 2, 2013 8:07:30 AM: FixPump_SBI: Received data on id {SBI} [8=FIX.4.2|9=0128|35=3|34=58|49=SBI0|56=SLGM0|52=20130202-08:07:29|45=49|373=9|58=Remote firm id: SLGM did not match expected: SLGM0 or aliases: |10=029|]
Feb 2, 2013 8:07:30 AM: CommStuff: Sending data on id {SBI} [8=FIX.4.0|9=0072|35=3|34=50|49=SLGM|56=SBI|52=20130202-08:07:30|45=58|58=Expected Logon.|10=229|]
Feb 2, 2013 8:07:31 AM: CommStuff: Sending data on id {SBI} [8=FIX.4.0|9=0083|35=5|34=51|49=SLGM|56=SBI|52=20130202-08:07:31|58=Appia-vwang-6541_Expected Logon.|10=110|]
Feb 2, 2013 8:07:31 AM: FixPump_SBI: Received data on id {SBI} [8=FIX.4.2|9=0133|35=5|34=59|49=SBI0|56=SLGM0|52=20130202-08:07:30|58=Appia-vwang-6541_Remote firm id: SLGM did not match expected: SLGM0 or aliases: |10=131|]
Feb 2, 2013 8:07:32 AM: CommStuff: Sent Logout and disconnected.
Feb 2, 2013 8:07:32 AM: CommStuff: Connection to SBI is down
Feb 2, 2013 8:07:32 AM: FIXPump: Socket is disconnected.  Throw away: id {SBI} [8=FIX.4.2|9=0133|35=5|34=59|49=SBI0|56=SLGM0|52=20130202-08:07:30|58=Appia-vwang-6541_Remote firm id: SLGM did not match expected: SLGM0 or aliases: |10=131|]
Feb 2, 2013 8:07:33 AM: CommStuff: Socket Connection Terminated
Feb 2, 2013 8:07:33 AM: FIXCommConnection: Socket disconnected.
Feb 2, 2013 8:08:00 AM: CommProcessor_SBI: Connecting to SBI...
Feb 2, 2013 8:08:00 AM: FIXCommConnection: Trying socket connection to SBI at 127.0.0.1:7200
Feb 2, 2013 8:08:00 AM: CommStuff: Connection to SBI accepted
Feb 2, 2013 8:08:00 AM: CommStuff: Sending data on id {SBI} [8=FIX.4.0|9=0060|35=A|34=52|49=SLGM|56=SBI|52=20130202-08:08:00|98=0|108=100|10=249|]
Feb 2, 2013 8:08:00 AM: FixPump_SBI: Received data on id {SBI} [8=FIX.4.2|9=0128|35=3|34=60|49=SBI0|56=SLGM0|52=20130202-08:07:59|45=52|373=9|58=Remote firm id: SLGM did not match expected: SLGM0 or aliases: |10=019|]
Feb 2, 2013 8:08:00 AM: CommStuff: Sending data on id {SBI} [8=FIX.4.0|9=0072|35=3|34=53|49=SLGM|56=SBI|52=20130202-08:08:00|45=60|58=Expected Logon.|10=223|]
Feb 2, 2013 8:08:01 AM: CommStuff: Sending data on id {SBI} [8=FIX.4.0|9=0083|35=5|34=54|49=SLGM|56=SBI|52=20130202-08:08:01|58=Appia-vwang-6541_Expected Logon.|10=111|]
Feb 2, 2013 8:08:01 AM: FixPump_SBI: Received data on id {SBI} [8=FIX.4.2|9=0133|35=5|34=61|49=SBI0|56=SLGM0|52=20130202-08:08:00|58=Appia-vwang-6541_Remote firm id: SLGM did not match expected: SLGM0 or aliases: |10=122|]
Feb 2, 2013 8:08:02 AM: CommStuff: Sent Logout and disconnected.
Feb 2, 2013 8:08:02 AM: FIXCommConnection: Socket disconnected by peer.
Feb 2, 2013 8:08:02 AM: FIXPump: Socket is disconnected.  Throw away: id {SBI} [8=FIX.4.2|9=0133|35=5|34=61|49=SBI0|56=SLGM0|52=20130202-08:08:00|58=Appia-vwang-6541_Remote firm id: SLGM did not match expected: SLGM0 or aliases: |10=122|]
Feb 2, 2013 8:08:30 AM: CommProcessor_SBI: Connecting to SBI...
Feb 2, 2013 8:08:30 AM: FIXCommConnection: Trying socket connection to SBI at 127.0.0.1:7200
Feb 2, 2013 8:08:30 AM: CommStuff: Connection to SBI accepted
Feb 2, 2013 8:08:30 AM: CommStuff: Sending data on id {SBI} [8=FIX.4.0|9=0060|35=A|34=55|49=SLGM|56=SBI|52=20130202-08:08:30|98=0|108=100|10=255|]
Feb 2, 2013 8:08:30 AM: FixPump_SBI: Received data on id {SBI} [8=FIX.4.2|9=0128|35=3|34=62|49=SBI0|56=SLGM0|52=20130202-08:08:29|45=55|373=9|58=Remote firm id: SLGM did not match expected: SLGM0 or aliases: |10=022|]
Feb 2, 2013 8:08:30 AM: CommStuff: Sending data on id {SBI} [8=FIX.4.0|9=0072|35=3|34=56|49=SLGM|56=SBI|52=20130202-08:08:30|45=62|58=Expected Logon.|10=231|]
Feb 2, 2013 8:08:31 AM: CommStuff: Sending data on id {SBI} [8=FIX.4.0|9=0083|35=5|34=57|49=SLGM|56=SBI|52=20130202-08:08:31|58=Appia-vwang-6541_Expected Logon.|10=117|]
Feb 2, 2013 8:08:31 AM: FixPump_SBI: Received data on id {SBI} [8=FIX.4.2|9=0133|35=5|34=63|49=SBI0|56=SLGM0|52=20130202-08:08:30|58=Appia-vwang-6541_Remote firm id: SLGM did not match expected: SLGM0 or aliases: |10=127|]
Feb 2, 2013 8:08:32 AM: CommStuff: Sent Logout and disconnected.
Feb 2, 2013 8:08:32 AM: FIXCommConnection: Socket disconnected by peer.
Feb 2, 2013 8:08:32 AM: CommStuff: Connection to SBI is down
Feb 2, 2013 8:08:32 AM: FIXPump: Socket is disconnected.  Throw away: id {SBI} [8=FIX.4.2|9=0133|35=5|34=63|49=SBI0|56=SLGM0|52=20130202-08:08:30|58=Appia-vwang-6541_Remote firm id: SLGM did not match expected: SLGM0 or aliases: |10=127|]
Feb 2, 2013 8:09:00 AM: CommProcessor_SBI: Connecting to SBI...
Feb 2, 2013 8:09:00 AM: FIXCommConnection: Trying socket connection to SBI at 127.0.0.1:7200
Feb 2, 2013 8:09:00 AM: CommStuff: Connection to SBI accepted
Feb 2, 2013 8:09:00 AM: CommStuff: Sending data on id {SBI} [8=FIX.4.0|9=0060|35=A|34=58|49=SLGM|56=SBI|52=20130202-08:09:00|98=0|108=100|10=000|]
Feb 2, 2013 8:09:00 AM: FixPump_SBI: Received data on id {SBI} [8=FIX.4.2|9=0128|35=3|34=64|49=SBI0|56=SLGM0|52=20130202-08:08:59|45=58|373=9|58=Remote firm id: SLGM did not match expected: SLGM0 or aliases: |10=030|]
Feb 2, 2013 8:09:00 AM: CommStuff: Sending data on id {SBI} [8=FIX.4.0|9=0072|35=3|34=59|49=SLGM|56=SBI|52=20130202-08:09:00|45=64|58=Expected Logon.|10=234|]
Feb 2, 2013 8:09:01 AM: CommStuff: Sending data on id {SBI} [8=FIX.4.0|9=0083|35=5|34=60|49=SLGM|56=SBI|52=20130202-08:09:01|58=Appia-vwang-6541_Expected Logon.|10=109|]
Feb 2, 2013 8:09:01 AM: FixPump_SBI: Received data on id {SBI} [8=FIX.4.2|9=0133|35=5|34=65|49=SBI0|56=SLGM0|52=20130202-08:09:00|58=Appia-vwang-6541_Remote firm id: SLGM did not match expected: SLGM0 or aliases: |10=127|]
Feb 2, 2013 8:09:02 AM: CommStuff: Sent Logout and disconnected.
Feb 2, 2013 8:09:02 AM: CommStuff: Connection to SBI is down
Feb 2, 2013 8:09:02 AM: FIXPump: Socket is disconnected.  Throw away: id {SBI} [8=FIX.4.2|9=0133|35=5|34=65|49=SBI0|56=SLGM0|52=20130202-08:09:00|58=Appia-vwang-6541_Remote firm id: SLGM did not match expected: SLGM0 or aliases: |10=127|]
Feb 2, 2013 8:09:03 AM: CommStuff: Socket Connection Terminated
Feb 2, 2013 8:09:03 AM: FIXCommConnection: Socket disconnected.
Feb 2, 2013 8:09:30 AM: CommProcessor_SBI: Connecting to SBI...
Feb 2, 2013 8:09:30 AM: FIXCommConnection: Trying socket connection to SBI at 127.0.0.1:7200
Feb 2, 2013 8:09:30 AM: CommStuff: Connection to SBI accepted
Feb 2, 2013 8:09:30 AM: CommStuff: Sending data on id {SBI} [8=FIX.4.0|9=0060|35=A|34=61|49=SLGM|56=SBI|52=20130202-08:09:30|98=0|108=100|10=253|]
Feb 2, 2013 8:09:30 AM: FixPump_SBI: Received data on id {SBI} [8=FIX.4.2|9=0128|35=3|34=66|49=SBI0|56=SLGM0|52=20130202-08:09:29|45=61|373=9|58=Remote firm id: SLGM did not match expected: SLGM0 or aliases: |10=024|]
Feb 2, 2013 8:09:30 AM: CommStuff: Sending data on id {SBI} [8=FIX.4.0|9=0072|35=3|34=62|49=SLGM|56=SBI|52=20130202-08:09:30|45=66|58=Expected Logon.|10=233|]
Feb 2, 2013 8:09:31 AM: CommStuff: Sending data on id {SBI} [8=FIX.4.0|9=0083|35=5|34=63|49=SLGM|56=SBI|52=20130202-08:09:31|58=Appia-vwang-6541_Expected Logon.|10=115|]
Feb 2, 2013 8:09:31 AM: FixPump_SBI: Received data on id {SBI} [8=FIX.4.2|9=0133|35=5|34=67|49=SBI0|56=SLGM0|52=20130202-08:09:30|58=Appia-vwang-6541_Remote firm id: SLGM did not match expected: SLGM0 or aliases: |10=132|]
Feb 2, 2013 8:09:32 AM: FIXCommConnection: Socket disconnected by peer.
Feb 2, 2013 8:09:32 AM: CommStuff: Sent Logout and disconnected.
Feb 2, 2013 8:09:32 AM: FIXPump: Socket is disconnected.  Throw away: id {SBI} [8=FIX.4.2|9=0133|35=5|34=67|49=SBI0|56=SLGM0|52=20130202-08:09:30|58=Appia-vwang-6541_Remote firm id: SLGM did not match expected: SLGM0 or aliases: |10=132|]
Feb 2, 2013 8:10:00 AM: CommProcessor_SBI: Connecting to SBI...
Feb 2, 2013 8:10:00 AM: FIXCommConnection: Trying socket connection to SBI at 127.0.0.1:7200
Feb 2, 2013 8:10:00 AM: CommStuff: Connection to SBI accepted
Feb 2, 2013 8:10:00 AM: CommStuff: Sending data on id {SBI} [8=FIX.4.0|9=0060|35=A|34=64|49=SLGM|56=SBI|52=20130202-08:10:00|98=0|108=100|10=245|]
Feb 2, 2013 8:10:00 AM: FixPump_SBI: Received data on id {SBI} [8=FIX.4.2|9=0128|35=3|34=68|49=SBI0|56=SLGM0|52=20130202-08:09:59|45=64|373=9|58=Remote firm id: SLGM did not match expected: SLGM0 or aliases: |10=032|]
Feb 2, 2013 8:10:00 AM: CommStuff: Sending data on id {SBI} [8=FIX.4.0|9=0072|35=3|34=65|49=SLGM|56=SBI|52=20130202-08:10:00|45=68|58=Expected Logon.|10=227|]
Feb 2, 2013 8:10:01 AM: CommStuff: Sending data on id {SBI} [8=FIX.4.0|9=0083|35=5|34=66|49=SLGM|56=SBI|52=20130202-08:10:01|58=Appia-vwang-6541_Expected Logon.|10=107|]
Feb 2, 2013 8:10:01 AM: FixPump_SBI: Received data on id {SBI} [8=FIX.4.2|9=0133|35=5|34=69|49=SBI0|56=SLGM0|52=20130202-08:10:00|58=Appia-vwang-6541_Remote firm id: SLGM did not match expected: SLGM0 or aliases: |10=123|]
Feb 2, 2013 8:10:02 AM: CommStuff: Sent Logout and disconnected.
Feb 2, 2013 8:10:02 AM: CommStuff: Connection to SBI is down
Feb 2, 2013 8:10:02 AM: FIXPump: Socket is disconnected.  Throw away: id {SBI} [8=FIX.4.2|9=0133|35=5|34=69|49=SBI0|56=SLGM0|52=20130202-08:10:00|58=Appia-vwang-6541_Remote firm id: SLGM did not match expected: SLGM0 or aliases: |10=123|]
Feb 2, 2013 8:10:02 AM: FIXCommConnection: Socket disconnected.
Feb 2, 2013 8:10:30 AM: CommProcessor_SBI: Connecting to SBI...
Feb 2, 2013 8:10:30 AM: FIXCommConnection: Trying socket connection to SBI at 127.0.0.1:7200
Feb 2, 2013 8:10:30 AM: CommStuff: Connection to SBI accepted
Feb 2, 2013 8:10:30 AM: CommStuff: Sending data on id {SBI} [8=FIX.4.0|9=0060|35=A|34=67|49=SLGM|56=SBI|52=20130202-08:10:30|98=0|108=100|10=251|]
Feb 2, 2013 8:10:30 AM: FixPump_SBI: Received data on id {SBI} [8=FIX.4.2|9=0128|35=3|34=70|49=SBI0|56=SLGM0|52=20130202-08:10:29|45=67|373=9|58=Remote firm id: SLGM did not match expected: SLGM0 or aliases: |10=017|]
Feb 2, 2013 8:10:30 AM: CommStuff: Sending data on id {SBI} [8=FIX.4.0|9=0072|35=3|34=68|49=SLGM|56=SBI|52=20130202-08:10:30|45=70|58=Expected Logon.|10=226|]
Feb 2, 2013 8:10:31 AM: CommStuff: Sending data on id {SBI} [8=FIX.4.0|9=0083|35=5|34=69|49=SLGM|56=SBI|52=20130202-08:10:31|58=Appia-vwang-6541_Expected Logon.|10=113|]
Feb 2, 2013 8:10:31 AM: FixPump_SBI: Received data on id {SBI} [8=FIX.4.2|9=0133|35=5|34=71|49=SBI0|56=SLGM0|52=20130202-08:10:30|58=Appia-vwang-6541_Remote firm id: SLGM did not match expected: SLGM0 or aliases: |10=119|]
Feb 2, 2013 8:10:32 AM: CommStuff: Sent Logout and disconnected.
Feb 2, 2013 8:10:32 AM: FIXCommConnection: Socket disconnected by peer.
Feb 2, 2013 8:10:32 AM: FIXPump: Socket is disconnected.  Throw away: id {SBI} [8=FIX.4.2|9=0133|35=5|34=71|49=SBI0|56=SLGM0|52=20130202-08:10:30|58=Appia-vwang-6541_Remote firm id: SLGM did not match expected: SLGM0 or aliases: |10=119|]
Feb 2, 2013 8:11:00 AM: CommProcessor_SBI: Connecting to SBI...
Feb 2, 2013 8:11:00 AM: FIXCommConnection: Trying socket connection to SBI at 127.0.0.1:7200
Feb 2, 2013 8:11:00 AM: CommStuff: Connection to SBI accepted
Feb 2, 2013 8:11:00 AM: CommStuff: Sending data on id {SBI} [8=FIX.4.0|9=0060|35=A|34=70|49=SLGM|56=SBI|52=20130202-08:11:00|98=0|108=100|10=243|]
Feb 2, 2013 8:11:00 AM: FixPump_SBI: Received data on id {SBI} [8=FIX.4.2|9=0128|35=3|34=72|49=SBI0|56=SLGM0|52=20130202-08:10:59|45=70|373=9|58=Remote firm id: SLGM did not match expected: SLGM0 or aliases: |10=016|]
Feb 2, 2013 8:11:00 AM: CommStuff: Sending data on id {SBI} [8=FIX.4.0|9=0072|35=3|34=71|49=SLGM|56=SBI|52=20130202-08:11:00|45=72|58=Expected Logon.|10=220|]
Feb 2, 2013 8:11:01 AM: CommStuff: Sending data on id {SBI} [8=FIX.4.0|9=0083|35=5|34=72|49=SLGM|56=SBI|52=20130202-08:11:01|58=Appia-vwang-6541_Expected Logon.|10=105|]
Feb 2, 2013 8:11:01 AM: FixPump_SBI: Received data on id {SBI} [8=FIX.4.2|9=0133|35=5|34=73|49=SBI0|56=SLGM0|52=20130202-08:11:00|58=Appia-vwang-6541_Remote firm id: SLGM did not match expected: SLGM0 or aliases: |10=119|]
Feb 2, 2013 8:11:02 AM: CommStuff: Sent Logout and disconnected.
Feb 2, 2013 8:11:02 AM: CommStuff: Connection to SBI is down
Feb 2, 2013 8:11:02 AM: FIXPump: Socket is disconnected.  Throw away: id {SBI} [8=FIX.4.2|9=0133|35=5|34=73|49=SBI0|56=SLGM0|52=20130202-08:11:00|58=Appia-vwang-6541_Remote firm id: SLGM did not match expected: SLGM0 or aliases: |10=119|]
Feb 2, 2013 8:11:03 AM: CommStuff: Socket Connection Terminated
Feb 2, 2013 8:11:03 AM: FIXCommConnection: Socket disconnected.
Feb 2, 2013 8:11:30 AM: CommProcessor_SBI: Connecting to SBI...
Feb 2, 2013 8:11:30 AM: FIXCommConnection: Trying socket connection to SBI at 127.0.0.1:7200
Feb 2, 2013 8:11:30 AM: CommStuff: Connection to SBI accepted
Feb 2, 2013 8:11:30 AM: CommStuff: Sending data on id {SBI} [8=FIX.4.0|9=0060|35=A|34=73|49=SLGM|56=SBI|52=20130202-08:11:30|98=0|108=100|10=249|]
Feb 2, 2013 8:11:30 AM: FixPump_SBI: Received data on id {SBI} [8=FIX.4.2|9=0128|35=3|34=74|49=SBI0|56=SLGM0|52=20130202-08:11:29|45=73|373=9|58=Remote firm id: SLGM did not match expected: SLGM0 or aliases: |10=019|]
Feb 2, 2013 8:11:30 AM: CommStuff: Sending data on id {SBI} [8=FIX.4.0|9=0072|35=3|34=74|49=SLGM|56=SBI|52=20130202-08:11:30|45=74|58=Expected Logon.|10=228|]
Feb 2, 2013 8:11:31 AM: CommStuff: Sending data on id {SBI} [8=FIX.4.0|9=0083|35=5|34=75|49=SLGM|56=SBI|52=20130202-08:11:31|58=Appia-vwang-6541_Expected Logon.|10=111|]
Feb 2, 2013 8:11:31 AM: FixPump_SBI: Received data on id {SBI} [8=FIX.4.2|9=0133|35=5|34=75|49=SBI0|56=SLGM0|52=20130202-08:11:30|58=Appia-vwang-6541_Remote firm id: SLGM did not match expected: SLGM0 or aliases: |10=124|]
Feb 2, 2013 8:11:32 AM: CommStuff: Sent Logout and disconnected.
Feb 2, 2013 8:11:32 AM: CommStuff: Connection to SBI is down
Feb 2, 2013 8:11:32 AM: FIXPump: Socket is disconnected.  Throw away: id {SBI} [8=FIX.4.2|9=0133|35=5|34=75|49=SBI0|56=SLGM0|52=20130202-08:11:30|58=Appia-vwang-6541_Remote firm id: SLGM did not match expected: SLGM0 or aliases: |10=124|]
Feb 2, 2013 8:11:32 AM: FIXCommConnection: Socket disconnected.
Feb 2, 2013 8:12:00 AM: CommProcessor_SBI: Connecting to SBI...
Feb 2, 2013 8:12:00 AM: FIXCommConnection: Trying socket connection to SBI at 127.0.0.1:7200
Feb 2, 2013 8:12:00 AM: CommStuff: Connection to SBI accepted
Feb 2, 2013 8:12:00 AM: CommStuff: Sending data on id {SBI} [8=FIX.4.0|9=0060|35=A|34=76|49=SLGM|56=SBI|52=20130202-08:12:00|98=0|108=100|10=250|]
Feb 2, 2013 8:12:00 AM: FixPump_SBI: Received data on id {SBI} [8=FIX.4.2|9=0128|35=3|34=76|49=SBI0|56=SLGM0|52=20130202-08:11:59|45=76|373=9|58=Remote firm id: SLGM did not match expected: SLGM0 or aliases: |10=027|]
Feb 2, 2013 8:12:00 AM: CommStuff: Sending data on id {SBI} [8=FIX.4.0|9=0072|35=3|34=77|49=SLGM|56=SBI|52=20130202-08:12:00|45=76|58=Expected Logon.|10=231|]
Feb 2, 2013 8:12:01 AM: CommStuff: Sending data on id {SBI} [8=FIX.4.0|9=0083|35=5|34=78|49=SLGM|56=SBI|52=20130202-08:12:01|58=Appia-vwang-6541_Expected Logon.|10=112|]
Feb 2, 2013 8:12:01 AM: FixPump_SBI: Received data on id {SBI} [8=FIX.4.2|9=0133|35=5|34=77|49=SBI0|56=SLGM0|52=20130202-08:12:00|58=Appia-vwang-6541_Remote firm id: SLGM did not match expected: SLGM0 or aliases: |10=124|]
Feb 2, 2013 8:12:02 AM: CommStuff: Sent Logout and disconnected.
Feb 2, 2013 8:12:02 AM: FIXCommConnection: Socket disconnected by peer.
Feb 2, 2013 8:12:02 AM: FIXPump: Socket is disconnected.  Throw away: id {SBI} [8=FIX.4.2|9=0133|35=5|34=77|49=SBI0|56=SLGM0|52=20130202-08:12:00|58=Appia-vwang-6541_Remote firm id: SLGM did not match expected: SLGM0 or aliases: |10=124|]
Feb 2, 2013 8:12:30 AM: CommProcessor_SBI: Connecting to SBI...
Feb 2, 2013 8:12:30 AM: FIXCommConnection: Trying socket connection to SBI at 127.0.0.1:7200
Feb 2, 2013 8:12:30 AM: CommStuff: Connection to SBI accepted
Feb 2, 2013 8:12:30 AM: CommStuff: Sending data on id {SBI} [8=FIX.4.0|9=0060|35=A|34=79|49=SLGM|56=SBI|52=20130202-08:12:30|98=0|108=100|10=000|]
Feb 2, 2013 8:12:30 AM: FixPump_SBI: Received data on id {SBI} [8=FIX.4.2|9=0128|35=3|34=78|49=SBI0|56=SLGM0|52=20130202-08:12:29|45=79|373=9|58=Remote firm id: SLGM did not match expected: SLGM0 or aliases: |10=030|]
Feb 2, 2013 8:12:30 AM: CommStuff: Sending data on id {SBI} [8=FIX.4.0|9=0072|35=3|34=80|49=SLGM|56=SBI|52=20130202-08:12:30|45=78|58=Expected Logon.|10=230|]
Feb 2, 2013 8:12:31 AM: CommStuff: Sending data on id {SBI} [8=FIX.4.0|9=0083|35=5|34=81|49=SLGM|56=SBI|52=20130202-08:12:31|58=Appia-vwang-6541_Expected Logon.|10=109|]
Feb 2, 2013 8:12:31 AM: FixPump_SBI: Received data on id {SBI} [8=FIX.4.2|9=0133|35=5|34=79|49=SBI0|56=SLGM0|52=20130202-08:12:30|58=Appia-vwang-6541_Remote firm id: SLGM did not match expected: SLGM0 or aliases: |10=129|]
Feb 2, 2013 8:12:32 AM: FIXCommConnection: Socket disconnected by peer.
Feb 2, 2013 8:12:32 AM: CommStuff: Sent Logout and disconnected.
Feb 2, 2013 8:12:32 AM: FIXPump: Socket is disconnected.  Throw away: id {SBI} [8=FIX.4.2|9=0133|35=5|34=79|49=SBI0|56=SLGM0|52=20130202-08:12:30|58=Appia-vwang-6541_Remote firm id: SLGM did not match expected: SLGM0 or aliases: |10=129|]
Feb 2, 2013 8:13:00 AM: CommProcessor_SBI: Connecting to SBI...
Feb 2, 2013 8:13:00 AM: FIXCommConnection: Trying socket connection to SBI at 127.0.0.1:7200
Feb 2, 2013 8:13:00 AM: CommStuff: Connection to SBI accepted
Feb 2, 2013 8:13:00 AM: CommStuff: Sending data on id {SBI} [8=FIX.4.0|9=0060|35=A|34=82|49=SLGM|56=SBI|52=20130202-08:13:00|98=0|108=100|10=248|]
Feb 2, 2013 8:13:00 AM: FixPump_SBI: Received data on id {SBI} [8=FIX.4.2|9=0128|35=3|34=80|49=SBI0|56=SLGM0|52=20130202-08:12:59|45=82|373=9|58=Remote firm id: SLGM did not match expected: SLGM0 or aliases: |10=020|]
Feb 2, 2013 8:13:00 AM: CommStuff: Sending data on id {SBI} [8=FIX.4.0|9=0072|35=3|34=83|49=SLGM|56=SBI|52=20130202-08:13:00|45=80|58=Expected Logon.|10=224|]
Feb 2, 2013 8:13:01 AM: CommStuff: Sending data on id {SBI} [8=FIX.4.0|9=0083|35=5|34=84|49=SLGM|56=SBI|52=20130202-08:13:01|58=Appia-vwang-6541_Expected Logon.|10=110|]
Feb 2, 2013 8:13:01 AM: FixPump_SBI: Received data on id {SBI} [8=FIX.4.2|9=0133|35=5|34=81|49=SBI0|56=SLGM0|52=20130202-08:13:00|58=Appia-vwang-6541_Remote firm id: SLGM did not match expected: SLGM0 or aliases: |10=120|]
Feb 2, 2013 8:13:02 AM: CommStuff: Sent Logout and disconnected.
Feb 2, 2013 8:13:02 AM: CommStuff: Connection to SBI is down
Feb 2, 2013 8:13:02 AM: FIXPump: Socket is disconnected.  Throw away: id {SBI} [8=FIX.4.2|9=0133|35=5|34=81|49=SBI0|56=SLGM0|52=20130202-08:13:00|58=Appia-vwang-6541_Remote firm id: SLGM did not match expected: SLGM0 or aliases: |10=120|]
Feb 2, 2013 8:13:03 AM: CommStuff: Socket Connection Terminated
Feb 2, 2013 8:13:03 AM: FIXCommConnection: Socket disconnected.
Feb 2, 2013 8:13:30 AM: CommProcessor_SBI: Connecting to SBI...
Feb 2, 2013 8:13:30 AM: FIXCommConnection: Trying socket connection to SBI at 127.0.0.1:7200
Feb 2, 2013 8:13:30 AM: CommStuff: Connection to SBI accepted
Feb 2, 2013 8:13:30 AM: CommStuff: Sending data on id {SBI} [8=FIX.4.0|9=0060|35=A|34=85|49=SLGM|56=SBI|52=20130202-08:13:30|98=0|108=100|10=254|]
Feb 2, 2013 8:13:30 AM: FixPump_SBI: Received data on id {SBI} [8=FIX.4.2|9=0128|35=3|34=82|49=SBI0|56=SLGM0|52=20130202-08:13:29|45=85|373=9|58=Remote firm id: SLGM did not match expected: SLGM0 or aliases: |10=023|]
Feb 2, 2013 8:13:30 AM: CommStuff: Sending data on id {SBI} [8=FIX.4.0|9=0072|35=3|34=86|49=SLGM|56=SBI|52=20130202-08:13:30|45=82|58=Expected Logon.|10=232|]
Feb 2, 2013 8:13:31 AM: CommStuff: Sending data on id {SBI} [8=FIX.4.0|9=0083|35=5|34=87|49=SLGM|56=SBI|52=20130202-08:13:31|58=Appia-vwang-6541_Expected Logon.|10=116|]
Feb 2, 2013 8:13:31 AM: FixPump_SBI: Received data on id {SBI} [8=FIX.4.2|9=0133|35=5|34=83|49=SBI0|56=SLGM0|52=20130202-08:13:30|58=Appia-vwang-6541_Remote firm id: SLGM did not match expected: SLGM0 or aliases: |10=125|]
Feb 2, 2013 8:13:32 AM: CommStuff: Sent Logout and disconnected.
Feb 2, 2013 8:13:32 AM: FIXCommConnection: Socket disconnected by peer.
Feb 2, 2013 8:13:32 AM: FIXPump: Socket is disconnected.  Throw away: id {SBI} [8=FIX.4.2|9=0133|35=5|34=83|49=SBI0|56=SLGM0|52=20130202-08:13:30|58=Appia-vwang-6541_Remote firm id: SLGM did not match expected: SLGM0 or aliases: |10=125|]
Feb 2, 2013 8:14:00 AM: CommProcessor_SBI: Connecting to SBI...
Feb 2, 2013 8:14:00 AM: FIXCommConnection: Trying socket connection to SBI at 127.0.0.1:7200
Feb 2, 2013 8:14:00 AM: CommStuff: Connection to SBI accepted
Feb 2, 2013 8:14:00 AM: CommStuff: Sending data on id {SBI} [8=FIX.4.0|9=0060|35=A|34=88|49=SLGM|56=SBI|52=20130202-08:14:00|98=0|108=100|10=255|]
Feb 2, 2013 8:14:00 AM: FixPump_SBI: Received data on id {SBI} [8=FIX.4.2|9=0128|35=3|34=84|49=SBI0|56=SLGM0|52=20130202-08:13:59|45=88|373=9|58=Remote firm id: SLGM did not match expected: SLGM0 or aliases: |10=031|]
Feb 2, 2013 8:14:00 AM: CommStuff: Sending data on id {SBI} [8=FIX.4.0|9=0072|35=3|34=89|49=SLGM|56=SBI|52=20130202-08:14:00|45=84|58=Expected Logon.|10=235|]
Feb 2, 2013 8:14:01 AM: CommStuff: Sending data on id {SBI} [8=FIX.4.0|9=0083|35=5|34=90|49=SLGM|56=SBI|52=20130202-08:14:01|58=Appia-vwang-6541_Expected Logon.|10=108|]
Feb 2, 2013 8:14:01 AM: FixPump_SBI: Received data on id {SBI} [8=FIX.4.2|9=0133|35=5|34=85|49=SBI0|56=SLGM0|52=20130202-08:14:00|58=Appia-vwang-6541_Remote firm id: SLGM did not match expected: SLGM0 or aliases: |10=125|]
Feb 2, 2013 8:14:02 AM: FIXCommConnection: Socket disconnected by peer.
Feb 2, 2013 8:14:02 AM: CommStuff: Sent Logout and disconnected.
Feb 2, 2013 8:14:02 AM: FIXPump: Socket is disconnected.  Throw away: id {SBI} [8=FIX.4.2|9=0133|35=5|34=85|49=SBI0|56=SLGM0|52=20130202-08:14:00|58=Appia-vwang-6541_Remote firm id: SLGM did not match expected: SLGM0 or aliases: |10=125|]
Feb 2, 2013 8:14:30 AM: CommProcessor_SBI: Connecting to SBI...
Feb 2, 2013 8:14:30 AM: FIXCommConnection: Trying socket connection to SBI at 127.0.0.1:7200
Feb 2, 2013 8:14:30 AM: CommStuff: Connection to SBI accepted
Feb 2, 2013 8:14:30 AM: CommStuff: Sending data on id {SBI} [8=FIX.4.0|9=0060|35=A|34=91|49=SLGM|56=SBI|52=20130202-08:14:30|98=0|108=100|10=252|]
Feb 2, 2013 8:14:30 AM: FixPump_SBI: Received data on id {SBI} [8=FIX.4.2|9=0128|35=3|34=86|49=SBI0|56=SLGM0|52=20130202-08:14:29|45=91|373=9|58=Remote firm id: SLGM did not match expected: SLGM0 or aliases: |10=025|]
Feb 2, 2013 8:14:30 AM: CommStuff: Sending data on id {SBI} [8=FIX.4.0|9=0072|35=3|34=92|49=SLGM|56=SBI|52=20130202-08:14:30|45=86|58=Expected Logon.|10=234|]
Feb 2, 2013 8:14:31 AM: CommStuff: Sending data on id {SBI} [8=FIX.4.0|9=0083|35=5|34=93|49=SLGM|56=SBI|52=20130202-08:14:31|58=Appia-vwang-6541_Expected Logon.|10=114|]
Feb 2, 2013 8:14:31 AM: FixPump_SBI: Received data on id {SBI} [8=FIX.4.2|9=0133|35=5|34=87|49=SBI0|56=SLGM0|52=20130202-08:14:30|58=Appia-vwang-6541_Remote firm id: SLGM did not match expected: SLGM0 or aliases: |10=130|]
Feb 2, 2013 8:14:32 AM: CommStuff: Sent Logout and disconnected.
Feb 2, 2013 8:14:32 AM: CommStuff: Connection to SBI is down
Feb 2, 2013 8:14:32 AM: FIXPump: Socket is disconnected.  Throw away: id {SBI} [8=FIX.4.2|9=0133|35=5|34=87|49=SBI0|56=SLGM0|52=20130202-08:14:30|58=Appia-vwang-6541_Remote firm id: SLGM did not match expected: SLGM0 or aliases: |10=130|]
Feb 2, 2013 8:14:32 AM: FIXCommConnection: Socket disconnected.
Feb 2, 2013 8:15:00 AM: CommProcessor_SBI: Connecting to SBI...
Feb 2, 2013 8:15:00 AM: FIXCommConnection: Trying socket connection to SBI at 127.0.0.1:7200
Feb 2, 2013 8:15:00 AM: CommStuff: Connection to SBI accepted
Feb 2, 2013 8:15:00 AM: CommStuff: Sending data on id {SBI} [8=FIX.4.0|9=0060|35=A|34=94|49=SLGM|56=SBI|52=20130202-08:15:00|98=0|108=100|10=253|]
Feb 2, 2013 8:15:00 AM: FixPump_SBI: Received data on id {SBI} [8=FIX.4.2|9=0128|35=3|34=88|49=SBI0|56=SLGM0|52=20130202-08:14:59|45=94|373=9|58=Remote firm id: SLGM did not match expected: SLGM0 or aliases: |10=033|]
Feb 2, 2013 8:15:00 AM: CommStuff: Sending data on id {SBI} [8=FIX.4.0|9=0072|35=3|34=95|49=SLGM|56=SBI|52=20130202-08:15:00|45=88|58=Expected Logon.|10=237|]
Feb 2, 2013 8:15:01 AM: CommStuff: Sending data on id {SBI} [8=FIX.4.0|9=0083|35=5|34=96|49=SLGM|56=SBI|52=20130202-08:15:01|58=Appia-vwang-6541_Expected Logon.|10=115|]
Feb 2, 2013 8:15:01 AM: FixPump_SBI: Received data on id {SBI} [8=FIX.4.2|9=0133|35=5|34=89|49=SBI0|56=SLGM0|52=20130202-08:15:00|58=Appia-vwang-6541_Remote firm id: SLGM did not match expected: SLGM0 or aliases: |10=130|]
Feb 2, 2013 8:15:02 AM: CommStuff: Sent Logout and disconnected.
Feb 2, 2013 8:15:02 AM: CommStuff: Connection to SBI is down
Feb 2, 2013 8:15:02 AM: FIXCommConnection: Socket disconnected by peer.
Feb 2, 2013 8:15:02 AM: FIXPump: Socket is disconnected.  Throw away: id {SBI} [8=FIX.4.2|9=0133|35=5|34=89|49=SBI0|56=SLGM0|52=20130202-08:15:00|58=Appia-vwang-6541_Remote firm id: SLGM did not match expected: SLGM0 or aliases: |10=130|]
Feb 2, 2013 8:15:30 AM: CommProcessor_SBI: Connecting to SBI...
Feb 2, 2013 8:15:30 AM: FIXCommConnection: Trying socket connection to SBI at 127.0.0.1:7200
Feb 2, 2013 8:15:30 AM: CommStuff: Connection to SBI accepted
Feb 2, 2013 8:15:30 AM: CommStuff: Sending data on id {SBI} [8=FIX.4.0|9=0060|35=A|34=97|49=SLGM|56=SBI|52=20130202-08:15:30|98=0|108=100|10=003|]
Feb 2, 2013 8:15:30 AM: FixPump_SBI: Received data on id {SBI} [8=FIX.4.2|9=0128|35=3|34=90|49=SBI0|56=SLGM0|52=20130202-08:15:29|45=97|373=9|58=Remote firm id: SLGM did not match expected: SLGM0 or aliases: |10=027|]
Feb 2, 2013 8:15:30 AM: CommStuff: Sending data on id {SBI} [8=FIX.4.0|9=0072|35=3|34=98|49=SLGM|56=SBI|52=20130202-08:15:30|45=90|58=Expected Logon.|10=236|]
Feb 2, 2013 8:15:31 AM: CommStuff: Sending data on id {SBI} [8=FIX.4.0|9=0083|35=5|34=99|49=SLGM|56=SBI|52=20130202-08:15:31|58=Appia-vwang-6541_Expected Logon.|10=121|]
Feb 2, 2013 8:15:31 AM: FixPump_SBI: Received data on id {SBI} [8=FIX.4.2|9=0133|35=5|34=91|49=SBI0|56=SLGM0|52=20130202-08:15:30|58=Appia-vwang-6541_Remote firm id: SLGM did not match expected: SLGM0 or aliases: |10=126|]
Feb 2, 2013 8:15:32 AM: CommStuff: Sent Logout and disconnected.
Feb 2, 2013 8:15:32 AM: CommStuff: Connection to SBI is down
Feb 2, 2013 8:15:32 AM: FIXPump: Socket is disconnected.  Throw away: id {SBI} [8=FIX.4.2|9=0133|35=5|34=91|49=SBI0|56=SLGM0|52=20130202-08:15:30|58=Appia-vwang-6541_Remote firm id: SLGM did not match expected: SLGM0 or aliases: |10=126|]
Feb 2, 2013 8:15:33 AM: CommStuff: Socket Connection Terminated
Feb 2, 2013 8:15:33 AM: FIXCommConnection: Socket disconnected.
Feb 2, 2013 8:16:00 AM: CommProcessor_SBI: Connecting to SBI...
Feb 2, 2013 8:16:00 AM: FIXCommConnection: Trying socket connection to SBI at 127.0.0.1:7200
Feb 2, 2013 8:16:00 AM: CommStuff: Connection to SBI accepted
Feb 2, 2013 8:16:00 AM: CommStuff: Sending data on id {SBI} [8=FIX.4.0|9=0061|35=A|34=100|49=SLGM|56=SBI|52=20130202-08:16:00|98=0|108=100|10=035|]
Feb 2, 2013 8:16:00 AM: FixPump_SBI: Received data on id {SBI} [8=FIX.4.2|9=0129|35=3|34=92|49=SBI0|56=SLGM0|52=20130202-08:15:59|45=100|373=9|58=Remote firm id: SLGM did not match expected: SLGM0 or aliases: |10=066|]
Feb 2, 2013 8:16:00 AM: CommStuff: Sending data on id {SBI} [8=FIX.4.0|9=0073|35=3|34=101|49=SLGM|56=SBI|52=20130202-08:16:00|45=92|58=Expected Logon.|10=014|]
Feb 2, 2013 8:16:01 AM: CommStuff: Sending data on id {SBI} [8=FIX.4.0|9=0084|35=5|34=102|49=SLGM|56=SBI|52=20130202-08:16:01|58=Appia-vwang-6541_Expected Logon.|10=153|]
Feb 2, 2013 8:16:01 AM: FixPump_SBI: Received data on id {SBI} [8=FIX.4.2|9=0133|35=5|34=93|49=SBI0|56=SLGM0|52=20130202-08:16:00|58=Appia-vwang-6541_Remote firm id: SLGM did not match expected: SLGM0 or aliases: |10=126|]
Feb 2, 2013 8:16:02 AM: CommStuff: Sent Logout and disconnected.
Feb 2, 2013 8:16:02 AM: FIXCommConnection: Socket disconnected by peer.
Feb 2, 2013 8:16:02 AM: FIXPump: Socket is disconnected.  Throw away: id {SBI} [8=FIX.4.2|9=0133|35=5|34=93|49=SBI0|56=SLGM0|52=20130202-08:16:00|58=Appia-vwang-6541_Remote firm id: SLGM did not match expected: SLGM0 or aliases: |10=126|]
Feb 2, 2013 8:16:30 AM: CommProcessor_SBI: Connecting to SBI...
Feb 2, 2013 8:16:30 AM: FIXCommConnection: Trying socket connection to SBI at 127.0.0.1:7200
Feb 2, 2013 8:16:30 AM: CommStuff: Connection to SBI accepted
Feb 2, 2013 8:16:30 AM: CommStuff: Sending data on id {SBI} [8=FIX.4.0|9=0061|35=A|34=103|49=SLGM|56=SBI|52=20130202-08:16:30|98=0|108=100|10=041|]
Feb 2, 2013 8:16:30 AM: FixPump_SBI: Received data on id {SBI} [8=FIX.4.2|9=0129|35=3|34=94|49=SBI0|56=SLGM0|52=20130202-08:16:29|45=103|373=9|58=Remote firm id: SLGM did not match expected: SLGM0 or aliases: |10=069|]
Feb 2, 2013 8:16:30 AM: CommStuff: Sending data on id {SBI} [8=FIX.4.0|9=0073|35=3|34=104|49=SLGM|56=SBI|52=20130202-08:16:30|45=94|58=Expected Logon.|10=022|]
Feb 2, 2013 8:16:31 AM: CommStuff: Sending data on id {SBI} [8=FIX.4.0|9=0084|35=5|34=105|49=SLGM|56=SBI|52=20130202-08:16:31|58=Appia-vwang-6541_Expected Logon.|10=159|]
Feb 2, 2013 8:16:31 AM: FixPump_SBI: Received data on id {SBI} [8=FIX.4.2|9=0133|35=5|34=95|49=SBI0|56=SLGM0|52=20130202-08:16:30|58=Appia-vwang-6541_Remote firm id: SLGM did not match expected: SLGM0 or aliases: |10=131|]
Feb 2, 2013 8:16:32 AM: CommStuff: Sent Logout and disconnected.
Feb 2, 2013 8:16:32 AM: FIXCommConnection: Socket disconnected by peer.
Feb 2, 2013 8:16:32 AM: FIXPump: Socket is disconnected.  Throw away: id {SBI} [8=FIX.4.2|9=0133|35=5|34=95|49=SBI0|56=SLGM0|52=20130202-08:16:30|58=Appia-vwang-6541_Remote firm id: SLGM did not match expected: SLGM0 or aliases: |10=131|]
Feb 2, 2013 8:17:00 AM: CommProcessor_SBI: Connecting to SBI...
Feb 2, 2013 8:17:00 AM: FIXCommConnection: Trying socket connection to SBI at 127.0.0.1:7200
Feb 2, 2013 8:17:00 AM: CommStuff: Connection to SBI accepted
Feb 2, 2013 8:17:00 AM: CommStuff: Sending data on id {SBI} [8=FIX.4.0|9=0061|35=A|34=106|49=SLGM|56=SBI|52=20130202-08:17:00|98=0|108=100|10=042|]
Feb 2, 2013 8:17:00 AM: FixPump_SBI: Received data on id {SBI} [8=FIX.4.2|9=0129|35=3|34=96|49=SBI0|56=SLGM0|52=20130202-08:16:59|45=106|373=9|58=Remote firm id: SLGM did not match expected: SLGM0 or aliases: |10=077|]
Feb 2, 2013 8:17:00 AM: CommStuff: Sending data on id {SBI} [8=FIX.4.0|9=0073|35=3|34=107|49=SLGM|56=SBI|52=20130202-08:17:00|45=96|58=Expected Logon.|10=025|]
Feb 2, 2013 8:17:01 AM: CommStuff: Sending data on id {SBI} [8=FIX.4.0|9=0084|35=5|34=108|49=SLGM|56=SBI|52=20130202-08:17:01|58=Appia-vwang-6541_Expected Logon.|10=160|]
Feb 2, 2013 8:17:01 AM: FixPump_SBI: Received data on id {SBI} [8=FIX.4.2|9=0133|35=5|34=97|49=SBI0|56=SLGM0|52=20130202-08:17:00|58=Appia-vwang-6541_Remote firm id: SLGM did not match expected: SLGM0 or aliases: |10=131|]
Feb 2, 2013 8:17:02 AM: CommStuff: Sent Logout and disconnected.
Feb 2, 2013 8:17:02 AM: CommStuff: Connection to SBI is down
Feb 2, 2013 8:17:02 AM: FIXPump: Socket is disconnected.  Throw away: id {SBI} [8=FIX.4.2|9=0133|35=5|34=97|49=SBI0|56=SLGM0|52=20130202-08:17:00|58=Appia-vwang-6541_Remote firm id: SLGM did not match expected: SLGM0 or aliases: |10=131|]
Feb 2, 2013 8:17:02 AM: FIXCommConnection: Socket disconnected.
Feb 2, 2013 8:17:30 AM: CommProcessor_SBI: Connecting to SBI...
Feb 2, 2013 8:17:30 AM: FIXCommConnection: Trying socket connection to SBI at 127.0.0.1:7200
Feb 2, 2013 8:17:30 AM: CommStuff: Connection to SBI accepted
Feb 2, 2013 8:17:30 AM: CommStuff: Sending data on id {SBI} [8=FIX.4.0|9=0061|35=A|34=109|49=SLGM|56=SBI|52=20130202-08:17:30|98=0|108=100|10=048|]
Feb 2, 2013 8:17:30 AM: FixPump_SBI: Received data on id {SBI} [8=FIX.4.2|9=0129|35=3|34=98|49=SBI0|56=SLGM0|52=20130202-08:17:29|45=109|373=9|58=Remote firm id: SLGM did not match expected: SLGM0 or aliases: |10=080|]
Feb 2, 2013 8:17:30 AM: CommStuff: Sending data on id {SBI} [8=FIX.4.0|9=0073|35=3|34=110|49=SLGM|56=SBI|52=20130202-08:17:30|45=98|58=Expected Logon.|10=024|]
Feb 2, 2013 8:17:31 AM: FixPump_SBI: Received data on id {SBI} [8=FIX.4.2|9=0133|35=5|34=99|49=SBI0|56=SLGM0|52=20130202-08:17:30|58=Appia-vwang-6541_Remote firm id: SLGM did not match expected: SLGM0 or aliases: |10=136|]
Feb 2, 2013 8:17:31 AM: CommStuff: Sending data on id {SBI} [8=FIX.4.0|9=0084|35=5|34=111|49=SLGM|56=SBI|52=20130202-08:17:31|58=Appia-vwang-6541_Expected Logon.|10=157|]
Feb 2, 2013 8:17:32 AM: CommStuff: Sent Logout and disconnected.
Feb 2, 2013 8:17:32 AM: FIXCommConnection: Socket disconnected by peer.
Feb 2, 2013 8:17:32 AM: FIXPump: Socket is disconnected.  Throw away: id {SBI} [8=FIX.4.2|9=0133|35=5|34=99|49=SBI0|56=SLGM0|52=20130202-08:17:30|58=Appia-vwang-6541_Remote firm id: SLGM did not match expected: SLGM0 or aliases: |10=136|]
Feb 2, 2013 8:18:00 AM: CommProcessor_SBI: Connecting to SBI...
Feb 2, 2013 8:18:00 AM: FIXCommConnection: Trying socket connection to SBI at 127.0.0.1:7200
Feb 2, 2013 8:18:00 AM: CommStuff: Connection to SBI accepted
Feb 2, 2013 8:18:00 AM: CommStuff: Sending data on id {SBI} [8=FIX.4.0|9=0061|35=A|34=112|49=SLGM|56=SBI|52=20130202-08:18:00|98=0|108=100|10=040|]
Feb 2, 2013 8:18:00 AM: FixPump_SBI: Received data on id {SBI} [8=FIX.4.2|9=0130|35=3|34=100|49=SBI0|56=SLGM0|52=20130202-08:17:59|45=112|373=9|58=Remote firm id: SLGM did not match expected: SLGM0 or aliases: |10=101|]
Feb 2, 2013 8:18:00 AM: CommStuff: Sending data on id {SBI} [8=FIX.4.0|9=0074|35=3|34=113|49=SLGM|56=SBI|52=20130202-08:18:00|45=100|58=Expected Logon.|10=058|]
Feb 2, 2013 8:18:01 AM: CommStuff: Sending data on id {SBI} [8=FIX.4.0|9=0084|35=5|34=114|49=SLGM|56=SBI|52=20130202-08:18:01|58=Appia-vwang-6541_Expected Logon.|10=158|]
Feb 2, 2013 8:18:01 AM: FixPump_SBI: Received data on id {SBI} [8=FIX.4.2|9=0134|35=5|34=101|49=SBI0|56=SLGM0|52=20130202-08:18:00|58=Appia-vwang-6541_Remote firm id: SLGM did not match expected: SLGM0 or aliases: |10=167|]
Feb 2, 2013 8:18:02 AM: CommStuff: Sent Logout and disconnected.
Feb 2, 2013 8:18:02 AM: CommStuff: Connection to SBI is down
Feb 2, 2013 8:18:02 AM: FIXPump: Socket is disconnected.  Throw away: id {SBI} [8=FIX.4.2|9=0134|35=5|34=101|49=SBI0|56=SLGM0|52=20130202-08:18:00|58=Appia-vwang-6541_Remote firm id: SLGM did not match expected: SLGM0 or aliases: |10=167|]
Feb 2, 2013 8:18:03 AM: CommStuff: Socket Connection Terminated
Feb 2, 2013 8:18:03 AM: FIXCommConnection: Socket disconnected.
Feb 2, 2013 8:18:30 AM: CommProcessor_SBI: Connecting to SBI...
Feb 2, 2013 8:18:30 AM: FIXCommConnection: Trying socket connection to SBI at 127.0.0.1:7200
Feb 2, 2013 8:18:30 AM: CommStuff: Connection to SBI accepted
Feb 2, 2013 8:18:30 AM: CommStuff: Sending data on id {SBI} [8=FIX.4.0|9=0061|35=A|34=115|49=SLGM|56=SBI|52=20130202-08:18:30|98=0|108=100|10=046|]
Feb 2, 2013 8:18:30 AM: FixPump_SBI: Received data on id {SBI} [8=FIX.4.2|9=0130|35=3|34=102|49=SBI0|56=SLGM0|52=20130202-08:18:29|45=115|373=9|58=Remote firm id: SLGM did not match expected: SLGM0 or aliases: |10=104|]
Feb 2, 2013 8:18:30 AM: CommStuff: Sending data on id {SBI} [8=FIX.4.0|9=0074|35=3|34=116|49=SLGM|56=SBI|52=20130202-08:18:30|45=102|58=Expected Logon.|10=066|]
Feb 2, 2013 8:18:31 AM: CommStuff: Sending data on id {SBI} [8=FIX.4.0|9=0084|35=5|34=117|49=SLGM|56=SBI|52=20130202-08:18:31|58=Appia-vwang-6541_Expected Logon.|10=164|]
Feb 2, 2013 8:18:31 AM: FixPump_SBI: Received data on id {SBI} [8=FIX.4.2|9=0134|35=5|34=103|49=SBI0|56=SLGM0|52=20130202-08:18:30|58=Appia-vwang-6541_Remote firm id: SLGM did not match expected: SLGM0 or aliases: |10=172|]
Feb 2, 2013 8:18:32 AM: CommStuff: Sent Logout and disconnected.
Feb 2, 2013 8:18:32 AM: FIXCommConnection: Socket disconnected by peer.
Feb 2, 2013 8:18:32 AM: CommStuff: Connection to SBI is down
Feb 2, 2013 8:18:32 AM: FIXPump: Socket is disconnected.  Throw away: id {SBI} [8=FIX.4.2|9=0134|35=5|34=103|49=SBI0|56=SLGM0|52=20130202-08:18:30|58=Appia-vwang-6541_Remote firm id: SLGM did not match expected: SLGM0 or aliases: |10=172|]
Feb 2, 2013 8:19:00 AM: CommProcessor_SBI: Connecting to SBI...
Feb 2, 2013 8:19:00 AM: FIXCommConnection: Trying socket connection to SBI at 127.0.0.1:7200
Feb 2, 2013 8:19:00 AM: CommStuff: Connection to SBI accepted
Feb 2, 2013 8:19:00 AM: CommStuff: Sending data on id {SBI} [8=FIX.4.0|9=0061|35=A|34=118|49=SLGM|56=SBI|52=20130202-08:19:00|98=0|108=100|10=047|]
Feb 2, 2013 8:19:00 AM: FixPump_SBI: Received data on id {SBI} [8=FIX.4.2|9=0130|35=3|34=104|49=SBI0|56=SLGM0|52=20130202-08:18:59|45=118|373=9|58=Remote firm id: SLGM did not match expected: SLGM0 or aliases: |10=112|]
Feb 2, 2013 8:19:00 AM: CommStuff: Sending data on id {SBI} [8=FIX.4.0|9=0074|35=3|34=119|49=SLGM|56=SBI|52=20130202-08:19:00|45=104|58=Expected Logon.|10=069|]
Feb 2, 2013 8:19:01 AM: CommStuff: Sending data on id {SBI} [8=FIX.4.0|9=0084|35=5|34=120|49=SLGM|56=SBI|52=20130202-08:19:01|58=Appia-vwang-6541_Expected Logon.|10=156|]
Feb 2, 2013 8:19:01 AM: FixPump_SBI: Received data on id {SBI} [8=FIX.4.2|9=0134|35=5|34=105|49=SBI0|56=SLGM0|52=20130202-08:19:00|58=Appia-vwang-6541_Remote firm id: SLGM did not match expected: SLGM0 or aliases: |10=172|]
Feb 2, 2013 8:19:02 AM: CommStuff: Sent Logout and disconnected.
Feb 2, 2013 8:19:02 AM: CommStuff: Connection to SBI is down
Feb 2, 2013 8:19:02 AM: FIXCommConnection: Socket disconnected by peer.
Feb 2, 2013 8:19:02 AM: FIXPump: Socket is disconnected.  Throw away: id {SBI} [8=FIX.4.2|9=0134|35=5|34=105|49=SBI0|56=SLGM0|52=20130202-08:19:00|58=Appia-vwang-6541_Remote firm id: SLGM did not match expected: SLGM0 or aliases: |10=172|]
Feb 2, 2013 8:19:30 AM: CommProcessor_SBI: Connecting to SBI...
Feb 2, 2013 8:19:30 AM: FIXCommConnection: Trying socket connection to SBI at 127.0.0.1:7200
Feb 2, 2013 8:19:30 AM: CommStuff: Connection to SBI accepted
Feb 2, 2013 8:19:30 AM: CommStuff: Sending data on id {SBI} [8=FIX.4.0|9=0061|35=A|34=121|49=SLGM|56=SBI|52=20130202-08:19:30|98=0|108=100|10=044|]
Feb 2, 2013 8:19:30 AM: FixPump_SBI: Received data on id {SBI} [8=FIX.4.2|9=0130|35=3|34=106|49=SBI0|56=SLGM0|52=20130202-08:19:29|45=121|373=9|58=Remote firm id: SLGM did not match expected: SLGM0 or aliases: |10=106|]
Feb 2, 2013 8:19:30 AM: CommStuff: Sending data on id {SBI} [8=FIX.4.0|9=0074|35=3|34=122|49=SLGM|56=SBI|52=20130202-08:19:30|45=106|58=Expected Logon.|10=068|]
Feb 2, 2013 8:19:31 AM: CommStuff: Sending data on id {SBI} [8=FIX.4.0|9=0084|35=5|34=123|49=SLGM|56=SBI|52=20130202-08:19:31|58=Appia-vwang-6541_Expected Logon.|10=162|]
Feb 2, 2013 8:19:31 AM: FixPump_SBI: Received data on id {SBI} [8=FIX.4.2|9=0134|35=5|34=107|49=SBI0|56=SLGM0|52=20130202-08:19:30|58=Appia-vwang-6541_Remote firm id: SLGM did not match expected: SLGM0 or aliases: |10=177|]
Feb 2, 2013 8:19:32 AM: CommStuff: Sent Logout and disconnected.
Feb 2, 2013 8:19:32 AM: CommStuff: Connection to SBI is down
Feb 2, 2013 8:19:32 AM: FIXCommConnection: Socket disconnected by peer.
Feb 2, 2013 8:19:32 AM: FIXPump: Socket is disconnected.  Throw away: id {SBI} [8=FIX.4.2|9=0134|35=5|34=107|49=SBI0|56=SLGM0|52=20130202-08:19:30|58=Appia-vwang-6541_Remote firm id: SLGM did not match expected: SLGM0 or aliases: |10=177|]
Feb 2, 2013 8:20:00 AM: CommProcessor_SBI: Connecting to SBI...
Feb 2, 2013 8:20:00 AM: FIXCommConnection: Trying socket connection to SBI at 127.0.0.1:7200
Feb 2, 2013 8:20:00 AM: CommStuff: Connection to SBI accepted
Feb 2, 2013 8:20:00 AM: CommStuff: Sending data on id {SBI} [8=FIX.4.0|9=0061|35=A|34=124|49=SLGM|56=SBI|52=20130202-08:20:00|98=0|108=100|10=036|]
Feb 2, 2013 8:20:00 AM: FixPump_SBI: Received data on id {SBI} [8=FIX.4.2|9=0130|35=3|34=108|49=SBI0|56=SLGM0|52=20130202-08:19:59|45=124|373=9|58=Remote firm id: SLGM did not match expected: SLGM0 or aliases: |10=114|]
Feb 2, 2013 8:20:00 AM: CommStuff: Sending data on id {SBI} [8=FIX.4.0|9=0074|35=3|34=125|49=SLGM|56=SBI|52=20130202-08:20:00|45=108|58=Expected Logon.|10=062|]
Feb 2, 2013 8:20:01 AM: CommStuff: Sending data on id {SBI} [8=FIX.4.0|9=0084|35=5|34=126|49=SLGM|56=SBI|52=20130202-08:20:01|58=Appia-vwang-6541_Expected Logon.|10=154|]
Feb 2, 2013 8:20:01 AM: FixPump_SBI: Received data on id {SBI} [8=FIX.4.2|9=0134|35=5|34=109|49=SBI0|56=SLGM0|52=20130202-08:20:00|58=Appia-vwang-6541_Remote firm id: SLGM did not match expected: SLGM0 or aliases: |10=168|]
Feb 2, 2013 8:20:02 AM: CommStuff: Sent Logout and disconnected.
Feb 2, 2013 8:20:02 AM: CommStuff: Connection to SBI is down
Feb 2, 2013 8:20:02 AM: FIXCommConnection: Socket disconnected by peer.
Feb 2, 2013 8:20:02 AM: FIXPump: Socket is disconnected.  Throw away: id {SBI} [8=FIX.4.2|9=0134|35=5|34=109|49=SBI0|56=SLGM0|52=20130202-08:20:00|58=Appia-vwang-6541_Remote firm id: SLGM did not match expected: SLGM0 or aliases: |10=168|]
Feb 2, 2013 8:20:30 AM: CommProcessor_SBI: Connecting to SBI...
Feb 2, 2013 8:20:30 AM: FIXCommConnection: Trying socket connection to SBI at 127.0.0.1:7200
Feb 2, 2013 8:20:30 AM: CommStuff: Connection to SBI accepted
Feb 2, 2013 8:20:30 AM: CommStuff: Sending data on id {SBI} [8=FIX.4.0|9=0061|35=A|34=127|49=SLGM|56=SBI|52=20130202-08:20:30|98=0|108=100|10=042|]
Feb 2, 2013 8:20:30 AM: FixPump_SBI: Received data on id {SBI} [8=FIX.4.2|9=0130|35=3|34=110|49=SBI0|56=SLGM0|52=20130202-08:20:29|45=127|373=9|58=Remote firm id: SLGM did not match expected: SLGM0 or aliases: |10=099|]
Feb 2, 2013 8:20:30 AM: CommStuff: Sending data on id {SBI} [8=FIX.4.0|9=0074|35=3|34=128|49=SLGM|56=SBI|52=20130202-08:20:30|45=110|58=Expected Logon.|10=061|]
Feb 2, 2013 8:20:31 AM: CommStuff: Sending data on id {SBI} [8=FIX.4.0|9=0084|35=5|34=129|49=SLGM|56=SBI|52=20130202-08:20:31|58=Appia-vwang-6541_Expected Logon.|10=160|]
Feb 2, 2013 8:20:31 AM: FixPump_SBI: Received data on id {SBI} [8=FIX.4.2|9=0134|35=5|34=111|49=SBI0|56=SLGM0|52=20130202-08:20:30|58=Appia-vwang-6541_Remote firm id: SLGM did not match expected: SLGM0 or aliases: |10=164|]
Feb 2, 2013 8:20:32 AM: FIXCommConnection: Socket disconnected by peer.
Feb 2, 2013 8:20:32 AM: CommStuff: Sent Logout and disconnected.
Feb 2, 2013 8:20:32 AM: FIXPump: Socket is disconnected.  Throw away: id {SBI} [8=FIX.4.2|9=0134|35=5|34=111|49=SBI0|56=SLGM0|52=20130202-08:20:30|58=Appia-vwang-6541_Remote firm id: SLGM did not match expected: SLGM0 or aliases: |10=164|]
Feb 2, 2013 8:21:00 AM: CommProcessor_SBI: Connecting to SBI...
Feb 2, 2013 8:21:00 AM: FIXCommConnection: Trying socket connection to SBI at 127.0.0.1:7200
Feb 2, 2013 8:21:00 AM: CommStuff: Connection to SBI accepted
Feb 2, 2013 8:21:00 AM: CommStuff: Sending data on id {SBI} [8=FIX.4.0|9=0061|35=A|34=130|49=SLGM|56=SBI|52=20130202-08:21:00|98=0|108=100|10=034|]
Feb 2, 2013 8:21:00 AM: FixPump_SBI: Received data on id {SBI} [8=FIX.4.2|9=0130|35=3|34=112|49=SBI0|56=SLGM0|52=20130202-08:20:59|45=130|373=9|58=Remote firm id: SLGM did not match expected: SLGM0 or aliases: |10=098|]
Feb 2, 2013 8:21:00 AM: CommStuff: Sending data on id {SBI} [8=FIX.4.0|9=0074|35=3|34=131|49=SLGM|56=SBI|52=20130202-08:21:00|45=112|58=Expected Logon.|10=055|]
Feb 2, 2013 8:21:01 AM: CommStuff: Sending data on id {SBI} [8=FIX.4.0|9=0084|35=5|34=132|49=SLGM|56=SBI|52=20130202-08:21:01|58=Appia-vwang-6541_Expected Logon.|10=152|]
Feb 2, 2013 8:21:01 AM: FixPump_SBI: Received data on id {SBI} [8=FIX.4.2|9=0134|35=5|34=113|49=SBI0|56=SLGM0|52=20130202-08:21:00|58=Appia-vwang-6541_Remote firm id: SLGM did not match expected: SLGM0 or aliases: |10=164|]
Feb 2, 2013 8:21:02 AM: FIXCommConnection: Socket disconnected by peer.
Feb 2, 2013 8:21:02 AM: CommStuff: Sent Logout and disconnected.
Feb 2, 2013 8:21:02 AM: FIXPump: Socket is disconnected.  Throw away: id {SBI} [8=FIX.4.2|9=0134|35=5|34=113|49=SBI0|56=SLGM0|52=20130202-08:21:00|58=Appia-vwang-6541_Remote firm id: SLGM did not match expected: SLGM0 or aliases: |10=164|]
Feb 2, 2013 8:21:30 AM: CommProcessor_SBI: Connecting to SBI...
Feb 2, 2013 8:21:30 AM: FIXCommConnection: Trying socket connection to SBI at 127.0.0.1:7200
Feb 2, 2013 8:21:30 AM: CommStuff: Connection to SBI accepted
Feb 2, 2013 8:21:30 AM: CommStuff: Sending data on id {SBI} [8=FIX.4.0|9=0061|35=A|34=133|49=SLGM|56=SBI|52=20130202-08:21:30|98=0|108=100|10=040|]
Feb 2, 2013 8:21:30 AM: FixPump_SBI: Received data on id {SBI} [8=FIX.4.2|9=0130|35=3|34=114|49=SBI0|56=SLGM0|52=20130202-08:21:29|45=133|373=9|58=Remote firm id: SLGM did not match expected: SLGM0 or aliases: |10=101|]
Feb 2, 2013 8:21:30 AM: CommStuff: Sending data on id {SBI} [8=FIX.4.0|9=0074|35=3|34=134|49=SLGM|56=SBI|52=20130202-08:21:30|45=114|58=Expected Logon.|10=063|]
Feb 2, 2013 8:21:31 AM: CommStuff: Sending data on id {SBI} [8=FIX.4.0|9=0084|35=5|34=135|49=SLGM|56=SBI|52=20130202-08:21:31|58=Appia-vwang-6541_Expected Logon.|10=158|]
Feb 2, 2013 8:21:31 AM: FixPump_SBI: Received data on id {SBI} [8=FIX.4.2|9=0134|35=5|34=115|49=SBI0|56=SLGM0|52=20130202-08:21:30|58=Appia-vwang-6541_Remote firm id: SLGM did not match expected: SLGM0 or aliases: |10=169|]
Feb 2, 2013 8:21:32 AM: CommStuff: Sent Logout and disconnected.
Feb 2, 2013 8:21:32 AM: CommStuff: Connection to SBI is down
Feb 2, 2013 8:21:32 AM: FIXPump: Socket is disconnected.  Throw away: id {SBI} [8=FIX.4.2|9=0134|35=5|34=115|49=SBI0|56=SLGM0|52=20130202-08:21:30|58=Appia-vwang-6541_Remote firm id: SLGM did not match expected: SLGM0 or aliases: |10=169|]
Feb 2, 2013 8:21:32 AM: FIXCommConnection: Socket disconnected.
Feb 2, 2013 8:22:00 AM: CommProcessor_SBI: Connecting to SBI...
Feb 2, 2013 8:22:00 AM: FIXCommConnection: Trying socket connection to SBI at 127.0.0.1:7200
Feb 2, 2013 8:22:00 AM: CommStuff: Connection to SBI accepted
Feb 2, 2013 8:22:00 AM: CommStuff: Sending data on id {SBI} [8=FIX.4.0|9=0061|35=A|34=136|49=SLGM|56=SBI|52=20130202-08:22:00|98=0|108=100|10=041|]
Feb 2, 2013 8:22:00 AM: FixPump_SBI: Received data on id {SBI} [8=FIX.4.2|9=0130|35=3|34=116|49=SBI0|56=SLGM0|52=20130202-08:21:59|45=136|373=9|58=Remote firm id: SLGM did not match expected: SLGM0 or aliases: |10=109|]
Feb 2, 2013 8:22:00 AM: CommStuff: Sending data on id {SBI} [8=FIX.4.0|9=0074|35=3|34=137|49=SLGM|56=SBI|52=20130202-08:22:00|45=116|58=Expected Logon.|10=066|]
Feb 2, 2013 8:22:01 AM: CommStuff: Sending data on id {SBI} [8=FIX.4.0|9=0084|35=5|34=138|49=SLGM|56=SBI|52=20130202-08:22:01|58=Appia-vwang-6541_Expected Logon.|10=159|]
Feb 2, 2013 8:22:01 AM: FixPump_SBI: Received data on id {SBI} [8=FIX.4.2|9=0134|35=5|34=117|49=SBI0|56=SLGM0|52=20130202-08:22:00|58=Appia-vwang-6541_Remote firm id: SLGM did not match expected: SLGM0 or aliases: |10=169|]
Feb 2, 2013 8:22:02 AM: CommStuff: Sent Logout and disconnected.
Feb 2, 2013 8:22:02 AM: FIXCommConnection: Socket disconnected by peer.
Feb 2, 2013 8:22:02 AM: FIXPump: Socket is disconnected.  Throw away: id {SBI} [8=FIX.4.2|9=0134|35=5|34=117|49=SBI0|56=SLGM0|52=20130202-08:22:00|58=Appia-vwang-6541_Remote firm id: SLGM did not match expected: SLGM0 or aliases: |10=169|]
Feb 2, 2013 8:22:30 AM: CommProcessor_SBI: Connecting to SBI...
Feb 2, 2013 8:22:30 AM: FIXCommConnection: Trying socket connection to SBI at 127.0.0.1:7200
Feb 2, 2013 8:22:30 AM: CommStuff: Connection to SBI accepted
Feb 2, 2013 8:22:30 AM: CommStuff: Sending data on id {SBI} [8=FIX.4.0|9=0061|35=A|34=139|49=SLGM|56=SBI|52=20130202-08:22:30|98=0|108=100|10=047|]
Feb 2, 2013 8:22:30 AM: FixPump_SBI: Received data on id {SBI} [8=FIX.4.2|9=0130|35=3|34=118|49=SBI0|56=SLGM0|52=20130202-08:22:29|45=139|373=9|58=Remote firm id: SLGM did not match expected: SLGM0 or aliases: |10=112|]
Feb 2, 2013 8:22:30 AM: CommStuff: Sending data on id {SBI} [8=FIX.4.0|9=0074|35=3|34=140|49=SLGM|56=SBI|52=20130202-08:22:30|45=118|58=Expected Logon.|10=065|]
Feb 2, 2013 8:22:31 AM: CommStuff: Sending data on id {SBI} [8=FIX.4.0|9=0084|35=5|34=141|49=SLGM|56=SBI|52=20130202-08:22:31|58=Appia-vwang-6541_Expected Logon.|10=156|]
Feb 2, 2013 8:22:31 AM: FixPump_SBI: Received data on id {SBI} [8=FIX.4.2|9=0134|35=5|34=119|49=SBI0|56=SLGM0|52=20130202-08:22:30|58=Appia-vwang-6541_Remote firm id: SLGM did not match expected: SLGM0 or aliases: |10=174|]
Feb 2, 2013 8:22:32 AM: CommStuff: Sent Logout and disconnected.
Feb 2, 2013 8:22:32 AM: CommStuff: Connection to SBI is down
Feb 2, 2013 8:22:32 AM: FIXPump: Socket is disconnected.  Throw away: id {SBI} [8=FIX.4.2|9=0134|35=5|34=119|49=SBI0|56=SLGM0|52=20130202-08:22:30|58=Appia-vwang-6541_Remote firm id: SLGM did not match expected: SLGM0 or aliases: |10=174|]
Feb 2, 2013 8:22:33 AM: CommStuff: Socket Connection Terminated
Feb 2, 2013 8:22:33 AM: FIXCommConnection: Socket disconnected.
Feb 2, 2013 8:23:00 AM: CommProcessor_SBI: Connecting to SBI...
Feb 2, 2013 8:23:00 AM: FIXCommConnection: Trying socket connection to SBI at 127.0.0.1:7200
Feb 2, 2013 8:23:00 AM: CommStuff: Connection to SBI accepted
Feb 2, 2013 8:23:00 AM: CommStuff: Sending data on id {SBI} [8=FIX.4.0|9=0061|35=A|34=142|49=SLGM|56=SBI|52=20130202-08:23:00|98=0|108=100|10=039|]
Feb 2, 2013 8:23:00 AM: FixPump_SBI: Received data on id {SBI} [8=FIX.4.2|9=0130|35=3|34=120|49=SBI0|56=SLGM0|52=20130202-08:22:59|45=142|373=9|58=Remote firm id: SLGM did not match expected: SLGM0 or aliases: |10=102|]
Feb 2, 2013 8:23:00 AM: CommStuff: Sending data on id {SBI} [8=FIX.4.0|9=0074|35=3|34=143|49=SLGM|56=SBI|52=20130202-08:23:00|45=120|58=Expected Logon.|10=059|]
Feb 2, 2013 8:23:01 AM: CommStuff: Sending data on id {SBI} [8=FIX.4.0|9=0084|35=5|34=144|49=SLGM|56=SBI|52=20130202-08:23:01|58=Appia-vwang-6541_Expected Logon.|10=157|]
Feb 2, 2013 8:23:01 AM: FixPump_SBI: Received data on id {SBI} [8=FIX.4.2|9=0134|35=5|34=121|49=SBI0|56=SLGM0|52=20130202-08:23:00|58=Appia-vwang-6541_Remote firm id: SLGM did not match expected: SLGM0 or aliases: |10=165|]
Feb 2, 2013 8:23:02 AM: CommStuff: Sent Logout and disconnected.
Feb 2, 2013 8:23:02 AM: CommStuff: Connection to SBI is down
Feb 2, 2013 8:23:02 AM: FIXPump: Socket is disconnected.  Throw away: id {SBI} [8=FIX.4.2|9=0134|35=5|34=121|49=SBI0|56=SLGM0|52=20130202-08:23:00|58=Appia-vwang-6541_Remote firm id: SLGM did not match expected: SLGM0 or aliases: |10=165|]
Feb 2, 2013 8:23:03 AM: CommStuff: Socket Connection Terminated
Feb 2, 2013 8:23:03 AM: FIXCommConnection: Socket disconnected.
Feb 2, 2013 8:23:30 AM: CommProcessor_SBI: Connecting to SBI...
Feb 2, 2013 8:23:30 AM: FIXCommConnection: Trying socket connection to SBI at 127.0.0.1:7200
Feb 2, 2013 8:23:30 AM: CommStuff: Connection to SBI accepted
Feb 2, 2013 8:23:30 AM: CommStuff: Sending data on id {SBI} [8=FIX.4.0|9=0061|35=A|34=145|49=SLGM|56=SBI|52=20130202-08:23:30|98=0|108=100|10=045|]
Feb 2, 2013 8:23:30 AM: FixPump_SBI: Received data on id {SBI} [8=FIX.4.2|9=0130|35=3|34=122|49=SBI0|56=SLGM0|52=20130202-08:23:29|45=145|373=9|58=Remote firm id: SLGM did not match expected: SLGM0 or aliases: |10=105|]
Feb 2, 2013 8:23:30 AM: CommStuff: Sending data on id {SBI} [8=FIX.4.0|9=0074|35=3|34=146|49=SLGM|56=SBI|52=20130202-08:23:30|45=122|58=Expected Logon.|10=067|]
Feb 2, 2013 8:23:31 AM: FixPump_SBI: Received data on id {SBI} [8=FIX.4.2|9=0134|35=5|34=123|49=SBI0|56=SLGM0|52=20130202-08:23:30|58=Appia-vwang-6541_Remote firm id: SLGM did not match expected: SLGM0 or aliases: |10=170|]
Feb 2, 2013 8:23:31 AM: CommStuff: Sending data on id {SBI} [8=FIX.4.0|9=0084|35=5|34=147|49=SLGM|56=SBI|52=20130202-08:23:31|58=Appia-vwang-6541_Expected Logon.|10=163|]
Feb 2, 2013 8:23:32 AM: CommStuff: Sent Logout and disconnected.
Feb 2, 2013 8:23:32 AM: CommStuff: Connection to SBI is down
Feb 2, 2013 8:23:32 AM: FIXPump: Socket is disconnected.  Throw away: id {SBI} [8=FIX.4.2|9=0134|35=5|34=123|49=SBI0|56=SLGM0|52=20130202-08:23:30|58=Appia-vwang-6541_Remote firm id: SLGM did not match expected: SLGM0 or aliases: |10=170|]
Feb 2, 2013 8:23:33 AM: CommStuff: Socket Connection Terminated
Feb 2, 2013 8:23:33 AM: FIXCommConnection: Socket disconnected.
Feb 2, 2013 8:24:00 AM: CommProcessor_SBI: Connecting to SBI...
Feb 2, 2013 8:24:00 AM: FIXCommConnection: Trying socket connection to SBI at 127.0.0.1:7200
Feb 2, 2013 8:24:00 AM: CommStuff: Connection to SBI accepted
Feb 2, 2013 8:24:00 AM: CommStuff: Sending data on id {SBI} [8=FIX.4.0|9=0061|35=A|34=148|49=SLGM|56=SBI|52=20130202-08:24:00|98=0|108=100|10=046|]
Feb 2, 2013 8:24:00 AM: FixPump_SBI: Received data on id {SBI} [8=FIX.4.2|9=0130|35=3|34=124|49=SBI0|56=SLGM0|52=20130202-08:23:59|45=148|373=9|58=Remote firm id: SLGM did not match expected: SLGM0 or aliases: |10=113|]
Feb 2, 2013 8:24:00 AM: CommStuff: Sending data on id {SBI} [8=FIX.4.0|9=0074|35=3|34=149|49=SLGM|56=SBI|52=20130202-08:24:00|45=124|58=Expected Logon.|10=070|]
Feb 2, 2013 8:24:01 AM: CommStuff: Sending data on id {SBI} [8=FIX.4.0|9=0084|35=5|34=150|49=SLGM|56=SBI|52=20130202-08:24:01|58=Appia-vwang-6541_Expected Logon.|10=155|]
Feb 2, 2013 8:24:01 AM: FixPump_SBI: Received data on id {SBI} [8=FIX.4.2|9=0134|35=5|34=125|49=SBI0|56=SLGM0|52=20130202-08:24:00|58=Appia-vwang-6541_Remote firm id: SLGM did not match expected: SLGM0 or aliases: |10=170|]
Feb 2, 2013 8:24:02 AM: FIXCommConnection: Socket disconnected by peer.
Feb 2, 2013 8:24:02 AM: CommStuff: Sent Logout and disconnected.
Feb 2, 2013 8:24:02 AM: FIXPump: Socket is disconnected.  Throw away: id {SBI} [8=FIX.4.2|9=0134|35=5|34=125|49=SBI0|56=SLGM0|52=20130202-08:24:00|58=Appia-vwang-6541_Remote firm id: SLGM did not match expected: SLGM0 or aliases: |10=170|]
Feb 2, 2013 8:24:30 AM: CommProcessor_SBI: Connecting to SBI...
Feb 2, 2013 8:24:30 AM: FIXCommConnection: Trying socket connection to SBI at 127.0.0.1:7200
Feb 2, 2013 8:24:30 AM: CommStuff: Connection to SBI accepted
Feb 2, 2013 8:24:30 AM: CommStuff: Sending data on id {SBI} [8=FIX.4.0|9=0061|35=A|34=151|49=SLGM|56=SBI|52=20130202-08:24:30|98=0|108=100|10=043|]
Feb 2, 2013 8:24:30 AM: FixPump_SBI: Received data on id {SBI} [8=FIX.4.2|9=0130|35=3|34=126|49=SBI0|56=SLGM0|52=20130202-08:24:29|45=151|373=9|58=Remote firm id: SLGM did not match expected: SLGM0 or aliases: |10=107|]
Feb 2, 2013 8:24:30 AM: CommStuff: Sending data on id {SBI} [8=FIX.4.0|9=0074|35=3|34=152|49=SLGM|56=SBI|52=20130202-08:24:30|45=126|58=Expected Logon.|10=069|]
Feb 2, 2013 8:24:31 AM: CommStuff: Sending data on id {SBI} [8=FIX.4.0|9=0084|35=5|34=153|49=SLGM|56=SBI|52=20130202-08:24:31|58=Appia-vwang-6541_Expected Logon.|10=161|]
Feb 2, 2013 8:24:31 AM: FixPump_SBI: Received data on id {SBI} [8=FIX.4.2|9=0134|35=5|34=127|49=SBI0|56=SLGM0|52=20130202-08:24:30|58=Appia-vwang-6541_Remote firm id: SLGM did not match expected: SLGM0 or aliases: |10=175|]
Feb 2, 2013 8:24:32 AM: CommStuff: Sent Logout and disconnected.
Feb 2, 2013 8:24:32 AM: CommStuff: Connection to SBI is down
Feb 2, 2013 8:24:32 AM: FIXCommConnection: Socket disconnected by peer.
Feb 2, 2013 8:24:32 AM: FIXPump: Socket is disconnected.  Throw away: id {SBI} [8=FIX.4.2|9=0134|35=5|34=127|49=SBI0|56=SLGM0|52=20130202-08:24:30|58=Appia-vwang-6541_Remote firm id: SLGM did not match expected: SLGM0 or aliases: |10=175|]
Feb 2, 2013 8:25:00 AM: CommProcessor_SBI: Connecting to SBI...
Feb 2, 2013 8:25:00 AM: FIXCommConnection: Trying socket connection to SBI at 127.0.0.1:7200
Feb 2, 2013 8:25:00 AM: CommStuff: Connection to SBI accepted
Feb 2, 2013 8:25:00 AM: CommStuff: Sending data on id {SBI} [8=FIX.4.0|9=0061|35=A|34=154|49=SLGM|56=SBI|52=20130202-08:25:00|98=0|108=100|10=044|]
Feb 2, 2013 8:25:00 AM: FixPump_SBI: Received data on id {SBI} [8=FIX.4.2|9=0130|35=3|34=128|49=SBI0|56=SLGM0|52=20130202-08:25:00|45=154|373=9|58=Remote firm id: SLGM did not match expected: SLGM0 or aliases: |10=102|]
Feb 2, 2013 8:25:00 AM: CommStuff: Sending data on id {SBI} [8=FIX.4.0|9=0074|35=3|34=155|49=SLGM|56=SBI|52=20130202-08:25:00|45=128|58=Expected Logon.|10=072|]
Feb 2, 2013 8:25:01 AM: CommStuff: Sending data on id {SBI} [8=FIX.4.0|9=0084|35=5|34=156|49=SLGM|56=SBI|52=20130202-08:25:01|58=Appia-vwang-6541_Expected Logon.|10=162|]
Feb 2, 2013 8:25:01 AM: FixPump_SBI: Received data on id {SBI} [8=FIX.4.2|9=0134|35=5|34=129|49=SBI0|56=SLGM0|52=20130202-08:25:01|58=Appia-vwang-6541_Remote firm id: SLGM did not match expected: SLGM0 or aliases: |10=176|]
Feb 2, 2013 8:25:02 AM: CommStuff: Sent Logout and disconnected.
Feb 2, 2013 8:25:02 AM: FIXCommConnection: Socket disconnected by peer.
Feb 2, 2013 8:25:02 AM: FIXPump: Socket is disconnected.  Throw away: id {SBI} [8=FIX.4.2|9=0134|35=5|34=129|49=SBI0|56=SLGM0|52=20130202-08:25:01|58=Appia-vwang-6541_Remote firm id: SLGM did not match expected: SLGM0 or aliases: |10=176|]
Feb 2, 2013 8:25:30 AM: CommProcessor_SBI: Connecting to SBI...
Feb 2, 2013 8:25:30 AM: FIXCommConnection: Trying socket connection to SBI at 127.0.0.1:7200
Feb 2, 2013 8:25:30 AM: CommStuff: Connection to SBI accepted
Feb 2, 2013 8:25:30 AM: CommStuff: Sending data on id {SBI} [8=FIX.4.0|9=0061|35=A|34=157|49=SLGM|56=SBI|52=20130202-08:25:30|98=0|108=100|10=050|]
Feb 2, 2013 8:25:30 AM: FixPump_SBI: Received data on id {SBI} [8=FIX.4.2|9=0130|35=3|34=130|49=SBI0|56=SLGM0|52=20130202-08:25:30|45=157|373=9|58=Remote firm id: SLGM did not match expected: SLGM0 or aliases: |10=101|]
Feb 2, 2013 8:25:30 AM: CommStuff: Sending data on id {SBI} [8=FIX.4.0|9=0074|35=3|34=158|49=SLGM|56=SBI|52=20130202-08:25:30|45=130|58=Expected Logon.|10=071|]
Feb 2, 2013 8:25:31 AM: CommStuff: Sending data on id {SBI} [8=FIX.4.0|9=0084|35=5|34=159|49=SLGM|56=SBI|52=20130202-08:25:31|58=Appia-vwang-6541_Expected Logon.|10=168|]
Feb 2, 2013 8:25:31 AM: FixPump_SBI: Received data on id {SBI} [8=FIX.4.2|9=0134|35=5|34=131|49=SBI0|56=SLGM0|52=20130202-08:25:31|58=Appia-vwang-6541_Remote firm id: SLGM did not match expected: SLGM0 or aliases: |10=172|]
Feb 2, 2013 8:25:32 AM: CommStuff: Sent Logout and disconnected.
Feb 2, 2013 8:25:32 AM: CommStuff: Connection to SBI is down
Feb 2, 2013 8:25:32 AM: FIXPump: Socket is disconnected.  Throw away: id {SBI} [8=FIX.4.2|9=0134|35=5|34=131|49=SBI0|56=SLGM0|52=20130202-08:25:31|58=Appia-vwang-6541_Remote firm id: SLGM did not match expected: SLGM0 or aliases: |10=172|]
Feb 2, 2013 8:25:33 AM: CommStuff: Socket Connection Terminated
Feb 2, 2013 8:25:33 AM: FIXCommConnection: Socket disconnected.
Feb 2, 2013 8:26:00 AM: CommProcessor_SBI: Connecting to SBI...
Feb 2, 2013 8:26:00 AM: FIXCommConnection: Trying socket connection to SBI at 127.0.0.1:7200
Feb 2, 2013 8:26:00 AM: CommStuff: Connection to SBI accepted
Feb 2, 2013 8:26:00 AM: CommStuff: Sending data on id {SBI} [8=FIX.4.0|9=0061|35=A|34=160|49=SLGM|56=SBI|52=20130202-08:26:00|98=0|108=100|10=042|]
Feb 2, 2013 8:26:00 AM: FixPump_SBI: Received data on id {SBI} [8=FIX.4.2|9=0130|35=3|34=132|49=SBI0|56=SLGM0|52=20130202-08:26:00|45=160|373=9|58=Remote firm id: SLGM did not match expected: SLGM0 or aliases: |10=095|]
Feb 2, 2013 8:26:00 AM: CommStuff: Sending data on id {SBI} [8=FIX.4.0|9=0074|35=3|34=161|49=SLGM|56=SBI|52=20130202-08:26:00|45=132|58=Expected Logon.|10=065|]
Feb 2, 2013 8:26:01 AM: FixPump_SBI: Received data on id {SBI} [8=FIX.4.2|9=0134|35=5|34=133|49=SBI0|56=SLGM0|52=20130202-08:26:01|58=Appia-vwang-6541_Remote firm id: SLGM did not match expected: SLGM0 or aliases: |10=172|]
Feb 2, 2013 8:26:01 AM: CommStuff: Sending data on id {SBI} [8=FIX.4.0|9=0084|35=5|34=162|49=SLGM|56=SBI|52=20130202-08:26:01|58=Appia-vwang-6541_Expected Logon.|10=160|]
Feb 2, 2013 8:26:02 AM: CommStuff: Sent Logout and disconnected.
Feb 2, 2013 8:26:02 AM: CommStuff: Connection to SBI is down
Feb 2, 2013 8:26:02 AM: FIXPump: Socket is disconnected.  Throw away: id {SBI} [8=FIX.4.2|9=0134|35=5|34=133|49=SBI0|56=SLGM0|52=20130202-08:26:01|58=Appia-vwang-6541_Remote firm id: SLGM did not match expected: SLGM0 or aliases: |10=172|]
Feb 2, 2013 8:26:03 AM: CommStuff: Socket Connection Terminated
Feb 2, 2013 8:26:03 AM: FIXCommConnection: Socket disconnected.
Feb 2, 2013 8:26:30 AM: CommProcessor_SBI: Connecting to SBI...
Feb 2, 2013 8:26:30 AM: FIXCommConnection: Trying socket connection to SBI at 127.0.0.1:7200
Feb 2, 2013 8:26:30 AM: CommStuff: Connection to SBI accepted
Feb 2, 2013 8:26:30 AM: CommStuff: Sending data on id {SBI} [8=FIX.4.0|9=0061|35=A|34=163|49=SLGM|56=SBI|52=20130202-08:26:30|98=0|108=100|10=048|]
Feb 2, 2013 8:26:30 AM: FixPump_SBI: Received data on id {SBI} [8=FIX.4.2|9=0130|35=3|34=134|49=SBI0|56=SLGM0|52=20130202-08:26:30|45=163|373=9|58=Remote firm id: SLGM did not match expected: SLGM0 or aliases: |10=103|]
Feb 2, 2013 8:26:30 AM: CommStuff: Sending data on id {SBI} [8=FIX.4.0|9=0074|35=3|34=164|49=SLGM|56=SBI|52=20130202-08:26:30|45=134|58=Expected Logon.|10=073|]
Feb 2, 2013 8:26:31 AM: CommStuff: Sending data on id {SBI} [8=FIX.4.0|9=0084|35=5|34=165|49=SLGM|56=SBI|52=20130202-08:26:31|58=Appia-vwang-6541_Expected Logon.|10=166|]
Feb 2, 2013 8:26:31 AM: FixPump_SBI: Received data on id {SBI} [8=FIX.4.2|9=0134|35=5|34=135|49=SBI0|56=SLGM0|52=20130202-08:26:31|58=Appia-vwang-6541_Remote firm id: SLGM did not match expected: SLGM0 or aliases: |10=177|]
Feb 2, 2013 8:26:32 AM: CommStuff: Sent Logout and disconnected.
Feb 2, 2013 8:26:32 AM: CommStuff: Connection to SBI is down
Feb 2, 2013 8:26:32 AM: FIXPump: Socket is disconnected.  Throw away: id {SBI} [8=FIX.4.2|9=0134|35=5|34=135|49=SBI0|56=SLGM0|52=20130202-08:26:31|58=Appia-vwang-6541_Remote firm id: SLGM did not match expected: SLGM0 or aliases: |10=177|]
Feb 2, 2013 8:26:32 AM: FIXCommConnection: Socket disconnected.
Feb 2, 2013 8:27:00 AM: CommProcessor_SBI: Connecting to SBI...
Feb 2, 2013 8:27:00 AM: FIXCommConnection: Trying socket connection to SBI at 127.0.0.1:7200
Feb 2, 2013 8:27:00 AM: CommStuff: Connection to SBI accepted
Feb 2, 2013 8:27:00 AM: CommStuff: Sending data on id {SBI} [8=FIX.4.0|9=0061|35=A|34=166|49=SLGM|56=SBI|52=20130202-08:27:00|98=0|108=100|10=049|]
Feb 2, 2013 8:27:00 AM: FixPump_SBI: Received data on id {SBI} [8=FIX.4.2|9=0130|35=3|34=136|49=SBI0|56=SLGM0|52=20130202-08:27:00|45=166|373=9|58=Remote firm id: SLGM did not match expected: SLGM0 or aliases: |10=106|]
Feb 2, 2013 8:27:00 AM: CommStuff: Sending data on id {SBI} [8=FIX.4.0|9=0074|35=3|34=167|49=SLGM|56=SBI|52=20130202-08:27:00|45=136|58=Expected Logon.|10=076|]
Feb 2, 2013 8:27:01 AM: CommStuff: Sending data on id {SBI} [8=FIX.4.0|9=0084|35=5|34=168|49=SLGM|56=SBI|52=20130202-08:27:01|58=Appia-vwang-6541_Expected Logon.|10=167|]
Feb 2, 2013 8:27:01 AM: FixPump_SBI: Received data on id {SBI} [8=FIX.4.2|9=0134|35=5|34=137|49=SBI0|56=SLGM0|52=20130202-08:27:01|58=Appia-vwang-6541_Remote firm id: SLGM did not match expected: SLGM0 or aliases: |10=177|]
Feb 2, 2013 8:27:02 AM: CommStuff: Sent Logout and disconnected.
Feb 2, 2013 8:27:02 AM: CommStuff: Connection to SBI is down
Feb 2, 2013 8:27:02 AM: FIXPump: Socket is disconnected.  Throw away: id {SBI} [8=FIX.4.2|9=0134|35=5|34=137|49=SBI0|56=SLGM0|52=20130202-08:27:01|58=Appia-vwang-6541_Remote firm id: SLGM did not match expected: SLGM0 or aliases: |10=177|]
Feb 2, 2013 8:27:02 AM: FIXCommConnection: Socket disconnected.
Feb 2, 2013 8:27:30 AM: CommProcessor_SBI: Connecting to SBI...
Feb 2, 2013 8:27:30 AM: FIXCommConnection: Trying socket connection to SBI at 127.0.0.1:7200
Feb 2, 2013 8:27:30 AM: CommStuff: Connection to SBI accepted
Feb 2, 2013 8:27:30 AM: CommStuff: Sending data on id {SBI} [8=FIX.4.0|9=0061|35=A|34=169|49=SLGM|56=SBI|52=20130202-08:27:30|98=0|108=100|10=055|]
Feb 2, 2013 8:27:30 AM: FixPump_SBI: Received data on id {SBI} [8=FIX.4.2|9=0130|35=3|34=138|49=SBI0|56=SLGM0|52=20130202-08:27:30|45=169|373=9|58=Remote firm id: SLGM did not match expected: SLGM0 or aliases: |10=114|]
Feb 2, 2013 8:27:30 AM: CommStuff: Sending data on id {SBI} [8=FIX.4.0|9=0074|35=3|34=170|49=SLGM|56=SBI|52=20130202-08:27:30|45=138|58=Expected Logon.|10=075|]
Feb 2, 2013 8:27:31 AM: CommStuff: Sending data on id {SBI} [8=FIX.4.0|9=0084|35=5|34=171|49=SLGM|56=SBI|52=20130202-08:27:31|58=Appia-vwang-6541_Expected Logon.|10=164|]
Feb 2, 2013 8:27:31 AM: FixPump_SBI: Received data on id {SBI} [8=FIX.4.2|9=0134|35=5|34=139|49=SBI0|56=SLGM0|52=20130202-08:27:31|58=Appia-vwang-6541_Remote firm id: SLGM did not match expected: SLGM0 or aliases: |10=182|]
Feb 2, 2013 8:27:32 AM: CommStuff: Sent Logout and disconnected.
Feb 2, 2013 8:27:32 AM: CommStuff: Connection to SBI is down
Feb 2, 2013 8:27:32 AM: FIXPump: Socket is disconnected.  Throw away: id {SBI} [8=FIX.4.2|9=0134|35=5|34=139|49=SBI0|56=SLGM0|52=20130202-08:27:31|58=Appia-vwang-6541_Remote firm id: SLGM did not match expected: SLGM0 or aliases: |10=182|]
Feb 2, 2013 8:27:33 AM: CommStuff: Socket Connection Terminated
Feb 2, 2013 8:27:33 AM: FIXCommConnection: Socket disconnected.
Feb 2, 2013 8:28:00 AM: CommProcessor_SBI: Connecting to SBI...
Feb 2, 2013 8:28:00 AM: FIXCommConnection: Trying socket connection to SBI at 127.0.0.1:7200
Feb 2, 2013 8:28:00 AM: CommStuff: Connection to SBI accepted
Feb 2, 2013 8:28:00 AM: CommStuff: Sending data on id {SBI} [8=FIX.4.0|9=0061|35=A|34=172|49=SLGM|56=SBI|52=20130202-08:28:00|98=0|108=100|10=047|]
Feb 2, 2013 8:28:00 AM: FixPump_SBI: Received data on id {SBI} [8=FIX.4.2|9=0130|35=3|34=140|49=SBI0|56=SLGM0|52=20130202-08:28:00|45=172|373=9|58=Remote firm id: SLGM did not match expected: SLGM0 or aliases: |10=099|]
Feb 2, 2013 8:28:00 AM: CommStuff: Sending data on id {SBI} [8=FIX.4.0|9=0074|35=3|34=173|49=SLGM|56=SBI|52=20130202-08:28:00|45=140|58=Expected Logon.|10=069|]
Feb 2, 2013 8:28:01 AM: CommStuff: Sending data on id {SBI} [8=FIX.4.0|9=0084|35=5|34=174|49=SLGM|56=SBI|52=20130202-08:28:01|58=Appia-vwang-6541_Expected Logon.|10=165|]
Feb 2, 2013 8:28:01 AM: FixPump_SBI: Received data on id {SBI} [8=FIX.4.2|9=0134|35=5|34=141|49=SBI0|56=SLGM0|52=20130202-08:28:01|58=Appia-vwang-6541_Remote firm id: SLGM did not match expected: SLGM0 or aliases: |10=173|]
Feb 2, 2013 8:28:02 AM: CommStuff: Sent Logout and disconnected.
Feb 2, 2013 8:28:02 AM: CommStuff: Connection to SBI is down
Feb 2, 2013 8:28:02 AM: FIXPump: Socket is disconnected.  Throw away: id {SBI} [8=FIX.4.2|9=0134|35=5|34=141|49=SBI0|56=SLGM0|52=20130202-08:28:01|58=Appia-vwang-6541_Remote firm id: SLGM did not match expected: SLGM0 or aliases: |10=173|]
Feb 2, 2013 8:28:03 AM: CommStuff: Socket Connection Terminated
Feb 2, 2013 8:28:03 AM: FIXCommConnection: Socket disconnected.
Feb 2, 2013 8:28:30 AM: CommProcessor_SBI: Connecting to SBI...
Feb 2, 2013 8:28:30 AM: FIXCommConnection: Trying socket connection to SBI at 127.0.0.1:7200
Feb 2, 2013 8:28:30 AM: CommStuff: Connection to SBI accepted
Feb 2, 2013 8:28:30 AM: CommStuff: Sending data on id {SBI} [8=FIX.4.0|9=0061|35=A|34=175|49=SLGM|56=SBI|52=20130202-08:28:30|98=0|108=100|10=053|]
Feb 2, 2013 8:28:30 AM: FixPump_SBI: Received data on id {SBI} [8=FIX.4.2|9=0130|35=3|34=142|49=SBI0|56=SLGM0|52=20130202-08:28:30|45=175|373=9|58=Remote firm id: SLGM did not match expected: SLGM0 or aliases: |10=107|]
Feb 2, 2013 8:28:30 AM: CommStuff: Sending data on id {SBI} [8=FIX.4.0|9=0074|35=3|34=176|49=SLGM|56=SBI|52=20130202-08:28:30|45=142|58=Expected Logon.|10=077|]
Feb 2, 2013 8:28:31 AM: CommStuff: Sending data on id {SBI} [8=FIX.4.0|9=0084|35=5|34=177|49=SLGM|56=SBI|52=20130202-08:28:31|58=Appia-vwang-6541_Expected Logon.|10=171|]
Feb 2, 2013 8:28:31 AM: FixPump_SBI: Received data on id {SBI} [8=FIX.4.2|9=0134|35=5|34=143|49=SBI0|56=SLGM0|52=20130202-08:28:31|58=Appia-vwang-6541_Remote firm id: SLGM did not match expected: SLGM0 or aliases: |10=178|]
Feb 2, 2013 8:28:32 AM: CommStuff: Sent Logout and disconnected.
Feb 2, 2013 8:28:32 AM: CommStuff: Connection to SBI is down
Feb 2, 2013 8:28:32 AM: FIXPump: Socket is disconnected.  Throw away: id {SBI} [8=FIX.4.2|9=0134|35=5|34=143|49=SBI0|56=SLGM0|52=20130202-08:28:31|58=Appia-vwang-6541_Remote firm id: SLGM did not match expected: SLGM0 or aliases: |10=178|]
Feb 2, 2013 8:28:33 AM: CommStuff: Socket Connection Terminated
Feb 2, 2013 8:28:33 AM: FIXCommConnection: Socket disconnected.
Feb 2, 2013 8:29:00 AM: CommProcessor_SBI: Connecting to SBI...
Feb 2, 2013 8:29:00 AM: FIXCommConnection: Trying socket connection to SBI at 127.0.0.1:7200
Feb 2, 2013 8:29:00 AM: CommStuff: Connection to SBI accepted
Feb 2, 2013 8:29:00 AM: CommStuff: Sending data on id {SBI} [8=FIX.4.0|9=0061|35=A|34=178|49=SLGM|56=SBI|52=20130202-08:29:00|98=0|108=100|10=054|]
Feb 2, 2013 8:29:00 AM: FixPump_SBI: Received data on id {SBI} [8=FIX.4.2|9=0130|35=3|34=144|49=SBI0|56=SLGM0|52=20130202-08:29:00|45=178|373=9|58=Remote firm id: SLGM did not match expected: SLGM0 or aliases: |10=110|]
Feb 2, 2013 8:29:00 AM: CommStuff: Sending data on id {SBI} [8=FIX.4.0|9=0074|35=3|34=179|49=SLGM|56=SBI|52=20130202-08:29:00|45=144|58=Expected Logon.|10=080|]
Feb 2, 2013 8:29:01 AM: CommStuff: Sending data on id {SBI} [8=FIX.4.0|9=0084|35=5|34=180|49=SLGM|56=SBI|52=20130202-08:29:01|58=Appia-vwang-6541_Expected Logon.|10=163|]
Feb 2, 2013 8:29:01 AM: FixPump_SBI: Received data on id {SBI} [8=FIX.4.2|9=0134|35=5|34=145|49=SBI0|56=SLGM0|52=20130202-08:29:01|58=Appia-vwang-6541_Remote firm id: SLGM did not match expected: SLGM0 or aliases: |10=178|]
Feb 2, 2013 8:29:02 AM: FIXCommConnection: Socket disconnected by peer.
Feb 2, 2013 8:29:02 AM: CommStuff: Sent Logout and disconnected.
Feb 2, 2013 8:29:02 AM: FIXPump: Socket is disconnected.  Throw away: id {SBI} [8=FIX.4.2|9=0134|35=5|34=145|49=SBI0|56=SLGM0|52=20130202-08:29:01|58=Appia-vwang-6541_Remote firm id: SLGM did not match expected: SLGM0 or aliases: |10=178|]
Feb 2, 2013 8:29:30 AM: CommProcessor_SBI: Connecting to SBI...
Feb 2, 2013 8:29:30 AM: FIXCommConnection: Trying socket connection to SBI at 127.0.0.1:7200
Feb 2, 2013 8:29:30 AM: CommStuff: Connection to SBI accepted
Feb 2, 2013 8:29:30 AM: CommStuff: Sending data on id {SBI} [8=FIX.4.0|9=0061|35=A|34=181|49=SLGM|56=SBI|52=20130202-08:29:30|98=0|108=100|10=051|]
Feb 2, 2013 8:29:30 AM: FixPump_SBI: Received data on id {SBI} [8=FIX.4.2|9=0130|35=3|34=146|49=SBI0|56=SLGM0|52=20130202-08:29:30|45=181|373=9|58=Remote firm id: SLGM did not match expected: SLGM0 or aliases: |10=109|]
Feb 2, 2013 8:29:30 AM: CommStuff: Sending data on id {SBI} [8=FIX.4.0|9=0074|35=3|34=182|49=SLGM|56=SBI|52=20130202-08:29:30|45=146|58=Expected Logon.|10=079|]
Feb 2, 2013 8:29:31 AM: CommStuff: Sending data on id {SBI} [8=FIX.4.0|9=0084|35=5|34=183|49=SLGM|56=SBI|52=20130202-08:29:31|58=Appia-vwang-6541_Expected Logon.|10=169|]
Feb 2, 2013 8:29:31 AM: FixPump_SBI: Received data on id {SBI} [8=FIX.4.2|9=0134|35=5|34=147|49=SBI0|56=SLGM0|52=20130202-08:29:31|58=Appia-vwang-6541_Remote firm id: SLGM did not match expected: SLGM0 or aliases: |10=183|]
Feb 2, 2013 8:29:32 AM: CommStuff: Sent Logout and disconnected.
Feb 2, 2013 8:29:32 AM: CommStuff: Connection to SBI is down
Feb 2, 2013 8:29:32 AM: FIXPump: Socket is disconnected.  Throw away: id {SBI} [8=FIX.4.2|9=0134|35=5|34=147|49=SBI0|56=SLGM0|52=20130202-08:29:31|58=Appia-vwang-6541_Remote firm id: SLGM did not match expected: SLGM0 or aliases: |10=183|]
Feb 2, 2013 8:29:32 AM: FIXCommConnection: Socket disconnected.
Feb 2, 2013 8:30:00 AM: CommProcessor_SBI: Connecting to SBI...
Feb 2, 2013 8:30:00 AM: FIXCommConnection: Trying socket connection to SBI at 127.0.0.1:7200
Feb 2, 2013 8:30:00 AM: CommStuff: Connection to SBI accepted
Feb 2, 2013 8:30:00 AM: CommStuff: Sending data on id {SBI} [8=FIX.4.0|9=0061|35=A|34=184|49=SLGM|56=SBI|52=20130202-08:30:00|98=0|108=100|10=043|]
Feb 2, 2013 8:30:00 AM: FixPump_SBI: Received data on id {SBI} [8=FIX.4.2|9=0130|35=3|34=148|49=SBI0|56=SLGM0|52=20130202-08:30:00|45=184|373=9|58=Remote firm id: SLGM did not match expected: SLGM0 or aliases: |10=103|]
Feb 2, 2013 8:30:00 AM: CommStuff: Sending data on id {SBI} [8=FIX.4.0|9=0074|35=3|34=185|49=SLGM|56=SBI|52=20130202-08:30:00|45=148|58=Expected Logon.|10=073|]
Feb 2, 2013 8:30:01 AM: CommStuff: Sending data on id {SBI} [8=FIX.4.0|9=0084|35=5|34=186|49=SLGM|56=SBI|52=20130202-08:30:01|58=Appia-vwang-6541_Expected Logon.|10=161|]
Feb 2, 2013 8:30:01 AM: FixPump_SBI: Received data on id {SBI} [8=FIX.4.2|9=0134|35=5|34=149|49=SBI0|56=SLGM0|52=20130202-08:30:01|58=Appia-vwang-6541_Remote firm id: SLGM did not match expected: SLGM0 or aliases: |10=174|]
Feb 2, 2013 8:30:02 AM: CommStuff: Sent Logout and disconnected.
Feb 2, 2013 8:30:02 AM: CommStuff: Connection to SBI is down
Feb 2, 2013 8:30:02 AM: FIXCommConnection: Socket disconnected by peer.
Feb 2, 2013 8:30:02 AM: FIXPump: Socket is disconnected.  Throw away: id {SBI} [8=FIX.4.2|9=0134|35=5|34=149|49=SBI0|56=SLGM0|52=20130202-08:30:01|58=Appia-vwang-6541_Remote firm id: SLGM did not match expected: SLGM0 or aliases: |10=174|]
Feb 2, 2013 8:30:30 AM: CommProcessor_SBI: Connecting to SBI...
Feb 2, 2013 8:30:30 AM: FIXCommConnection: Trying socket connection to SBI at 127.0.0.1:7200
Feb 2, 2013 8:30:30 AM: CommStuff: Connection to SBI accepted
Feb 2, 2013 8:30:30 AM: CommStuff: Sending data on id {SBI} [8=FIX.4.0|9=0061|35=A|34=187|49=SLGM|56=SBI|52=20130202-08:30:30|98=0|108=100|10=049|]
Feb 2, 2013 8:30:30 AM: FixPump_SBI: Received data on id {SBI} [8=FIX.4.2|9=0130|35=3|34=150|49=SBI0|56=SLGM0|52=20130202-08:30:29|45=187|373=9|58=Remote firm id: SLGM did not match expected: SLGM0 or aliases: |10=110|]
Feb 2, 2013 8:30:30 AM: CommStuff: Sending data on id {SBI} [8=FIX.4.0|9=0074|35=3|34=188|49=SLGM|56=SBI|52=20130202-08:30:30|45=150|58=Expected Logon.|10=072|]
Feb 2, 2013 8:30:31 AM: CommStuff: Sending data on id {SBI} [8=FIX.4.0|9=0084|35=5|34=189|49=SLGM|56=SBI|52=20130202-08:30:31|58=Appia-vwang-6541_Expected Logon.|10=167|]
Feb 2, 2013 8:30:31 AM: FixPump_SBI: Received data on id {SBI} [8=FIX.4.2|9=0134|35=5|34=151|49=SBI0|56=SLGM0|52=20130202-08:30:30|58=Appia-vwang-6541_Remote firm id: SLGM did not match expected: SLGM0 or aliases: |10=169|]
Feb 2, 2013 8:30:32 AM: CommStuff: Sent Logout and disconnected.
Feb 2, 2013 8:30:32 AM: CommStuff: Connection to SBI is down
Feb 2, 2013 8:30:32 AM: FIXCommConnection: Socket disconnected by peer.
Feb 2, 2013 8:30:32 AM: FIXPump: Socket is disconnected.  Throw away: id {SBI} [8=FIX.4.2|9=0134|35=5|34=151|49=SBI0|56=SLGM0|52=20130202-08:30:30|58=Appia-vwang-6541_Remote firm id: SLGM did not match expected: SLGM0 or aliases: |10=169|]
Feb 2, 2013 8:31:00 AM: CommProcessor_SBI: Connecting to SBI...
Feb 2, 2013 8:31:00 AM: FIXCommConnection: Trying socket connection to SBI at 127.0.0.1:7200
Feb 2, 2013 8:31:00 AM: CommStuff: Connection to SBI accepted
Feb 2, 2013 8:31:00 AM: CommStuff: Sending data on id {SBI} [8=FIX.4.0|9=0061|35=A|34=190|49=SLGM|56=SBI|52=20130202-08:31:00|98=0|108=100|10=041|]
Feb 2, 2013 8:31:00 AM: FixPump_SBI: Received data on id {SBI} [8=FIX.4.2|9=0130|35=3|34=152|49=SBI0|56=SLGM0|52=20130202-08:30:59|45=190|373=9|58=Remote firm id: SLGM did not match expected: SLGM0 or aliases: |10=109|]
Feb 2, 2013 8:31:00 AM: CommStuff: Sending data on id {SBI} [8=FIX.4.0|9=0074|35=3|34=191|49=SLGM|56=SBI|52=20130202-08:31:00|45=152|58=Expected Logon.|10=066|]
Feb 2, 2013 8:31:01 AM: CommStuff: Sending data on id {SBI} [8=FIX.4.0|9=0084|35=5|34=192|49=SLGM|56=SBI|52=20130202-08:31:01|58=Appia-vwang-6541_Expected Logon.|10=159|]
Feb 2, 2013 8:31:01 AM: FixPump_SBI: Received data on id {SBI} [8=FIX.4.2|9=0134|35=5|34=153|49=SBI0|56=SLGM0|52=20130202-08:31:00|58=Appia-vwang-6541_Remote firm id: SLGM did not match expected: SLGM0 or aliases: |10=169|]
Feb 2, 2013 8:31:02 AM: CommStuff: Sent Logout and disconnected.
Feb 2, 2013 8:31:02 AM: FIXCommConnection: Socket disconnected by peer.
Feb 2, 2013 8:31:02 AM: FIXPump: Socket is disconnected.  Throw away: id {SBI} [8=FIX.4.2|9=0134|35=5|34=153|49=SBI0|56=SLGM0|52=20130202-08:31:00|58=Appia-vwang-6541_Remote firm id: SLGM did not match expected: SLGM0 or aliases: |10=169|]
Feb 2, 2013 8:31:30 AM: CommProcessor_SBI: Connecting to SBI...
Feb 2, 2013 8:31:30 AM: FIXCommConnection: Trying socket connection to SBI at 127.0.0.1:7200
Feb 2, 2013 8:31:30 AM: CommStuff: Connection to SBI accepted
