2016/05/05 09:44:52:973: SysLog: opened for next day: ..\logs\buy\C20160505.log
2016/05/05 09:47:31:223: SessionProxyManager:AUXSERV: Threading is STATIC
2016/05/05 09:47:31:226: Middleware:AUXSERV: processing command:version
2016/05/05 09:47:31:231: Middleware:AUXSERV: processing command:stats
2016/05/05 09:47:31:236: HeapFile:RMW_AUXSERV: File creation name [..\logs\buy\RMW_AuxServ.ods] is not opening name [..\logs\buy\RMW_AUXSERV.ods]
2016/05/05 09:47:31:239: HeapFile:RMW_AUXSERV: File creation name [..\logs\buy\RMW_AuxServ.ods] is not opening name [..\logs\buy\RMW_AUXSERV.ods]
2016/05/05 09:47:31:240: Middleware:AUXSERV: processing command:service_up all
2016/05/05 09:47:31:242: HeapFile:RMW_AUXSERV: loadRecord: meta=1 free=0 used=16 total=17 in 3 milliseconds.
2016/05/05 09:47:31:251: Middleware:AUXSERV: processing command:connect all
2016/05/05 09:47:31:256: FIXCommConnection: Trying socket connection AUTEX at 169.141.1.74:7003
2016/05/05 09:47:31:289: FIXCommConnection: Connection established AUTEX at 169.141.1.74:7003
2016/05/05 09:47:31:294: FIXConnectionData: Sending data on connection {AUTEX} [8=FIX.4.2|9=0062|35=A|34=1|49=INDATA|56=AUTEX|52=20160505-13:47:31|98=0|108=30|10=204|]
2016/05/05 09:47:31:294: FIXCommConnection: Trying socket connection BIDS at 207.61.123.13:5022
2016/05/05 09:47:31:331: FIXPump: Received data on connection {AUTEX} [8=FIX.4.2|9=62|35=A|34=1|49=AUTEX|56=INDATA|52=20140505-13:45:34|108=30|98=0|10=107|]
2016/05/05 09:47:31:378: FIXCommConnection: Connection established BIDS at 207.61.123.13:5022
2016/05/05 09:47:31:378: FIXConnectionData: Sending data on connection {BIDS} [8=FIX.4.2|9=0064|35=A|34=1|49=INDATATL1|56=BIDS|52=20160505-13:47:31|98=0|108=30|10=058|]
2016/05/05 09:47:31:379: FIXCommConnection: Trying socket connection ITGIGDS at 64.172.210.27:26759
2016/05/05 09:47:31:465: FIXPump: Received data on connection {BIDS} [8=FIX.4.2|9=157|35=5|34=1|49=BIDS|50=BIDS|52=20140505-13:45:34.170|56=INDATATL1|57=001|58=Tried to send a reject while not logged on: SendingTime accuracy problem (field 0)|10=102|]
2016/05/05 09:47:31:537: FIXCommConnection: Connection established ITGIGDS at 64.172.210.27:26759
2016/05/05 09:47:31:538: FIXConnectionData: Sending data on connection {ITGIGDS} [8=FIX.4.2|9=0067|35=A|34=1|49=INDATAGDS|56=ITGIGDS|52=20160505-13:47:31|98=0|108=30|10=051|]
2016/05/05 09:47:31:538: FIXCommConnection: Trying socket connection NYFIXUAT at 38.160.70.162:22222
2016/05/05 09:47:31:736: FIXPump: Received data on connection {ITGIGDS} [8=FIX.4.2|9=67|35=A|34=1|49=ITGIGDS|56=INDATAGDS|52=20140505-13:45:34|98=0|108=30|10=210|]
2016/05/05 09:47:32:238: FIXCommConnection: Trying socket connection SBI0 at 127.0.0.1:7000
2016/05/05 09:47:32:244: FIXCommConnection: Connection established SBI0 at 127.0.0.1:7000
2016/05/05 09:47:32:244: FIXCommConnection: Trying socket connection SBI1 at 127.0.0.1:7000
2016/05/05 09:47:32:245: FIXCommConnection: Connection established SBI1 at 127.0.0.1:7000
2016/05/05 09:47:32:246: FIXCommConnection: Trying socket connection SBI4 at 127.0.0.1:7000
2016/05/05 09:47:32:247: FIXPump: Received data on connection {AUTEX} [8=FIX.4.2|9=61|35=1|34=2|49=AUTEX|56=INDATA|52=20140505-13:45:34|112=STBL-2|10=168|]
2016/05/05 09:47:32:248: FIXCommConnection: Connection established SBI4 at 127.0.0.1:7000
2016/05/05 09:47:32:248: FIXConnectionData: Sending data on connection {BIDS} [8=FIX.4.2|9=0125|35=5|34=2|49=INDATATL1|56=BIDS|52=20160505-13:47:32|58=TEST1_9652- Expecting Logon but got Logout: disconnecting immediately|10=094|]
2016/05/05 09:47:32:249: FIXConnectionData: Sending data on connection {SBI0} [8=FIX.4.2|9=0060|35=A|34=1|49=SLGM0|56=SBI0|52=20160505-13:47:32|98=0|108=60|10=007|]
2016/05/05 09:47:32:254: FIXPump: FIX session established on connection: AUTEX
2016/05/05 09:47:32:258: FIXConnectionData: Sending data on connection {SBI1} [8=FIX.4.0|9=0060|35=A|34=1|49=SLGM1|56=SBI1|52=20160505-13:47:32|98=0|108=30|10=004|]
2016/05/05 09:47:32:261: FIXConnectionData: Sending data on connection {SBI4} [8=FIX.4.4|9=0060|35=A|34=1|49=SLGM4|56=SBI4|52=20160505-13:47:32|98=0|108=30|10=014|]
2016/05/05 09:47:32:276: FIXPump: Received data on connection {SBI1} [8=FIX.4.0|9=0060|35=A|34=1|49=SBI1|56=SLGM1|52=20160505-13:47:32|98=0|108=30|10=004|]
2016/05/05 09:47:32:278: FIXPump: Received data on connection {SBI0} [8=FIX.4.2|9=0060|35=A|34=1|49=SBI0|56=SLGM0|52=20160505-13:47:32|98=0|108=60|10=007|]
2016/05/05 09:47:32:281: FIXPump: Received data on connection {SBI4} [8=FIX.4.4|9=0060|35=A|34=1|49=SBI4|56=SLGM4|52=20160505-13:47:32|98=0|108=30|10=014|]
2016/05/05 09:47:33:244: FIXPump: FIX session established on connection: ITGIGDS
2016/05/05 09:47:33:278: FIXPump: FIX session established on connection: SBI1
2016/05/05 09:47:33:280: FIXPump: FIX session established on connection: SBI0
2016/05/05 09:47:33:283: FIXPump: FIX session established on connection: SBI4
2016/05/05 09:47:34:540: FIXConnectionData_NYFIXUAT: Failed to connect NYFIXUAT at 38.160.70.162:22222. Validate counter party IP and port.
2016/05/05 09:47:34:540: FIXFormatter_NYFIXUAT: Logon: Connect failed!
2016/05/05 09:47:37:246: FIXConnectionData_BIDS: After sending logout, waited: 5 seconds before disconnecting.
2016/05/05 09:47:37:246: FIXConnectionData_BIDS: Connection closed on Socket[local=0.0.0.0:58403 remote=207.61.123.13:5022]
2016/05/05 09:47:37:246: FIXConnectionData_BIDS: FIX session terminated on connection: BIDS
2016/05/05 09:47:41:739: FIXPump: Received data on connection {ITGIGDS} [8=FIX.4.2|9=74|35=1|34=2|49=ITGIGDS|56=INDATAGDS|52=20140505-13:45:44|112=20140505094544|10=070|]
2014/05/05 09:50:07:909: FIXPump: Received data on connection {AUTEX} [8=FIX.4.2|9=61|35=1|34=8|49=AUTEX|56=INDATA|52=20140505-13:48:11|112=HBTO-8|10=170|]
2014/05/05 09:50:26:243: FIXPump: Received data on connection {ITGIGDS} [8=FIX.4.2|9=74|35=1|34=8|49=ITGIGDS|56=INDATAGDS|52=20140505-13:48:29|112=20140505094829|10=088|]
2014/05/05 09:50:44:200: FIXPump: Received data on connection {AUTEX} [8=FIX.4.2|9=63|35=1|34=10|49=AUTEX|56=INDATA|52=20140505-13:48:47|112=HBTO-10|10=007|]
2014/05/05 09:51:10:834: FIXPump: Received data on connection {ITGIGDS} [8=FIX.4.2|9=75|35=1|34=10|49=ITGIGDS|56=INDATAGDS|52=20140505-13:49:14|112=20140505094914|10=120|]
2014/05/05 09:51:20:464: FIXPump: Received data on connection {AUTEX} [8=FIX.4.2|9=63|35=1|34=12|49=AUTEX|56=INDATA|52=20140505-13:49:23|112=HBTO-12|10=006|]
2014/05/05 09:51:55:915: FIXPump: Received data on connection {ITGIGDS} [8=FIX.4.2|9=75|35=1|34=12|49=ITGIGDS|56=INDATAGDS|52=20140505-13:49:59|112=20140505094959|10=140|]
2014/05/05 09:51:56:718: FIXPump: Received data on connection {AUTEX} [8=FIX.4.2|9=63|35=1|34=14|49=AUTEX|56=INDATA|52=20140505-13:50:00|112=HBTO-14|10=253|]
2014/05/05 09:52:32:959: FIXPump: Received data on connection {AUTEX} [8=FIX.4.2|9=63|35=1|34=16|49=AUTEX|56=INDATA|52=20140505-13:50:36|112=HBTO-16|10=010|]
2014/05/05 09:52:40:997: FIXPump: Received data on connection {ITGIGDS} [8=FIX.4.2|9=75|35=1|34=14|49=ITGIGDS|56=INDATAGDS|52=20140505-13:50:44|112=20140505095044|10=114|]
2014/05/05 09:53:09:230: FIXPump: Received data on connection {AUTEX} [8=FIX.4.2|9=63|35=1|34=18|49=AUTEX|56=INDATA|52=20140505-13:51:12|112=HBTO-18|10=009|]
2014/05/05 09:53:25:855: FIXPump: Received data on connection {ITGIGDS} [8=FIX.4.2|9=75|35=1|34=16|49=ITGIGDS|56=INDATAGDS|52=20140505-13:51:29|112=20140505095129|10=124|]
2014/05/05 09:53:45:476: FIXPump: Received data on connection {AUTEX} [8=FIX.4.2|9=63|35=1|34=20|49=AUTEX|56=INDATA|52=20140505-13:51:48|112=HBTO-20|10=004|]
2014/05/05 09:54:11:238: FIXPump: Received data on connection {ITGIGDS} [8=FIX.4.2|9=75|35=1|34=18|49=ITGIGDS|56=INDATAGDS|52=20140505-13:52:14|112=20140505095214|10=116|]
2014/05/05 09:54:21:774: FIXPump: Received data on connection {AUTEX} [8=FIX.4.2|9=63|35=1|34=22|49=AUTEX|56=INDATA|52=20140505-13:52:25|112=HBTO-22|10=004|]
2014/05/05 09:54:56:697: FIXPump: Received data on connection {ITGIGDS} [8=FIX.4.2|9=75|35=1|34=20|49=ITGIGDS|56=INDATAGDS|52=20140505-13:52:59|112=20140505095259|10=127|]
2014/05/05 09:54:58:046: FIXPump: Received data on connection {AUTEX} [8=FIX.4.2|9=63|35=1|34=24|49=AUTEX|56=INDATA|52=20140505-13:53:01|112=HBTO-24|10=003|]
2014/05/05 09:55:34:306: FIXPump: Received data on connection {AUTEX} [8=FIX.4.2|9=63|35=1|34=26|49=AUTEX|56=INDATA|52=20140505-13:53:37|112=HBTO-26|10=016|]
2014/05/05 09:55:41:850: FIXPump: Received data on connection {ITGIGDS} [8=FIX.4.2|9=75|35=1|34=22|49=ITGIGDS|56=INDATAGDS|52=20140505-13:53:45|112=20140505095345|10=121|]
2014/05/05 09:56:10:584: FIXPump: Received data on connection {AUTEX} [8=FIX.4.2|9=63|35=1|34=28|49=AUTEX|56=INDATA|52=20140505-13:54:13|112=HBTO-28|10=015|]
2014/05/05 09:56:27:546: FIXPump: Received data on connection {ITGIGDS} [8=FIX.4.2|9=75|35=1|34=24|49=ITGIGDS|56=INDATAGDS|52=20140505-13:54:30|112=20140505095430|10=113|]
2014/05/05 09:56:46:825: FIXPump: Received data on connection {AUTEX} [8=FIX.4.2|9=63|35=1|34=30|49=AUTEX|56=INDATA|52=20140505-13:54:50|112=HBTO-30|10=002|]
2014/05/05 09:57:12:241: FIXPump: Received data on connection {ITGIGDS} [8=FIX.4.2|9=75|35=1|34=26|49=ITGIGDS|56=INDATAGDS|52=20140505-13:55:15|112=20140505095515|10=123|]
2014/05/05 09:57:23:090: FIXPump: Received data on connection {AUTEX} [8=FIX.4.2|9=63|35=1|34=32|49=AUTEX|56=INDATA|52=20140505-13:55:26|112=HBTO-32|10=010|]
2014/05/05 09:57:57:356: FIXPump: Received data on connection {ITGIGDS} [8=FIX.4.2|9=75|35=1|34=28|49=ITGIGDS|56=INDATAGDS|52=20140505-13:56:00|112=20140505095600|10=115|]
2014/05/05 09:57:59:364: FIXPump: Received data on connection {AUTEX} [8=FIX.4.2|9=63|35=1|34=34|49=AUTEX|56=INDATA|52=20140505-13:56:02|112=HBTO-34|10=009|]
2014/05/05 09:58:35:665: FIXPump: Received data on connection {AUTEX} [8=FIX.4.2|9=63|35=1|34=36|49=AUTEX|56=INDATA|52=20140505-13:56:38|112=HBTO-36|10=022|]
2014/05/05 09:58:42:710: FIXPump: Received data on connection {ITGIGDS} [8=FIX.4.2|9=75|35=1|34=30|49=ITGIGDS|56=INDATAGDS|52=20140505-13:56:45|112=20140505095645|10=126|]
2014/05/05 09:59:11:949: FIXPump: Received data on connection {AUTEX} [8=FIX.4.2|9=63|35=1|34=38|49=AUTEX|56=INDATA|52=20140505-13:57:15|112=HBTO-38|10=022|]
2014/05/05 09:59:27:809: FIXPump: Received data on connection {ITGIGDS} [8=FIX.4.2|9=75|35=1|34=32|49=ITGIGDS|56=INDATAGDS|52=20140505-13:57:31|112=20140505095731|10=120|]
2014/05/05 09:59:48:225: FIXPump: Received data on connection {AUTEX} [8=FIX.4.2|9=63|35=1|34=40|49=AUTEX|56=INDATA|52=20140505-13:57:51|112=HBTO-40|10=008|]
2014/05/05 10:00:12:986: FIXPump: Received data on connection {ITGIGDS} [8=FIX.4.2|9=75|35=1|34=34|49=ITGIGDS|56=INDATAGDS|52=20140505-13:58:16|112=20140505095816|10=130|]
2014/05/05 10:00:24:503: FIXPump: Received data on connection {AUTEX} [8=FIX.4.2|9=63|35=1|34=42|49=AUTEX|56=INDATA|52=20140505-13:58:27|112=HBTO-42|10=016|]
2014/05/05 10:00:57:824: FIXPump: Received data on connection {ITGIGDS} [8=FIX.4.2|9=75|35=1|34=36|49=ITGIGDS|56=INDATAGDS|52=20140505-13:59:01|112=20140505095901|10=122|]
2014/05/05 10:01:00:760: FIXPump: Received data on connection {AUTEX} [8=FIX.4.2|9=63|35=1|34=44|49=AUTEX|56=INDATA|52=20140505-13:59:04|112=HBTO-44|10=016|]
2014/05/05 10:01:37:003: FIXPump: Received data on connection {AUTEX} [8=FIX.4.2|9=63|35=1|34=46|49=AUTEX|56=INDATA|52=20140505-13:59:40|112=HBTO-46|10=020|]
2014/05/05 10:01:43:060: FIXPump: Received data on connection {ITGIGDS} [8=FIX.4.2|9=75|35=1|34=38|49=ITGIGDS|56=INDATAGDS|52=20140505-13:59:46|112=20140505095946|10=142|]
2014/05/05 10:02:13:249: FIXPump: Received data on connection {AUTEX} [8=FIX.4.2|9=63|35=1|34=48|49=AUTEX|56=INDATA|52=20140505-14:00:16|112=HBTO-48|10=014|]
2014/05/05 10:02:28:154: FIXPump: Received data on connection {ITGIGDS} [8=FIX.4.2|9=75|35=1|34=40|49=ITGIGDS|56=INDATAGDS|52=20140505-14:00:31|112=20140505100031|10=088|]
2014/05/05 10:02:49:491: FIXPump: Received data on connection {AUTEX} [8=FIX.4.2|9=63|35=1|34=50|49=AUTEX|56=INDATA|52=20140505-14:00:52|112=HBTO-50|10=000|]
2014/05/05 10:03:13:600: FIXPump: Received data on connection {ITGIGDS} [8=FIX.4.2|9=75|35=1|34=42|49=ITGIGDS|56=INDATAGDS|52=20140505-14:01:16|112=20140505100116|10=098|]
2014/05/05 10:03:25:771: FIXPump: Received data on connection {AUTEX} [8=FIX.4.2|9=63|35=1|34=52|49=AUTEX|56=INDATA|52=20140505-14:01:29|112=HBTO-52|10=009|]
2014/05/05 10:03:58:681: FIXPump: Received data on connection {ITGIGDS} [8=FIX.4.2|9=75|35=1|34=44|49=ITGIGDS|56=INDATAGDS|52=20140505-14:02:01|112=20140505100201|10=090|]
2014/05/05 10:04:02:053: FIXPump: Received data on connection {AUTEX} [8=FIX.4.2|9=63|35=1|34=54|49=AUTEX|56=INDATA|52=20140505-14:02:05|112=HBTO-54|10=008|]
2014/05/05 10:04:38:339: FIXPump: Received data on connection {AUTEX} [8=FIX.4.2|9=63|35=1|34=56|49=AUTEX|56=INDATA|52=20140505-14:02:41|112=HBTO-56|10=012|]
2014/05/05 10:04:43:789: FIXPump: Received data on connection {ITGIGDS} [8=FIX.4.2|9=75|35=1|34=46|49=ITGIGDS|56=INDATAGDS|52=20140505-14:02:47|112=20140505100247|10=112|]
2014/05/05 10:05:14:659: FIXPump: Received data on connection {AUTEX} [8=FIX.4.2|9=63|35=1|34=58|49=AUTEX|56=INDATA|52=20140505-14:03:17|112=HBTO-58|10=020|]
2014/05/05 10:05:28:849: FIXPump: Received data on connection {ITGIGDS} [8=FIX.4.2|9=75|35=1|34=48|49=ITGIGDS|56=INDATAGDS|52=20140505-14:03:32|112=20140505100332|10=104|]
2014/05/05 10:05:50:965: FIXPump: Received data on connection {AUTEX} [8=FIX.4.2|9=63|35=1|34=60|49=AUTEX|56=INDATA|52=20140505-14:03:54|112=HBTO-60|10=007|]
2014/05/05 10:06:13:930: FIXPump: Received data on connection {ITGIGDS} [8=FIX.4.2|9=75|35=1|34=50|49=ITGIGDS|56=INDATAGDS|52=20140505-14:04:17|112=20140505100417|10=105|]
2014/05/05 10:06:27:281: FIXPump: Received data on connection {AUTEX} [8=FIX.4.2|9=63|35=1|34=62|49=AUTEX|56=INDATA|52=20140505-14:04:30|112=HBTO-62|10=006|]
2014/05/05 10:06:58:840: FIXPump: Received data on connection {ITGIGDS} [8=FIX.4.2|9=75|35=1|34=52|49=ITGIGDS|56=INDATAGDS|52=20140505-14:05:02|112=20140505100502|10=097|]
2014/05/05 10:07:03:583: FIXPump: Received data on connection {AUTEX} [8=FIX.4.2|9=63|35=1|34=64|49=AUTEX|56=INDATA|52=20140505-14:05:06|112=HBTO-64|10=014|]
2014/05/05 10:07:39:870: FIXPump: Received data on connection {AUTEX} [8=FIX.4.2|9=63|35=1|34=66|49=AUTEX|56=INDATA|52=20140505-14:05:43|112=HBTO-66|10=019|]
2014/05/05 10:07:43:920: FIXPump: Received data on connection {ITGIGDS} [8=FIX.4.2|9=75|35=1|34=54|49=ITGIGDS|56=INDATAGDS|52=20140505-14:05:47|112=20140505100547|10=117|]
2014/05/05 10:08:16:149: FIXPump: Received data on connection {AUTEX} [8=FIX.4.2|9=63|35=1|34=68|49=AUTEX|56=INDATA|52=20140505-14:06:19|112=HBTO-68|10=027|]
2014/05/05 10:08:29:002: FIXPump: Received data on connection {ITGIGDS} [8=FIX.4.2|9=75|35=1|34=56|49=ITGIGDS|56=INDATAGDS|52=20140505-14:06:32|112=20140505100632|10=109|]
2014/05/05 10:08:52:422: FIXPump: Received data on connection {AUTEX} [8=FIX.4.2|9=63|35=1|34=70|49=AUTEX|56=INDATA|52=20140505-14:06:55|112=HBTO-70|10=013|]
2014/05/05 10:09:14:873: FIXPump: Received data on connection {ITGIGDS} [8=FIX.4.2|9=75|35=1|34=58|49=ITGIGDS|56=INDATAGDS|52=20140505-14:07:17|112=20140505100717|10=119|]
2014/05/05 10:09:28:683: FIXPump: Received data on connection {AUTEX} [8=FIX.4.2|9=63|35=1|34=72|49=AUTEX|56=INDATA|52=20140505-14:07:31|112=HBTO-72|10=012|]
2014/05/05 10:10:00:617: FIXPump: Received data on connection {ITGIGDS} [8=FIX.4.2|9=75|35=1|34=60|49=ITGIGDS|56=INDATAGDS|52=20140505-14:08:02|112=20140505100802|10=102|]
2014/05/05 10:10:04:903: FIXPump: Received data on connection {AUTEX} [8=FIX.4.2|9=63|35=1|34=74|49=AUTEX|56=INDATA|52=20140505-14:08:08|112=HBTO-74|10=021|]
2014/05/05 10:10:41:145: FIXPump: Received data on connection {AUTEX} [8=FIX.4.2|9=63|35=1|34=76|49=AUTEX|56=INDATA|52=20140505-14:08:44|112=HBTO-76|10=025|]
2014/05/05 10:10:46:186: FIXPump: Received data on connection {ITGIGDS} [8=FIX.4.2|9=75|35=1|34=62|49=ITGIGDS|56=INDATAGDS|52=20140505-14:08:48|112=20140505100848|10=124|]
2014/05/05 10:11:17:420: FIXPump: Received data on connection {AUTEX} [8=FIX.4.2|9=63|35=1|34=78|49=AUTEX|56=INDATA|52=20140505-14:09:20|112=HBTO-78|10=024|]
2014/05/05 10:11:30:786: FIXPump: Received data on connection {ITGIGDS} [8=FIX.4.2|9=75|35=1|34=64|49=ITGIGDS|56=INDATAGDS|52=20140505-14:09:33|112=20140505100933|10=116|]
2014/05/05 10:11:53:706: FIXPump: Received data on connection {AUTEX} [8=FIX.4.2|9=63|35=1|34=80|49=AUTEX|56=INDATA|52=20140505-14:09:56|112=HBTO-80|10=019|]
2014/05/05 10:12:15:867: FIXPump: Received data on connection {ITGIGDS} [8=FIX.4.2|9=75|35=1|34=66|49=ITGIGDS|56=INDATAGDS|52=20140505-14:10:18|112=20140505101018|10=108|]
2014/05/05 10:12:29:985: FIXPump: Received data on connection {AUTEX} [8=FIX.4.2|9=63|35=1|34=82|49=AUTEX|56=INDATA|52=20140505-14:10:33|112=HBTO-82|10=010|]
2014/05/05 10:13:00:792: FIXPump: Received data on connection {ITGIGDS} [8=FIX.4.2|9=75|35=1|34=68|49=ITGIGDS|56=INDATAGDS|52=20140505-14:11:03|112=20140505101103|10=100|]
2014/05/05 10:13:06:236: FIXPump: Received data on connection {AUTEX} [8=FIX.4.2|9=63|35=1|34=84|49=AUTEX|56=INDATA|52=20140505-14:11:09|112=HBTO-84|10=018|]
2014/05/05 10:13:42:491: FIXPump: Received data on connection {AUTEX} [8=FIX.4.2|9=63|35=1|34=86|49=AUTEX|56=INDATA|52=20140505-14:11:45|112=HBTO-86|10=022|]
2014/05/05 10:13:45:929: FIXPump: Received data on connection {ITGIGDS} [8=FIX.4.2|9=75|35=1|34=70|49=ITGIGDS|56=INDATAGDS|52=20140505-14:11:48|112=20140505101148|10=111|]
2014/05/05 10:14:14:594: SessionProxyManager:AUXSERV: Threading is STATIC
2014/05/05 10:14:14:596: Middleware:AUXSERV: processing command:version
2014/05/05 10:14:14:597: Middleware:AUXSERV: processing command:stats
2014/05/05 10:14:14:605: Middleware:AUXSERV: processing command:service_up all
2014/05/05 10:14:14:614: Middleware:AUXSERV: processing command:connect all
2014/05/05 10:14:14:615: FIXCommConnection: Trying socket connection BIDS at 207.61.123.13:5022
2014/05/05 10:14:14:616: FIXCommConnection: Trying socket connection NYFIXUAT at 38.160.70.162:22222
2014/05/05 10:14:14:697: FIXCommConnection: Connection established BIDS at 207.61.123.13:5022
2014/05/05 10:14:14:697: FIXConnectionData: Sending data on connection {BIDS} [8=FIX.4.2|9=0064|35=A|34=3|49=INDATATL1|56=BIDS|52=20140505-14:14:14|98=0|108=30|10=054|]
2014/05/05 10:14:14:802: FIXPump: Received data on connection {BIDS} [8=FIX.4.2|9=83|35=A|34=2|49=BIDS|50=BIDS|52=20140505-14:12:18.039|56=INDATATL1|57=001|98=0|108=30|10=162|]
2014/05/05 10:14:14:804: FIXFormatter_BIDS: SENDING RESEND REQUEST - seq# begin: 1 end: 1 current: 1 to: BIDS
2014/05/05 10:14:14:806: FIXConnectionData: Sending data on connection {BIDS} [8=FIX.4.2|9=0061|35=2|34=4|49=INDATATL1|56=BIDS|52=20140505-14:14:14|7=1|16=1|10=136|]
2014/05/05 10:14:14:806: FIXPump: Received data on connection {BIDS} [8=FIX.4.2|9=80|35=2|34=3|49=BIDS|50=BIDS|52=20140505-14:12:18.040|56=INDATATL1|57=001|7=1|16=0|10=235|]
2014/05/05 10:14:14:807: FIXPump:BIDS: RECV - Resend Request start: 1 end: 4 current sequence number: 5
2014/05/05 10:14:14:809: FIXConnectionData: Sending data on connection {BIDS} [8=FIX.4.2|9=0090|35=4|34=1|49=INDATATL1|56=BIDS|43=Y|52=20140505-14:14:14|122=20140505-14:14:14|36=5|123=Y|10=072|]
2014/05/05 10:14:14:809: FIXPump:BIDS: Finished processing resend request from 1 to 4
2014/05/05 10:14:14:809: FIXPump: FIX session established on connection: BIDS
2014/05/05 10:14:14:893: FIXPump: Received data on connection {BIDS} [8=FIX.4.2|9=109|35=4|34=1|43=Y|49=BIDS|50=BIDS|52=20140505-14:12:18.134|56=INDATATL1|57=001|122=20140505-14:12:18|36=2|123=Y|10=224|]
2014/05/05 10:14:14:907: FIXPump:BIDS: RECEIVED SequenceReset from 1 to 2
2014/05/05 10:14:14:907: FIXPump:BIDS: RECV - Resend Request Done received end seq no 1
2014/05/05 10:14:17:618: FIXConnectionData_NYFIXUAT: Failed to connect NYFIXUAT at 38.160.70.162:22222. Validate counter party IP and port.
2014/05/05 10:14:17:618: FIXFormatter_NYFIXUAT: Logon: Connect failed!
2014/05/05 10:14:18:768: FIXPump: Received data on connection {AUTEX} [8=FIX.4.2|9=63|35=1|34=88|49=AUTEX|56=INDATA|52=20140505-14:12:22|112=HBTO-88|10=022|]
2014/05/05 10:14:31:010: FIXPump: Received data on connection {ITGIGDS} [8=FIX.4.2|9=75|35=1|34=72|49=ITGIGDS|56=INDATAGDS|52=20140505-14:12:33|112=20140505101233|10=103|]
2014/05/05 10:14:55:052: FIXPump: Received data on connection {AUTEX} [8=FIX.4.2|9=63|35=1|34=90|49=AUTEX|56=INDATA|52=20140505-14:12:58|112=HBTO-90|10=017|]
2014/05/05 10:15:00:211: FIXPump: Received data on connection {BIDS} [8=FIX.4.2|9=80|35=1|34=5|49=BIDS|50=BIDS|52=20140505-14:13:03.405|56=INDATATL1|57=001|112=TEST|10=131|]
2014/05/05 10:15:00:527: FIXConnectionData: Sending data on connection {SBI0} [8=FIX.4.2|9=0178|35=D|50=test|34=4|49=SLGM0|56=SBI0|52=20140505-14:15:00|11=7528|64=20140324|21=3|55=EUR/USD|54=1|38=4418|40=1|15=EUR|59=0|120=USD|60=20140505-14:05:06|78=1|79=101-122068|80=4418|10=205|]
2014/05/05 10:15:00:622: FIXConnectionData: Sending data on connection {SBI0} [8=FIX.4.2|9=0174|35=D|50=test|34=5|49=SLGM0|56=SBI0|52=20140505-14:15:00|11=7529|64=20140509|21=3|55=KRW/USD|54=1|38=50040|40=1|15=KRW|59=0|120=USD|60=20140505-14:10:00|78=1|79=0111|80=50040|10=247|]
2014/05/05 10:15:02:433: FIXPump: Received data on connection {SBI0} [8=FIX.4.2|9=0204|35=8|57=test|34=4|49=SBI0|56=SLGM0|52=20140505-14:15:02|15=EUR|151=4418|55=EUR/USD|40=1|11=7528|31=0.0|150=0|39=0|54=1|17=-991769926|32=0|38=4418|21=3|60=20140505-14:15:02.421|6=0.0|20=0|14=0|37=35067965|10=246|]
2014/05/05 10:15:02:438: FIXPump: Received data on connection {SBI0} [8=FIX.4.2|9=0206|35=8|57=test|34=5|49=SBI0|56=SLGM0|52=20140505-14:15:02|15=KRW|151=50040|55=KRW/USD|40=1|11=7529|31=0.0|150=0|39=0|54=1|17=-991769840|32=0|38=50040|21=3|60=20140505-14:15:02.421|6=0.0|20=0|14=0|37=35067966|10=086|]
2014/05/05 10:15:07:425: FIXPump: Received data on connection {SBI0} [8=FIX.4.2|9=0212|35=8|57=test|34=6|49=SBI0|56=SLGM0|52=20140505-14:15:07|15=EUR|151=3418|55=EUR/USD|40=1|11=7528|31=20.0|150=1|39=1|54=1|17=-991769925|32=1000|38=4418|21=3|60=20140505-14:15:07.422|6=20.0|20=0|14=1000|37=35067965|10=136|]
2014/05/05 10:15:07:426: FIXPump: Received data on connection {SBI0} [8=FIX.4.2|9=0214|35=8|57=test|34=7|49=SBI0|56=SLGM0|52=20140505-14:15:07|15=KRW|151=49040|55=KRW/USD|40=1|11=7529|31=20.0|150=1|39=1|54=1|17=-991769839|32=1000|38=50040|21=3|60=20140505-14:15:07.422|6=20.0|20=0|14=1000|37=35067966|10=250|]
2014/05/05 10:15:12:422: FIXPump: Received data on connection {SBI0} [8=FIX.4.2|9=0221|35=8|57=test|34=8|49=SBI0|56=SLGM0|52=20140505-14:15:12|15=EUR|151=2418|55=EUR/USD|40=1|11=7528|31=19.34375|150=1|39=1|54=1|17=-991769924|32=1000|38=4418|21=3|60=20140505-14:15:12.420|6=19.671875|20=0|14=2000|37=35067965|10=119|]
2014/05/05 10:15:12:426: FIXPump: Received data on connection {SBI0} [8=FIX.4.2|9=0221|35=8|57=test|34=9|49=SBI0|56=SLGM0|52=20140505-14:15:12|15=KRW|151=48040|55=KRW/USD|40=1|11=7529|31=19.1875|150=1|39=1|54=1|17=-991769838|32=1000|38=50040|21=3|60=20140505-14:15:12.422|6=19.59375|20=0|14=2000|37=35067966|10=131|]
2014/05/05 10:15:15:778: FIXPump: Received data on connection {ITGIGDS} [8=FIX.4.2|9=75|35=1|34=74|49=ITGIGDS|56=INDATAGDS|52=20140505-14:13:18|112=20140505101318|10=113|]
2014/05/05 10:15:17:442: FIXPump: Received data on connection {SBI0} [8=FIX.4.2|9=0233|35=8|57=test|34=10|49=SBI0|56=SLGM0|52=20140505-14:15:17|15=KRW|151=47040|55=KRW/USD|40=1|11=7529|31=17.84375|150=1|39=1|54=1|17=-991769837|32=1000|38=50040|21=3|60=20140505-14:15:17.422|6=19.010416666666668|20=0|14=3000|37=35067966|10=242|]
2014/05/05 10:15:17:442: FIXPump: Received data on connection {SBI0} [8=FIX.4.2|9=0232|35=8|57=test|34=11|49=SBI0|56=SLGM0|52=20140505-14:15:17|15=EUR|151=1418|55=EUR/USD|40=1|11=7528|31=19.640625|150=1|39=1|54=1|17=-991769923|32=1000|38=4418|21=3|60=20140505-14:15:17.423|6=19.661458333333332|20=0|14=3000|37=35067965|10=166|]
2014/05/05 10:15:22:433: FIXPump: Received data on connection {SBI0} [8=FIX.4.2|9=0223|35=8|57=test|34=12|49=SBI0|56=SLGM0|52=20140505-14:15:22|15=EUR|151=418|55=EUR/USD|40=1|11=7528|31=18.796875|150=1|39=1|54=1|17=-991769922|32=1000|38=4418|21=3|60=20140505-14:15:22.422|6=19.4453125|20=0|14=4000|37=35067965|10=223|]
2014/05/05 10:15:22:433: FIXPump: Received data on connection {SBI0} [8=FIX.4.2|9=0227|35=8|57=test|34=13|49=SBI0|56=SLGM0|52=20140505-14:15:22|15=KRW|151=46040|55=KRW/USD|40=1|11=7529|31=16.421875|150=1|39=1|54=1|17=-991769836|32=1000|38=50040|21=3|60=20140505-14:15:22.423|6=18.36328125|20=0|14=4000|37=35067966|10=168|]
2014/05/05 10:15:27:427: FIXPump: Received data on connection {SBI0} [8=FIX.4.2|9=0225|35=8|57=test|34=14|49=SBI0|56=SLGM0|52=20140505-14:15:27|15=EUR|151=0|55=EUR/USD|40=1|11=7528|31=17.3125|150=2|39=2|54=1|17=-991769921|32=418|38=4418|21=3|60=20140505-14:15:27.423|6=19.24352082390222|20=0|14=4418|37=35067965|10=079|]
2014/05/05 10:15:27:428: FIXPump: Received data on connection {SBI0} [8=FIX.4.2|9=0224|35=8|57=test|34=15|49=SBI0|56=SLGM0|52=20140505-14:15:27|15=KRW|151=45040|55=KRW/USD|40=1|11=7529|31=16.828125|150=1|39=1|54=1|17=-991769835|32=1000|38=50040|21=3|60=20140505-14:15:27.423|6=18.05625|20=0|14=5000|37=35067966|10=019|]
2014/05/05 10:15:31:343: FIXPump: Received data on connection {AUTEX} [8=FIX.4.2|9=63|35=1|34=92|49=AUTEX|56=INDATA|52=20140505-14:13:34|112=HBTO-92|10=016|]
2014/05/05 10:15:32:427: FIXPump: Received data on connection {SBI0} [8=FIX.4.2|9=0234|35=8|57=test|34=16|49=SBI0|56=SLGM0|52=20140505-14:15:32|15=KRW|151=44040|55=KRW/USD|40=1|11=7529|31=15.734375|150=1|39=1|54=1|17=-991769834|32=1000|38=50040|21=3|60=20140505-14:15:32.422|6=17.669270833333332|20=0|14=6000|37=35067966|10=023|]
2014/05/05 10:15:37:428: FIXPump: Received data on connection {SBI0} [8=FIX.4.2|9=0234|35=8|57=test|34=17|49=SBI0|56=SLGM0|52=20140505-14:15:37|15=KRW|151=43040|55=KRW/USD|40=1|11=7529|31=15.578125|150=1|39=1|54=1|17=-991769833|32=1000|38=50040|21=3|60=20140505-14:15:37.426|6=17.370535714285715|20=0|14=7000|37=35067966|10=038|]
2014/05/05 10:15:42:427: FIXPump: Received data on connection {SBI0} [8=FIX.4.2|9=0231|35=8|57=test|34=18|49=SBI0|56=SLGM0|52=20140505-14:15:42|15=KRW|151=42040|55=KRW/USD|40=1|11=7529|31=15.71875|150=1|39=1|54=1|17=-991769832|32=1000|38=50040|21=3|60=20140505-14:15:42.424|6=17.1640615234375|20=0|14=8000|37=35067966|10=121|]
2014/05/05 10:15:46:165: FIXPump: Received data on connection {BIDS} [8=FIX.4.2|9=80|35=1|34=7|49=BIDS|50=BIDS|52=20140505-14:13:49.407|56=INDATATL1|57=001|112=TEST|10=145|]
2014/05/05 10:15:47:427: FIXPump: Received data on connection {SBI0} [8=FIX.4.2|9=0234|35=8|57=test|34=19|49=SBI0|56=SLGM0|52=20140505-14:15:47|15=KRW|151=41040|55=KRW/USD|40=1|11=7529|31=14.484375|150=1|39=1|54=1|17=-991769831|32=1000|38=50040|21=3|60=20140505-14:15:47.424|6=16.866317708333334|20=0|14=9000|37=35067966|10=041|]
2014/05/05 10:15:52:427: FIXPump: Received data on connection {SBI0} [8=FIX.4.2|9=0230|35=8|57=test|34=20|49=SBI0|56=SLGM0|52=20140505-14:15:52|15=KRW|151=40040|55=KRW/USD|40=1|11=7529|31=14.734375|150=1|39=1|54=1|17=-991769830|32=1000|38=50040|21=3|60=20140505-14:15:52.425|6=16.6531234375|20=0|14=10000|37=35067966|10=048|]
2014/05/05 10:15:57:428: FIXPump: Received data on connection {SBI0} [8=FIX.4.2|9=0234|35=8|57=test|34=21|49=SBI0|56=SLGM0|52=20140505-14:15:57|15=KRW|151=39040|55=KRW/USD|40=1|11=7529|31=15.578125|150=1|39=1|54=1|17=-991769829|32=1000|38=50040|21=3|60=20140505-14:15:57.425|6=16.55539630681818|20=0|14=11000|37=35067966|10=045|]
2014/05/05 10:16:00:866: FIXPump: Received data on connection {ITGIGDS} [8=FIX.4.2|9=75|35=1|34=76|49=ITGIGDS|56=INDATAGDS|52=20140505-14:14:03|112=20140505101403|10=105|]
2014/05/05 10:16:02:429: FIXPump: Received data on connection {SBI0} [8=FIX.4.2|9=0227|35=8|57=test|34=22|49=SBI0|56=SLGM0|52=20140505-14:16:02|15=KRW|151=38040|55=KRW/USD|40=1|11=7529|31=14.109375|150=1|39=1|54=1|17=-991769828|32=1000|38=50040|21=3|60=20140505-14:16:02.427|6=16.3515625|20=0|14=12000|37=35067966|10=162|]
2014/05/05 10:16:07:427: FIXPump: Received data on connection {SBI0} [8=FIX.4.2|9=0231|35=8|57=test|34=23|49=SBI0|56=SLGM0|52=20140505-14:16:07|15=KRW|151=37040|55=KRW/USD|40=1|11=7529|31=14.75|150=1|39=1|54=1|17=-991769827|32=1000|38=50040|21=3|60=20140505-14:16:07.426|6=16.228365384615383|20=0|14=13000|37=35067966|10=129|]
2014/05/05 10:16:07:621: FIXPump: Received data on connection {AUTEX} [8=FIX.4.2|9=63|35=1|34=94|49=AUTEX|56=INDATA|52=20140505-14:14:10|112=HBTO-94|10=015|]
2014/05/05 10:16:12:427: FIXPump: Received data on connection {SBI0} [8=FIX.4.2|9=0234|35=8|57=test|34=24|49=SBI0|56=SLGM0|52=20140505-14:16:12|15=KRW|151=36040|55=KRW/USD|40=1|11=7529|31=15.96875|150=1|39=1|54=1|17=-991769826|32=1000|38=50040|21=3|60=20140505-14:16:12.426|6=16.209821428571427|20=0|14=14000|37=35067966|10=031|]
2014/05/05 10:16:17:428: FIXPump: Received data on connection {SBI0} [8=FIX.4.2|9=0235|35=8|57=test|34=25|49=SBI0|56=SLGM0|52=20140505-14:16:17|15=KRW|151=35040|55=KRW/USD|40=1|11=7529|31=15.390625|150=1|39=1|54=1|17=-991769825|32=1000|38=50040|21=3|60=20140505-14:16:17.427|6=16.155208333333334|20=0|14=15000|37=35067966|10=068|]
2014/05/05 10:16:22:428: FIXPump: Received data on connection {SBI0} [8=FIX.4.2|9=0229|35=8|57=test|34=26|49=SBI0|56=SLGM0|52=20140505-14:16:22|15=KRW|151=34040|55=KRW/USD|40=1|11=7529|31=14.203125|150=1|39=1|54=1|17=-991769824|32=1000|38=50040|21=3|60=20140505-14:16:22.427|6=16.033203125|20=0|14=16000|37=35067966|10=244|]
2014/05/05 10:16:27:429: FIXPump: Received data on connection {SBI0} [8=FIX.4.2|9=0235|35=8|57=test|34=27|49=SBI0|56=SLGM0|52=20140505-14:16:27|15=KRW|151=33040|55=KRW/USD|40=1|11=7529|31=14.265625|150=1|39=1|54=1|17=-991769823|32=1000|38=50040|21=3|60=20140505-14:16:27.428|6=15.929227941176471|20=0|14=17000|37=35067966|10=092|]
2014/05/05 10:16:32:168: FIXPump: Received data on connection {BIDS} [8=FIX.4.2|9=80|35=1|34=9|49=BIDS|50=BIDS|52=20140505-14:14:35.407|56=INDATATL1|57=001|112=TEST|10=143|]
2014/05/05 10:16:32:430: FIXPump: Received data on connection {SBI0} [8=FIX.4.2|9=0235|35=8|57=test|34=28|49=SBI0|56=SLGM0|52=20140505-14:16:32|15=KRW|151=32040|55=KRW/USD|40=1|11=7529|31=15.640625|150=1|39=1|54=1|17=-991769822|32=1000|38=50040|21=3|60=20140505-14:16:32.428|6=15.913194444444445|20=0|14=18000|37=35067966|10=075|]
2014/05/05 10:16:37:431: FIXPump: Received data on connection {SBI0} [8=FIX.4.2|9=0235|35=8|57=test|34=29|49=SBI0|56=SLGM0|52=20140505-14:16:37|15=KRW|151=31040|55=KRW/USD|40=1|11=7529|31=16.328125|150=1|39=1|54=1|17=-991769821|32=1000|38=50040|21=3|60=20140505-14:16:37.429|6=15.935032894736842|20=0|14=19000|37=35067966|10=094|]
2014/05/05 10:16:42:431: FIXPump: Received data on connection {SBI0} [8=FIX.4.2|9=0226|35=8|57=test|34=30|49=SBI0|56=SLGM0|52=20140505-14:16:42|15=KRW|151=30040|55=KRW/USD|40=1|11=7529|31=17.296875|150=1|39=1|54=1|17=-991769820|32=1000|38=50040|21=3|60=20140505-14:16:42.429|6=16.003125|20=0|14=20000|37=35067966|10=104|]
2014/05/05 10:16:43:878: FIXPump: Received data on connection {AUTEX} [8=FIX.4.2|9=63|35=1|34=96|49=AUTEX|56=INDATA|52=20140505-14:14:47|112=HBTO-96|10=029|]
2014/05/05 10:16:45:949: FIXPump: Received data on connection {ITGIGDS} [8=FIX.4.2|9=75|35=1|34=78|49=ITGIGDS|56=INDATAGDS|52=20140505-14:14:48|112=20140505101448|10=125|]
2014/05/05 10:16:47:432: FIXPump: Received data on connection {SBI0} [8=FIX.4.2|9=0234|35=8|57=test|34=31|49=SBI0|56=SLGM0|52=20140505-14:16:47|15=KRW|151=29040|55=KRW/USD|40=1|11=7529|31=17.71875|150=1|39=1|54=1|17=-991769819|32=1000|38=50040|21=3|60=20140505-14:16:47.430|6=16.084821428571427|20=0|14=21000|37=35067966|10=038|]
2014/05/05 10:16:52:432: FIXPump: Received data on connection {SBI0} [8=FIX.4.2|9=0233|35=8|57=test|34=32|49=SBI0|56=SLGM0|52=20140505-14:16:52|15=KRW|151=28040|55=KRW/USD|40=1|11=7529|31=17.0625|150=1|39=1|54=1|17=-991769818|32=1000|38=50040|21=3|60=20140505-14:16:52.430|6=16.129261363636363|20=0|14=22000|37=35067966|10=219|]
2014/05/05 10:16:57:433: FIXPump: Received data on connection {SBI0} [8=FIX.4.2|9=0234|35=8|57=test|34=33|49=SBI0|56=SLGM0|52=20140505-14:16:57|15=KRW|151=27040|55=KRW/USD|40=1|11=7529|31=18.46875|150=1|39=1|54=1|17=-991769817|32=1000|38=50040|21=3|60=20140505-14:16:57.431|6=16.230978260869566|20=0|14=23000|37=35067966|10=058|]
2014/05/05 10:17:02:467: FIXPump: Received data on connection {SBI0} [8=FIX.4.2|9=0235|35=8|57=test|34=34|49=SBI0|56=SLGM0|52=20140505-14:17:02|15=KRW|151=26040|55=KRW/USD|40=1|11=7529|31=17.734375|150=1|39=1|54=1|17=-991769816|32=1000|38=50040|21=3|60=20140505-14:17:02.465|6=16.293619791666668|20=0|14=24000|37=35067966|10=102|]
2014/05/05 10:17:07:468: FIXPump: Received data on connection {SBI0} [8=FIX.4.2|9=0225|35=8|57=test|34=35|49=SBI0|56=SLGM0|52=20140505-14:17:07|15=KRW|151=25040|55=KRW/USD|40=1|11=7529|31=18.46875|150=1|39=1|54=1|17=-991769815|32=1000|38=50040|21=3|60=20140505-14:17:07.467|6=16.380625|20=0|14=25000|37=35067966|10=086|]
2014/05/05 10:17:12:468: FIXPump: Received data on connection {SBI0} [8=FIX.4.2|9=0234|35=8|57=test|34=36|49=SBI0|56=SLGM0|52=20140505-14:17:12|15=KRW|151=24040|55=KRW/USD|40=1|11=7529|31=19.703125|150=1|39=1|54=1|17=-991769814|32=1000|38=50040|21=3|60=20140505-14:17:12.466|6=16.50841346153846|20=0|14=26000|37=35067966|10=020|]
2014/05/05 10:17:17:469: FIXPump: Received data on connection {SBI0} [8=FIX.4.2|9=0233|35=8|57=test|34=37|49=SBI0|56=SLGM0|52=20140505-14:17:17|15=KRW|151=23040|55=KRW/USD|40=1|11=7529|31=20.4375|150=1|39=1|54=1|17=-991769813|32=1000|38=50040|21=3|60=20140505-14:17:17.467|6=16.653935185185187|20=0|14=27000|37=35067966|10=248|]
2014/05/05 10:17:18:168: FIXPump: Received data on connection {BIDS} [8=FIX.4.2|9=81|35=1|34=11|49=BIDS|50=BIDS|52=20140505-14:15:21.406|56=INDATATL1|57=001|112=TEST|10=180|]
2014/05/05 10:17:20:189: FIXPump: Received data on connection {AUTEX} [8=FIX.4.2|9=63|35=1|34=98|49=AUTEX|56=INDATA|52=20140505-14:15:23|112=HBTO-98|10=028|]
2014/05/05 10:17:22:469: FIXPump: Received data on connection {SBI0} [8=FIX.4.2|9=0234|35=8|57=test|34=38|49=SBI0|56=SLGM0|52=20140505-14:17:22|15=KRW|151=22040|55=KRW/USD|40=1|11=7529|31=19.84375|150=1|39=1|54=1|17=-991769812|32=1000|38=50040|21=3|60=20140505-14:17:22.467|6=16.767856026785715|20=0|14=28000|37=35067966|10=054|]
2014/05/05 10:17:27:470: FIXPump: Received data on connection {SBI0} [8=FIX.4.2|9=0234|35=8|57=test|34=39|49=SBI0|56=SLGM0|52=20140505-14:17:27|15=KRW|151=21040|55=KRW/USD|40=1|11=7529|31=19.515625|150=1|39=1|54=1|17=-991769811|32=1000|38=50040|21=3|60=20140505-14:17:27.468|6=16.86260775862069|20=0|14=29000|37=35067966|10=054|]
2014/05/05 10:17:30:779: FIXPump: Received data on connection {ITGIGDS} [8=FIX.4.2|9=75|35=1|34=80|49=ITGIGDS|56=INDATAGDS|52=20140505-14:15:33|112=20140505101533|10=108|]
2014/05/05 10:17:32:470: FIXPump: Received data on connection {SBI0} [8=FIX.4.2|9=0235|35=8|57=test|34=40|49=SBI0|56=SLGM0|52=20140505-14:17:32|15=KRW|151=20040|55=KRW/USD|40=1|11=7529|31=21.015625|150=1|39=1|54=1|17=-991769810|32=1000|38=50040|21=3|60=20140505-14:17:32.468|6=17.001041666666666|20=0|14=30000|37=35067966|10=054|]
2014/05/05 10:17:37:470: FIXPump: Received data on connection {SBI0} [8=FIX.4.2|9=0233|35=8|57=test|34=41|49=SBI0|56=SLGM0|52=20140505-14:17:37|15=KRW|151=19040|55=KRW/USD|40=1|11=7529|31=19.6875|150=1|39=1|54=1|17=-991769809|32=1000|38=50040|21=3|60=20140505-14:17:37.469|6=17.087701612903224|20=0|14=31000|37=35067966|10=247|]
2014/05/05 10:17:42:472: FIXPump: Received data on connection {SBI0} [8=FIX.4.2|9=0231|35=8|57=test|34=42|49=SBI0|56=SLGM0|52=20140505-14:17:42|15=KRW|151=18040|55=KRW/USD|40=1|11=7529|31=20.234375|150=1|39=1|54=1|17=-991769808|32=1000|38=50040|21=3|60=20140505-14:17:42.470|6=17.18603515625|20=0|14=32000|37=35067966|10=113|]
2014/05/05 10:17:47:472: FIXPump: Received data on connection {SBI0} [8=FIX.4.2|9=0235|35=8|57=test|34=43|49=SBI0|56=SLGM0|52=20140505-14:17:47|15=KRW|151=17040|55=KRW/USD|40=1|11=7529|31=20.890625|150=1|39=1|54=1|17=-991769807|32=1000|38=50040|21=3|60=20140505-14:17:47.470|6=17.298295454545453|20=0|14=33000|37=35067966|10=101|]
2014/05/05 10:17:52:474: FIXPump: Received data on connection {SBI0} [8=FIX.4.2|9=0234|35=8|57=test|34=44|49=SBI0|56=SLGM0|52=20140505-14:17:52|15=KRW|151=16040|55=KRW/USD|40=1|11=7529|31=21.53125|150=1|39=1|54=1|17=-991769806|32=1000|38=50040|21=3|60=20140505-14:17:52.470|6=17.422794117647058|20=0|14=34000|37=35067966|10=024|]
2014/05/05 10:17:56:501: FIXPump: Received data on connection {AUTEX} [8=FIX.4.2|9=65|35=1|34=100|49=AUTEX|56=INDATA|52=20140505-14:15:59|112=HBTO-100|10=103|]
2014/05/05 10:17:57:473: FIXPump: Received data on connection {SBI0} [8=FIX.4.2|9=0235|35=8|57=test|34=45|49=SBI0|56=SLGM0|52=20140505-14:17:57|15=KRW|151=15040|55=KRW/USD|40=1|11=7529|31=21.421875|150=1|39=1|54=1|17=-991769805|32=1000|38=50040|21=3|60=20140505-14:17:57.471|6=17.537053571428572|20=0|14=35000|37=35067966|10=092|]
2014/05/05 10:18:02:511: FIXPump: Received data on connection {SBI0} [8=FIX.4.2|9=0225|35=8|57=test|34=46|49=SBI0|56=SLGM0|52=20140505-14:18:02|15=KRW|151=14040|55=KRW/USD|40=1|11=7529|31=21.125|150=1|39=1|54=1|17=-991769804|32=1000|38=50040|21=3|60=20140505-14:18:02.510|6=17.63671875|20=0|14=36000|37=35067966|10=059|]
2014/05/05 10:18:04:166: FIXPump: Received data on connection {BIDS} [8=FIX.4.2|9=81|35=1|34=13|49=BIDS|50=BIDS|52=20140505-14:16:07.404|56=INDATATL1|57=001|112=TEST|10=185|]
2014/05/05 10:18:07:511: FIXPump: Received data on connection {SBI0} [8=FIX.4.2|9=0235|35=8|57=test|34=47|49=SBI0|56=SLGM0|52=20140505-14:18:07|15=KRW|151=13040|55=KRW/USD|40=1|11=7529|31=20.234375|150=1|39=1|54=1|17=-991769803|32=1000|38=50040|21=3|60=20140505-14:18:07.510|6=17.706925675675677|20=0|14=37000|37=35067966|10=095|]
2014/05/05 10:18:12:511: FIXPump: Received data on connection {SBI0} [8=FIX.4.2|9=0235|35=8|57=test|34=48|49=SBI0|56=SLGM0|52=20140505-14:18:12|15=KRW|151=12040|55=KRW/USD|40=1|11=7529|31=20.671875|150=1|39=1|54=1|17=-991769802|32=1000|38=50040|21=3|60=20140505-14:18:12.510|6=17.784950657894736|20=0|14=38000|37=35067966|10=100|]
2014/05/05 10:18:15:859: FIXPump: Received data on connection {ITGIGDS} [8=FIX.4.2|9=75|35=1|34=82|49=ITGIGDS|56=INDATAGDS|52=20140505-14:16:18|112=20140505101618|10=118|]
2014/05/05 10:18:17:513: FIXPump: Received data on connection {SBI0} [8=FIX.4.2|9=0235|35=8|57=test|34=49|49=SBI0|56=SLGM0|52=20140505-14:18:17|15=KRW|151=11040|55=KRW/USD|40=1|11=7529|31=21.984375|150=1|39=1|54=1|17=-991769801|32=1000|38=50040|21=3|60=20140505-14:18:17.511|6=17.892628205128204|20=0|14=39000|37=35067966|10=085|]
2014/05/05 10:18:22:513: FIXPump: Received data on connection {SBI0} [8=FIX.4.2|9=0229|35=8|57=test|34=50|49=SBI0|56=SLGM0|52=20140505-14:18:22|15=KRW|151=10040|55=KRW/USD|40=1|11=7529|31=21.109375|150=1|39=1|54=1|17=-991769800|32=1000|38=50040|21=3|60=20140505-14:18:22.511|6=17.973046875|20=0|14=40000|37=35067966|10=009|]
2014/05/05 10:18:27:514: FIXPump: Received data on connection {SBI0} [8=FIX.4.2|9=0233|35=8|57=test|34=51|49=SBI0|56=SLGM0|52=20140505-14:18:27|15=KRW|151=9040|55=KRW/USD|40=1|11=7529|31=20.34375|150=1|39=1|54=1|17=-991769799|32=1000|38=50040|21=3|60=20140505-14:18:27.512|6=18.030868902439025|20=0|14=41000|37=35067966|10=241|]
2014/05/05 10:18:32:513: FIXPump: Received data on connection {SBI0} [8=FIX.4.2|9=0231|35=8|57=test|34=52|49=SBI0|56=SLGM0|52=20140505-14:18:32|15=KRW|151=8040|55=KRW/USD|40=1|11=7529|31=19.4375|150=1|39=1|54=1|17=-991769798|32=1000|38=50040|21=3|60=20140505-14:18:32.512|6=18.06436011904762|20=0|14=42000|37=35067966|10=130|]
2014/05/05 10:18:32:768: FIXPump: Received data on connection {AUTEX} [8=FIX.4.2|9=65|35=1|34=102|49=AUTEX|56=INDATA|52=20140505-14:16:36|112=HBTO-102|10=103|]
2014/05/05 10:18:37:515: FIXPump: Received data on connection {SBI0} [8=FIX.4.2|9=0220|35=8|57=test|34=53|49=SBI0|56=SLGM0|52=20140505-14:18:37|15=KRW|151=7040|55=KRW/USD|40=1|11=7529|31=20.0|150=1|39=1|54=1|17=-991769797|32=1000|38=50040|21=3|60=20140505-14:18:37.513|6=18.109375|20=0|14=43000|37=35067966|10=072|]
2014/05/05 10:18:42:517: FIXPump: Received data on connection {SBI0} [8=FIX.4.2|9=0232|35=8|57=test|34=54|49=SBI0|56=SLGM0|52=20140505-14:18:42|15=KRW|151=6040|55=KRW/USD|40=1|11=7529|31=18.9375|150=1|39=1|54=1|17=-991769796|32=1000|38=50040|21=3|60=20140505-14:18:42.513|6=18.128196022727273|20=0|14=44000|37=35067966|10=196|]
2014/05/05 10:18:47:515: FIXPump: Received data on connection {SBI0} [8=FIX.4.2|9=0233|35=8|57=test|34=55|49=SBI0|56=SLGM0|52=20140505-14:18:47|15=KRW|151=5040|55=KRW/USD|40=1|11=7529|31=18.28125|150=1|39=1|54=1|17=-991769795|32=1000|38=50040|21=3|60=20140505-14:18:47.514|6=18.131597222222222|20=0|14=45000|37=35067966|10=235|]
2014/05/05 10:18:50:169: FIXPump: Received data on connection {BIDS} [8=FIX.4.2|9=81|35=1|34=15|49=BIDS|50=BIDS|52=20140505-14:16:53.403|56=INDATATL1|57=001|112=TEST|10=187|]
2014/05/05 10:18:52:516: FIXPump: Received data on connection {SBI0} [8=FIX.4.2|9=0234|35=8|57=test|34=56|49=SBI0|56=SLGM0|52=20140505-14:18:52|15=KRW|151=4040|55=KRW/USD|40=1|11=7529|31=18.671875|150=1|39=1|54=1|17=-991769794|32=1000|38=50040|21=3|60=20140505-14:18:52.514|6=18.143342391304348|20=0|14=46000|37=35067966|10=044|]
2014/05/05 10:18:57:516: FIXPump: Received data on connection {SBI0} [8=FIX.4.2|9=0225|35=8|57=test|34=57|49=SBI0|56=SLGM0|52=20140505-14:18:57|15=KRW|151=3040|55=KRW/USD|40=1|11=7529|31=19.484375|150=1|39=1|54=1|17=-991769793|32=1000|38=50040|21=3|60=20140505-14:18:57.515|6=18.171875|20=0|14=47000|37=35067966|10=110|]
2014/05/05 10:19:00:726: FIXPump: Received data on connection {ITGIGDS} [8=FIX.4.2|9=75|35=1|34=84|49=ITGIGDS|56=INDATAGDS|52=20140505-14:17:03|112=20140505101703|10=110|]
2014/05/05 10:19:02:549: FIXPump: Received data on connection {SBI0} [8=FIX.4.2|9=0233|35=8|57=test|34=58|49=SBI0|56=SLGM0|52=20140505-14:19:02|15=KRW|151=2040|55=KRW/USD|40=1|11=7529|31=20.90625|150=1|39=1|54=1|17=-991769792|32=1000|38=50040|21=3|60=20140505-14:19:02.548|6=18.228841145833332|20=0|14=48000|37=35067966|10=236|]
2014/05/05 10:19:07:551: FIXPump: Received data on connection {SBI0} [8=FIX.4.2|9=0232|35=8|57=test|34=59|49=SBI0|56=SLGM0|52=20140505-14:19:07|15=KRW|151=1040|55=KRW/USD|40=1|11=7529|31=21.6875|150=1|39=1|54=1|17=-991769791|32=1000|38=50040|21=3|60=20140505-14:19:07.549|6=18.299426020408163|20=0|14=49000|37=35067966|10=202|]
2014/05/05 10:19:09:007: FIXPump: Received data on connection {AUTEX} [8=FIX.4.2|9=65|35=1|34=104|49=AUTEX|56=INDATA|52=20140505-14:17:12|112=HBTO-104|10=102|]
2014/05/05 10:19:12:550: FIXPump: Received data on connection {SBI0} [8=FIX.4.2|9=0223|35=8|57=test|34=60|49=SBI0|56=SLGM0|52=20140505-14:19:12|15=KRW|151=40|55=KRW/USD|40=1|11=7529|31=22.3125|150=1|39=1|54=1|17=-991769790|32=1000|38=50040|21=3|60=20140505-14:19:12.549|6=18.37968625|20=0|14=50000|37=35067966|10=232|]
2014/05/05 10:19:17:551: FIXPump: Received data on connection {SBI0} [8=FIX.4.2|9=0228|35=8|57=test|34=61|49=SBI0|56=SLGM0|52=20140505-14:19:17|15=KRW|151=0|55=KRW/USD|40=1|11=7529|31=22.171875|150=2|39=2|54=1|17=-991769789|32=40|38=50040|21=3|60=20140505-14:19:17.550|6=18.38271757593925|20=0|14=50040|37=35067966|10=026|]
2014/05/05 10:19:36:167: FIXPump: Received data on connection {BIDS} [8=FIX.4.2|9=81|35=1|34=17|49=BIDS|50=BIDS|52=20140505-14:17:39.401|56=INDATATL1|57=001|112=TEST|10=192|]
2014/05/05 10:19:45:256: FIXPump: Received data on connection {AUTEX} [8=FIX.4.2|9=65|35=1|34=106|49=AUTEX|56=INDATA|52=20140505-14:17:48|112=HBTO-106|10=115|]
2014/05/05 10:19:45:811: FIXPump: Received data on connection {ITGIGDS} [8=FIX.4.2|9=75|35=1|34=86|49=ITGIGDS|56=INDATAGDS|52=20140505-14:17:48|112=20140505101748|10=130|]
2014/05/05 10:20:06:088: FIXConnectionData: Sending data on connection {SBI0} [8=FIX.4.2|9=0182|35=D|50=test|34=6|49=SLGM0|56=SBI0|52=20140505-14:20:06|11=7530|64=20140509|21=3|55=KRW/USD|54=1|38=166786.66|40=1|15=KRW|59=0|120=USD|60=20140505-14:20:05|78=1|79=0111|80=166786.66|10=189|]
2014/05/05 10:20:07:587: FIXPump: Received data on connection {SBI0} [8=FIX.4.2|9=0215|35=8|57=test|34=62|49=SBI0|56=SLGM0|52=20140505-14:20:07|15=KRW|151=166786.66|55=KRW/USD|40=1|11=7530|31=0.0|150=0|39=0|54=1|17=-991464375|32=0|38=166786.66|21=3|60=20140505-14:20:07.586|6=0.0|20=0|14=0|37=35067967|10=081|]
2014/05/05 10:20:12:588: FIXPump: Received data on connection {SBI0} [8=FIX.4.2|9=0228|35=8|57=test|34=63|49=SBI0|56=SLGM0|52=20140505-14:20:12|15=KRW|151=165786|55=KRW/USD|40=1|11=7530|31=23.21875|150=1|39=1|54=1|17=-991464374|32=1000|38=166786.66|21=3|60=20140505-14:20:12.586|6=23.21875|20=0|14=1000|37=35067967|10=238|]
2014/05/05 10:20:17:591: FIXPump: Received data on connection {SBI0} [8=FIX.4.2|9=0231|35=8|57=test|34=64|49=SBI0|56=SLGM0|52=20140505-14:20:17|15=KRW|151=164786|55=KRW/USD|40=1|11=7530|31=22.046875|150=1|39=1|54=1|17=-991464373|32=1000|38=166786.66|21=3|60=20140505-14:20:17.587|6=22.6328125|20=0|14=2000|37=35067967|10=140|]
2014/05/05 10:20:21:509: FIXPump: Received data on connection {AUTEX} [8=FIX.4.2|9=65|35=1|34=108|49=AUTEX|56=INDATA|52=20140505-14:18:24|112=HBTO-108|10=114|]
2014/05/05 10:20:22:173: FIXPump: Received data on connection {BIDS} [8=FIX.4.2|9=81|35=1|34=19|49=BIDS|50=BIDS|52=20140505-14:18:25.406|56=INDATATL1|57=001|112=TEST|10=195|]
2014/05/05 10:20:22:588: FIXPump: Received data on connection {SBI0} [8=FIX.4.2|9=0229|35=8|57=test|34=65|49=SBI0|56=SLGM0|52=20140505-14:20:22|15=KRW|151=163786|55=KRW/USD|40=1|11=7530|31=21.578125|150=1|39=1|54=1|17=-991464372|32=1000|38=166786.66|21=3|60=20140505-14:20:22.587|6=22.28125|20=0|14=3000|37=35067967|10=031|]
2014/05/05 10:20:27:590: FIXPump: Received data on connection {SBI0} [8=FIX.4.2|9=0229|35=8|57=test|34=66|49=SBI0|56=SLGM0|52=20140505-14:20:27|15=KRW|151=162786|55=KRW/USD|40=1|11=7530|31=22.84375|150=1|39=1|54=1|17=-991464371|32=1000|38=166786.66|21=3|60=20140505-14:20:27.588|6=22.421875|20=0|14=4000|37=35067967|10=051|]
2014/05/05 10:20:30:892: FIXPump: Received data on connection {ITGIGDS} [8=FIX.4.2|9=75|35=1|34=88|49=ITGIGDS|56=INDATAGDS|52=20140505-14:18:33|112=20140505101833|10=122|]
2014/05/05 10:20:32:590: FIXPump: Received data on connection {SBI0} [8=FIX.4.2|9=0225|35=8|57=test|34=67|49=SBI0|56=SLGM0|52=20140505-14:20:32|15=KRW|151=161786|55=KRW/USD|40=1|11=7530|31=23.4375|150=1|39=1|54=1|17=-991464370|32=1000|38=166786.66|21=3|60=20140505-14:20:32.588|6=22.625|20=0|14=5000|37=35067967|10=082|]
2014/05/05 10:20:37:591: FIXPump: Received data on connection {SBI0} [8=FIX.4.2|9=0239|35=8|57=test|34=68|49=SBI0|56=SLGM0|52=20140505-14:20:37|15=KRW|151=160786|55=KRW/USD|40=1|11=7530|31=22.328125|150=1|39=1|54=1|17=-991464369|32=1000|38=166786.66|21=3|60=20140505-14:20:37.589|6=22.575520833333332|20=0|14=6000|37=35067967|10=054|]
2014/05/05 10:20:42:591: FIXPump: Received data on connection {SBI0} [8=FIX.4.2|9=0237|35=8|57=test|34=69|49=SBI0|56=SLGM0|52=20140505-14:20:42|15=KRW|151=159786|55=KRW/USD|40=1|11=7530|31=21.1875|150=1|39=1|54=1|17=-991464368|32=1000|38=166786.66|21=3|60=20140505-14:20:42.589|6=22.377232142857142|20=0|14=7000|37=35067967|10=215|]
2014/05/05 10:20:47:591: FIXPump: Received data on connection {SBI0} [8=FIX.4.2|9=0231|35=8|57=test|34=70|49=SBI0|56=SLGM0|52=20140505-14:20:47|15=KRW|151=158786|55=KRW/USD|40=1|11=7530|31=20.0625|150=1|39=1|54=1|17=-991464367|32=1000|38=166786.66|21=3|60=20140505-14:20:47.590|6=22.087890625|20=0|14=8000|37=35067967|10=148|]
2014/05/05 10:20:52:592: FIXPump: Received data on connection {SBI0} [8=FIX.4.2|9=0235|35=8|57=test|34=71|49=SBI0|56=SLGM0|52=20140505-14:20:52|15=KRW|151=157786|55=KRW/USD|40=1|11=7530|31=19.625|150=1|39=1|54=1|17=-991464366|32=1000|38=166786.66|21=3|60=20140505-14:20:52.591|6=21.81423611111111|20=0|14=9000|37=35067967|10=075|]
2014/05/05 10:20:57:593: FIXPump: Received data on connection {SBI0} [8=FIX.4.2|9=0231|35=8|57=test|34=72|49=SBI0|56=SLGM0|52=20140505-14:20:57|15=KRW|151=156786|55=KRW/USD|40=1|11=7530|31=19.515625|150=1|39=1|54=1|17=-991464365|32=1000|38=166786.66|21=3|60=20140505-14:20:57.591|6=21.584375|20=0|14=10000|37=35067967|10=147|]
2014/05/05 10:20:57:773: FIXPump: Received data on connection {AUTEX} [8=FIX.4.2|9=65|35=1|34=110|49=AUTEX|56=INDATA|52=20140505-14:19:01|112=HBTO-110|10=096|]
2014/05/05 10:21:02:626: FIXPump: Received data on connection {SBI0} [8=FIX.4.2|9=0240|35=8|57=test|34=73|49=SBI0|56=SLGM0|52=20140505-14:21:02|15=KRW|151=155786|55=KRW/USD|40=1|11=7530|31=18.265625|150=1|39=1|54=1|17=-991464364|32=1000|38=166786.66|21=3|60=20140505-14:21:02.625|6=21.282670454545453|20=0|14=11000|37=35067967|10=080|]
2014/05/05 10:21:07:626: FIXPump: Received data on connection {SBI0} [8=FIX.4.2|9=0238|35=8|57=test|34=74|49=SBI0|56=SLGM0|52=20140505-14:21:07|15=KRW|151=154786|55=KRW/USD|40=1|11=7530|31=17.6875|150=1|39=1|54=1|17=-991464363|32=1000|38=166786.66|21=3|60=20140505-14:21:07.625|6=20.983072916666668|20=0|14=12000|37=35067967|10=018|]
2014/05/05 10:21:08:173: FIXPump: Received data on connection {BIDS} [8=FIX.4.2|9=81|35=1|34=21|49=BIDS|50=BIDS|52=20140505-14:19:11.404|56=INDATATL1|57=001|112=TEST|10=182|]
2014/05/05 10:21:12:627: FIXPump: Received data on connection {SBI0} [8=FIX.4.2|9=0240|35=8|57=test|34=75|49=SBI0|56=SLGM0|52=20140505-14:21:12|15=KRW|151=153786|55=KRW/USD|40=1|11=7530|31=18.546875|150=1|39=1|54=1|17=-991464362|32=1000|38=166786.66|21=3|60=20140505-14:21:12.625|6=20.795673076923077|20=0|14=13000|37=35067967|10=104|]
2014/05/05 10:21:15:784: FIXPump: Received data on connection {ITGIGDS} [8=FIX.4.2|9=75|35=1|34=90|49=ITGIGDS|56=INDATAGDS|52=20140505-14:19:18|112=20140505101918|10=123|]
2014/05/05 10:21:17:627: FIXPump: Received data on connection {SBI0} [8=FIX.4.2|9=0239|35=8|57=test|34=76|49=SBI0|56=SLGM0|52=20140505-14:21:17|15=KRW|151=152786|55=KRW/USD|40=1|11=7530|31=17.40625|150=1|39=1|54=1|17=-991464361|32=1000|38=166786.66|21=3|60=20140505-14:21:17.626|6=20.553571428571427|20=0|14=14000|37=35067967|10=044|]
2014/05/05 10:21:22:627: FIXPump: Received data on connection {SBI0} [8=FIX.4.2|9=0231|35=8|57=test|34=77|49=SBI0|56=SLGM0|52=20140505-14:21:22|15=KRW|151=151786|55=KRW/USD|40=1|11=7530|31=15.953125|150=1|39=1|54=1|17=-991464360|32=1000|38=166786.66|21=3|60=20140505-14:21:22.626|6=20.246875|20=0|14=15000|37=35067967|10=128|]
2014/05/05 10:21:27:628: FIXPump: Received data on connection {SBI0} [8=FIX.4.2|9=0233|35=8|57=test|34=78|49=SBI0|56=SLGM0|52=20140505-14:21:27|15=KRW|151=150786|55=KRW/USD|40=1|11=7530|31=16.234375|150=1|39=1|54=1|17=-991464359|32=1000|38=166786.66|21=3|60=20140505-14:21:27.627|6=19.99609375|20=0|14=16000|37=35067967|10=014|]
2014/05/05 10:21:32:628: FIXPump: Received data on connection {SBI0} [8=FIX.4.2|9=0231|35=8|57=test|34=79|49=SBI0|56=SLGM0|52=20140505-14:21:32|15=KRW|151=149786|55=KRW/USD|40=1|11=7530|31=16.609375|150=1|39=1|54=1|17=-991464358|32=1000|38=166786.66|21=3|60=20140505-14:21:32.627|6=19.796875|20=0|14=17000|37=35067967|10=173|]
2014/05/05 10:21:34:058: FIXPump: Received data on connection {AUTEX} [8=FIX.4.2|9=65|35=1|34=112|49=AUTEX|56=INDATA|52=20140505-14:19:37|112=HBTO-112|10=109|]
2014/05/05 10:21:37:632: FIXPump: Received data on connection {SBI0} [8=FIX.4.2|9=0237|35=8|57=test|34=80|49=SBI0|56=SLGM0|52=20140505-14:21:37|15=KRW|151=148786|55=KRW/USD|40=1|11=7530|31=17.9375|150=1|39=1|54=1|17=-991464357|32=1000|38=166786.66|21=3|60=20140505-14:21:37.630|6=19.69357638888889|20=0|14=18000|37=35067967|10=255|]
2014/05/05 10:21:42:629: FIXPump: Received data on connection {SBI0} [8=FIX.4.2|9=0240|35=8|57=test|34=81|49=SBI0|56=SLGM0|52=20140505-14:21:42|15=KRW|151=147786|55=KRW/USD|40=1|11=7530|31=16.578125|150=1|39=1|54=1|17=-991464356|32=1000|38=166786.66|21=3|60=20140505-14:21:42.628|6=19.529605263157894|20=0|14=19000|37=35067967|10=115|]
2014/05/05 10:21:47:630: FIXPump: Received data on connection {SBI0} [8=FIX.4.2|9=0228|35=8|57=test|34=82|49=SBI0|56=SLGM0|52=20140505-14:21:47|15=KRW|151=146786|55=KRW/USD|40=1|11=7530|31=15.5625|150=1|39=1|54=1|17=-991464355|32=1000|38=166786.66|21=3|60=20140505-14:21:47.629|6=19.33125|20=0|14=20000|37=35067967|10=246|]
2014/05/05 10:21:52:630: FIXPump: Received data on connection {SBI0} [8=FIX.4.2|9=0240|35=8|57=test|34=83|49=SBI0|56=SLGM0|52=20140505-14:21:52|15=KRW|151=145786|55=KRW/USD|40=1|11=7530|31=16.203125|150=1|39=1|54=1|17=-991464354|32=1000|38=166786.66|21=3|60=20140505-14:21:52.629|6=19.182291666666668|20=0|14=21000|37=35067967|10=101|]
2014/05/05 10:21:54:179: FIXPump: Received data on connection {BIDS} [8=FIX.4.2|9=81|35=1|34=23|49=BIDS|50=BIDS|52=20140505-14:19:57.408|56=INDATATL1|57=001|112=TEST|10=198|]
2014/05/05 10:21:57:632: FIXPump: Received data on connection {SBI0} [8=FIX.4.2|9=0238|35=8|57=test|34=84|49=SBI0|56=SLGM0|52=20140505-14:21:57|15=KRW|151=144786|55=KRW/USD|40=1|11=7530|31=15.96875|150=1|39=1|54=1|17=-991464353|32=1000|38=166786.66|21=3|60=20140505-14:21:57.630|6=19.03622159090909|20=0|14=22000|37=35067967|10=011|]
2014/05/05 10:22:00:865: FIXPump: Received data on connection {ITGIGDS} [8=FIX.4.2|9=75|35=1|34=92|49=ITGIGDS|56=INDATAGDS|52=20140505-14:20:03|112=20140505102003|10=097|]
2014/05/05 10:22:02:665: FIXPump: Received data on connection {SBI0} [8=FIX.4.2|9=0240|35=8|57=test|34=85|49=SBI0|56=SLGM0|52=20140505-14:22:02|15=KRW|151=143786|55=KRW/USD|40=1|11=7530|31=15.828125|150=1|39=1|54=1|17=-991464352|32=1000|38=166786.66|21=3|60=20140505-14:22:02.664|6=18.896740489130433|20=0|14=23000|37=35067967|10=093|]
2014/05/05 10:22:07:665: FIXPump: Received data on connection {SBI0} [8=FIX.4.2|9=0239|35=8|57=test|34=86|49=SBI0|56=SLGM0|52=20140505-14:22:07|15=KRW|151=142786|55=KRW/USD|40=1|11=7530|31=15.78125|150=1|39=1|54=1|17=-991464351|32=1000|38=166786.66|21=3|60=20140505-14:22:07.664|6=18.766928385416666|20=0|14=24000|37=35067967|10=074|]
2014/05/05 10:22:10:342: FIXPump: Received data on connection {AUTEX} [8=FIX.4.2|9=65|35=1|34=114|49=AUTEX|56=INDATA|52=20140505-14:20:13|112=HBTO-114|10=099|]
2014/05/05 10:22:12:668: FIXPump: Received data on connection {SBI0} [8=FIX.4.2|9=0231|35=8|57=test|34=87|49=SBI0|56=SLGM0|52=20140505-14:22:12|15=KRW|151=141786|55=KRW/USD|40=1|11=7530|31=14.953125|150=1|39=1|54=1|17=-991464350|32=1000|38=166786.66|21=3|60=20140505-14:22:12.664|6=18.614375|20=0|14=25000|37=35067967|10=130|]
2014/05/05 10:22:17:666: FIXPump: Received data on connection {SBI0} [8=FIX.4.2|9=0240|35=8|57=test|34=88|49=SBI0|56=SLGM0|52=20140505-14:22:17|15=KRW|151=140786|55=KRW/USD|40=1|11=7530|31=15.234375|150=1|39=1|54=1|17=-991464349|32=1000|38=166786.66|21=3|60=20140505-14:22:17.665|6=18.484373798076923|20=0|14=26000|37=35067967|10=124|]
2014/05/05 10:22:22:666: FIXPump: Received data on connection {SBI0} [8=FIX.4.2|9=0240|35=8|57=test|34=89|49=SBI0|56=SLGM0|52=20140505-14:22:22|15=KRW|151=139786|55=KRW/USD|40=1|11=7530|31=14.671875|150=1|39=1|54=1|17=-991464348|32=1000|38=166786.66|21=3|60=20140505-14:22:22.665|6=18.343168981481483|20=0|14=27000|37=35067967|10=125|]
2014/05/05 10:22:27:668: FIXPump: Received data on connection {SBI0} [8=FIX.4.2|9=0238|35=8|57=test|34=90|49=SBI0|56=SLGM0|52=20140505-14:22:27|15=KRW|151=138786|55=KRW/USD|40=1|11=7530|31=14.8125|150=1|39=1|54=1|17=-991464347|32=1000|38=166786.66|21=3|60=20140505-14:22:27.666|6=18.217072544642857|20=0|14=28000|37=35067967|10=013|]
2014/05/05 10:22:32:667: FIXPump: Received data on connection {SBI0} [8=FIX.4.2|9=0240|35=8|57=test|34=91|49=SBI0|56=SLGM0|52=20140505-14:22:32|15=KRW|151=137786|55=KRW/USD|40=1|11=7530|31=15.890625|150=1|39=1|54=1|17=-991464346|32=1000|38=166786.66|21=3|60=20140505-14:22:32.666|6=18.136851293103447|20=0|14=29000|37=35067967|10=102|]
2014/05/05 10:22:37:669: FIXPump: Received data on connection {SBI0} [8=FIX.4.2|9=0239|35=8|57=test|34=92|49=SBI0|56=SLGM0|52=20140505-14:22:37|15=KRW|151=136786|55=KRW/USD|40=1|11=7530|31=15.46875|150=1|39=1|54=1|17=-991464345|32=1000|38=166786.66|21=3|60=20140505-14:22:37.667|6=18.047914583333334|20=0|14=30000|37=35067967|10=067|]
2014/05/05 10:22:40:180: FIXPump: Received data on connection {BIDS} [8=FIX.4.2|9=81|35=1|34=25|49=BIDS|50=BIDS|52=20140505-14:20:43.407|56=INDATATL1|57=001|112=TEST|10=186|]
2014/05/05 10:22:42:668: FIXPump: Received data on connection {SBI0} [8=FIX.4.2|9=0239|35=8|57=test|34=93|49=SBI0|56=SLGM0|52=20140505-14:22:42|15=KRW|151=135786|55=KRW/USD|40=1|11=7530|31=16.609375|150=1|39=1|54=1|17=-991464344|32=1000|38=166786.66|21=3|60=20140505-14:22:42.667|6=18.00151008064516|20=0|14=31000|37=35067967|10=037|]
2014/05/05 10:22:45:967: FIXPump: Received data on connection {ITGIGDS} [8=FIX.4.2|9=75|35=1|34=94|49=ITGIGDS|56=INDATAGDS|52=20140505-14:20:48|112=20140505102048|10=117|]
2014/05/05 10:22:46:629: FIXPump: Received data on connection {AUTEX} [8=FIX.4.2|9=65|35=1|34=116|49=AUTEX|56=INDATA|52=20140505-14:20:49|112=HBTO-116|10=112|]
2014/05/05 10:22:47:669: FIXPump: Received data on connection {SBI0} [8=FIX.4.2|9=0234|35=8|57=test|34=94|49=SBI0|56=SLGM0|52=20140505-14:22:47|15=KRW|151=134786|55=KRW/USD|40=1|11=7530|31=17.875|150=1|39=1|54=1|17=-991464343|32=1000|38=166786.66|21=3|60=20140505-14:22:47.668|6=17.997556640625|20=0|14=32000|37=35067967|10=076|]
2014/05/05 10:22:52:669: FIXPump: Received data on connection {SBI0} [8=FIX.4.2|9=0240|35=8|57=test|34=95|49=SBI0|56=SLGM0|52=20140505-14:22:52|15=KRW|151=133786|55=KRW/USD|40=1|11=7530|31=17.828125|150=1|39=1|54=1|17=-991464342|32=1000|38=166786.66|21=3|60=20140505-14:22:52.668|6=17.992422348484848|20=0|14=33000|37=35067967|10=118|]
2014/05/05 10:22:57:671: FIXPump: Received data on connection {SBI0} [8=FIX.4.2|9=0238|35=8|57=test|34=96|49=SBI0|56=SLGM0|52=20140505-14:22:57|15=KRW|151=132786|55=KRW/USD|40=1|11=7530|31=18.90625|150=1|39=1|54=1|17=-991464341|32=1000|38=166786.66|21=3|60=20140505-14:22:57.669|6=18.01929963235294|20=0|14=34000|37=35067967|10=023|]
2014/05/05 10:23:02:703: FIXPump: Received data on connection {SBI0} [8=FIX.4.2|9=0238|35=8|57=test|34=97|49=SBI0|56=SLGM0|52=20140505-14:23:02|15=KRW|151=131786|55=KRW/USD|40=1|11=7530|31=19.34375|150=1|39=1|54=1|17=-991464340|32=1000|38=166786.66|21=3|60=20140505-14:23:02.702|6=18.05714107142857|20=0|14=35000|37=35067967|10=238|]
2014/05/05 10:23:07:704: FIXPump: Received data on connection {SBI0} [8=FIX.4.2|9=0239|35=8|57=test|34=98|49=SBI0|56=SLGM0|52=20140505-14:23:07|15=KRW|151=130786|55=KRW/USD|40=1|11=7530|31=19.28125|150=1|39=1|54=1|17=-991464339|32=1000|38=166786.66|21=3|60=20140505-14:23:07.703|6=18.091144097222223|20=0|14=36000|37=35067967|10=043|]
2014/05/05 10:23:12:704: FIXPump: Received data on connection {SBI0} [8=FIX.4.2|9=0237|35=8|57=test|34=99|49=SBI0|56=SLGM0|52=20140505-14:23:12|15=KRW|151=129786|55=KRW/USD|40=1|11=7530|31=20.125|150=1|39=1|54=1|17=-991464338|32=1000|38=166786.66|21=3|60=20140505-14:23:12.703|6=18.146113175675676|20=0|14=37000|37=35067967|10=202|]
2014/05/05 10:23:17:706: FIXPump: Received data on connection {SBI0} [8=FIX.4.2|9=0240|35=8|57=test|34=100|49=SBI0|56=SLGM0|52=20140505-14:23:17|15=KRW|151=128786|55=KRW/USD|40=1|11=7530|31=21.234375|150=1|39=1|54=1|17=-991464337|32=1000|38=166786.66|21=3|60=20140505-14:23:17.704|6=18.22738322368421|20=0|14=38000|37=35067967|10=081|]
2014/05/05 10:23:22:705: FIXPump: Received data on connection {SBI0} [8=FIX.4.2|9=0240|35=8|57=test|34=101|49=SBI0|56=SLGM0|52=20140505-14:23:22|15=KRW|151=127786|55=KRW/USD|40=1|11=7530|31=20.359375|150=1|39=1|54=1|17=-991464336|32=1000|38=166786.66|21=3|60=20140505-14:23:22.704|6=18.28204967948718|20=0|14=39000|37=35067967|10=102|]
2014/05/05 10:23:22:900: FIXPump: Received data on connection {AUTEX} [8=FIX.4.2|9=65|35=1|34=118|49=AUTEX|56=INDATA|52=20140505-14:21:26|112=HBTO-118|10=112|]
2014/05/05 10:23:26:177: FIXPump: Received data on connection {BIDS} [8=FIX.4.2|9=81|35=1|34=27|49=BIDS|50=BIDS|52=20140505-14:21:29.404|56=INDATATL1|57=001|112=TEST|10=190|]
2014/05/05 10:23:27:707: FIXPump: Received data on connection {SBI0} [8=FIX.4.2|9=0234|35=8|57=test|34=102|49=SBI0|56=SLGM0|52=20140505-14:23:27|15=KRW|151=126786|55=KRW/USD|40=1|11=7530|31=19.5625|150=1|39=1|54=1|17=-991464335|32=1000|38=166786.66|21=3|60=20140505-14:23:27.705|6=18.3140609375|20=0|14=40000|37=35067967|10=032|]
2014/05/05 10:23:30:747: FIXPump: Received data on connection {ITGIGDS} [8=FIX.4.2|9=75|35=1|34=96|49=ITGIGDS|56=INDATAGDS|52=20140505-14:21:33|112=20140505102133|10=109|]
2014/05/05 10:23:32:706: FIXPump: Received data on connection {SBI0} [8=FIX.4.2|9=0240|35=8|57=test|34=103|49=SBI0|56=SLGM0|52=20140505-14:23:32|15=KRW|151=125786|55=KRW/USD|40=1|11=7530|31=19.71875|150=1|39=1|54=1|17=-991464334|32=1000|38=166786.66|21=3|60=20140505-14:23:32.705|6=18.348321646341464|20=0|14=41000|37=35067967|10=084|]
2014/05/05 10:23:37:707: FIXPump: Received data on connection {SBI0} [8=FIX.4.2|9=0239|35=8|57=test|34=104|49=SBI0|56=SLGM0|52=20140505-14:23:37|15=KRW|151=124786|55=KRW/USD|40=1|11=7530|31=20.96875|150=1|39=1|54=1|17=-991464333|32=1000|38=166786.66|21=3|60=20140505-14:23:37.706|6=18.41071279761905|20=0|14=42000|37=35067967|10=054|]
2014/05/05 10:23:42:707: FIXPump: Received data on connection {SBI0} [8=FIX.4.2|9=0241|35=8|57=test|34=105|49=SBI0|56=SLGM0|52=20140505-14:23:42|15=KRW|151=123786|55=KRW/USD|40=1|11=7530|31=21.328125|150=1|39=1|54=1|17=-991464332|32=1000|38=166786.66|21=3|60=20140505-14:23:42.706|6=18.478559593023256|20=0|14=43000|37=35067967|10=136|]
2014/05/05 10:23:47:708: FIXPump: Received data on connection {SBI0} [8=FIX.4.2|9=0240|35=8|57=test|34=106|49=SBI0|56=SLGM0|52=20140505-14:23:47|15=KRW|151=122786|55=KRW/USD|40=1|11=7530|31=21.296875|150=1|39=1|54=1|17=-991464331|32=1000|38=166786.66|21=3|60=20140505-14:23:47.707|6=18.54261221590909|20=0|14=44000|37=35067967|10=096|]
2014/05/05 10:23:52:709: FIXPump: Received data on connection {SBI0} [8=FIX.4.2|9=0241|35=8|57=test|34=107|49=SBI0|56=SLGM0|52=20140505-14:23:52|15=KRW|151=121786|55=KRW/USD|40=1|11=7530|31=21.578125|150=1|39=1|54=1|17=-991464330|32=1000|38=166786.66|21=3|60=20140505-14:23:52.707|6=18.610068055555555|20=0|14=45000|37=35067967|10=134|]
2014/05/05 10:23:57:709: FIXPump: Received data on connection {SBI0} [8=FIX.4.2|9=0239|35=8|57=test|34=108|49=SBI0|56=SLGM0|52=20140505-14:23:57|15=KRW|151=120786|55=KRW/USD|40=1|11=7530|31=20.53125|150=1|39=1|54=1|17=-991464329|32=1000|38=166786.66|21=3|60=20140505-14:23:57.708|6=18.65183288043478|20=0|14=46000|37=35067967|10=058|]
2014/05/05 10:23:59:179: FIXPump: Received data on connection {AUTEX} [8=FIX.4.2|9=65|35=1|34=120|49=AUTEX|56=INDATA|52=20140505-14:22:02|112=HBTO-120|10=093|]
2014/05/05 10:24:02:743: FIXPump: Received data on connection {SBI0} [8=FIX.4.2|9=0238|35=8|57=test|34=109|49=SBI0|56=SLGM0|52=20140505-14:24:02|15=KRW|151=119786|55=KRW/USD|40=1|11=7530|31=19.125|150=1|39=1|54=1|17=-991464328|32=1000|38=166786.66|21=3|60=20140505-14:24:02.742|6=18.661900265957446|20=0|14=47000|37=35067967|10=001|]
2014/05/05 10:24:07:743: FIXPump: Received data on connection {SBI0} [8=FIX.4.2|9=0237|35=8|57=test|34=110|49=SBI0|56=SLGM0|52=20140505-14:24:07|15=KRW|151=118786|55=KRW/USD|40=1|11=7530|31=19.75|150=1|39=1|54=1|17=-991464327|32=1000|38=166786.66|21=3|60=20140505-14:24:07.742|6=18.684567708333333|20=0|14=48000|37=35067967|10=212|]
2014/05/05 10:24:12:180: FIXPump: Received data on connection {BIDS} [8=FIX.4.2|9=81|35=1|34=29|49=BIDS|50=BIDS|52=20140505-14:22:15.407|56=INDATATL1|57=001|112=TEST|10=191|]
2014/05/05 10:24:12:743: FIXPump: Received data on connection {SBI0} [8=FIX.4.2|9=0240|35=8|57=test|34=111|49=SBI0|56=SLGM0|52=20140505-14:24:12|15=KRW|151=117786|55=KRW/USD|40=1|11=7530|31=19.65625|150=1|39=1|54=1|17=-991464326|32=1000|38=166786.66|21=3|60=20140505-14:24:12.742|6=18.704399234693877|20=0|14=49000|37=35067967|10=110|]
2014/05/05 10:24:15:827: FIXPump: Received data on connection {ITGIGDS} [8=FIX.4.2|9=75|35=1|34=98|49=ITGIGDS|56=INDATAGDS|52=20140505-14:22:18|112=20140505102218|10=119|]
2014/05/05 10:24:17:744: FIXPump: Received data on connection {SBI0} [8=FIX.4.2|9=0234|35=8|57=test|34=112|49=SBI0|56=SLGM0|52=20140505-14:24:17|15=KRW|151=116786|55=KRW/USD|40=1|11=7530|31=18.703125|150=1|39=1|54=1|17=-991464325|32=1000|38=166786.66|21=3|60=20140505-14:24:17.743|6=18.70437375|20=0|14=50000|37=35067967|10=031|]
2014/05/05 10:24:22:745: FIXPump: Received data on connection {SBI0} [8=FIX.4.2|9=0238|35=8|57=test|34=113|49=SBI0|56=SLGM0|52=20140505-14:24:22|15=KRW|151=115786|55=KRW/USD|40=1|11=7530|31=18.125|150=1|39=1|54=1|17=-991464324|32=1000|38=166786.66|21=3|60=20140505-14:24:22.743|6=18.693013480392157|20=0|14=51000|37=35067967|10=234|]
2014/05/05 10:24:27:745: FIXPump: Received data on connection {SBI0} [8=FIX.4.2|9=0236|35=8|57=test|34=114|49=SBI0|56=SLGM0|52=20140505-14:24:27|15=KRW|151=114786|55=KRW/USD|40=1|11=7530|31=16.75|150=1|39=1|54=1|17=-991464323|32=1000|38=166786.66|21=3|60=20140505-14:24:27.744|6=18.65564903846154|20=0|14=52000|37=35067967|10=154|]
2014/05/05 10:24:32:745: FIXPump: Received data on connection {SBI0} [8=FIX.4.2|9=0240|35=8|57=test|34=115|49=SBI0|56=SLGM0|52=20140505-14:24:32|15=KRW|151=113786|55=KRW/USD|40=1|11=7530|31=17.984375|150=1|39=1|54=1|17=-991464322|32=1000|38=166786.66|21=3|60=20140505-14:24:32.744|6=18.64298349056604|20=0|14=53000|37=35067967|10=102|]
2014/05/05 10:24:35:447: FIXPump: Received data on connection {AUTEX} [8=FIX.4.2|9=65|35=1|34=122|49=AUTEX|56=INDATA|52=20140505-14:22:38|112=HBTO-122|10=106|]
2014/05/05 10:24:37:746: FIXPump: Received data on connection {SBI0} [8=FIX.4.2|9=0238|35=8|57=test|34=116|49=SBI0|56=SLGM0|52=20140505-14:24:37|15=KRW|151=112786|55=KRW/USD|40=1|11=7530|31=17.125|150=1|39=1|54=1|17=-991464321|32=1000|38=166786.66|21=3|60=20140505-14:24:37.745|6=18.614873842592594|20=0|14=54000|37=35067967|10=007|]
2014/05/05 10:24:42:746: FIXPump: Received data on connection {SBI0} [8=FIX.4.2|9=0240|35=8|57=test|34=117|49=SBI0|56=SLGM0|52=20140505-14:24:42|15=KRW|151=111786|55=KRW/USD|40=1|11=7530|31=17.28125|150=1|39=1|54=1|17=-991464320|32=1000|38=166786.66|21=3|60=20140505-14:24:42.745|6=18.590626136363635|20=0|14=55000|37=35067967|10=085|]
2014/05/05 10:24:47:747: FIXPump: Received data on connection {SBI0} [8=FIX.4.2|9=0241|35=8|57=test|34=118|49=SBI0|56=SLGM0|52=20140505-14:24:47|15=KRW|151=110786|55=KRW/USD|40=1|11=7530|31=16.515625|150=1|39=1|54=1|17=-991464319|32=1000|38=166786.66|21=3|60=20140505-14:24:47.746|6=18.553572544642858|20=0|14=56000|37=35067967|10=168|]
2014/05/05 10:24:52:747: FIXPump: Received data on connection {SBI0} [8=FIX.4.2|9=0240|35=8|57=test|34=119|49=SBI0|56=SLGM0|52=20140505-14:24:52|15=KRW|151=109786|55=KRW/USD|40=1|11=7530|31=15.171875|150=1|39=1|54=1|17=-991464318|32=1000|38=166786.66|21=3|60=20140505-14:24:52.746|6=18.49424342105263|20=0|14=57000|37=35067967|10=100|]
2014/05/05 10:24:57:748: FIXPump: Received data on connection {SBI0} [8=FIX.4.2|9=0240|35=8|57=test|34=120|49=SBI0|56=SLGM0|52=20140505-14:24:57|15=KRW|151=108786|55=KRW/USD|40=1|11=7530|31=15.59375|150=1|39=1|54=1|17=-991464317|32=1000|38=166786.66|21=3|60=20140505-14:24:57.747|6=18.444234913793103|20=0|14=58000|37=35067967|10=110|]
2014/05/05 10:24:58:180: FIXPump: Received data on connection {BIDS} [8=FIX.4.2|9=81|35=1|34=31|49=BIDS|50=BIDS|52=20140505-14:23:01.405|56=INDATATL1|57=001|112=TEST|10=178|]
2014/05/05 10:24:59:821: FIXPump: Received data on connection {ITGIGDS} [8=FIX.4.2|9=76|35=1|34=100|49=ITGIGDS|56=INDATAGDS|52=20140505-14:23:03|112=20140505102303|10=142|]
2014/05/05 10:25:02:783: FIXPump: Received data on connection {SBI0} [8=FIX.4.2|9=0240|35=8|57=test|34=121|49=SBI0|56=SLGM0|52=20140505-14:25:02|15=KRW|151=107786|55=KRW/USD|40=1|11=7530|31=15.734375|150=1|39=1|54=1|17=-991464316|32=1000|38=166786.66|21=3|60=20140505-14:25:02.782|6=18.39830508474576|20=0|14=59000|37=35067967|10=103|]
2014/05/05 10:25:07:784: FIXPump: Received data on connection {SBI0} [8=FIX.4.2|9=0234|35=8|57=test|34=122|49=SBI0|56=SLGM0|52=20140505-14:25:07|15=KRW|151=106786|55=KRW/USD|40=1|11=7530|31=14.421875|150=1|39=1|54=1|17=-991464315|32=1000|38=166786.66|21=3|60=20140505-14:25:07.783|6=18.33203125|20=0|14=60000|37=35067967|10=023|]
2014/05/05 10:25:11:688: FIXPump: Received data on connection {AUTEX} [8=FIX.4.2|9=65|35=1|34=124|49=AUTEX|56=INDATA|52=20140505-14:23:14|112=HBTO-124|10=105|]
2014/05/05 10:25:12:784: FIXPump: Received data on connection {SBI0} [8=FIX.4.2|9=0241|35=8|57=test|34=123|49=SBI0|56=SLGM0|52=20140505-14:25:12|15=KRW|151=105786|55=KRW/USD|40=1|11=7530|31=14.640625|150=1|39=1|54=1|17=-991464314|32=1000|38=166786.66|21=3|60=20140505-14:25:12.783|6=18.271516393442624|20=0|14=61000|37=35067967|10=129|]
2014/05/05 10:25:17:786: FIXPump: Received data on connection {SBI0} [8=FIX.4.2|9=0241|35=8|57=test|34=124|49=SBI0|56=SLGM0|52=20140505-14:25:17|15=KRW|151=104786|55=KRW/USD|40=1|11=7530|31=13.703125|150=1|39=1|54=1|17=-991464313|32=1000|38=166786.66|21=3|60=20140505-14:25:17.784|6=18.197832661290324|20=0|14=62000|37=35067967|10=138|]
2014/05/05 10:25:22:785: FIXPump: Received data on connection {SBI0} [8=FIX.4.2|9=0238|35=8|57=test|34=125|49=SBI0|56=SLGM0|52=20140505-14:25:22|15=KRW|151=103786|55=KRW/USD|40=1|11=7530|31=14.0625|150=1|39=1|54=1|17=-991464312|32=1000|38=166786.66|21=3|60=20140505-14:25:22.784|6=18.13219246031746|20=0|14=63000|37=35067967|10=230|]
2014/05/05 10:25:27:786: FIXPump: Received data on connection {SBI0} [8=FIX.4.2|9=0237|35=8|57=test|34=126|49=SBI0|56=SLGM0|52=20140505-14:25:27|15=KRW|151=102786|55=KRW/USD|40=1|11=7530|31=14.078125|150=1|39=1|54=1|17=-991464311|32=1000|38=166786.66|21=3|60=20140505-14:25:27.785|6=18.06884765625|20=0|14=64000|37=35067967|10=210|]
2014/05/05 10:25:32:786: FIXPump: Received data on connection {SBI0} [8=FIX.4.2|9=0237|35=8|57=test|34=127|49=SBI0|56=SLGM0|52=20140505-14:25:32|15=KRW|151=101786|55=KRW/USD|40=1|11=7530|31=13.125|150=1|39=1|54=1|17=-991464310|32=1000|38=166786.66|21=3|60=20140505-14:25:32.785|6=17.99278846153846|20=0|14=65000|37=35067967|10=208|]
2014/05/05 10:25:37:787: FIXPump: Received data on connection {SBI0} [8=FIX.4.2|9=0237|35=8|57=test|34=128|49=SBI0|56=SLGM0|52=20140505-14:25:37|15=KRW|151=100786|55=KRW/USD|40=1|11=7530|31=11.75|150=1|39=1|54=1|17=-991464309|32=1000|38=166786.66|21=3|60=20140505-14:25:37.786|6=17.898200757575758|20=0|14=66000|37=35067967|10=233|]
2014/05/05 10:25:42:787: FIXPump: Received data on connection {SBI0} [8=FIX.4.2|9=0239|35=8|57=test|34=129|49=SBI0|56=SLGM0|52=20140505-14:25:42|15=KRW|151=99786|55=KRW/USD|40=1|11=7530|31=11.90625|150=1|39=1|54=1|17=-991464308|32=1000|38=166786.66|21=3|60=20140505-14:25:42.786|6=17.808768656716417|20=0|14=67000|37=35067967|10=092|]
2014/05/05 10:25:44:180: FIXPump: Received data on connection {BIDS} [8=FIX.4.2|9=81|35=1|34=33|49=BIDS|50=BIDS|52=20140505-14:23:47.404|56=INDATATL1|57=001|112=TEST|10=189|]
2014/05/05 10:25:45:031: FIXPump: Received data on connection {ITGIGDS} [8=FIX.4.2|9=76|35=1|34=102|49=ITGIGDS|56=INDATAGDS|52=20140505-14:23:48|112=20140505102348|10=162|]
2014/05/05 10:25:47:788: FIXPump: Received data on connection {SBI0} [8=FIX.4.2|9=0239|35=8|57=test|34=130|49=SBI0|56=SLGM0|52=20140505-14:25:47|15=KRW|151=98786|55=KRW/USD|40=1|11=7530|31=12.109375|150=1|39=1|54=1|17=-991464307|32=1000|38=166786.66|21=3|60=20140505-14:25:47.787|6=17.72495404411765|20=0|14=68000|37=35067967|10=077|]
2014/05/05 10:25:47:920: FIXPump: Received data on connection {AUTEX} [8=FIX.4.2|9=65|35=1|34=126|49=AUTEX|56=INDATA|52=20140505-14:23:51|112=HBTO-126|10=110|]
2014/05/05 10:25:52:788: FIXPump: Received data on connection {SBI0} [8=FIX.4.2|9=0239|35=8|57=test|34=131|49=SBI0|56=SLGM0|52=20140505-14:25:52|15=KRW|151=97786|55=KRW/USD|40=1|11=7530|31=10.90625|150=1|39=1|54=1|17=-991464306|32=1000|38=166786.66|21=3|60=20140505-14:25:52.787|6=17.626132246376812|20=0|14=69000|37=35067967|10=064|]
2014/05/05 10:25:57:789: FIXPump: Received data on connection {SBI0} [8=FIX.4.2|9=0239|35=8|57=test|34=132|49=SBI0|56=SLGM0|52=20140505-14:25:57|15=KRW|151=96786|55=KRW/USD|40=1|11=7530|31=9.609375|150=1|39=1|54=1|17=-991464305|32=1000|38=166786.66|21=3|60=20140505-14:25:57.788|6=17.511607142857144|20=0|14=70000|37=35067967|10=079|]
2014/05/05 10:26:02:832: FIXPump: Received data on connection {SBI0} [8=FIX.4.2|9=0238|35=8|57=test|34=133|49=SBI0|56=SLGM0|52=20140505-14:26:02|15=KRW|151=95786|55=KRW/USD|40=1|11=7530|31=8.265625|150=1|39=1|54=1|17=-991464304|32=1000|38=166786.66|21=3|60=20140505-14:26:02.830|6=17.38138028169014|20=0|14=71000|37=35067967|10=249|]
2014/05/05 10:26:07:833: FIXPump: Received data on connection {SBI0} [8=FIX.4.2|9=0237|35=8|57=test|34=134|49=SBI0|56=SLGM0|52=20140505-14:26:07|15=KRW|151=94786|55=KRW/USD|40=1|11=7530|31=9.5625|150=1|39=1|54=1|17=-991464303|32=1000|38=166786.66|21=3|60=20140505-14:26:07.831|6=17.272784722222223|20=0|14=72000|37=35067967|10=204|]
2014/05/05 10:26:12:832: FIXPump: Received data on connection {SBI0} [8=FIX.4.2|9=0235|35=8|57=test|34=135|49=SBI0|56=SLGM0|52=20140505-14:26:12|15=KRW|151=93786|55=KRW/USD|40=1|11=7530|31=10.5|150=1|39=1|54=1|17=-991464302|32=1000|38=166786.66|21=3|60=20140505-14:26:12.831|6=17.180006849315067|20=0|14=73000|37=35067967|10=081|]
2014/05/05 10:26:17:833: FIXPump: Received data on connection {SBI0} [8=FIX.4.2|9=0237|35=8|57=test|34=136|49=SBI0|56=SLGM0|52=20140505-14:26:17|15=KRW|151=92786|55=KRW/USD|40=1|11=7530|31=9.96875|150=1|39=1|54=1|17=-991464301|32=1000|38=166786.66|21=3|60=20140505-14:26:17.832|6=17.08255743243243|20=0|14=74000|37=35067967|10=222|]
2014/05/05 10:26:22:833: FIXPump: Received data on connection {SBI0} [8=FIX.4.2|9=0239|35=8|57=test|34=137|49=SBI0|56=SLGM0|52=20140505-14:26:22|15=KRW|151=91786|55=KRW/USD|40=1|11=7530|31=9.671875|150=1|39=1|54=1|17=-991464300|32=1000|38=166786.66|21=3|60=20140505-14:26:22.832|6=16.983748333333335|20=0|14=75000|37=35067967|10=070|]
2014/05/05 10:26:24:190: FIXPump: Received data on connection {AUTEX} [8=FIX.4.2|9=65|35=1|34=128|49=AUTEX|56=INDATA|52=20140505-14:24:27|112=HBTO-128|10=118|]
2014/05/05 10:26:27:835: FIXPump: Received data on connection {SBI0} [8=FIX.4.2|9=0236|35=8|57=test|34=138|49=SBI0|56=SLGM0|52=20140505-14:26:27|15=KRW|151=90786|55=KRW/USD|40=1|11=7530|31=8.375|150=1|39=1|54=1|17=-991464299|32=1000|38=166786.66|21=3|60=20140505-14:26:27.833|6=16.870473684210527|20=0|14=76000|37=35067967|10=184|]
2014/05/05 10:26:30:112: FIXPump: Received data on connection {ITGIGDS} [8=FIX.4.2|9=76|35=1|34=104|49=ITGIGDS|56=INDATAGDS|52=20140505-14:24:33|112=20140505102433|10=154|]
2014/05/05 10:26:30:184: FIXPump: Received data on connection {BIDS} [8=FIX.4.2|9=81|35=1|34=35|49=BIDS|50=BIDS|52=20140505-14:24:33.407|56=INDATATL1|57=001|112=TEST|10=190|]
2014/05/05 10:26:32:834: FIXPump: Received data on connection {SBI0} [8=FIX.4.2|9=0238|35=8|57=test|34=139|49=SBI0|56=SLGM0|52=20140505-14:26:32|15=KRW|151=89786|55=KRW/USD|40=1|11=7530|31=8.40625|150=1|39=1|54=1|17=-991464298|32=1000|38=166786.66|21=3|60=20140505-14:26:32.833|6=16.760548701298703|20=0|14=77000|37=35067967|10=032|]
2014/05/05 10:26:37:835: FIXPump: Received data on connection {SBI0} [8=FIX.4.2|9=0236|35=8|57=test|34=140|49=SBI0|56=SLGM0|52=20140505-14:26:37|15=KRW|151=88786|55=KRW/USD|40=1|11=7530|31=8.0625|150=1|39=1|54=1|17=-991464297|32=1000|38=166786.66|21=3|60=20140505-14:26:37.834|6=16.64903685897436|20=0|14=78000|37=35067967|10=199|]
2014/05/05 10:26:42:836: FIXPump: Received data on connection {SBI0} [8=FIX.4.2|9=0239|35=8|57=test|34=141|49=SBI0|56=SLGM0|52=20140505-14:26:42|15=KRW|151=87786|55=KRW/USD|40=1|11=7530|31=6.859375|150=1|39=1|54=1|17=-991464296|32=1000|38=166786.66|21=3|60=20140505-14:26:42.834|6=16.525117088607594|20=0|14=79000|37=35067967|10=094|]
2014/05/05 10:26:47:836: FIXPump: Received data on connection {SBI0} [8=FIX.4.2|9=0228|35=8|57=test|34=142|49=SBI0|56=SLGM0|52=20140505-14:26:47|15=KRW|151=86786|55=KRW/USD|40=1|11=7530|31=7.5|150=1|39=1|54=1|17=-991464295|32=1000|38=166786.66|21=3|60=20140505-14:26:47.835|6=16.412303125|20=0|14=80000|37=35067967|10=000|]
2014/05/05 10:26:52:836: FIXPump: Received data on connection {SBI0} [8=FIX.4.2|9=0239|35=8|57=test|34=143|49=SBI0|56=SLGM0|52=20140505-14:26:52|15=KRW|151=85786|55=KRW/USD|40=1|11=7530|31=8.296875|150=1|39=1|54=1|17=-991464294|32=1000|38=166786.66|21=3|60=20140505-14:26:52.835|6=16.312114197530864|20=0|14=81000|37=35067967|10=077|]
2014/05/05 10:26:57:837: FIXPump: Received data on connection {SBI0} [8=FIX.4.2|9=0239|35=8|57=test|34=144|49=SBI0|56=SLGM0|52=20140505-14:26:57|15=KRW|151=84786|55=KRW/USD|40=1|11=7530|31=9.140625|150=1|39=1|54=1|17=-991464293|32=1000|38=166786.66|21=3|60=20140505-14:26:57.836|6=16.224657012195124|20=0|14=82000|37=35067967|10=066|]
2014/05/05 10:27:00:442: FIXPump: Received data on connection {AUTEX} [8=FIX.4.2|9=65|35=1|34=130|49=AUTEX|56=INDATA|52=20140505-14:25:03|112=HBTO-130|10=099|]
2014/05/05 10:27:02:871: FIXPump: Received data on connection {SBI0} [8=FIX.4.2|9=0237|35=8|57=test|34=145|49=SBI0|56=SLGM0|52=20140505-14:27:02|15=KRW|151=83786|55=KRW/USD|40=1|11=7530|31=9.53125|150=1|39=1|54=1|17=-991464292|32=1000|38=166786.66|21=3|60=20140505-14:27:02.870|6=16.14401355421687|20=0|14=83000|37=35067967|10=202|]
2014/05/05 10:27:07:871: FIXPump: Received data on connection {SBI0} [8=FIX.4.2|9=0239|35=8|57=test|34=146|49=SBI0|56=SLGM0|52=20140505-14:27:07|15=KRW|151=82786|55=KRW/USD|40=1|11=7530|31=9.078125|150=1|39=1|54=1|17=-991464291|32=1000|38=166786.66|21=3|60=20140505-14:27:07.870|6=16.059897321428572|20=0|14=84000|37=35067967|10=082|]
2014/05/05 10:27:12:871: FIXPump: Received data on connection {SBI0} [8=FIX.4.2|9=0238|35=8|57=test|34=147|49=SBI0|56=SLGM0|52=20140505-14:27:12|15=KRW|151=81786|55=KRW/USD|40=1|11=7530|31=7.71875|150=1|39=1|54=1|17=-991464290|32=1000|38=166786.66|21=3|60=20140505-14:27:12.870|6=15.961764705882352|20=0|14=85000|37=35067967|10=028|]
2014/05/05 10:27:14:837: FIXPump: Received data on connection {ITGIGDS} [8=FIX.4.2|9=76|35=1|34=106|49=ITGIGDS|56=INDATAGDS|52=20140505-14:25:18|112=20140505102518|10=164|]
2014/05/05 10:27:16:182: FIXPump: Received data on connection {BIDS} [8=FIX.4.2|9=81|35=1|34=37|49=BIDS|50=BIDS|52=20140505-14:25:19.404|56=INDATATL1|57=001|112=TEST|10=194|]
2014/05/05 10:27:17:872: FIXPump: Received data on connection {SBI0} [8=FIX.4.2|9=0239|35=8|57=test|34=148|49=SBI0|56=SLGM0|52=20140505-14:27:17|15=KRW|151=80786|55=KRW/USD|40=1|11=7530|31=8.734375|150=1|39=1|54=1|17=-991464289|32=1000|38=166786.66|21=3|60=20140505-14:27:17.871|6=15.877725290697674|20=0|14=86000|37=35067967|10=112|]
2014/05/05 10:27:22:872: FIXPump: Received data on connection {SBI0} [8=FIX.4.2|9=0238|35=8|57=test|34=149|49=SBI0|56=SLGM0|52=20140505-14:27:22|15=KRW|151=79786|55=KRW/USD|40=1|11=7530|31=9.28125|150=1|39=1|54=1|17=-991464288|32=1000|38=166786.66|21=3|60=20140505-14:27:22.871|6=15.801903735632184|20=0|14=87000|37=35067967|10=028|]
2014/05/05 10:27:27:873: FIXPump: Received data on connection {SBI0} [8=FIX.4.2|9=0236|35=8|57=test|34=150|49=SBI0|56=SLGM0|52=20140505-14:27:27|15=KRW|151=78786|55=KRW/USD|40=1|11=7530|31=9.625|150=1|39=1|54=1|17=-991464287|32=1000|38=166786.66|21=3|60=20140505-14:27:27.872|6=15.731711647727273|20=0|14=88000|37=35067967|10=188|]
2014/05/05 10:27:32:873: FIXPump: Received data on connection {SBI0} [8=FIX.4.2|9=0239|35=8|57=test|34=151|49=SBI0|56=SLGM0|52=20140505-14:27:32|15=KRW|151=77786|55=KRW/USD|40=1|11=7530|31=8.640625|150=1|39=1|54=1|17=-991464286|32=1000|38=166786.66|21=3|60=20140505-14:27:32.872|6=15.652036516853933|20=0|14=89000|37=35067967|10=080|]
2014/05/05 10:27:36:702: FIXPump: Received data on connection {AUTEX} [8=FIX.4.2|9=65|35=1|34=132|49=AUTEX|56=INDATA|52=20140505-14:25:39|112=HBTO-132|10=112|]
2014/05/05 10:27:37:875: FIXPump: Received data on connection {SBI0} [8=FIX.4.2|9=0239|35=8|57=test|34=152|49=SBI0|56=SLGM0|52=20140505-14:27:37|15=KRW|151=76786|55=KRW/USD|40=1|11=7530|31=9.171875|150=1|39=1|54=1|17=-991464285|32=1000|38=166786.66|21=3|60=20140505-14:27:37.873|6=15.580034722222223|20=0|14=90000|37=35067967|10=068|]
2014/05/05 10:27:42:874: FIXPump: Received data on connection {SBI0} [8=FIX.4.2|9=0240|35=8|57=test|34=153|49=SBI0|56=SLGM0|52=20140505-14:27:42|15=KRW|151=75786|55=KRW/USD|40=1|11=7530|31=10.515625|150=1|39=1|54=1|17=-991464284|32=1000|38=166786.66|21=3|60=20140505-14:27:42.873|6=15.524381868131869|20=0|14=91000|37=35067967|10=116|]
2014/05/05 10:27:47:875: FIXPump: Received data on connection {SBI0} [8=FIX.4.2|9=0240|35=8|57=test|34=154|49=SBI0|56=SLGM0|52=20140505-14:27:47|15=KRW|151=74786|55=KRW/USD|40=1|11=7530|31=11.171875|150=1|39=1|54=1|17=-991464283|32=1000|38=166786.66|21=3|60=20140505-14:27:47.874|6=15.477072010869565|20=0|14=92000|37=35067967|10=127|]
2014/05/05 10:27:52:875: FIXPump: Received data on connection {SBI0} [8=FIX.4.2|9=0239|35=8|57=test|34=155|49=SBI0|56=SLGM0|52=20140505-14:27:52|15=KRW|151=73786|55=KRW/USD|40=1|11=7530|31=12.59375|150=1|39=1|54=1|17=-991464282|32=1000|38=166786.66|21=3|60=20140505-14:27:52.874|6=15.446068548387096|20=0|14=93000|37=35067967|10=091|]
2014/05/05 10:27:57:876: FIXPump: Received data on connection {SBI0} [8=FIX.4.2|9=0240|35=8|57=test|34=156|49=SBI0|56=SLGM0|52=20140505-14:27:57|15=KRW|151=72786|55=KRW/USD|40=1|11=7530|31=13.859375|150=1|39=1|54=1|17=-991464281|32=1000|38=166786.66|21=3|60=20140505-14:27:57.875|6=15.429188829787234|20=0|14=94000|37=35067967|10=155|]
2014/05/05 10:27:59:919: FIXPump: Received data on connection {ITGIGDS} [8=FIX.4.2|9=76|35=1|34=108|49=ITGIGDS|56=INDATAGDS|52=20140505-14:26:03|112=20140505102603|10=156|]
2014/05/05 10:28:02:183: FIXPump: Received data on connection {BIDS} [8=FIX.4.2|9=81|35=1|34=39|49=BIDS|50=BIDS|52=20140505-14:26:05.404|56=INDATATL1|57=001|112=TEST|10=192|]
2014/05/05 10:28:02:910: FIXPump: Received data on connection {SBI0} [8=FIX.4.2|9=0240|35=8|57=test|34=157|49=SBI0|56=SLGM0|52=20140505-14:28:02|15=KRW|151=71786|55=KRW/USD|40=1|11=7530|31=14.671875|150=1|39=1|54=1|17=-991464280|32=1000|38=166786.66|21=3|60=20140505-14:28:02.909|6=15.421217105263159|20=0|14=95000|37=35067967|10=100|]
2014/05/05 10:28:07:910: FIXPump: Received data on connection {SBI0} [8=FIX.4.2|9=0235|35=8|57=test|34=158|49=SBI0|56=SLGM0|52=20140505-14:28:07|15=KRW|151=70786|55=KRW/USD|40=1|11=7530|31=13.65625|150=1|39=1|54=1|17=-991464279|32=1000|38=166786.66|21=3|60=20140505-14:28:07.909|6=15.40283203125|20=0|14=96000|37=35067967|10=109|]
2014/05/05 10:28:12:910: FIXPump: Received data on connection {SBI0} [8=FIX.4.2|9=0238|35=8|57=test|34=159|49=SBI0|56=SLGM0|52=20140505-14:28:12|15=KRW|151=69786|55=KRW/USD|40=1|11=7530|31=12.4375|150=1|39=1|54=1|17=-991464278|32=1000|38=166786.66|21=3|60=20140505-14:28:12.909|6=15.372261597938145|20=0|14=97000|37=35067967|10=037|]
2014/05/05 10:28:12:982: FIXPump: Received data on connection {AUTEX} [8=FIX.4.2|9=65|35=1|34=134|49=AUTEX|56=INDATA|52=20140505-14:26:16|112=HBTO-134|10=112|]
2014/05/05 10:28:13:085: FIXConnectionData: Sending data on connection {SBI0} [8=FIX.4.2|9=0174|35=D|50=test|34=7|49=SLGM0|56=SBI0|52=20140505-14:28:13|11=7531|64=20140509|21=3|55=KRW/USD|54=1|38=50.02|40=1|15=KRW|59=0|120=USD|60=20140505-14:28:12|78=1|79=0111|80=50.02|10=254|]
2014/05/05 10:28:17:912: FIXPump: Received data on connection {SBI0} [8=FIX.4.2|9=0239|35=8|57=test|34=160|49=SBI0|56=SLGM0|52=20140505-14:28:17|15=KRW|151=68786|55=KRW/USD|40=1|11=7530|31=12.640625|150=1|39=1|54=1|17=-991464277|32=1000|38=166786.66|21=3|60=20140505-14:28:17.910|6=15.34438775510204|20=0|14=98000|37=35067967|10=064|]
2014/05/05 10:28:17:912: FIXPump: Received data on connection {SBI0} [8=FIX.4.2|9=0208|35=8|57=test|34=161|49=SBI0|56=SLGM0|52=20140505-14:28:17|15=KRW|151=50.02|55=KRW/USD|40=1|11=7531|31=0.0|150=0|39=0|54=1|17=-990977377|32=0|38=50.02|21=3|60=20140505-14:28:17.910|6=0.0|20=0|14=0|37=35067968|10=202|]
2014/05/05 10:28:22:912: FIXPump: Received data on connection {SBI0} [8=FIX.4.2|9=0240|35=8|57=test|34=162|49=SBI0|56=SLGM0|52=20140505-14:28:22|15=KRW|151=67786|55=KRW/USD|40=1|11=7530|31=13.796875|150=1|39=1|54=1|17=-991464276|32=1000|38=166786.66|21=3|60=20140505-14:28:22.910|6=15.328756313131313|20=0|14=99000|37=35067967|10=114|]
2014/05/05 10:28:22:912: FIXPump: Received data on connection {SBI0} [8=FIX.4.2|9=0218|35=8|57=test|34=163|49=SBI0|56=SLGM0|52=20140505-14:28:22|15=KRW|151=0|55=KRW/USD|40=1|11=7531|31=14.546875|150=2|39=2|54=1|17=-990977376|32=50|38=50.02|21=3|60=20140505-14:28:22.910|6=14.546875|20=0|14=50|37=35067968|10=253|]
2014/05/05 10:28:27:914: FIXPump: Received data on connection {SBI0} [8=FIX.4.2|9=0231|35=8|57=test|34=164|49=SBI0|56=SLGM0|52=20140505-14:28:27|15=KRW|151=66786|55=KRW/USD|40=1|11=7530|31=14.078125|150=1|39=1|54=1|17=-991464275|32=1000|38=166786.66|21=3|60=20140505-14:28:27.911|6=15.31625|20=0|14=100000|37=35067967|10=137|]
2014/05/05 10:28:32:912: FIXPump: Received data on connection {SBI0} [8=FIX.4.2|9=0239|35=8|57=test|34=165|49=SBI0|56=SLGM0|52=20140505-14:28:32|15=KRW|151=65786|55=KRW/USD|40=1|11=7530|31=13.1875|150=1|39=1|54=1|17=-991464274|32=1000|38=166786.66|21=3|60=20140505-14:28:32.911|6=15.295173267326733|20=0|14=101000|37=35067967|10=055|]
2014/05/05 10:28:37:913: FIXPump: Received data on connection {SBI0} [8=FIX.4.2|9=0239|35=8|57=test|34=166|49=SBI0|56=SLGM0|52=20140505-14:28:37|15=KRW|151=64786|55=KRW/USD|40=1|11=7530|31=12.0625|150=1|39=1|54=1|17=-991464273|32=1000|38=166786.66|21=3|60=20140505-14:28:37.912|6=15.263480392156863|20=0|14=102000|37=35067967|10=057|]
2014/05/05 10:28:42:913: FIXPump: Received data on connection {SBI0} [8=FIX.4.2|9=0240|35=8|57=test|34=167|49=SBI0|56=SLGM0|52=20140505-14:28:42|15=KRW|151=63786|55=KRW/USD|40=1|11=7530|31=12.65625|150=1|39=1|54=1|17=-991464272|32=1000|38=166786.66|21=3|60=20140505-14:28:42.912|6=15.238167475728156|20=0|14=103000|37=35067967|10=106|]
2014/05/05 10:28:45:014: FIXPump: Received data on connection {ITGIGDS} [8=FIX.4.2|9=76|35=1|34=110|49=ITGIGDS|56=INDATAGDS|52=20140505-14:26:48|112=20140505102648|10=167|]
2014/05/05 10:28:47:914: FIXPump: Received data on connection {SBI0} [8=FIX.4.2|9=0241|35=8|57=test|34=168|49=SBI0|56=SLGM0|52=20140505-14:28:47|15=KRW|151=62786|55=KRW/USD|40=1|11=7530|31=13.109375|150=1|39=1|54=1|17=-991464271|32=1000|38=166786.66|21=3|60=20140505-14:28:47.913|6=15.217698317307692|20=0|14=104000|37=35067967|10=167|]
2014/05/05 10:28:48:188: FIXPump: Received data on connection {BIDS} [8=FIX.4.2|9=81|35=1|34=41|49=BIDS|50=BIDS|52=20140505-14:26:51.406|56=INDATATL1|57=001|112=TEST|10=188|]
2014/05/05 10:28:49:245: FIXPump: Received data on connection {AUTEX} [8=FIX.4.2|9=65|35=1|34=136|49=AUTEX|56=INDATA|52=20140505-14:26:52|112=HBTO-136|10=116|]
2014/05/05 10:28:52:915: FIXPump: Received data on connection {SBI0} [8=FIX.4.2|9=0240|35=8|57=test|34=169|49=SBI0|56=SLGM0|52=20140505-14:28:52|15=KRW|151=61786|55=KRW/USD|40=1|11=7530|31=12.53125|150=1|39=1|54=1|17=-991464270|32=1000|38=166786.66|21=3|60=20140505-14:28:52.913|6=15.192113095238096|20=0|14=105000|37=35067967|10=088|]
2014/05/05 10:28:57:916: FIXPump: Received data on connection {SBI0} [8=FIX.4.2|9=0241|35=8|57=test|34=170|49=SBI0|56=SLGM0|52=20140505-14:28:57|15=KRW|151=60786|55=KRW/USD|40=1|11=7530|31=13.390625|150=1|39=1|54=1|17=-991464269|32=1000|38=166786.66|21=3|60=20140505-14:28:57.914|6=15.175117924528301|20=0|14=106000|37=35067967|10=155|]
2014/05/05 10:29:02:949: FIXPump: Received data on connection {SBI0} [8=FIX.4.2|9=0241|35=8|57=test|34=171|49=SBI0|56=SLGM0|52=20140505-14:29:02|15=KRW|151=59786|55=KRW/USD|40=1|11=7530|31=12.953125|150=1|39=1|54=1|17=-991464268|32=1000|38=166786.66|21=3|60=20140505-14:29:02.948|6=15.154351635514018|20=0|14=107000|37=35067967|10=148|]
2014/05/05 10:29:07:950: FIXPump: Received data on connection {SBI0} [8=FIX.4.2|9=0240|35=8|57=test|34=172|49=SBI0|56=SLGM0|52=20140505-14:29:07|15=KRW|151=58786|55=KRW/USD|40=1|11=7530|31=13.03125|150=1|39=1|54=1|17=-991464267|32=1000|38=166786.66|21=3|60=20140505-14:29:07.949|6=15.134693287037036|20=0|14=108000|37=35067967|10=107|]
2014/05/05 10:29:12:951: FIXPump: Received data on connection {SBI0} [8=FIX.4.2|9=0236|35=8|57=test|34=173|49=SBI0|56=SLGM0|52=20140505-14:29:12|15=KRW|151=57786|55=KRW/USD|40=1|11=7530|31=13.25|150=1|39=1|54=1|17=-991464266|32=1000|38=166786.66|21=3|60=20140505-14:29:12.949|6=15.11740252293578|20=0|14=109000|37=35067967|10=158|]
2014/05/05 10:29:17:951: FIXPump: Received data on connection {SBI0} [8=FIX.4.2|9=0240|35=8|57=test|34=174|49=SBI0|56=SLGM0|52=20140505-14:29:17|15=KRW|151=56786|55=KRW/USD|40=1|11=7530|31=12.40625|150=1|39=1|54=1|17=-991464265|32=1000|38=166786.66|21=3|60=20140505-14:29:17.950|6=15.092755681818181|20=0|14=110000|37=35067967|10=105|]
2014/05/05 10:29:22:951: FIXPump: Received data on connection {SBI0} [8=FIX.4.2|9=0241|35=8|57=test|34=175|49=SBI0|56=SLGM0|52=20140505-14:29:22|15=KRW|151=55786|55=KRW/USD|40=1|11=7530|31=11.578125|150=1|39=1|54=1|17=-991464264|32=1000|38=166786.66|21=3|60=20140505-14:29:22.950|6=15.061092342342342|20=0|14=111000|37=35067967|10=131|]
2014/05/05 10:29:25:543: FIXPump: Received data on connection {AUTEX} [8=FIX.4.2|9=65|35=1|34=138|49=AUTEX|56=INDATA|52=20140505-14:27:28|112=HBTO-138|10=124|]
2014/05/05 10:29:27:952: FIXPump: Received data on connection {SBI0} [8=FIX.4.2|9=0240|35=8|57=test|34=176|49=SBI0|56=SLGM0|52=20140505-14:29:27|15=KRW|151=54786|55=KRW/USD|40=1|11=7530|31=12.34375|150=1|39=1|54=1|17=-991464263|32=1000|38=166786.66|21=3|60=20140505-14:29:27.951|6=15.036830357142858|20=0|14=112000|37=35067967|10=106|]
2014/05/05 10:29:29:872: FIXPump: Received data on connection {ITGIGDS} [8=FIX.4.2|9=76|35=1|34=112|49=ITGIGDS|56=INDATAGDS|52=20140505-14:27:33|112=20140505102733|10=159|]
2014/05/05 10:29:32:952: FIXPump: Received data on connection {SBI0} [8=FIX.4.2|9=0241|35=8|57=test|34=177|49=SBI0|56=SLGM0|52=20140505-14:29:32|15=KRW|151=53786|55=KRW/USD|40=1|11=7530|31=12.859375|150=1|39=1|54=1|17=-991464262|32=1000|38=166786.66|21=3|60=20140505-14:29:32.951|6=15.017560840707965|20=0|14=113000|37=35067967|10=164|]
2014/05/05 10:29:34:183: FIXPump: Received data on connection {BIDS} [8=FIX.4.2|9=81|35=1|34=43|49=BIDS|50=BIDS|52=20140505-14:27:37.400|56=INDATATL1|57=001|112=TEST|10=189|]
2014/05/05 10:29:37:953: FIXPump: Received data on connection {SBI0} [8=FIX.4.2|9=0239|35=8|57=test|34=178|49=SBI0|56=SLGM0|52=20140505-14:29:37|15=KRW|151=52786|55=KRW/USD|40=1|11=7530|31=12.9375|150=1|39=1|54=1|17=-991464261|32=1000|38=166786.66|21=3|60=20140505-14:29:37.952|6=14.999314692982455|20=0|14=114000|37=35067967|10=092|]
2014/05/05 10:29:42:953: FIXPump: Received data on connection {SBI0} [8=FIX.4.2|9=0240|35=8|57=test|34=179|49=SBI0|56=SLGM0|52=20140505-14:29:42|15=KRW|151=51786|55=KRW/USD|40=1|11=7530|31=12.859375|150=1|39=1|54=1|17=-991464260|32=1000|38=166786.66|21=3|60=20140505-14:29:42.952|6=14.98070652173913|20=0|14=115000|37=35067967|10=113|]
2014/05/05 10:29:47:954: FIXPump: Received data on connection {SBI0} [8=FIX.4.2|9=0241|35=8|57=test|34=180|49=SBI0|56=SLGM0|52=20140505-14:29:47|15=KRW|151=50786|55=KRW/USD|40=1|11=7530|31=13.984375|150=1|39=1|54=1|17=-991464259|32=1000|38=166786.66|21=3|60=20140505-14:29:47.953|6=14.972117456896552|20=0|14=116000|37=35067967|10=189|]
2014/05/05 10:29:52:954: FIXPump: Received data on connection {SBI0} [8=FIX.4.2|9=0237|35=8|57=test|34=181|49=SBI0|56=SLGM0|52=20140505-14:29:52|15=KRW|151=49786|55=KRW/USD|40=1|11=7530|31=14.75|150=1|39=1|54=1|17=-991464258|32=1000|38=166786.66|21=3|60=20140505-14:29:52.953|6=14.970219017094017|20=0|14=117000|37=35067967|10=216|]
2014/05/05 10:29:57:955: FIXPump: Received data on connection {SBI0} [8=FIX.4.2|9=0236|35=8|57=test|34=182|49=SBI0|56=SLGM0|52=20140505-14:29:57|15=KRW|151=48786|55=KRW/USD|40=1|11=7530|31=16.0|150=1|39=1|54=1|17=-991464257|32=1000|38=166786.66|21=3|60=20140505-14:29:57.954|6=14.978945974576272|20=0|14=118000|37=35067967|10=202|]
2014/05/05 10:30:01:829: FIXPump: Received data on connection {AUTEX} [8=FIX.4.2|9=65|35=1|34=140|49=AUTEX|56=INDATA|52=20140505-14:28:05|112=HBTO-140|10=106|]
2014/05/05 10:30:02:990: FIXPump: Received data on connection {SBI0} [8=FIX.4.2|9=0240|35=8|57=test|34=183|49=SBI0|56=SLGM0|52=20140505-14:30:02|15=KRW|151=47786|55=KRW/USD|40=1|11=7530|31=14.734375|150=1|39=1|54=1|17=-991464256|32=1000|38=166786.66|21=3|60=20140505-14:30:02.988|6=14.97689075630252|20=0|14=119000|37=35067967|10=109|]
2014/05/05 10:30:07:990: FIXPump: Received data on connection {SBI0} [8=FIX.4.2|9=0241|35=8|57=test|34=184|49=SBI0|56=SLGM0|52=20140505-14:30:07|15=KRW|151=46786|55=KRW/USD|40=1|11=7530|31=14.078125|150=1|39=1|54=1|17=-991464255|32=1000|38=166786.66|21=3|60=20140505-14:30:07.989|6=14.969401041666666|20=0|14=120000|37=35067967|10=155|]
2014/05/05 10:30:12:990: FIXPump: Received data on connection {SBI0} [8=FIX.4.2|9=0239|35=8|57=test|34=185|49=SBI0|56=SLGM0|52=20140505-14:30:12|15=KRW|151=45786|55=KRW/USD|40=1|11=7530|31=15.4375|150=1|39=1|54=1|17=-991464254|32=1000|38=166786.66|21=3|60=20140505-14:30:12.989|6=14.973269628099173|20=0|14=121000|37=35067967|10=066|]
2014/05/05 10:30:14:953: FIXPump: Received data on connection {ITGIGDS} [8=FIX.4.2|9=76|35=1|34=114|49=ITGIGDS|56=INDATAGDS|52=20140505-14:28:18|112=20140505102818|10=169|]
2014/05/05 10:30:17:991: FIXPump: Received data on connection {SBI0} [8=FIX.4.2|9=0239|35=8|57=test|34=186|49=SBI0|56=SLGM0|52=20140505-14:30:17|15=KRW|151=44786|55=KRW/USD|40=1|11=7530|31=16.5625|150=1|39=1|54=1|17=-991464253|32=1000|38=166786.66|21=3|60=20140505-14:30:17.990|6=14.986296106557377|20=0|14=122000|37=35067967|10=068|]
2014/05/05 10:30:20:193: FIXPump: Received data on connection {BIDS} [8=FIX.4.2|9=81|35=1|34=45|49=BIDS|50=BIDS|52=20140505-14:28:23.408|56=INDATATL1|57=001|112=TEST|10=195|]
2014/05/05 10:30:22:991: FIXPump: Received data on connection {SBI0} [8=FIX.4.2|9=0240|35=8|57=test|34=187|49=SBI0|56=SLGM0|52=20140505-14:30:22|15=KRW|151=43786|55=KRW/USD|40=1|11=7530|31=17.453125|150=1|39=1|54=1|17=-991464252|32=1000|38=166786.66|21=3|60=20140505-14:30:22.990|6=15.00635162601626|20=0|14=123000|37=35067967|10=067|]
2014/05/05 10:30:27:993: FIXPump: Received data on connection {SBI0} [8=FIX.4.2|9=0241|35=8|57=test|34=188|49=SBI0|56=SLGM0|52=20140505-14:30:27|15=KRW|151=42786|55=KRW/USD|40=1|11=7530|31=18.109375|150=1|39=1|54=1|17=-991464251|32=1000|38=166786.66|21=3|60=20140505-14:30:27.991|6=15.031376008064516|20=0|14=124000|37=35067967|10=139|]
2014/05/05 10:30:32:992: FIXPump: Received data on connection {SBI0} [8=FIX.4.2|9=0229|35=8|57=test|34=189|49=SBI0|56=SLGM0|52=20140505-14:30:32|15=KRW|151=41786|55=KRW/USD|40=1|11=7530|31=19.359375|150=1|39=1|54=1|17=-991464250|32=1000|38=166786.66|21=3|60=20140505-14:30:32.991|6=15.066|20=0|14=125000|37=35067967|10=043|]
2014/05/05 10:30:37:993: FIXPump: Received data on connection {SBI0} [8=FIX.4.2|9=0241|35=8|57=test|34=190|49=SBI0|56=SLGM0|52=20140505-14:30:37|15=KRW|151=40786|55=KRW/USD|40=1|11=7530|31=19.234375|150=1|39=1|54=1|17=-991464249|32=1000|38=166786.66|21=3|60=20140505-14:30:37.992|6=15.099082341269842|20=0|14=126000|37=35067967|10=159|]
2014/05/05 10:30:38:119: FIXPump: Received data on connection {AUTEX} [8=FIX.4.2|9=65|35=1|34=142|49=AUTEX|56=INDATA|52=20140505-14:28:41|112=HBTO-142|10=110|]
2014/05/05 10:30:42:993: FIXPump: Received data on connection {SBI0} [8=FIX.4.2|9=0240|35=8|57=test|34=191|49=SBI0|56=SLGM0|52=20140505-14:30:42|15=KRW|151=39786|55=KRW/USD|40=1|11=7530|31=20.46875|150=1|39=1|54=1|17=-991464248|32=1000|38=166786.66|21=3|60=20140505-14:30:42.992|6=15.141363188976378|20=0|14=127000|37=35067967|10=117|]
2014/05/05 10:30:47:994: FIXPump: Received data on connection {SBI0} [8=FIX.4.2|9=0238|35=8|57=test|34=192|49=SBI0|56=SLGM0|52=20140505-14:30:47|15=KRW|151=38786|55=KRW/USD|40=1|11=7530|31=19.53125|150=1|39=1|54=1|17=-991464247|32=1000|38=166786.66|21=3|60=20140505-14:30:47.993|6=15.1756591796875|20=0|14=128000|37=35067967|10=034|]
2014/05/05 10:30:52:995: FIXPump: Received data on connection {SBI0} [8=FIX.4.2|9=0241|35=8|57=test|34=193|49=SBI0|56=SLGM0|52=20140505-14:30:52|15=KRW|151=37786|55=KRW/USD|40=1|11=7530|31=21.015625|150=1|39=1|54=1|17=-991464246|32=1000|38=166786.66|21=3|60=20140505-14:30:52.993|6=15.220930232558139|20=0|14=129000|37=35067967|10=138|]
2014/05/05 10:30:57:995: FIXPump: Received data on connection {SBI0} [8=FIX.4.2|9=0239|35=8|57=test|34=194|49=SBI0|56=SLGM0|52=20140505-14:30:57|15=KRW|151=36786|55=KRW/USD|40=1|11=7530|31=20.4375|150=1|39=1|54=1|17=-991464245|32=1000|38=166786.66|21=3|60=20140505-14:30:57.994|6=15.261057692307693|20=0|14=130000|37=35067967|10=062|]
2014/05/05 10:30:59:878: FIXPump: Received data on connection {ITGIGDS} [8=FIX.4.2|9=76|35=1|34=116|49=ITGIGDS|56=INDATAGDS|52=20140505-14:29:03|112=20140505102903|10=161|]
2014/05/05 10:31:03:031: FIXPump: Received data on connection {SBI0} [8=FIX.4.2|9=0240|35=8|57=test|34=195|49=SBI0|56=SLGM0|52=20140505-14:31:03|15=KRW|151=35786|55=KRW/USD|40=1|11=7530|31=19.984375|150=1|39=1|54=1|17=-991464244|32=1000|38=166786.66|21=3|60=20140505-14:31:03.030|6=15.29711354961832|20=0|14=131000|37=35067967|10=087|]
2014/05/05 10:31:06:194: FIXPump: Received data on connection {BIDS} [8=FIX.4.2|9=81|35=1|34=47|49=BIDS|50=BIDS|52=20140505-14:29:09.410|56=INDATATL1|57=001|112=TEST|10=195|]
2014/05/05 10:31:08:031: FIXPump: Received data on connection {SBI0} [8=FIX.4.2|9=0241|35=8|57=test|34=196|49=SBI0|56=SLGM0|52=20140505-14:31:08|15=KRW|151=34786|55=KRW/USD|40=1|11=7530|31=20.765625|150=1|39=1|54=1|17=-991464243|32=1000|38=166786.66|21=3|60=20140505-14:31:08.030|6=15.338541666666666|20=0|14=132000|37=35067967|10=150|]
2014/05/05 10:31:13:031: FIXPump: Received data on connection {SBI0} [8=FIX.4.2|9=0241|35=8|57=test|34=197|49=SBI0|56=SLGM0|52=20140505-14:31:13|15=KRW|151=33786|55=KRW/USD|40=1|11=7530|31=19.546875|150=1|39=1|54=1|17=-991464242|32=1000|38=166786.66|21=3|60=20140505-14:31:13.030|6=15.370183270676693|20=0|14=133000|37=35067967|10=144|]
2014/05/05 10:31:14:397: FIXPump: Received data on connection {AUTEX} [8=FIX.4.2|9=65|35=1|34=144|49=AUTEX|56=INDATA|52=20140505-14:29:17|112=HBTO-144|10=118|]
2014/05/05 10:31:18:033: FIXPump: Received data on connection {SBI0} [8=FIX.4.2|9=0240|35=8|57=test|34=198|49=SBI0|56=SLGM0|52=20140505-14:31:18|15=KRW|151=32786|55=KRW/USD|40=1|11=7530|31=20.359375|150=1|39=1|54=1|17=-991464241|32=1000|38=166786.66|21=3|60=20140505-14:31:18.031|6=15.40741604477612|20=0|14=134000|37=35067967|10=080|]
2014/05/05 10:31:23:033: FIXPump: Received data on connection {SBI0} [8=FIX.4.2|9=0240|35=8|57=test|34=199|49=SBI0|56=SLGM0|52=20140505-14:31:23|15=KRW|151=31786|55=KRW/USD|40=1|11=7530|31=19.84375|150=1|39=1|54=1|17=-991464240|32=1000|38=166786.66|21=3|60=20140505-14:31:23.031|6=15.440277777777778|20=0|14=135000|37=35067967|10=110|]
2014/05/05 10:31:28:034: FIXPump: Received data on connection {SBI0} [8=FIX.4.2|9=0240|35=8|57=test|34=200|49=SBI0|56=SLGM0|52=20140505-14:31:28|15=KRW|151=30786|55=KRW/USD|40=1|11=7530|31=21.34375|150=1|39=1|54=1|17=-991464239|32=1000|38=166786.66|21=3|60=20140505-14:31:28.032|6=15.483685661764707|20=0|14=136000|37=35067967|10=090|]
2014/05/05 10:31:33:034: FIXPump: Received data on connection {SBI0} [8=FIX.4.2|9=0238|35=8|57=test|34=201|49=SBI0|56=SLGM0|52=20140505-14:31:33|15=KRW|151=29786|55=KRW/USD|40=1|11=7530|31=21.6875|150=1|39=1|54=1|17=-991464238|32=1000|38=166786.66|21=3|60=20140505-14:31:33.032|6=15.52896897810219|20=0|14=137000|37=35067967|10=003|]
2014/05/05 10:31:38:040: FIXPump: Received data on connection {SBI0} [8=FIX.4.2|9=0241|35=8|57=test|34=202|49=SBI0|56=SLGM0|52=20140505-14:31:38|15=KRW|151=28786|55=KRW/USD|40=1|11=7530|31=22.484375|150=1|39=1|54=1|17=-991464237|32=1000|38=166786.66|21=3|60=20140505-14:31:38.035|6=15.579370471014492|20=0|14=138000|37=35067967|10=148|]
