8=FIX.4.4|9=85|35=A|34=1|49=ELECTRONIFIE|52=20150910-22:57:53.572|56=NODEQUICKFIX|98=0|108=30|141=Y|10=059|8=FIX.4.4|9=164|35=D|34=2|49=ELECTRONIFIE|52=20150910-22:57:53.639|56=NODEQUICKFIX|11=0E0Z86K00000|22=1|38=200|40=2|48=06051GDX4|54=1|55=BAC|60=20150911-00:57:53.383|218=100|423=6|10=167|8=FIX.4.4|9=164|35=D|34=3|49=ELECTRONIFIE|52=20150910-22:57:53.661|56=NODEQUICKFIX|11=0E0Z86K00000|22=1|38=200|40=2|48=06051GDX4|54=1|55=BAC|60=20150911-00:57:53.383|218=100|423=6|10=163|8=FIX.4.4|9=164|35=D|34=4|49=ELECTRONIFIE|52=20150910-22:57:53.696|56=NODEQUICKFIX|11=0E0Z86K00000|22=1|38=200|40=2|48=06051GDX4|54=1|55=BAC|60=20150911-00:57:53.383|218=100|423=6|10=172|8=FIX.4.4|9=164|35=D|34=5|49=ELECTRONIFIE|52=20150910-22:57:53.710|56=NODEQUICKFIX|11=0E0Z86K00000|22=1|38=200|40=2|48=06051GDX4|54=1|55=BAC|60=20150911-00:57:53.383|218=100|423=6|10=160|8=FIX.4.4|9=164|35=D|34=6|49=ELECTRONIFIE|52=20150910-22:57:53.751|56=NODEQUICKFIX|11=0E0Z86K00000|22=1|38=200|40=2|48=06051GDX4|54=1|55=BAC|60=20150911-00:57:53.383|218=100|423=6|10=166|8=FIX.4.4|9=164|35=D|34=7|49=ELECTRONIFIE|52=20150910-22:57:53.769|56=NODEQUICKFIX|11=0E0Z86K00000|22=1|38=200|40=2|48=06051GDX4|54=1|55=BAC|60=20150911-00:57:53.383|218=100|423=6|10=176|