8=FIX.4.4|9=85|35=A|34=1|49=ELECTRONIFIE|52=20150909-01:21:39.827|56=NODEQUICKFIX|98=0|108=30|141=Y|10=062|8=FIX.4.4|9=164|35=D|34=2|49=ELECTRONIFIE|52=20150909-01:21:39.845|56=NODEQUICKFIX|11=0E0Z86K00000|22=1|38=200|40=2|48=06051GDX4|54=1|55=BAC|60=20150909-03:21:39.639|218=100|423=6|10=175|8=FIX.4.4|9=67|35=0|34=3|49=ELECTRONIFIE|52=20150909-01:22:09.856|56=NODEQUICKFIX|10=233|8=FIX.4.4|9=67|35=0|34=4|49=ELECTRONIFIE|52=20150909-01:22:39.883|56=NODEQUICKFIX|10=237|