8=FIX.4.4|9=85|35=A|34=1|49=NODEQUICKFIX|52=20150828-09:16:12.383|56=ELECTRONIFIE|98=0|108=30|141=Y|10=062|8=FIX.4.4|9=164|35=D|34=2|49=NODEQUICKFIX|52=20150828-09:16:22.293|56=ELECTRONIFIE|11=0E0Z86K00000|22=1|38=200|40=2|48=06051GDX4|54=1|55=BAC|60=20150828-11:16:12.209|218=100|423=6|10=163|