8=FIX.4.4|9=85|35=A|34=1|49=NODEQUICKFIX|52=20150829-21:15:34.337|56=ELECTRONIFIE|98=0|108=30|141=Y|10=059|8=FIX.4.4|9=164|35=D|34=2|49=NODEQUICKFIX|52=20150829-21:15:44.207|56=ELECTRONIFIE|11=0E0Z86K00000|22=1|38=200|40=2|48=06051GDX4|54=1|55=BAC|60=20150829-23:15:34.092|218=100|423=6|10=163|8=FIX.4.4|9=67|35=0|34=3|49=NODEQUICKFIX|52=20150829-21:16:14.236|56=ELECTRONIFIE|10=227|