8=FIX.4.4|9=85|35=A|34=1|49=ELECTRONIFIE|52=20150909-22:16:26.753|56=NODEQUICKFIX|98=0|108=30|141=Y|10=063|8=FIX.4.4|9=164|35=D|34=2|49=ELECTRONIFIE|52=20150909-22:16:26.820|56=NODEQUICKFIX|11=0E0Z86K00000|22=1|38=200|40=2|48=06051GDX4|54=1|55=BAC|60=20150910-00:16:26.567|218=100|423=6|10=160|