8=FIX.4.4|9=85|35=A|34=1|49=NODEQUICKFIX|52=20150828-09:43:58.006|56=ELECTRONIFIE|98=0|108=30|141=Y|10=064|8=FIX.4.4|9=164|35=D|34=2|49=NODEQUICKFIX|52=20150828-09:44:07.920|56=ELECTRONIFIE|11=0E0Z86K00000|22=1|38=200|40=2|48=06051GDX4|54=1|55=BAC|60=20150828-11:43:57.843|218=100|423=6|10=177|8=FIX.4.4|9=67|35=0|34=3|49=NODEQUICKFIX|52=20150828-09:44:37.047|56=ELECTRONIFIE|10=238|8=FIX.4.4|9=67|35=0|34=4|49=NODEQUICKFIX|52=20150828-09:45:07.080|56=ELECTRONIFIE|10=234|8=FIX.4.4|9=67|35=0|34=5|49=NODEQUICKFIX|52=20150828-09:45:37.114|56=ELECTRONIFIE|10=236|8=FIX.4.4|9=67|35=0|34=6|49=NODEQUICKFIX|52=20150828-09:46:07.147|56=ELECTRONIFIE|10=241|8=FIX.4.4|9=67|35=0|34=7|49=NODEQUICKFIX|52=20150828-09:46:37.180|56=ELECTRONIFIE|10=242|8=FIX.4.4|9=67|35=0|34=8|49=NODEQUICKFIX|52=20150828-09:47:07.211|56=ELECTRONIFIE|10=236|8=FIX.4.4|9=67|35=0|34=9|49=NODEQUICKFIX|52=20150828-09:47:37.245|56=ELECTRONIFIE|10=247|8=FIX.4.4|9=68|35=0|34=10|49=NODEQUICKFIX|52=20150828-09:48:07.278|56=ELECTRONIFIE|10=036|8=FIX.4.4|9=68|35=0|34=11|49=NODEQUICKFIX|52=20150828-09:48:37.311|56=ELECTRONIFIE|10=028|8=FIX.4.4|9=68|35=0|34=12|49=NODEQUICKFIX|52=20150828-09:49:07.344|56=ELECTRONIFIE|10=033|8=FIX.4.4|9=68|35=0|34=13|49=NODEQUICKFIX|52=20150828-09:49:37.377|56=ELECTRONIFIE|10=043|8=FIX.4.4|9=68|35=0|34=14|49=NODEQUICKFIX|52=20150828-09:50:07.409|56=ELECTRONIFIE|10=029|8=FIX.4.4|9=68|35=0|34=15|49=NODEQUICKFIX|52=20150828-09:50:37.442|56=ELECTRONIFIE|10=030|8=FIX.4.4|9=68|35=0|34=16|49=NODEQUICKFIX|52=20150828-09:51:07.475|56=ELECTRONIFIE|10=035|8=FIX.4.4|9=68|35=0|34=17|49=NODEQUICKFIX|52=20150828-09:51:37.509|56=ELECTRONIFIE|10=037|8=FIX.4.4|9=68|35=0|34=18|49=NODEQUICKFIX|52=20150828-09:52:07.542|56=ELECTRONIFIE|10=033|8=FIX.4.4|9=68|35=0|34=19|49=NODEQUICKFIX|52=20150828-09:52:37.575|56=ELECTRONIFIE|10=043|8=FIX.4.4|9=68|35=0|34=20|49=NODEQUICKFIX|52=20150828-09:53:07.608|56=ELECTRONIFIE|10=030|8=FIX.4.4|9=68|35=0|34=21|49=NODEQUICKFIX|52=20150828-09:53:37.642|56=ELECTRONIFIE|10=032|8=FIX.4.4|9=68|35=0|34=22|49=NODEQUICKFIX|52=20150828-09:54:07.675|56=ELECTRONIFIE|10=037|8=FIX.4.4|9=68|35=0|34=23|49=NODEQUICKFIX|52=20150828-09:54:37.709|56=ELECTRONIFIE|10=039|8=FIX.4.4|9=68|35=0|34=24|49=NODEQUICKFIX|52=20150828-09:55:07.741|56=ELECTRONIFIE|10=034|8=FIX.4.4|9=68|35=0|34=25|49=NODEQUICKFIX|52=20150828-09:55:37.775|56=ELECTRONIFIE|10=045|8=FIX.4.4|9=68|35=0|34=26|49=NODEQUICKFIX|52=20150828-09:56:07.808|56=ELECTRONIFIE|10=041|8=FIX.4.4|9=68|35=0|34=27|49=NODEQUICKFIX|52=20150828-09:56:37.842|56=ELECTRONIFIE|10=043|8=FIX.4.4|9=68|35=0|34=28|49=NODEQUICKFIX|52=20150828-09:57:07.875|56=ELECTRONIFIE|10=048|8=FIX.4.4|9=68|35=0|34=29|49=NODEQUICKFIX|52=20150828-09:57:37.908|56=ELECTRONIFIE|10=049|8=FIX.4.4|9=68|35=0|34=30|49=NODEQUICKFIX|52=20150828-09:58:07.940|56=ELECTRONIFIE|10=035|8=FIX.4.4|9=68|35=0|34=31|49=NODEQUICKFIX|52=20150828-09:58:37.973|56=ELECTRONIFIE|10=045|8=FIX.4.4|9=68|35=0|34=32|49=NODEQUICKFIX|52=20150828-09:59:07.004|56=ELECTRONIFIE|10=029|8=FIX.4.4|9=68|35=0|34=33|49=NODEQUICKFIX|52=20150828-09:59:37.037|56=ELECTRONIFIE|10=039|8=FIX.4.4|9=68|35=0|34=34|49=NODEQUICKFIX|52=20150828-10:00:07.070|56=ELECTRONIFIE|10=012|8=FIX.4.4|9=68|35=0|34=35|49=NODEQUICKFIX|52=20150828-10:00:37.102|56=ELECTRONIFIE|10=012|8=FIX.4.4|9=68|35=0|34=36|49=NODEQUICKFIX|52=20150828-10:01:07.135|56=ELECTRONIFIE|10=017|8=FIX.4.4|9=68|35=0|34=37|49=NODEQUICKFIX|52=20150828-10:01:37.169|56=ELECTRONIFIE|10=028|8=FIX.4.4|9=68|35=0|34=38|49=NODEQUICKFIX|52=20150828-10:02:07.190|56=ELECTRONIFIE|10=021|8=FIX.4.4|9=68|35=0|34=39|49=NODEQUICKFIX|52=20150828-10:02:37.224|56=ELECTRONIFIE|10=023|8=FIX.4.4|9=68|35=0|34=40|49=NODEQUICKFIX|52=20150828-10:03:07.257|56=ELECTRONIFIE|10=019|8=FIX.4.4|9=68|35=0|34=41|49=NODEQUICKFIX|52=20150828-10:03:37.291|56=ELECTRONIFIE|10=021|8=FIX.4.4|9=68|35=0|34=42|49=NODEQUICKFIX|52=20150828-10:04:07.324|56=ELECTRONIFIE|10=017|8=FIX.4.4|9=68|35=0|34=43|49=NODEQUICKFIX|52=20150828-10:04:37.357|56=ELECTRONIFIE|10=027|8=FIX.4.4|9=68|35=0|34=44|49=NODEQUICKFIX|52=20150828-10:05:07.388|56=ELECTRONIFIE|10=030|8=FIX.4.4|9=68|35=0|34=45|49=NODEQUICKFIX|52=20150828-10:05:37.422|56=ELECTRONIFIE|10=023|8=FIX.4.4|9=68|35=0|34=46|49=NODEQUICKFIX|52=20150828-10:06:07.454|56=ELECTRONIFIE|10=027|8=FIX.4.4|9=68|35=0|34=47|49=NODEQUICKFIX|52=20150828-10:06:37.487|56=ELECTRONIFIE|10=037|8=FIX.4.4|9=68|35=0|34=48|49=NODEQUICKFIX|52=20150828-10:07:07.520|56=ELECTRONIFIE|10=024|8=FIX.4.4|9=68|35=0|34=49|49=NODEQUICKFIX|52=20150828-10:07:37.553|56=ELECTRONIFIE|10=034|8=FIX.4.4|9=68|35=0|34=50|49=NODEQUICKFIX|52=20150828-10:08:07.587|56=ELECTRONIFIE|10=031|8=FIX.4.4|9=68|35=0|34=51|49=NODEQUICKFIX|52=20150828-10:08:37.619|56=ELECTRONIFIE|10=031|8=FIX.4.4|9=68|35=0|34=52|49=NODEQUICKFIX|52=20150828-10:09:07.653|56=ELECTRONIFIE|10=028|8=FIX.4.4|9=68|35=0|34=53|49=NODEQUICKFIX|52=20150828-10:09:37.685|56=ELECTRONIFIE|10=037|8=FIX.4.4|9=68|35=0|34=54|49=NODEQUICKFIX|52=20150828-10:10:07.719|56=ELECTRONIFIE|10=025|8=FIX.4.4|9=68|35=0|34=55|49=NODEQUICKFIX|52=20150828-10:10:37.752|56=ELECTRONIFIE|10=026|8=FIX.4.4|9=68|35=0|34=56|49=NODEQUICKFIX|52=20150828-10:11:07.784|56=ELECTRONIFIE|10=030|8=FIX.4.4|9=68|35=0|34=57|49=NODEQUICKFIX|52=20150828-10:11:37.817|56=ELECTRONIFIE|10=031|8=FIX.4.4|9=68|35=0|34=58|49=NODEQUICKFIX|52=20150828-10:12:07.851|56=ELECTRONIFIE|10=028|8=FIX.4.4|9=68|35=0|34=59|49=NODEQUICKFIX|52=20150828-10:12:37.885|56=ELECTRONIFIE|10=039|8=FIX.4.4|9=68|35=0|34=60|49=NODEQUICKFIX|52=20150828-10:13:07.918|56=ELECTRONIFIE|10=026|8=FIX.4.4|9=68|35=0|34=61|49=NODEQUICKFIX|52=20150828-10:13:37.951|56=ELECTRONIFIE|10=027|8=FIX.4.4|9=68|35=0|34=62|49=NODEQUICKFIX|52=20150828-10:14:07.985|56=ELECTRONIFIE|10=033|8=FIX.4.4|9=68|35=0|34=63|49=NODEQUICKFIX|52=20150828-10:14:37.017|56=ELECTRONIFIE|10=023|8=FIX.4.4|9=68|35=0|34=64|49=NODEQUICKFIX|52=20150828-10:15:07.050|56=ELECTRONIFIE|10=019|8=FIX.4.4|9=68|35=0|34=65|49=NODEQUICKFIX|52=20150828-10:15:37.083|56=ELECTRONIFIE|10=029|8=FIX.4.4|9=68|35=0|34=66|49=NODEQUICKFIX|52=20150828-10:16:07.116|56=ELECTRONIFIE|10=025|8=FIX.4.4|9=68|35=0|34=67|49=NODEQUICKFIX|52=20150828-10:16:37.150|56=ELECTRONIFIE|10=027|8=FIX.4.4|9=68|35=0|34=68|49=NODEQUICKFIX|52=20150828-10:17:07.183|56=ELECTRONIFIE|10=032|8=FIX.4.4|9=68|35=0|34=69|49=NODEQUICKFIX|52=20150828-10:17:37.215|56=ELECTRONIFIE|10=032|8=FIX.4.4|9=68|35=0|34=70|49=NODEQUICKFIX|52=20150828-10:18:07.249|56=ELECTRONIFIE|10=029|8=FIX.4.4|9=68|35=0|34=71|49=NODEQUICKFIX|52=20150828-10:18:37.281|56=ELECTRONIFIE|10=029|8=FIX.4.4|9=68|35=0|34=72|49=NODEQUICKFIX|52=20150828-10:19:07.315|56=ELECTRONIFIE|10=026|8=FIX.4.4|9=68|35=0|34=73|49=NODEQUICKFIX|52=20150828-10:19:37.347|56=ELECTRONIFIE|10=035|8=FIX.4.4|9=68|35=0|34=74|49=NODEQUICKFIX|52=20150828-10:20:07.380|56=ELECTRONIFIE|10=022|8=FIX.4.4|9=68|35=0|34=75|49=NODEQUICKFIX|52=20150828-10:20:37.411|56=ELECTRONIFIE|10=021|8=FIX.4.4|9=68|35=0|34=76|49=NODEQUICKFIX|52=20150828-10:21:07.443|56=ELECTRONIFIE|10=025|8=FIX.4.4|9=68|35=0|34=77|49=NODEQUICKFIX|52=20150828-10:21:37.477|56=ELECTRONIFIE|10=036|8=FIX.4.4|9=68|35=0|34=78|49=NODEQUICKFIX|52=20150828-10:22:07.510|56=ELECTRONIFIE|10=023|8=FIX.4.4|9=68|35=0|34=79|49=NODEQUICKFIX|52=20150828-10:22:37.542|56=ELECTRONIFIE|10=032|8=FIX.4.4|9=68|35=0|34=80|49=NODEQUICKFIX|52=20150828-10:23:07.576|56=ELECTRONIFIE|10=029|8=FIX.4.4|9=68|35=0|34=81|49=NODEQUICKFIX|52=20150828-10:23:37.609|56=ELECTRONIFIE|10=030|8=FIX.4.4|9=68|35=0|34=82|49=NODEQUICKFIX|52=20150828-10:24:07.642|56=ELECTRONIFIE|10=026|8=FIX.4.4|9=68|35=0|34=83|49=NODEQUICKFIX|52=20150828-10:24:37.675|56=ELECTRONIFIE|10=036|8=FIX.4.4|9=68|35=0|34=84|49=NODEQUICKFIX|52=20150828-10:25:07.708|56=ELECTRONIFIE|10=032|8=FIX.4.4|9=68|35=0|34=85|49=NODEQUICKFIX|52=20150828-10:25:37.742|56=ELECTRONIFIE|10=034|8=FIX.4.4|9=68|35=0|34=86|49=NODEQUICKFIX|52=20150828-10:26:07.775|56=ELECTRONIFIE|10=039|8=FIX.4.4|9=68|35=0|34=87|49=NODEQUICKFIX|52=20150828-10:26:37.808|56=ELECTRONIFIE|10=040|8=FIX.4.4|9=68|35=0|34=88|49=NODEQUICKFIX|52=20150828-10:27:07.840|56=ELECTRONIFIE|10=035|8=FIX.4.4|9=68|35=0|34=89|49=NODEQUICKFIX|52=20150828-10:27:37.874|56=ELECTRONIFIE|10=046|8=FIX.4.4|9=68|35=0|34=90|49=NODEQUICKFIX|52=20150828-10:28:07.908|56=ELECTRONIFIE|10=034|8=FIX.4.4|9=68|35=0|34=91|49=NODEQUICKFIX|52=20150828-10:28:37.940|56=ELECTRONIFIE|10=034|8=FIX.4.4|9=68|35=0|34=92|49=NODEQUICKFIX|52=20150828-10:29:07.974|56=ELECTRONIFIE|10=040|