8=FIX.4.4|9=85|35=A|34=1|49=ELECTRONIFIE|52=20150827-19:58:44.918|56=NODEQUICKFIX|98=0|108=30|141=Y|10=077|8=FIX.4.4|9=164|35=D|34=2|49=ELECTRONIFIE|52=20150827-19:58:49.926|56=NODEQUICKFIX|11=0E0Z86K00000|22=1|38=200|40=2|48=06051GDX4|54=1|55=BAC|60=20150827-21:58:44.916|218=100|423=6|10=197|