8=FIX.4.4|9=85|35=A|34=1|49=NODEQUICKFIX|52=20150909-01:21:39.826|56=ELECTRONIFIE|98=0|108=30|141=Y|10=061|8=FIX.4.4|9=67|35=0|34=2|49=NODEQUICKFIX|52=20150909-01:22:09.856|56=ELECTRONIFIE|10=232|8=FIX.4.4|9=67|35=0|34=3|49=NODEQUICKFIX|52=20150909-01:22:39.883|56=ELECTRONIFIE|10=236|