8=FIX.4.4|9=85|35=A|34=1|49=NODEQUICKFIX|52=20150904-22:52:20.632|56=ELECTRONIFIE|98=0|108=30|141=Y|10=048|