8=FIX.4.4|9=85|35=A|34=1|49=ELECTRONIFIE|52=20150828-09:43:58.007|56=NODEQUICKFIX|98=0|108=30|141=Y|10=065|8=FIX.4.4|9=164|35=D|34=2|49=ELECTRONIFIE|52=20150828-09:44:07.908|56=NODEQUICKFIX|11=0E0Z86K00000|22=1|38=200|40=2|48=06051GDX4|54=1|55=BAC|60=20150828-11:43:57.842|218=100|423=6|10=182|8=FIX.4.4|9=67|35=0|34=3|49=ELECTRONIFIE|52=20150828-09:44:37.048|56=NODEQUICKFIX|10=239|8=FIX.4.4|9=67|35=0|34=4|49=ELECTRONIFIE|52=20150828-09:45:07.081|56=NODEQUICKFIX|10=235|8=FIX.4.4|9=67|35=0|34=5|49=ELECTRONIFIE|52=20150828-09:45:37.113|56=NODEQUICKFIX|10=235|8=FIX.4.4|9=67|35=0|34=6|49=ELECTRONIFIE|52=20150828-09:46:07.147|56=NODEQUICKFIX|10=241|8=FIX.4.4|9=67|35=0|34=7|49=ELECTRONIFIE|52=20150828-09:46:37.180|56=NODEQUICKFIX|10=242|8=FIX.4.4|9=67|35=0|34=8|49=ELECTRONIFIE|52=20150828-09:47:07.211|56=NODEQUICKFIX|10=236|8=FIX.4.4|9=67|35=0|34=9|49=ELECTRONIFIE|52=20150828-09:47:37.244|56=NODEQUICKFIX|10=246|8=FIX.4.4|9=68|35=0|34=10|49=ELECTRONIFIE|52=20150828-09:48:07.278|56=NODEQUICKFIX|10=036|8=FIX.4.4|9=68|35=0|34=11|49=ELECTRONIFIE|52=20150828-09:48:37.311|56=NODEQUICKFIX|10=028|8=FIX.4.4|9=68|35=0|34=12|49=ELECTRONIFIE|52=20150828-09:49:07.344|56=NODEQUICKFIX|10=033|8=FIX.4.4|9=68|35=0|34=13|49=ELECTRONIFIE|52=20150828-09:49:37.377|56=NODEQUICKFIX|10=043|8=FIX.4.4|9=68|35=0|34=14|49=ELECTRONIFIE|52=20150828-09:50:07.409|56=NODEQUICKFIX|10=029|8=FIX.4.4|9=68|35=0|34=15|49=ELECTRONIFIE|52=20150828-09:50:37.442|56=NODEQUICKFIX|10=030|8=FIX.4.4|9=68|35=0|34=16|49=ELECTRONIFIE|52=20150828-09:51:07.475|56=NODEQUICKFIX|10=035|8=FIX.4.4|9=68|35=0|34=17|49=ELECTRONIFIE|52=20150828-09:51:37.509|56=NODEQUICKFIX|10=037|8=FIX.4.4|9=68|35=0|34=18|49=ELECTRONIFIE|52=20150828-09:52:07.542|56=NODEQUICKFIX|10=033|8=FIX.4.4|9=68|35=0|34=19|49=ELECTRONIFIE|52=20150828-09:52:37.575|56=NODEQUICKFIX|10=043|8=FIX.4.4|9=68|35=0|34=20|49=ELECTRONIFIE|52=20150828-09:53:07.608|56=NODEQUICKFIX|10=030|8=FIX.4.4|9=68|35=0|34=21|49=ELECTRONIFIE|52=20150828-09:53:37.642|56=NODEQUICKFIX|10=032|8=FIX.4.4|9=68|35=0|34=22|49=ELECTRONIFIE|52=20150828-09:54:07.675|56=NODEQUICKFIX|10=037|8=FIX.4.4|9=68|35=0|34=23|49=ELECTRONIFIE|52=20150828-09:54:37.709|56=NODEQUICKFIX|10=039|8=FIX.4.4|9=68|35=0|34=24|49=ELECTRONIFIE|52=20150828-09:55:07.741|56=NODEQUICKFIX|10=034|8=FIX.4.4|9=68|35=0|34=25|49=ELECTRONIFIE|52=20150828-09:55:37.775|56=NODEQUICKFIX|10=045|8=FIX.4.4|9=68|35=0|34=26|49=ELECTRONIFIE|52=20150828-09:56:07.808|56=NODEQUICKFIX|10=041|8=FIX.4.4|9=68|35=0|34=27|49=ELECTRONIFIE|52=20150828-09:56:37.841|56=NODEQUICKFIX|10=042|8=FIX.4.4|9=68|35=0|34=28|49=ELECTRONIFIE|52=20150828-09:57:07.874|56=NODEQUICKFIX|10=047|8=FIX.4.4|9=68|35=0|34=29|49=ELECTRONIFIE|52=20150828-09:57:37.908|56=NODEQUICKFIX|10=049|8=FIX.4.4|9=68|35=0|34=30|49=ELECTRONIFIE|52=20150828-09:58:07.940|56=NODEQUICKFIX|10=035|8=FIX.4.4|9=68|35=0|34=31|49=ELECTRONIFIE|52=20150828-09:58:37.973|56=NODEQUICKFIX|10=045|8=FIX.4.4|9=68|35=0|34=32|49=ELECTRONIFIE|52=20150828-09:59:07.005|56=NODEQUICKFIX|10=030|8=FIX.4.4|9=68|35=0|34=33|49=ELECTRONIFIE|52=20150828-09:59:37.037|56=NODEQUICKFIX|10=039|8=FIX.4.4|9=68|35=0|34=34|49=ELECTRONIFIE|52=20150828-10:00:07.070|56=NODEQUICKFIX|10=012|8=FIX.4.4|9=68|35=0|34=35|49=ELECTRONIFIE|52=20150828-10:00:37.101|56=NODEQUICKFIX|10=011|8=FIX.4.4|9=68|35=0|34=36|49=ELECTRONIFIE|52=20150828-10:01:07.135|56=NODEQUICKFIX|10=017|8=FIX.4.4|9=68|35=0|34=37|49=ELECTRONIFIE|52=20150828-10:01:37.169|56=NODEQUICKFIX|10=028|8=FIX.4.4|9=68|35=0|34=38|49=ELECTRONIFIE|52=20150828-10:02:07.190|56=NODEQUICKFIX|10=021|8=FIX.4.4|9=68|35=0|34=39|49=ELECTRONIFIE|52=20150828-10:02:37.224|56=NODEQUICKFIX|10=023|8=FIX.4.4|9=68|35=0|34=40|49=ELECTRONIFIE|52=20150828-10:03:07.257|56=NODEQUICKFIX|10=019|8=FIX.4.4|9=68|35=0|34=41|49=ELECTRONIFIE|52=20150828-10:03:37.290|56=NODEQUICKFIX|10=020|8=FIX.4.4|9=68|35=0|34=42|49=ELECTRONIFIE|52=20150828-10:04:07.324|56=NODEQUICKFIX|10=017|8=FIX.4.4|9=68|35=0|34=43|49=ELECTRONIFIE|52=20150828-10:04:37.357|56=NODEQUICKFIX|10=027|8=FIX.4.4|9=68|35=0|34=44|49=ELECTRONIFIE|52=20150828-10:05:07.389|56=NODEQUICKFIX|10=031|8=FIX.4.4|9=68|35=0|34=45|49=ELECTRONIFIE|52=20150828-10:05:37.422|56=NODEQUICKFIX|10=023|8=FIX.4.4|9=68|35=0|34=46|49=ELECTRONIFIE|52=20150828-10:06:07.454|56=NODEQUICKFIX|10=027|8=FIX.4.4|9=68|35=0|34=47|49=ELECTRONIFIE|52=20150828-10:06:37.487|56=NODEQUICKFIX|10=037|8=FIX.4.4|9=68|35=0|34=48|49=ELECTRONIFIE|52=20150828-10:07:07.520|56=NODEQUICKFIX|10=024|8=FIX.4.4|9=68|35=0|34=49|49=ELECTRONIFIE|52=20150828-10:07:37.553|56=NODEQUICKFIX|10=034|8=FIX.4.4|9=68|35=0|34=50|49=ELECTRONIFIE|52=20150828-10:08:07.587|56=NODEQUICKFIX|10=031|8=FIX.4.4|9=68|35=0|34=51|49=ELECTRONIFIE|52=20150828-10:08:37.620|56=NODEQUICKFIX|10=023|8=FIX.4.4|9=68|35=0|34=52|49=ELECTRONIFIE|52=20150828-10:09:07.653|56=NODEQUICKFIX|10=028|8=FIX.4.4|9=68|35=0|34=53|49=ELECTRONIFIE|52=20150828-10:09:37.685|56=NODEQUICKFIX|10=037|8=FIX.4.4|9=68|35=0|34=54|49=ELECTRONIFIE|52=20150828-10:10:07.719|56=NODEQUICKFIX|10=025|8=FIX.4.4|9=68|35=0|34=55|49=ELECTRONIFIE|52=20150828-10:10:37.751|56=NODEQUICKFIX|10=025|8=FIX.4.4|9=68|35=0|34=56|49=ELECTRONIFIE|52=20150828-10:11:07.785|56=NODEQUICKFIX|10=031|8=FIX.4.4|9=68|35=0|34=57|49=ELECTRONIFIE|52=20150828-10:11:37.817|56=NODEQUICKFIX|10=031|8=FIX.4.4|9=68|35=0|34=58|49=ELECTRONIFIE|52=20150828-10:12:07.851|56=NODEQUICKFIX|10=028|8=FIX.4.4|9=68|35=0|34=59|49=ELECTRONIFIE|52=20150828-10:12:37.885|56=NODEQUICKFIX|10=039|8=FIX.4.4|9=68|35=0|34=60|49=ELECTRONIFIE|52=20150828-10:13:07.918|56=NODEQUICKFIX|10=026|8=FIX.4.4|9=68|35=0|34=61|49=ELECTRONIFIE|52=20150828-10:13:37.951|56=NODEQUICKFIX|10=027|8=FIX.4.4|9=68|35=0|34=62|49=ELECTRONIFIE|52=20150828-10:14:07.985|56=NODEQUICKFIX|10=033|8=FIX.4.4|9=68|35=0|34=63|49=ELECTRONIFIE|52=20150828-10:14:37.017|56=NODEQUICKFIX|10=023|8=FIX.4.4|9=68|35=0|34=64|49=ELECTRONIFIE|52=20150828-10:15:07.049|56=NODEQUICKFIX|10=027|8=FIX.4.4|9=68|35=0|34=65|49=ELECTRONIFIE|52=20150828-10:15:37.083|56=NODEQUICKFIX|10=029|8=FIX.4.4|9=68|35=0|34=66|49=ELECTRONIFIE|52=20150828-10:16:07.116|56=NODEQUICKFIX|10=025|8=FIX.4.4|9=68|35=0|34=67|49=ELECTRONIFIE|52=20150828-10:16:37.150|56=NODEQUICKFIX|10=027|8=FIX.4.4|9=68|35=0|34=68|49=ELECTRONIFIE|52=20150828-10:17:07.183|56=NODEQUICKFIX|10=032|8=FIX.4.4|9=68|35=0|34=69|49=ELECTRONIFIE|52=20150828-10:17:37.216|56=NODEQUICKFIX|10=033|8=FIX.4.4|9=68|35=0|34=70|49=ELECTRONIFIE|52=20150828-10:18:07.248|56=NODEQUICKFIX|10=028|8=FIX.4.4|9=68|35=0|34=71|49=ELECTRONIFIE|52=20150828-10:18:37.281|56=NODEQUICKFIX|10=029|8=FIX.4.4|9=68|35=0|34=72|49=ELECTRONIFIE|52=20150828-10:19:07.315|56=NODEQUICKFIX|10=026|8=FIX.4.4|9=68|35=0|34=73|49=ELECTRONIFIE|52=20150828-10:19:37.348|56=NODEQUICKFIX|10=036|8=FIX.4.4|9=68|35=0|34=74|49=ELECTRONIFIE|52=20150828-10:20:07.381|56=NODEQUICKFIX|10=023|8=FIX.4.4|9=68|35=0|34=75|49=ELECTRONIFIE|52=20150828-10:20:37.411|56=NODEQUICKFIX|10=021|8=FIX.4.4|9=68|35=0|34=76|49=ELECTRONIFIE|52=20150828-10:21:07.443|56=NODEQUICKFIX|10=025|8=FIX.4.4|9=68|35=0|34=77|49=ELECTRONIFIE|52=20150828-10:21:37.476|56=NODEQUICKFIX|10=035|8=FIX.4.4|9=68|35=0|34=78|49=ELECTRONIFIE|52=20150828-10:22:07.510|56=NODEQUICKFIX|10=023|8=FIX.4.4|9=68|35=0|34=79|49=ELECTRONIFIE|52=20150828-10:22:37.543|56=NODEQUICKFIX|10=033|8=FIX.4.4|9=68|35=0|34=80|49=ELECTRONIFIE|52=20150828-10:23:07.576|56=NODEQUICKFIX|10=029|8=FIX.4.4|9=68|35=0|34=81|49=ELECTRONIFIE|52=20150828-10:23:37.609|56=NODEQUICKFIX|10=030|8=FIX.4.4|9=68|35=0|34=82|49=ELECTRONIFIE|52=20150828-10:24:07.642|56=NODEQUICKFIX|10=026|8=FIX.4.4|9=68|35=0|34=83|49=ELECTRONIFIE|52=20150828-10:24:37.675|56=NODEQUICKFIX|10=036|8=FIX.4.4|9=68|35=0|34=84|49=ELECTRONIFIE|52=20150828-10:25:07.708|56=NODEQUICKFIX|10=032|8=FIX.4.4|9=68|35=0|34=85|49=ELECTRONIFIE|52=20150828-10:25:37.742|56=NODEQUICKFIX|10=034|8=FIX.4.4|9=68|35=0|34=86|49=ELECTRONIFIE|52=20150828-10:26:07.775|56=NODEQUICKFIX|10=039|8=FIX.4.4|9=68|35=0|34=87|49=ELECTRONIFIE|52=20150828-10:26:37.809|56=NODEQUICKFIX|10=041|8=FIX.4.4|9=68|35=0|34=88|49=ELECTRONIFIE|52=20150828-10:27:07.841|56=NODEQUICKFIX|10=036|8=FIX.4.4|9=68|35=0|34=89|49=ELECTRONIFIE|52=20150828-10:27:37.874|56=NODEQUICKFIX|10=046|8=FIX.4.4|9=68|35=0|34=90|49=ELECTRONIFIE|52=20150828-10:28:07.908|56=NODEQUICKFIX|10=034|8=FIX.4.4|9=68|35=0|34=91|49=ELECTRONIFIE|52=20150828-10:28:37.940|56=NODEQUICKFIX|10=034|8=FIX.4.4|9=68|35=0|34=92|49=ELECTRONIFIE|52=20150828-10:29:07.974|56=NODEQUICKFIX|10=040|