8=FIX.4.4|9=85|35=A|34=1|49=NODEQUICKFIX|52=20150822-22:32:14.509|56=ELECTRONIFIE|98=0|108=30|141=Y|10=051|8=FIX.4.4|9=164|35=D|34=2|49=NODEQUICKFIX|52=20150822-22:32:14.707|56=ELECTRONIFIE|11=0E0Z86K00000|22=1|38=200|40=2|48=06051GDX4|54=1|55=BAC|60=20150823-00:32:14.591|218=100|423=6|10=148|